:020000021000EC
:10F0000000000120F1510200195202001B520200BF
:10F010001D5202001F520200215202000000000097
:10F020000000000000000000000000002352020069
:10F03000255202000000000027520200295202005F
:10F04000550E02002B520200312A0200012002005C
:10F05000D52102002B520200A11202002B52020005
:10F060002B5202002B5202002B5202002B520200A4
:10F070002B5202002B5202002B5202002B52020094
:10F080002B520200090002002B5202002B520200F8
:10F09000CD0002002B5202005D5902002B520200EB
:10F0A0002B5202002B5202002B5202002B52020064
:10F0B0002B5202002B520200000000000000000052
:10F0C0002B5202002B5202002B5202002B52020044
:10F0D0002B5202002B5202002B52020000000000B3
:10F0E0000000000000000000000000000000000020
:10F0F0000000000000000000000000000000000010
:10F1000000000000000000000000000000000000FF
:10F1100000000000000000000000000000000000EF
:10F4000010B5054C237833B9044B13B10448AFF35E
:10F4100000800123237010BDB421002000000000F3
:10F4200028790200084B10B51BB108490848AFF312
:10F4300000800848036803B910BD074B002BFBD0C0
:10F44000BDE81040184700BF00000000B8210020B0
:10F4500028790200B021002000000000154B002B8D
:10F4600008BF134B9D46A3F5803A00218B460F46FB
:10F470001348144A121A00F065F80F4B002B00D005
:10F4800098470E4B002B00D0984700200021040025
:10F490000D000D48002802D00C48AFF3008000F0AA
:10F4A0002BF82000290004F0C1FB00F011F800BF88
:10F4B0000000080000000120000000000000000023
:10F4C000B4210020C42F0020000000000000000034
:10F4D00008B5074B044613B10021AFF30080054B7C
:10F4E0001868836A03B19847204600F033F800BFDC
:10F4F00000000000BC71020070B50E4B0E4CE41A07
:10F50000A41000251E46A54204D056F82530984781
:10F510000135F8E707F044FE084C094BE41AA41043
:10F5200000251E46A54204D056F8253098470135DF
:10F53000F8E770BDA8210020A8210020AC21002000
:10F54000A821002002440346934202D003F8011B85
:10F55000FAE77047FEE700BFF0B51746C7B01C4694
:10F56000B9B106AE0B68604A30464FF4807107F0BF
:10F5700071F900280ADB4C9B0546062B00F2B2808D
:10F58000DFE803F012323B4653637500002047B0BA
:10F59000F0BD4C9B062B00F2A380DFE803F0048B48
:10F5A00090957C8186000025384607F0B1F9431913
:10F5B000FF2B044640F28D80002CE7DB2C44B4F591
:10F5C000807FE3D80A27002506AE22467119002065
:10F5D00004F08CFC0544241A08B9013F01D0002C2A
:10F5E000F3D1012047B0F0BDC0F5807123683A46E1
:10F5F000701907F02FF90446DEE7C0F580716268E4
:10F600002368009270193A4607F024F90446D3E7BC
:10F61000C0F58071A2682368646800940192701933
:10F620003A4607F017F90446C6E7C0F58071E2686C
:10F630002368D4F808E0646802928DE810403A46E6
:10F64000701907F007F90446B6E7C0F58071206924
:10F65000E26823680390D4F808E0646802928DE8B9
:10F6600010403A46701907F0F5F80446A4E7C0F5D3
:10F6700080716269206923680492E2680390D4F87B
:10F6800008E0646802928DE810403A46701907F06D
:10F69000E1F8044690E74FF48071002506AEC6E716
:10F6A0004FF48071002506AED1E74FF4807100253C
:10F6B00006AEDEE74FF48071002506AE96E74FF404
:10F6C0008071002506AE9AE74FF48071002506AEE2
:10F6D000A0E706AE39467019224607F0AFF86BE78F
:10F6E00000246FE7002469E7C07102002DE9F04FA4
:10F6F0001546C5B01C46002900F01B81002B00F008
:10F70000FA800A2301930023194604AE4F9B519AB5
:10F71000202503EB020B8A461F4601980AEB0003E3
:10F720000293313306EB030806EB0A03002861D08D
:10F730005A4202F00302824228BF0246062800F223
:10F74000D1800246012A06F80A5003F1010100F0B7
:10F75000C780022A5D7003F1020100F0C180032A14
:10F760009D7003F1030100F0BB80042ADD7003F1FA
:10F77000040100F0B580062A1D7103F1050140F077
:10F78000B7805D71991D96460198904230D0801ADD
:10F79000039004384FEA9009019800F1FF3CC2EB56
:10F7A0000C0C09F10100BCF1020F4FEA800913D9DA
:10F7B00052444FF0203C012806EB020A46F802C0F2
:10F7C00005D00228CAF804C001D0CAF808C0039ABC
:10F7D00091454944CE440BD001980D700EF10102C1
:10F7E000824205D20EF1020E86454D7000D28D7018
:10F7F000019A1344534A0393D2F8009008F1010090
:10F80000DA1C03F1330C0CE002F8035C02F8025C32
:10F8100002F8015C0332624500F8015C00F101006E
:10F8200030D0A345F0D9A74256D94E99095D02F8C8
:10F83000015C4FEA211E5FFA8EFABEF1090F01F05A
:10F840000F0ED4BF0AF1300A0AF1370ABEF1090FD0
:10F8500002F803AC94BF0EF1300E0EF1370E09EB37
:10F86000010A02F802EC9AF801E003321EF0970F49
:10F8700008BF2E21624500F8011C04F1010400F1CB
:10F880000100CED1039B02990D224FF00A0901F12C
:10F89000430A88F8102088F8119083F830502346E6
:10F8A0004FF0000854469A46224606EB0801002015
:10F8B00004F01CFB8044241A10B9B9F1010901D0ED
:10F8C000002CF1D154465C454FF0000AFFF425AFFF
:10F8D000204645B0BDE8F08FE11B509B595CA6E780
:10F8E000964651E7002A7FF42DAF194696464EE71B
:10F8F0004FF0050E48E704AE0B68134A30464FF44C
:10F90000807106F0A7FF0028E2DB0A230746019377
:10F91000284606F0FDFFC22828BFC220804629469F
:10F920000246F01906F08AFF07EB08030024194687
:10F93000ECE61BB90194274604AEE9E7019104AE59
:10F94000E4E600BFA4210020C071020070B5074D9D
:10F95000074E2B7813B13378834205D0044604F068
:10F9600083FB012334702B70002070BDD121002057
:10F97000D02100200048704759F501000048704729
:10F98000EDF6010038B50020FFF7E0FF044668B946
:10F99000FFF7F0FF0546FFF7F1FF054BFF22C3F825
:10F9A00010541C605C60C3F814049A60204638BD93
:10F9B000D42100200120FFF7C9BF00BF2DE9F0438B
:10F9C00083B002AB4FF0000803F8018D254C0646CA
:10F9D00018460D46A76801F045F9A2686368D4F897
:10F9E000009013440133C9EB0303012B07D80BBB71
:10F9F0009DF8070001F05EF903B0BDE8F08309F15E
:10FA000001039DF80700236001F054F9012200234F
:10FA100062F3010368F3820307EA090766F3C5038B
:10FA200004EB870468F3891365F39F23E36003B055
:10FA3000BDE8F0830121434661F3010368F38203CB
:10FA4000052161F3C50309EA0202074904EB8202BA
:10FA500068F3891309F1010761F39F232760D360DD
:10FA6000C6E700BFD4210020C87102002DE9F0478D
:10FA700082B002AB002603F8016D294C814618467E
:10FA800017468846A56801F0EDF8A2686368D4F8C7
:10FA900000A013440133CAEB0303022B07D843BB76
:10FAA0009DF8070001F006F902B0BDE8F0870AF101
:10FAB00002039DF80700236001F0FCF801220023F7
:10FAC00062F301030AEB020166F3820369F3C503E3
:10FAD00005EA0A0A0D4004EB8A0A62F3891304EB73
:10FAE000850468F39F23CAF80C30E76002B0BDE8D4
:10FAF000F0870121334661F3010366F38203052198
:10FB000061F3C5030AEA0202064804EB820266F3C7
:10FB100089130AF1010160F39F232160D360BFE7DD
:10FB2000D4210020C87102002DE9F04F83B002AF4C
:10FB3000002607F8016D314C8246384690461F4634
:10FB4000A568894601F08EF8A2686368D4F800B011
:10FB500013440133CBEB0303042B07D8BBBB9DF845
:10FB6000070001F0A7F803B0BDE8F08F0BF1040324
:10FB70009DF80700236001F09DF80122002362F345
:10FB8000010366F382030BEB02010BF103060BF199
:10FB900002026AF3C503032005EA0B0B04EB8B0B8F
:10FBA00060F3891369F39F2329402A403540CBF83D
:10FBB0000C3004EB810104EB82020C9BC1F80C8039
:10FBC00004EB8504D760E36003B0BDE8F08F01214A
:10FBD000334661F3010366F38203052161F3C50334
:10FBE0000BEA0202064804EB820266F389130BF16A
:10FBF000010160F39F232160D360B0E7D42100208E
:10FC0000C87102002DE9F0474C4E96E80C009A426C
:10FC10008AB070D0B06804E0C4F3891202EB945249
:10FC2000134400EA0305023506EB850201335468EC
:10FC300014F00302F0D0022A28D0C4F38312C4F3D4
:10FC4000952C002A75D00DF1100E7546D71800EAD4
:10FC5000030106EB81010133C96845F8041BBB426F
:10FC6000F5D10092C4F3C20073466246D6F8104440
:10FC7000324D0021A04738B177603068C01B18BFF3
:10FC800001200AB0BDE8F0876F68F6E703F1010ACA
:10FC900020EA0A010340013106EB830389004FEAA1
:10FCA00094588845DA68DFF894E0C4F3891326D9BC
:10FCB000A9B300EA0A0C5FFA81F90EEB8C0CC9EBD0
:10FCC00008010CF10C0C0EF10C00C9B2039102906A
:10FCD000CDF80490CDF800C00021C4F3C200D6F8DE
:10FCE0001474B847404520D006EB850560F38F14A7
:10FCF0006C607768C1E700200AB0BDE8F08700EAD1
:10FD00000A000EEB80000C308DE801010021DEF8C6
:10FD1000149403910291C4F3C200C847E2E70EF1C4
:10FD20000C0C08465FFA88F9D0E703300AEB90071D
:10FD3000A2E71F460DF1100E93E700BFD42100206B
:10FD40002DE9F84F244B1A788AB3DFF890B0DFF82A
:10FD50009090DFF890A00024012703E00134E4B282
:10FD6000944224D226B2D9F80050DBF8003015F8BE
:10FD7000360007FA00FE1EEA030F05EBC608EDD0B9
:10FD8000164A23EA0E03136001F080FA15F8365084
:10FD9000DAF8003007FA05F6334000FA05F6B34208
:10FDA00007D00D4B01341A78E4B29442DAD3BDE89F
:10FDB000F88FD8F80430002BF3D098F80110A1F197
:10FDC0000101B1FA81F14909091AB1FA81F1490930
:10FDD00028469847E5E700BFF42500201C260020B0
:10FDE000F02500201826002070B50646114800F0C6
:10FDF000E1FD40B9104D01242B68B4401C4203D0F2
:10FE000023EA04042C6070BD304601F03FFA0B4A2F
:10FE1000136860B123432E680949136034432C6092
:10FE2000044809680022BDE8704000F06BBD23EA79
:10FE30000403F0E7F82500201C26002018260020E7
:10FE4000EC250020042A01D8072070472DE9F04155
:10FE500082B088460546174601F0E4F8002834D001
:10FE60001C4C1D481D491E4A1E4B2560002608F1EA
:10FE7000FF340F6080F8008016601E60E4B2032734
:10FE8000B8F1000F03D11AE0DBB2C4B11C4623B2B3
:10FE900005EBC30215F833009378134A8DF805304B
:10FEA00001A98DF804708DF806608DF8076001F0E7
:10FEB000C3F8631E0028E7D002B0BDE8F0810B4A0A
:10FEC0000B48002100F00CFDF6E701F069F800286E
:10FED000C6D0F1E7F0250020F4250020EC25002015
:10FEE000182600201C260020E9FD010041FD01002C
:10FEF000D471020070B5084D2B785BB1074E002419
:10FF00003368012113F8340001F05EF92B780134D5
:10FF1000A342F5D8002070BDF4250020F025002074
:10FF200000B585B000230390194601AA44F20100F0
:10FF3000ADF80430029300F003F805B05DF804FB5F
:10FF400008B50E490120FFF739FDFFF733FDFFF734
:10FF500059FE0028FBD10A4B1B68DB0700D5FFDEEA
:10FF6000BFF34F8F0749084BCA6802F4E06213439E
:10FF7000CB60BFF34F8F00BFFDE700BFD871020019
:10FF8000F0ED00E000ED00E00400FA0559B10AB917
:10FF900009207047531E1A40FAD1826001608380A5
:10FFA000C260104670470E20704700BF10B48468CE
:10FFB000C26803468088121B904203D204205DF879
:10FFC000044B7047DA681C6802400020A154DA68CC
:10FFD0000132DA605DF8044B704700BF0346806869
:10FFE000DA68904201D10520704710B49A68988869
:10FFF0001C6802400020A25C0A709A6801329A6074
:020000022000DC
:100000005DF8044B704700BF2DE9F843274A284BA1
:100010000025C2F84051C2F84451C2F84851C2F814
:100020004C51C2F80051C2F804511B681BB321495E
:10003000D2F804250C68204F141B1A6824F07F4462
:10004000A242A84609D8197CDE69A41A1544A1B9B0
:100050001EB133461A68A242F5D9184B18491A78CE
:100060000B789A421BD01749174A41F823504FF496
:100070008013C2F80031BDE8F883D3F8149083F8F8
:1000800010803A689B69484619462AB19047002873
:10009000DED0FFF745FFDBE71846C847D8E7531C1B
:1000A000DBB2022B08BF00230B70DCE7001001401D
:1000B0002426002020260020282600202C26002090
:1000C0002D2600203826002000E100E02DE9F04F29
:1000D000A44AA54913780978A44889B0006800901B
:1000E000994200F0EB800133DBB2022B08BF002302
:1000F00013709F4A52F82360009B9C4A334423F0BC
:100100007F4313604FF0010E9A4B079693F800A0BF
:10011000994BCDF818A0D3F80090964B5B780193DB
:100120001D46944BD3F804B09B7802931C46934B26
:100130001B7804938D4B00271B68039351464A4656
:100140004B460597BC4638462646B846A9421AD0C3
:1001500001EB410401311BF83470C9B2B14208BF50
:100160000021022F0BEBC40400F08380032FEDD19C
:10017000002BEBD0DA6918741346002AFAD1A94291
:100180004FF0010CE4D1DDF818A0079E4746BCF102
:10019000000F40F0A380059A12B1744A03991160D0
:1001A000002F40F09C82BEF1000F40F0C681B9EBF9
:1001B000030218BF01220792059375461E466B4A3B
:1001C000CDF810B0D2F800C06B4ADFF8B891D6462F
:1001D000D2F800A0694A0023127800931F460692C5
:1001E0004FF001089B463DB36A68A9682C46ED694B
:1001F000CCEB020323F07F434B4572D80B442360C2
:100200006760A76084F81080E761002E00F08B80A3
:10021000316899427ED2304603E01168994269D232
:100220001046C2695B1A002AF7D12360E2613346A7
:10023000C4611E46002DD7D1019B9E4500F0A480CD
:100240000EEB4E03049911F83320039210460EF181
:10025000010E029A5FFA8EFE724508BF4FF0000E43
:10026000012801EBC30364D03346012200921E46ED
:10027000E0E76468002B3FF469AF9C429A4601D1E5
:1002800015E0BA46DAF81C70002F3FF45FAFBC42AD
:10029000F7D1BA450CD0FC693F68CAF81C40002C65
:1002A0003FF454AF23683B44236013464EE71F4698
:1002B000DA6932B113464FF0010CECE70026B6467E
:1002C00022E72F4B4FF00108C3F80880C4461346BD
:1002D0000392CDF81080CDF81480DCE726490A603F
:1002E00059E7C2EB0C0222F07F428A4209D28B1AF4
:1002F000236085E7C91A11602360E2613346C46157
:1003000097E727606760A76084F81080E76156B1BF
:1003100031680023CB1A33602346E661A2464FF0D2
:10032000010B1E4686E72346A2464FF0010B1E46F0
:1003300080E75C68227C009282B99A686260D96822
:10034000A1601869E0605B69A361069B002B00F067
:10035000F180009A626000932A4649E733461E46C0
:1003600068E700BF2C2600202D2600202026002034
:100370003826002030260020242600202E260020AB
:1003800000100140FEFF7F00009B5A46002B40F00A
:10039000AE8112B1824BC3F800A0059BB34200F0BE
:1003A000BF80002E00F00A817E497F4CD1F8040501
:1003B00025783368CCEB000222F07F420332002D17
:1003C00050D17A4DDFF8ECE1794F4FF48036C1F827
:1003D0004463C1F804634FF40036C5F880612E60B1
:1003E00001250D60DEF800602F2100BF00BF00BFB7
:1003F00000BF00BF00BF00BF00BFBE422FD000BF84
:1004000000BF00BF00BF00BF00BF00BF00BF00BFF4
:1004100000BF00BF00BF00BF00BF00BF00BF00BFE4
:1004200000BF00BF00BF00BF00BF00BF00BF00BFD4
:1004300000BF00BF00BF00BF00BF00BF00BF00BFC4
:1004400000BF00BF00BF00BF00BF00BF00BF00BFB4
:1004500000BF00BF00BF00BF00BF00BF00BF013929
:10046000C3D1257093422CBF9C4494444D492CF039
:100470007F43C1F84035D1F80425121A1B1A22F027
:100480007F4223F07F4303329A424DD9D1F804359D
:10049000484AC1F84035126845492F2300BF00BFC4
:1004A00000BF00BF00BF00BF00BF00BF8A422FD007
:1004B00000BF00BF00BF00BF00BF00BF00BF00BF44
:1004C00000BF00BF00BF00BF00BF00BF00BF00BF34
:1004D00000BF00BF00BF00BF00BF00BF00BF00BF24
:1004E00000BF00BF00BF00BF00BF00BF00BF00BF14
:1004F00000BF00BF00BF00BF00BF00BF00BF00BF04
:1005000000BF00BF00BF00BF00BF00BF00BF00BFF3
:10051000013BC3D1254B4FF40032C3F8002103E067
:10052000079B002B7FF43DAF234A0023137009B0D3
:10053000BDE8F08F039B00935AE6194ADDF800C02E
:1005400017680020054601460446ABB11A68B2425E
:100550001BD8D8681C60B61A1144DA6938B10CEBA4
:10056000010727F07F47DD6198605F601D461346F5
:1005700017467046002BE9D1002840F0BC800023CC
:10058000059301230793059E19E6002840F0AC80EF
:10059000921B05931A6001230793059E0FE600BF87
:1005A00024260020001001404026002000E100E049
:1005B0000024F4009C2100202E2600204F4A504B9E
:1005C000504D51484FF480314FF400370124C3F8A7
:1005D0008070C2F848132F23C2F8081354602968AA
:1005E0001D4600BF00BF00BF00BF00BF00BF00BF6F
:1005F00000BF81422FD000BF00BF00BF00BF00BFBF
:1006000000BF00BF00BF00BF00BF00BF00BF00BFF2
:1006100000BF00BF00BF00BF00BF00BF00BF00BFE2
:1006200000BF00BF00BF00BF00BF00BF00BF00BFD2
:1006300000BF00BF00BF00BF00BF00BF00BF00BFC2
:1006400000BF00BF00BF00BF00BF00BF00BF00BFB2
:1006500000BF00BF00BF013DC3D194602B4A1660AC
:1006600000BF00BF00BF00BF00BF00BF00BF00BF92
:1006700081422FD000BF00BF00BF00BF00BF00BF3E
:1006800000BF00BF00BF00BF00BF00BF00BF00BF72
:1006900000BF00BF00BF00BF00BF00BF00BF00BF62
:1006A00000BF00BF00BF00BF00BF00BF00BF00BF52
:1006B00000BF00BF00BF00BF00BF00BF00BF00BF42
:1006C00000BF00BF00BF00BF00BF00BF00BF00BF32
:1006D00000BF00BF013BC3D10D4B1E7024E70D4A84
:1006E0009DF8101011705EE50B490F6050E70B4B41
:1006F00083F800E04DE6084B1F6040E70010014022
:1007000000E100E09C2100200024F40020260020CD
:10071000402600202E2600202426002030260020FF
:100720002DE9F04712F0030402D00720BDE8F0875E
:10073000002AFAD05F4D604EDFF88891DFF888C15B
:100740004FF4803E4FF400374FF00108C6F8807038
:10075000C5F848E32F27C5F808E3C5F80480D9F8A1
:1007600000E0B94600BF00BF00BF00BF00BF00BF30
:1007700000BF00BFE6452FD000BF00BF00BF00BFD5
:1007800000BF00BF00BF00BF00BF00BF00BF00BF71
:1007900000BF00BF00BF00BF00BF00BF00BF00BF61
:1007A00000BF00BF00BF00BF00BF00BF00BF00BF51
:1007B00000BF00BF00BF00BF00BF00BF00BF00BF41
:1007C00000BF00BF00BF00BF00BF00BF00BF00BF31
:1007D00000BF00BF00BF00BFB9F10109C2D1C5F819
:1007E000088000BF00BF00BF00BF00BF00BF00BF48
:1007F00000BFE6452FD000BF00BF00BF00BF00BF55
:1008000000BF00BF00BF00BF00BF00BF00BF00BFF0
:1008100000BF00BF00BF00BF00BF00BF00BF00BFE0
:1008200000BF00BF00BF00BF00BF00BF00BF00BFD0
:1008300000BF00BF00BF00BF00BF00BF00BF00BFC0
:1008400000BF00BF00BF00BF00BF00BF00BF00BFB0
:1008500000BF00BF00BF013FC3D1DFF870E0DFF889
:1008600070A0164FDFF86C90DFF86C80DFF86CC07A
:100870008EF80040CAF800304FF4801EE023B970B3
:100880003C707C70C9F8004088F800408CF800404B
:100890000B49C6F880E186F81433C6F800E0C5F8C5
:1008A000080586F81133D5F804350B607A602046C8
:1008B000BDE8F0870010014000E100E03026002094
:1008C000202600209C2100200024F4004026002047
:1008D00028260020242600202C2600202D2600205B
:1008E000074B5B6823B12AB120B10368187C18B1AB
:1008F000082070470720704759745A61704700BF3D
:10090000302600202DE9F043274C636883B033B1D3
:1009100028B1042907D8072003B0BDE8F0830820D8
:1009200003B0BDE8F0834369002BF8D0054602A868
:100930006B7C0026012B00F8016D0CBF8946B14687
:1009400090460F4600F08EF96378A07821785A1C03
:10095000D2B2904208BF324691421FD003EB43030C
:100960006068DB00C11819D04FF0010E00F803E0F9
:100970000E4B4D60D3F804358B609DF80700CF60B7
:10098000C1F81090C1F81480627000F093F9084B20
:100990004FF480123046C3F80021C1E79DF80700EC
:1009A00000F088F90420BBE7302600200010014049
:1009B00000E100E0F0B51C4E736883B053B348B358
:1009C00043693BB3054602A8002400F8014D2C748E
:1009D00000F048F97378B07831785A1CD2B290425E
:1009E00008BF2246914218D003EB43037168DB0035
:1009F000CF1812D00220C8547D609DF80700727095
:100A000000F058F9094B4FF480122046C3F800213A
:100A100003B0F0BD082003B0F0BD9DF8070000F062
:100A200049F90420F7E700BF3026002000E100E08C
:100A300030B50478012C83B01FD010D3022C0CD118
:100A4000C36827492748019301228DF8004001F02F
:100A5000ABFE254B68461B68984703B030BD234961
:100A60002348FFF7BBFAF0B102A8032300F8083DC2
:100A70001D4B1B68984703B030BD43681D4D197866
:100A80002846FFF793FAA0B9AA68EB689A421ED1EC
:100A9000A968EB68AA885B1A9A4212D2164B012207
:100AA0001A7003B030BD012210490E4801F0C4FD98
:100AB000D3E70D4B01908DF800401B6868469847BE
:100AC000E6E701220649074801F06EFEC5E702ABE2
:100AD000054A03F8080D126818469047D8E700BF8A
:100AE0004C2600208C21002048260020442600208F
:100AF0005026002064260020602600202DE9F043C7
:100B00002F4C89B02260002952D00C4680468A883A
:100B10002C4809689946FFF739FA10B109B0BDE8C9
:100B2000F083A289A1682848FFF730FA0028F5D1A0
:100B3000264D98F810E0D8F80C70D8F808600FCD62
:100B40006C460FC495E80F0098F8115002971EF1FB
:100B5000000E18BF4FF0010E002D84E80F00D8F8EA
:100B60000050D8F804401A4A1A488DF81C9014BF57
:100B70000E2300238DF815306946D8F814308DF80F
:100B800014E0069303968DE8300001F067FC00281E
:100B9000C4D1D8F80030104A01331070BED09DF88F
:100BA0001D304BB101220D490A4801F0FDFDB5E7AA
:100BB000072009B0BDE8F083064801F013FFF1E714
:100BC000482600206426002050260020F0710200F4
:100BD000310A02008C210020602600204C260020D3
:100BE00070B50B4C01460B482678FFF7F7F9054620
:100BF0000EB9284670BD002301220749074823701B
:100C000001F0D2FD0028F4D0FFF78AF9284670BD24
:100C100060260020642600204C2600208C21002025
:100C200010B501460C48FFF7C1F9044608B120464B
:100C300010BD0A4801F0ACFD0028F8D1084906486B
:100C4000FFF7CCF90028F2D1012205490348BDE89D
:100C5000104001F0F1BC00BF502600208C21002084
:100C600044260020F0B4EFF3108472B60E4B9A685D
:100C7000B2B90E4901259D60D1F880700C4D2E4609
:100C80003D401D60C1F88060D1F884505D604FF038
:100C9000FF33C1F88430027004B962B6F0BC70470B
:100CA00001230370F8E700BFB82E002000E100E048
:100CB000FC06FFBC094B9A6872B168B910B4EFF337
:100CC000108272B606491C680C605C684C609860C3
:100CD00002B962B65DF8044B704700BFB82E002021
:100CE00000E100E020B1034B5B6E03600020704721
:100CF0000320704774260020064A4FF0A043105C82
:100D0000D3F8043523FA00F000F0010080F0010070
:100D1000704700BF14720200044B195C4FF0A042F0
:100D200001238B40C2F80C35704700BF14720200DB
:100D3000044B195C4FF0A04201238B40C2F80835E8
:100D4000704700BF147202004FF0A04310B44FF47C
:100D500080204FF400344FF400214FF48012C3F888
:100D60000845C3F80805C3F80815C3F808255DF859
:100D7000044B70474FF0A04310B44FF480204FF461
:100D800000344FF400214FF48012C3F80C45C3F82F
:100D90000C05C3F80C15C3F80C255DF8044B70471F
:100DA000084B4FF0A0411B5CD1F80405012202FA68
:100DB00003F323EA00020340C1F80825C1F80C350B
:100DC000704700BF1472020030B44FF0A0430322FA
:100DD0004FF400354FF480244FF400204FF480117D
:100DE000C3F84427C3F84827C3F84C27C3F8502753
:100DF000C3F80855C3F80845C3F80805C3F8081533
:100E000030BC7047064A4FF0A043105CD3F8103551
:100E100023FA00F000F0010080F00100704700BFED
:100E2000107202000D2809D00E2809D00F2809D011
:100E300010280CBF03204FF0FF3070470020704790
:100E40000120704702207047014B185C704700BFBB
:100E50001072020010B51A4B1A6882B0A2B10022BB
:100E60001A601B6800934FF080430122154C0099D3
:100E7000C3F80823A368627033B10CCB0020A260D2
:100E80009847A368002BF8D10F4B1A68AAB100222B
:100E90001A601B6801934FF080430222094C0199AC
:100EA000C3F8082323690122A27033B10CCB0120BF
:100EB000226198472369002BF8D102B010BD00BF12
:100EC00000010040DC2600200401004058B910B5A4
:100ED000054CA36833B10CCB0020A2609847A368EF
:100EE000002BF8D110BD7047DC26002010B582B071
:100EF00002A80023144C00F8013DFFF7B3FE23784D
:100F000093B9124A6360E3601068A36010F00100B7
:100F1000236114D004F0C8FC20B94FF080430122B3
:100F2000C3F8182501232370E3689DF807000133F7
:100F30000122E360A270FFF7BDFE02B010BD0721E1
:100F400000F006F8E6E700BFDC26002000E100E044
:100F5000002810B418DB00F1604303F56143490138
:100F6000C9B283F80013C3B24009800000F16040A9
:100F700000F5614003F01F0201239340C0F8803167
:100F800003605DF8044B7047C3B2044A03F00F04DA
:100F900049012244C9B21176E6E700BFFCEC00E04B
:100FA00030B51D4C94F8545083B015B1082003B0EF
:100FB00030BD4FF0FF33FF22072106202363636318
:100FC000A363E36323646364A364E36423606360F3
:100FD000A360E36023616361A361E361236284F83A
:100FE00050306362A36284F85230E36284F8533075
:100FF00084F85120FFF7ACFF084B094A1D601B68BD
:10100000019301984FF000430121284684F85410C1
:10101000C2F8043303B030BDF02600207C610040EC
:1010200000600040034B93F85400003018BF0120CB
:10103000704700BFF0260020F0B5624C251895F9E6
:101040003030002B01DB0820F0BD91F803E094461E
:10105000BEF1000F56D02368013300F0A3800025B5
:1010600008266B1C574F54F82320013251D0AB1C7B
:101070009E4245D957F8232001324AD0EB1C9E42AC
:101080003ED957F82320013243D02B1D9E4237D939
:1010900057F8232001323CD06B1D9E4230D957F8BF
:1010A0002370013735D0AB1D9E4229D954F8232037
:1010B000444F01322DD0EB1D9E4221D957F82320F9
:1010C000013226D005F108039E4219D957F8232092
:1010D00001321ED005F109039E4211D957F8232091
:1010E000013216D005F10A039E4209D957F8237040
:1010F00001370ED00B35AE4202D9E36A013307D077
:101100000420F0BD236A013353D008250C26A8E73C
:101110000B2326185DB244F823C086F83050BEF188
:10112000000F02D1234483F848008B78A3B94A7892
:101130004FF0A04600F5E073920046F82320CB78EC
:10114000A3B9083D2C44097894F8502042EA811252
:1011500084F850201846F0BD830003F1A043D3F873
:10116000002722F00202C3F80027E8E7AB0003F1F2
:10117000804303F5C0430A78D3F8101521F44731B2
:1011800021F44071C3F810151204000202F440313A
:10119000D3F8104500F4F8520A432243C3F810254F
:1011A0000020F0BD002385F83030C4F800C01D4693
:1011B000BBE7082685F830603346C4F820C03546C2
:1011C000B0E700BFF0260020F0B42E4D2E1882B0FC
:1011D00096F93030072B1CDD2B4493F848309B09DF
:1011E000032B41D0012B14BF4FF440334FF4003395
:1011F000800000F1A040D0F8002722F44032C0F86F
:101200000027D0F800271343C0F8003702B0F0BC25
:101210007047DAB2072AF9D8980000F1804000F54B
:10122000C04003F140029200D0F8104592B202F1A2
:101230008042002744F0010402F5C042C0F8104586
:101240000197019817600029E0D096F9302055F8F1
:101250002220002ADAD001220B4902FA03F3C1F856
:10126000043302B0F0BC70474FF0A043D3F8103500
:10127000C34013F0010F0CBF4FF400334FF4403361
:10128000B6E700BFF0260020006000404FF0A0430A
:10129000D3F8103523FA00F000F00100704700BFCA
:1012A0002DE9F04387B00026C94B01961A68012A40
:1012B00000F00482C74B1A68012A00F0F181C64B86
:1012C0001A68012A00F0DE81C44B1A68012A00F076
:1012D000CB81C34B1A68012A00F0B881C14B1A6850
:1012E000012A00F0A581C04B1A68012A00F0928102
:1012F000BE4B1A68012A00F07F81BD4B1A68012A93
:1013000000F0598116F0FF0F1AD0BA4F01250024C2
:10131000A30003F180432E4203F5C0434FEA450585
:101320000BD0D3F8100557F82420D3F81015C0F3CC
:101330000420C1F3014102B190470134082CE7D1E8
:10134000002E02DB07B0BDE8F083AA4C00224FF06C
:10135000FF3327460292039301260DF1080894F902
:1013600050104D1C2DD0C9B221F0C00006AB4FEA81
:10137000D00E03EB0E0201F0070312F80CCC06FAB4
:1013800003F31CEA030F1CD03D18890995F930506E
:1013900057F82590B9F1000F00F0E880032900F01C
:1013A000E8804FEA800E0EF1A04E12F8145CDEF8D1
:1013B00000271D40C2F3014240F0B580032A00F02F
:1013C000A281002594F95110481C2FD0C9B221F0F8
:1013D000C00006AB4FEAD00E03EB0E0201F007038C
:1013E00012F80CCC06FA03F31CEA030F1ED007EB2D
:1013F000000C89099CF930C057F82C90B9F1000F06
:1014000000F0C680032900F0C6804FEA800E0EF17E
:10141000A04E12F814CCDEF800271CEA030FC2F32A
:10142000014240F08D80032A00F0928194F952101D
:101430004A1C2ED0C9B221F0C00006AB4FEAD00E34
:1014400003EB0E0201F0070312F80CCC06FA03F3CB
:101450001CEA030F1DD007EB000C89099CF930C072
:1014600057F82C90B9F1000F00F08980032900F0A3
:1014700088804FEA800E0EF1A04E12F814CCDEF8F0
:1014800000271CEA030FC2F3014265D1032A00F0D2
:101490004C8194F953104B1C2CD0C9B221F0C000E0
:1014A00006AB4FEAD00E03EB0E0201F0070312F871
:1014B0000CCC06FA03F31CEA030F1BD007EB000C5D
:1014C00089099CF930C057F82C90B9F1000F69D008
:1014D000032969D04FEA800E0EF1A04E12F814CC09
:1014E000DEF800271CEA030FC2F3014211D1032AE0
:1014F00000F0F080002D3FF425AF4FF0A043019A9B
:10150000D3F8103593423FF41DAF029A0193039232
:1015100025E7022AEED1032900F02D81B9F1000F51
:10152000E8D0C847E6E7022A7FF44BAF032900F072
:101530002B810025B9F1000F3FF444AFC84741E7C4
:10154000022A7FF473AF032900F01881B9F1000F6C
:101550003FF46CAFC84769E7022A9AD1032900F02B
:101560001081B9F1000F94D0C84792E703297FF4A6
:1015700028AF18F80E501D4308F80E5011E7032944
:1015800087D118F80EC04CEA030C08F80EC070E7BB
:1015900003297FF44BAF18F80EC04CEA030C08F88F
:1015A0000EC032E70329A5D118F80EC04CEA030C8F
:1015B00008F80EC08EE700221A601B6805934FF0F2
:1015C000A043059AD3F81035019346F0004699E6FA
:1015D0000061004004610040086100400C6100406F
:1015E0001061004014610040186100401C6100401F
:1015F0007C610040F0260020654AD2F804231706DB
:101600007FF57BAE00221A601B680493049B46F0B2
:10161000800672E65E4AD2F8042352067FF568AE71
:1016200000221A601B680493049B46F040065FE6A4
:10163000574AD2F8042391067FF555AE00221A606E
:101640001B680493049B46F020064CE6504AD2F8EF
:101650000423D0067FF542AE00221A601B68049373
:10166000049B46F0100639E6494AD2F804231407D1
:101670007FF52FAE00221A601B680493049B46F08E
:10168000080626E6424AD2F8042355077FF51CAE29
:1016900000221A601B680493049B46F0040613E6BC
:1016A0003B4AD2F8042397077FF509AE00221A605F
:1016B0001B680493049B46F0020600E63449D1F807
:1016C000041311F001011CD01E601B680493049BDD
:1016D0001646EFE503297FF421AF4FF40033DEF81F
:1016E000002722F44032CEF80027DEF8002701352B
:1016F0001343EDB2CEF80037B9F1000F7FF411AF0C
:10170000FBE60E46D6E503297FF414AF4FF4003311
:10171000DEF8002722F44032CEF80027DEF800275A
:101720001343CEF80037012504E703297FF419AFEE
:101730004FF40033DEF8002722F44032CEF80027C1
:10174000DEF8002701351343EDB2CEF8003708E785
:1017500003297FF4FBAE4FF40033DEF8002722F4B8
:101760004032CEF80027DEF8002701351343EDB2F2
:10177000CEF80037EAE64FF44033B0E74FF4403399
:10178000EBE74FF44033D5E74FF44033C0E700BFF9
:10179000006000402DE9F0410024C1F804418EB002
:1017A000D1F804510495049DC1F82441D1F8245185
:1017B0000395039DC1F81C41D1F81C510295029D6F
:1017C000C1F80841D1F808510195012B80F8264055
:1017D00080F82340019D0CBF022401240125C1F89B
:1017E00000420D620D6004684CB140F286238360B4
:1017F0008368C1F8043300200EB0BDE8F0812E46A6
:1018000003F1FF3E4FF0020C90F82350002D3BD126
:10181000D1F8247190F82680002F48D0C1F82451C7
:10182000D1F824510A950A9D4E6180F82360434502
:10183000EAD1D1F80451002DE6D00023C1F80431DB
:10184000D1F8042190F823300592059AC3B1D1F85C
:10185000C434C1F8C4349BB113F0010F18BF4FF466
:10186000024048F2012208BF032013F0020F18BF04
:10187000104648F2022213F0040F18BF1046BBE7CF
:1018800000200EB0BDE8F081C1F82441D1F8245108
:101890000B950B9DC1F81C41D1F81C510C950C9D6A
:1018A000C1F80841D1F808510D950D9DC1E7D1F857
:1018B0001C51ADB1C1F81C71D1F81C510995099D9D
:1018C000D1F824511DBB90F82650AB423DD9555D4F
:1018D000C1F81C5590F82650013580F82650A6E72F
:1018E000D1F80871002FA2D0C1F80851D1F80871C1
:1018F0000797079FD1F824719FB1C1F82451D1F8FF
:1019000024510695069D4E6180F823608FE7C1F84B
:101910002471D1F824510895089D4E6180F8236008
:1019200085E790F82650AB4281D9D1F81875575504
:1019300090F826500135EDB2754580F8265006D056
:10194000AB423FF474AF0E6271E74E616FE7C1F8CE
:1019500000C2F8E72DE9F0430024C1F804418FB03C
:10196000D1F804510495049DC1F82441D1F82451C3
:101970000395039DC1F81C41D1F81C510295029DAD
:10198000C1F80841D1F8085101950125019EC1F81F
:10199000004280F8264080F823400D628D6090F868
:1019A00026409DF85870A34213D9145DC1F81C4518
:1019B00090F826402C4480F8264004687CB140F220
:1019C000862383608368C1F8043300200FB0BDE82C
:1019D000F083002F48D0CD610468002CEFD103F1D3
:1019E000FF3C4FF0010E4FF0020890F82350002DFD
:1019F0003CD1D1F8246190F82690002E49D0C1F84E
:101A00002451D1F824510A950A9DC1F814E080F8B8
:101A100023E04B45E9D1D1F80451002DE5D0002356
:101A2000C1F80431D1F804310593059B90F82330B7
:101A3000002B6AD0D1F8C434C1F8C434002B64D070
:101A400013F0010F18BF4FF4024048F2012208BF03
:101A5000032013F0020F18BF104648F2022213F0C1
:101A6000040F18BF1046B1E74D61A6E7C1F8244145
:101A7000D1F824510B950B9DC1F81C41D1F81C5194
:101A80000C950C9DC1F80841D1F808510D950D9D9C
:101A9000C1E7D1F81C51ADB1C1F81C61D1F81C519E
:101AA0000995099DD1F8245125BB90F82650AB42E9
:101AB00045D9555DC1F81C5590F82650013580F880
:101AC0002650A6E7D1F80861002EA2D0C1F808512F
:101AD000D1F808610796079ED1F82461CEB1C1F80C
:101AE0002451D1F824510695069DC1F814E080F8E0
:101AF00023E08EE7C1F82461D1F824510895089DB0
:101B0000C1F814E080F823E083E700200FB0BDE8BF
:101B1000F08390F82650AB427FF67BAFD1F8186582
:101B2000565590F826500135EDB2654580F826509F
:101B30000CD0AB423FF46DAFC1F820E069E717B1BC
:101B40000123CB6172E7C1F814E062E7C1F80082BB
:101B5000F2E700BF2DE9F04F0579244EAF0007EB07
:101B6000050E4FEACE0E06EB0E0C83B09CF8224019
:101B70001CB1082003B0BDE8F08F46F80E20CCF869
:101B80000840CCF804308CF825408CF824408B7B3E
:101B90008CF827304B7B5BBB0B684FF0A04403F500
:101BA000E07340F20C6E44F823E04B6803F5E073F9
:101BB00044F823E091E810400368C3F80845C3F8EF
:101BC0000CE58C68C3F824452AB10068097B40F312
:101BD0000730FFF7BDF93D4406EBC50501230020A2
:101BE00085F8223003B0BDE8F08F00BF4827002001
:101BF0000B68DFF8A092DFF8A0E24FF0A04C03F5ED
:101C0000E07340F20C6A4CF823A04B6803F5E073D4
:101C10004FF001084CF823A00B6808FA03F3CCF846
:101C200008354B6808FA03F3CCF808350B6803F560
:101C3000E07340F20D6B4CF823B04B6803F5E07392
:101C40004FF0040A4CF823B05346D9F8009000BF77
:101C500000BF00BF00BF00BF00BF00BF00BFF14515
:101C60002FD000BF00BF00BF00BF00BF00BF00BF3C
:101C700000BF00BF00BF00BF00BF00BF00BF00BF6C
:101C800000BF00BF00BF00BF00BF00BF00BF00BF5C
:101C900000BF00BF00BF00BF00BF00BF00BF00BF4C
:101CA00000BF00BF00BF00BF00BF00BF00BF00BF3C
:101CB00000BF00BF00BF00BF00BF00BF00BF00BF2C
:101CC00000BF013BC3D10195D1F804B0DCF8103559
:101CD00023FA0BF3DB07554600F1D6800B6808FAB0
:101CE00003F3CCF80C3500BF00BF00BF00BF00BF3E
:101CF00000BF00BF00BFF1452FD000BF00BF00BF35
:101D000000BF00BF00BF00BF00BF00BF00BF00BFDB
:101D100000BF00BF00BF00BF00BF00BF00BF00BFCB
:101D200000BF00BF00BF00BF00BF00BF00BF00BFBB
:101D300000BF00BF00BF00BF00BF00BF00BF00BFAB
:101D400000BF00BF00BF00BF00BF00BF00BF00BF9B
:101D500000BF00BF00BF00BF00BF013DC3D10B6883
:101D600008FA03F3CCF80835534600BF00BF00BFA4
:101D700000BF00BF00BF00BF00BFF1452FD000BFB4
:101D800000BF00BF00BF00BF00BF00BF00BF00BF5B
:101D900000BF00BF00BF00BF00BF00BF00BF00BF4B
:101DA00000BF00BF00BF00BF00BF00BF00BF00BF3B
:101DB00000BF00BF00BF00BF00BF00BF00BF00BF2B
:101DC00000BF00BF00BF00BF00BF00BF00BF00BF1B
:101DD00000BF00BF00BF00BF00BF00BF00BF013B8E
:101DE000C3D10134092C7FF46FAF019D4B68DFF83C
:101DF000A88001244FF0A04E04FA03F34FF0040C26
:101E0000CEF80C35634600BF00BF00BF00BF00BF67
:101E100000BF00BF00BFC1452FD000BF00BF00BF43
:101E200000BF00BF00BF00BF00BF00BF00BF00BFBA
:101E300000BF00BF00BF00BF00BF00BF00BF00BFAA
:101E400000BF00BF00BF00BF00BF00BF00BF00BF9A
:101E500000BF00BF00BF00BF00BF00BF00BF00BF8A
:101E600000BF00BF00BF00BF00BF00BF00BF00BF7A
:101E700000BF00BF00BF00BF00BF013BC3D14B6824
:101E80009C40CEF8084587E6019D002C3FF484AEC7
:101E90005B46ACE79C2100200024F4000379064A4D
:101EA000016803EB830302EBC3030220052283F8DE
:101EB0002200C1F800257047482700202DE9F04F87
:101EC00087B003AF9DF8406000247C600394BC6041
:101ED000C6B9B4460479DFF88880D0F800E004EB96
:101EE0008404E5004FF0FF3008EB0504CEF808034A
:101EF00094F8240050B1A368CEF80433112007B041
:101F0000BDE8F08F01264FF0200CE3E78DF80E308E
:101F10008DF80D10049292468B4697E8070099467B
:101F200004F10C0383E80700012184F824104B46D8
:101F3000CEF888B55246009671462046C4F818C0BF
:101F400084F82090C4F81CA084F82160FFF702FDFB
:101F500058F80530002BD2D184F82430CFE700BFE9
:101F6000482700202DE9F04F0479DFF890800768BA
:101F700004EB8404E5004FF0FF3008EB050485B066
:101F8000C7F8080301AE94F824E0002070600190C7
:101F9000B060BEF1000F06D0A368C7F8043311206B
:101FA00005B0BDE8F08F4FF0010B8DF806308DF8CD
:101FB000051002928DF804B00EF0FF0C91468E468B
:101FC00096E8070004F10C0686E8070084F824B0C0
:101FD00084F82030C7F888E5C4F818C04A46394666
:101FE0002046C4F81C9084F821C0FFF7D3FB58F8B2
:101FF0000530002BD4D184F82430D1E748270020C5
:10200000F0B5714B714A93F8231091B0A9B9D2F889
:10201000240193F8205093F8264000284AD0C2F8B3
:102020002411D2F8241108910121089883F8231073
:102030005161A54214D011B0F0BD0021C2F82411A5
:10204000D2F8240109900998C2F81C11D2F81C0199
:102050000A900A98C2F80811D2F808210B920B9A3C
:102060005A4AD2F804110029E5D00021C2F804111F
:10207000D2F804210392039A93F823205248002AAD
:1020800033D1017B8A1E012A69D9514A07CA10AD92
:1020900005E9070000248DF830409A694A4800217C
:1020A000540783F82410C6D4036841680CA89847E5
:1020B00011B0F0BDD2F81C11DE6961B3C2F81C0189
:1020C000D2F81C1107910799D2F8241193F82170C6
:1020D000002958D0C2F82401D2F824110691012118
:1020E000069883F823105161A3E70C3007C810ACA1
:1020F00004E907003549D1F8C424C1F8C424910784
:1021000003D501228DF83020C7E7550744BF0222CE
:102110008DF83020C1E7D2F80801002889D0C2F834
:102120000811D2F8080105900598D2F8240100287A
:1021300036D1A5427FF67DAFD2F81815315593F808
:1021400026100131C9B2681E814283F8261032D0B0
:102150008D423FF46EAF1D4A0121116269E7C469E7
:102160000269944291D184694269C37BC261C4F31C
:102170004014032980F8214080F820301FD01349F3
:10218000FFF708FB57E7A54203D801218FB1D161C2
:1021900072E7315DC2F81C15621C83F8262048E7FF
:1021A000C2F82411D2F8241104910498012183F873
:1021B000231051613DE70221C2F80012CBE70094E1
:1021C0000249FFF7C7FB36E74827002000300040F0
:1021D000542700202DE9F043954F3A788BB0002A20
:1021E00040F088800123DFF8708292493B7098F8B4
:1021F00001900B68002B5FFA89F914BF01230023BB
:1022000003D00A600A680092009A8B4A116800297C
:102210004FEA430314BF0121002104D000201060C5
:1022200012680192019A854A1068002843EA412306
:1022300014BF0121002104D0002010601268029216
:10224000029A7F4A1068002843EAC14314BF012460
:10225000002404D00021116012680392039A794A85
:102260001168002943EA045314BF0124002404D058
:102270000021116012680492049A734A11680029BF
:1022800043EA446314BF0124002404D000211160F8
:1022900012680592059A53EA846427D00426012522
:1022A00009F1FF39B9F1030F3FD8DFE809F0575DB5
:1022B000022A664B234003BB4FF04022D8F804109B
:1022C000D2F8D034C2F8D034D8F80820002B08BF98
:1022D0004FF480731A4305200993C8F808208DF83D
:1022E000200009B108A888474FF00009002388F8AA
:1022F00001903B700BB0BDE8F08334F4002400F093
:102300009080534B2340002BD6D04FF040238DF8C4
:102310001860D3F83C35D8F80420DBB207930AB133
:1023200006A8904734F00204DED014F00203F9D17D
:10233000600144D5E202D8F804208DF8183056BF69
:1023400001234FF0020999468DF81C300AB106A806
:10235000904724F0C364002CA2D1C7E73D4B234033
:102360002BB134F480145FD0394B2340BBB94FF00C
:102370004022D8F80410D2F8D034C2F8D034D8F8BB
:102380000820002B08BF4FF480731A4302200993E2
:10239000C8F808208DF820000029A3D1A4E74FF049
:1023A00040238DF81850D3F84C35D8F80420DBB210
:1023B0000793002AB4D134F00204B6D194E7A30104
:1023C00016D504F40023002BD8F804304FF0030294
:1023D0000CBF012100218DF81C100CBF91464FF05D
:1023E00004098DF81820002BB3D006A89847B0E751
:1023F0004FF04022D8F80410D2F8D034C2F8D034CC
:10240000D8F80820002B08BF4FF480731A43062029
:102410000993C8F808208DF8200000297FF462AFE6
:1024200062E74FF0040961E74FF002095EE700BF81
:102430007027002004410040244100404C410040EE
:1024400050410040644100406841004002000806DD
:10245000020000060200100674270020F0B504797F
:10246000724E6401331987B0DD7E15B1082007B0C4
:10247000F0BD4D7F1D770D686B1C0BD04FF0A04752
:102480000123AB40C7F808350B6803F5E07303255B
:1024900047F823504B685F1C06D003F5E0734FF0FC
:1024A000A045002745F82370037906EB43131B7FF3
:1024B000002B4DD003688D69C3F824554F7D0B7DEB
:1024C00005683B43C5F86C3503680F684D68C3F871
:1024D0000C75C3F814550B7D012B00F09B8033194C
:1024E00005465A600B6951483351EAB12B79097F8F
:1024F0002A6800EB4310037F002B65D1C2F81C3122
:10250000D2F81C712A680097009FC2F84431D2F8B3
:1025100044212B6846480192019AC3F804032868B5
:1025200040F30730FEF714FD2B792A6806EB4313BE
:102530001B7F002B44D00823C2F800353444002010
:102540000123E376E0752076A075A07607B0F0BD94
:1025500005688F69C5F8247591F815E00D7D076849
:102560004EEA0505C7F86C550568D1F800E04F68DC
:10257000C5F81475C5F80CE50D7D012DAFD18D683A
:102580006F1C05D005F5E0754FF0A04747F82530E2
:10259000CB685D1C0DD001254FF0A04705FA03F371
:1025A000C7F80835CB6803F5E073032547F82350D7
:1025B000CB6805688F68C5F80835C5F810758EE7D3
:1025C0000423C2F80035B9E70023C2F81031D2F86D
:1025D00010712A680297029FC2F82031D2F8207148
:1025E0002A680397039FC2F82431D2F824712A681D
:1025F0000497049FC2F84431D2F844212B68059215
:102600000C48059AC3F80403286840F30730FEF726
:102610009FFC89E78B685D1CBAD003F5E0734FF02F
:10262000A045002745F82370B2E700BF80270020AF
:102630008000020010030200F0B50379534C5B01E7
:10264000E51887B02D7F3DB101F06045B5F1005F21
:1026500002D0102007B0F0BD23444C4F9E7D16B130
:10266000112007B0F0BD9A7599609E8205796D01C1
:102670007A19137F13BB0168C1F81C31D1F81C61B2
:10268000016804960126049F8E600168D2F808E074
:10269000C1F81C31D1F81C310593059B968A938AA9
:1026A0005768B6B201331EF806609BB29382C1F838
:1026B0001C65002F2FD0002007B0F0BD0368916883
:1026C000C3F82061D3F8207103680197019FC3F814
:1026D0005861D3F8586103680296967D029FC3F84B
:1026E0004415C3F848650368012199605368002BBD
:1026F000E1D1036801E0002945D1D3F82021D3F8C6
:102700005811002AF7D0002914BF0F2000202C44B4
:102710000023A3759EE7967D938A9BB29E4202F1A9
:10272000140122D9016804E0938A9BB2B3F5807F3B
:1027300003D0D1F81C31002BF6D0938A9BB2B3F5AD
:10274000807FE9D0C1F81C71D1F81C310393039B41
:10275000B2F814C0938A1FFA8CFC01331EF80CC027
:102760009BB29382C1F81CC5D6E70B889BB2B3F528
:10277000807F08D00268D2F81C31002BFBD00123E7
:10278000D3600020C3E70F20C1E700BF80270020EF
:102790000279044B03EB4213987D003018BF0120EF
:1027A000704700BF80270020F0B403798C4E5B0196
:1027B000F41888B0257F4DB101F06045B5F1005F98
:1027C00059D01022104608B0F0BC70476568002D43
:1027D00042D13344824FDC7D002C2BD1DA75D96095
:1027E0005C761C7605796D0173191F7F002F50D11F
:1027F0009B7E8BB984B90368C3F82441D3F82421A4
:1028000003680392039AC3F80841D3F808210368C8
:102810000492012204991A6071194B68002B6FD041
:1028200003684FF40172C3F804230022104608B075
:10283000F0BC70471C7ED4B1002D00F0AA80037953
:1028400007EB43173B7F002B53D003684FF4047210
:10285000C3F804231122B5E704684FF40177334429
:10286000C4F80873DC7D5E4F002CB7D0E2E7196135
:102870001A760124B6E76568002DAAD004684FF4E3
:1028800004773344C4F80873DC7D554F002CA5D081
:10289000D0E703680025C3F81051D3F8107103681E
:1028A0000197019FC3F84451D3F84451036802953E
:1028B000029DC3F83415C3F8382594B90368012282
:1028C0001A6002795201B3185B68002B63D0036869
:1028D0004FF40472C3F804230022104608B0F0BC81
:1028E00070470268D2F8003243F02003C2F8003289
:1028F000E7E703684FF40172C3F80423112261E78C
:102900000268C2F84431D2F844310593059B03684C
:10291000D3F82471D3F80841D3F8442144B9002AEC
:1029200030D1002FF4D035440023EB75032249E762
:10293000002FF8D142BBCC7DC3F80821D4B1D3F825
:1029400008410694069CCF684C7ED3F818353B5559
:102950004B7ECC7D0133DBB24B764B7E9C42D6D88E
:1029600035440021AB7EE975002B34D0036801218A
:10297000196027E7D3F808410794079CD3F8183566
:102980004B7EEDE7002FCED135440023EB750F22AF
:1029900018E7112216E7036801E0A0B9BCB9D3F823
:1029A0001011D3F84401D3F824410029F5D016447E
:1029B000002C4FF0000314BF03221A469842F3750F
:1029C00018BF0F22FEE616440F22F175FAE61644F0
:1029D0000322F075F6E6036801215960F2E600BFB4
:1029E00080270020114A037902EB4313197FD9B9DC
:1029F0009B7ECBB910B4016883B0C1F82431D1F803
:102A0000244101680094009CC1F80831D1F80831D4
:102A1000016801930123019C0B60017902EB4112D3
:102A2000937603B05DF8044B704700BF8027002009
:102A300070B59B4C237F8EB0002B75D1994AD2F88C
:102A40000413890548D4974BD3F80423520704D5BF
:102A5000D3F80821002A40F0CA80924BD3F81C21F9
:102A6000C2B1A28AA07D8E4992B282424FF000028A
:102A7000C3F81C2180F0A980D3F81C210692069A85
:102A8000888A8A8A8D6880B20132285C92B28A82F2
:102A9000C3F81C05834BD3F84421DAB10022C3F8F4
:102AA0004421D3F84411A27E04910499002A40F0F5
:102AB0008980E27D7A4B6AB10022587ED968DA7546
:102AC00001228DF830000B918DF828200AA893E898
:102AD000060090470EB070BDD2F824110029B2D084
:102AE000C2F82431D2F82411A37E07914FF401716A
:102AF0000798C2F808130BB901235360694A0223EF
:102B00008DF82830D2F88034C2F88034E07DE26855
:102B10000D9300238DF83000E375237621680B9226
:102B200063680AA8984798E75E4BD3F82421002AE7
:102B300040F09380D3F8101161B1C3F81021D3F89D
:102B4000101103910399D3F83C15E07DC9B2884276
:102B500000F0AA80534BD3F84421B2B10022C3F84D
:102B60004421D3F84411E07D019101994C4960B1B1
:102B7000D3F83C35C8688DF830300123CA750B9006
:102B80008DF828300AA80AC99847464BD3F8202167
:102B9000002A9FD00022C3F82021D3F82011A07D65
:102BA000009100993E49002894D0D3F84C058B68D9
:102BB0008DF830008A750B938DF828200AC90AA871
:102BC000984787E701221A6073E7D3F81C31059311
:102BD000059B00283FF45EAF8B688DF830008A7546
:102BE0000B938DF828200AC90AA8984752E7E17D7F
:102BF0002B4A002970D00021C3F80811D3F808111E
:102C000008910899D068517ED3F818354354537E03
:102C1000D17D0133DBB25376627E214B8A427FF451
:102C20001CAF1A7E002A6DD19B7E13B91D4B012269
:102C30005A601C4AE06863684FF40171C2F80813D7
:102C4000627E8DF83020002501220B902168E57509
:102C50008DF828200AA89847FFE60022C3F824210F
:102C6000D3F82411029102218DF828100299D3F88B
:102C70008014C3F880140D91D3F83C15E368E27515
:102C800022768DF830100B93216863680AA8984764
:102C9000044BD3F84421002A3FF477AF5EE700BF2E
:102CA0008027002000200040217EF1B1D3F800628F
:102CB000E17526F02001E568C3F8001226698DF859
:102CC000300001238DF82830227621680B95E660CC
:102CD00063680AA898473DE7C3F80811D3F80821AC
:102CE0000992099AD3F8183596E7E268E17501234D
:102CF0008DF830008DF828300B9294E80A000AA86D
:102D0000984727E7DE685D7E1869DA7501210022A1
:102D1000D8601A765A768DF828100B968DF83050B8
:102D200093E806000AA8904797E600BF0220FEF746
:102D300037B800BF2DE9F0470D460646FEF772F89A
:102D400003281ED8012D04461FD00ED3022D1AD100
:102D50001E4B00EB40041C44657895B11C4B1B686E
:102D60007BB12846BDE8F04718471A48FDF722FE18
:102D70001649194A04EB44030B44155D9B789D42A8
:102D8000EBD0BDE8F087BDE8F087DFF84080470072
:102D90003B1808EB030218F8035053782BB927446B
:102DA00047440D4BBA781A55D7E70C4BDFF83090F3
:102DB0001968084801EB810149004A46FDF7A2FD68
:102DC0000028ECD189F80060E9E700BF1C2800204A
:102DD000D4270020D8270020C8270020D027002093
:102DE000C02700207F4B1B68DB0700D4704770B5FD
:102DF0007D4E7E4D33782C789BB9172C10D8DFE8A8
:102E000004F0666B6B879CB0C2AA2415241582312E
:102E10003131313151565ECF0C0CFDF7ABFF2C70C8
:102E200070BD00233370FDF78FFFE6E701231846DE
:102E30003370FDF7B5FF6E4B6E481968002201EB49
:102E40008101BDE87040FDF75DBD01231846337078
:102E5000FDF7A6FF664B674819680022BDE8704081
:102E6000FDF750BD6448FDF7A5FDD4F111040246FD
:102E700000F0A180002840F09E80012C0DD0C825D4
:102E80005E4B5B495C48096805FB04F4A3FB044303
:102E90005B0901FB03F1FDF735FD0220BDE8704041
:102EA000FDF73ABFFDF750FF12232B7070BDFDF701
:102EB0004BFF0020FDF730FF13232B7070BDFDF793
:102EC00043FF0120FDF728FF14232B7070BDFDF791
:102ED0003BFF00232B7070BD0020FDF70DFF002885
:102EE00079D00020FDF724FF022C14BF28231223E1
:102EF0003F4A2C7011683F4801FB03F10022BDE8F6
:102F00007040FDF7FFBCFDF735FF0C232B7070BD43
:102F10000020FDF7F1FE002856D00020FDF708FF45
:102F20000822334B3348196803232B7001FB02F14D
:102F3000BDE870400022FDF7E5BC0020FDF7DCFE97
:102F400000283DD00020FDF7F3FE2822284B294819
:102F500019680423E9E70020FDF7DEFE07232B7044
:102F600070BD0020FDF7C8FE90B30020FDF7E0FE25
:102F70001F4B2048196805232B7049000022BDE82B
:102F80007040FDF7BFBC0020FDF70AFF184B194841
:102F9000196806232B700022BDE87040FDF7B2BC13
:102FA000FDF7D2FE0020FDF7B7FE0120FDF7B4FECD
:102FB00015232B7070BD0220BDE87040FDF7B8BE30
:102FC000FDF7AAFE0422C1E7FDF7A6FE0222A8E74C
:102FD000FDF7A2FECCE7FDF79FFE022C14BF0423F1
:102FE000022385E7C4270020CC270020F8270020F3
:102FF000D0270020A0270020FC2700201F85EB51B0
:1030000010B50078FDF70EFF03280BD8064B00EB38
:1030100040001844407828B1044B1B6813B1BDE848
:103020001040184710BD00BF1C280020D4270020E6
:10303000FDF7E8BE70B5964B1A6812F0010202D196
:103040001646304670BD934D2B780446E3B9172CD5
:1030500000F21C81DFE814F0E600ED00ED00540002
:103060006B008200970046002C001D002C001D0004
:10307000A500AC00AC00AC00AC00AC00CB00D200B2
:10308000DC0039004E004E0000232B70FDF75CFE83
:10309000DDE7012318462B70FDF782FE7E4B7F484B
:1030A0001968002201EB8101BDE87040FDF72ABCE0
:1030B000012318462B70FDF773FE774B774819688C
:1030C0000022BDE87040FDF71DBCFDF73DFE00206D
:1030D000FDF722FE0120FDF71FFE714B15221A702D
:1030E0000026AEE70020FDF717FE6D4B07221A7091
:1030F0000026A6E7FDF73EFE694B00261C70A0E700
:103100000020FDF7F9FD002800F0BC800020FDF74D
:103110000FFE08226049624B0968604803241C7056
:1031200001FB02F1BDE870400022FDF7EBBB00207F
:10313000FDF7E2FD002800F09E800020FDF7F8FD7D
:1031400028225549564B0968544804241C7001FB39
:1031500002F1BDE870400022FDF7D4BB0020FDF76E
:10316000CBFD002800F08B800020FDF7E1FD4A4AEE
:103170004B4B1168494805241C7049000022BDE8EA
:103180007040FDF7BFBB0020FDF70AFE444B424AEA
:103190004248116806241C700022BDE87040FDF70B
:1031A000B1BBFDF7E7FD3E4B0C221A70002648E745
:1031B0003C48FDF7FFFBD4F11104064650D000282F
:1031C0004ED1012C0FD0C825374B334935480968FB
:1031D00005FB04F4A3FB04235B09324601FB03F166
:1031E000FDF790FB06460220FDF796FD29E7FDF767
:1031F000ABFD2B4B12221A70002622E7FDF7A4FD2F
:103200000020FDF789FD264B13221A70002618E7CF
:10321000FDF79AFD0120FDF77FFD214B14221A7066
:1032200000260EE7FDF790FD1D4B00221A70164692
:1032300007E70020FDF760FDB0B10020FDF778FD45
:10324000022C14BF282312231349154A096814704D
:10325000124801FB03F10022BDE87040FDF752BBAC
:103260000220FDF765FDECE6FDF756FD022C14BFCC
:1032700004230223E8E7FDF74FFD042261E7FDF791
:103280004BFD74E7FDF748FD022243E70026D8E630
:10329000C4270020CC270020D0270020A027002012
:1032A000F8270020FC2700201F85EB51F0B5214DA9
:1032B000214E224B2860044610F0020083B031609A
:1032C0001A6012D01E4B1F484A080F270E211026E5
:1032D00011251970DF7004219E715D72FCF7B2FD3B
:1032E000A0B1E3071DD403B0F0BDE20719D4164A1C
:1032F00016480021FDF7F4FA0028F4D1144A1548C5
:10330000012103B0BDE8F040FDF7EABAFCF7F2FD99
:103310000028E6D10146104A1048FDF7E1FAE1071E
:1033200003D50190FDF750FD01980028DFD003B0D0
:10333000F0BD00BFC4270020D0270020D4270020E4
:103340001C28002020720200E52D02001C720200E1
:103350002D2D02004072020001300200187202009E
:10336000032801D907207047012A12D0012917D05C
:1033700008D30229F6D10D4B00EB40000344002096
:103380005A707047094B00EB4000034400209A70CC
:103390007047012901D00022E8E700F10E02D2B205
:1033A00000EB400301490020CA5470471C2800204C
:1033B00008B5FDF749FD800000F1A0430020D3F8D7
:1033C000002722F44032C3F80027D3F8002742F444
:1033D0004032C3F8002708BD08B50020FFF7E8FF1A
:1033E00010B1062800D008BD0120FFF7E1FF00283A
:1033F000F9D0062808BF002008BD00BF10B503881B
:10340000102B08D0112B05D1264B186801381860F5
:1034100038B110BD10BD234C216881B1013121604C
:1034200010BD01220221FFF79BFF48B3072827D0D8
:103430001D4B1B68002BECD0BDE810401847012243
:103440000846FFF78DFF48B1072807D0164B1B68C9
:1034500003B1984721680131216010BD0722022184
:103460000120FFF77DFF08B10728EFD104220221D8
:103470000020FFF775FF0028ECD00728E6D1E9E728
:10348000072202210120FFF76BFF08B10728CFD1E7
:10349000002108460A22FFF763FF0028B9D0072859
:1034A000C6D110BD2C28002028280020194B10B5AB
:1034B000186031B101200C46FFF7BAFD30B102238C
:1034C0002370154B186848B1002010BDFFF7B0FD00
:1034D000E8B9114B207018680028F5D101220221AB
:1034E000FFF73EFF08B10728EFD107220221012094
:1034F000FFF736FF08B10728E7D1002108460A2266
:10350000FFF72EFF0028DFD00728DED1DCE70B23F2
:103510002370D6E7282800202C28002076DF70476B
:103520007ADF70477CDF70477FDF7047A8DF704726
:10353000A9DF7047ADDF704767DF704732DF704744
:103540003EDF7047FCF7ECBC10B5044684B001F0D8
:10355000EFFD2146494801F0E9FF2388023B542B47
:1035600035D8DFE803F07834343434343434343448
:10357000343434342B7F34453434343434343434B8
:1035800034343434343434343434343434343434FB
:103590003434343434343434343434343434343CE3
:1035A00034343434343434343434343434343434DB
:1035B00034343434344F673434713C000720FFF71F
:1035C00039FD08B1FCF7ACFC2D4BA2881A802046CF
:1035D00001F048FC2046FFF711FF04B010BD132195
:1035E000A088FFF79BFF0028F1D0FCF799FCEEE7DD
:1035F000234A0023108885211A46FFF795FF0028EB
:10360000E5D0F2E7A279002AE1D0A37B043B022BAC
:10361000DDD8022A0CBF022201224FF4C173694691
:10362000A0888DF80020ADF80430FFF77FFF002858
:10363000CDD0DAE7124A0023108819461A46FFF760
:1036400077FF0028C3D0D0E71721A088FFF772FFCB
:103650000028BCD0C9E70021A088FFF76DFF002833
:10366000B5D0C2E70020FFF7E5FC08B1FCF758FC35
:10367000034B4FF6FF721A80A9E700BF382A0020DB
:103680009421002010B50C460878FDF7C9FA23787C
:10369000313B362B25D8DFE803F0252E3740495241
:1036A0005B646D242424242424242424242424241A
:1036B00024242424242424242424242424242424CA
:1036C00024242424242424242424767A8324248C4B
:1036D0001C003C4B93E8030003F0A0F83A4B002297
:1036E0001A7010BD374B93E8030002F08BFB374B89
:1036F00001221A7010BD334B93E8030002F0D8FB8F
:10370000324B00221A7010BD2E4B93E8030002F0DA
:103710006FFA2F4B01221A7010BD2A4B93E8030059
:1037200002F078FA2A4B00221A7010BD254B93E85C
:10373000030002F0ADFF274B01221A7010BD214B90
:1037400093E8030002F094FF224B00221A7010BD90
:103750001C4B93E8030002F0E3FD1F4B01221A709B
:1037600010BD184B93E8030002F0CAFD1A4B00226B
:103770001A7010BD134B93E8030002F02FFC174B97
:1037800001221A7010BD154B00221A7010BD0D4B8E
:1037900093E8030002F0ACFF114B01221A7010BD38
:1037A000084B93E8030003F011F80D4B00221A7048
:1037B00010BD044B93E8030003F018F8024B0122FC
:1037C0001A7010BD60720200A0280020BE290020DF
:1037D000BC290020BD290020542A0020B828002040
:1037E000BF29002008B5037803B108BD054B3B2174
:1037F0001888FFF793FE0028F7D0BDE80840FCF7D3
:103800008FBB00BF94210020072808B51CD00A28D0
:103810000ED0042800D008BD144B13211888FFF7E0
:103820007DFE30F00803F6D0BDE80840FCF778BB19
:103830000020FFF7FFFBB0B9FFF7CEFD80B9FFF71F
:103840007DFE0028F0D108BD084B1A884FF6FF73A3
:103850009A42E0D101F066FB30F00803DBD0E3E7E9
:10386000FCF75EFBEBE7FCF75BFBE5E79421002050
:1038700038B50378012B02D007D3022B04D140685E
:10388000BDE83840FCF74CBB38BD0F4D0F4C2878D5
:103890002044FDF7A5F92A780132D2B214442A70E7
:1038A00014F8013C0A2B01D0132A0BD90749084808
:1038B00001F060FF30F0080301D0FCF731FB00237A
:1038C0002B7038BD38BD00BFA1280020A4280020DF
:1038D000382A002008B530B1032803D10220FFF7B1
:1038E000A9FB50B908BDFFF7A5FB50B9FFF774FD60
:1038F00050B9FFF723FE0028F4D0BDE80840FCF7DC
:103900000FBBFCF70DFBF1E7FCF70AFBF1E700BF8B
:1039100082B02DE9F0475A4C5A4F26689CB006AD4C
:1039200042F210740DF1900E8EE80C0085E8030051
:10393000234600BF00BF00BF00BF00BF00BF00BFE5
:1039400000BFBE422FD000BF00BF00BF00BF00BFFE
:1039500000BF00BF00BF00BF00BF00BF00BF00BF6F
:1039600000BF00BF00BF00BF00BF00BF00BF00BF5F
:1039700000BF00BF00BF00BF00BF00BF00BF00BF4F
:1039800000BF00BF00BF00BF00BF00BF00BF00BF3F
:1039900000BF00BF00BF00BF00BF00BF00BF00BF2F
:1039A00000BF00BF00BF013BC3D1374E09AC0020B0
:1039B000FDF7F6F9132200212046FBF7C3FD96E838
:1039C0000300002202F0CCFA28AD024680462F49BF
:1039D000204602F071FF95E807008DE807001327E5
:1039E0000394049724AB0FCB02F072FE3A460021F9
:1039F0002046FBF7A7FD96E80300012202F0B0FA8B
:103A0000234902468146204602F056FF95E807000A
:103A10008DE807000394049724AB0FCB02F058FE07
:103A20003A4600212046FBF78DFD96E8030002226E
:103A300002F096FA174902468246204602F03CFF01
:103A400095E807008DE807000394049724AB0FCB9B
:103A500002F03EFE424638460F49CDF800A04B46E4
:103A6000FCF762F896E80300112202F05DFAFCF719
:103A7000C9F80028FBD11CB0BDE8F04702B0704780
:103A80009C2100200024F400607202006C7202008D
:103A9000787202008472020090720200F0B5094E42
:103AA000094F06F108050FCD87B06C460FC42B688F
:103AB000236097E8030096E80C00FFF729FF07B0A2
:103AC000F0BD00BF382A00206072020010B55349D3
:103AD0001320FBF773FFFCF795F80028FBD1504C3F
:103AE000012294E8030002F01FFA4E4B4E491A6877
:103AF00042F2107300BF00BF00BF00BF00BF00BF95
:103B000000BF00BF8A422FD000BF00BF00BF00BF70
:103B100000BF00BF00BF00BF00BF00BF00BF00BFAD
:103B200000BF00BF00BF00BF00BF00BF00BF00BF9D
:103B300000BF00BF00BF00BF00BF00BF00BF00BF8D
:103B400000BF00BF00BF00BF00BF00BF00BF00BF7D
:103B500000BF00BF00BF00BF00BF00BF00BF00BF6D
:103B600000BF00BF00BF00BF013BC3D1072394E8E3
:103B70000300012202F0BAF994E803003F231F2258
:103B800002F0B4F994E803003F23212202F0AEF9D9
:103B900094E803003F23232202F0A8F994E80300ED
:103BA0006223022202F0A2F994E803000123052215
:103BB00002F09CF994E803000123032202F096F935
:103BC00094E803006223062202F090F994E80300CF
:103BD0000223092202F08AF994E803000123072254
:103BE00002F084F994E8030062230A2202F07EF9CD
:103BF00094E8030004230D2202F078F994E803000E
:103C00000B22012302F072F994E80300112202F062
:103C10008BF9FBF7F7FF0028FBD110BDD87202002B
:103C2000607202009C2100200024F400F0B5A9B0CD
:103C300000201C90034602461B271A264FF0CD6534
:103C4000022419A9944819971A961B958DF870406B
:103C5000FDF780FF002800F01A81FCF761F90020D1
:103C6000FBF790FE08B1FCF75BF9002318468B4A7E
:103C70000521FCF755FD08B1FCF752F9884D894B39
:103C80000A930FCD19AC0FC495E80300864A874DFF
:103C90000C9584E8030007234FF480740AA919A83F
:103CA0000B940D94FCF72AFF08B1FCF739F9804A10
:103CB00040F6CD410320FFF7F9FA08B1FCF730F9DF
:103CC00019A90020FFF7F2FB08B1FCF729F9794B9D
:103CD000794918680A90002350220AA801F0EAFDE9
:103CE00008B1FCF71DF919AA0121002001F04EFED0
:103CF00008B1FCF715F9172319A8ADF8743001F0D5
:103D00005DFE08B1FCF70CF96C4801F01DFE08B12E
:103D1000FCF706F99DF828306948012262F3030395
:103D200062F307138DF8283002F0F2FD644982B285
:103D30000AA8FFF7F7FB08B1FCF7F2F80822002108
:103D400019A8FBF7FFFB10243C2100224FF4C87395
:103D500019A8ADF86440ADF86610ADF86820ADF86C
:103D60006A30FFF7DDFB08B1FCF7DAF80021042226
:103D700019A8FBF7E7FB534B5348199319A901F016
:103D800001FC08B1FCF7CCF800210C463C220AA843
:103D9000FBF7D8FB0225052321463C2219A88DF804
:103DA00028508DF82B3001258DF82A40FBF7CAFBEF
:103DB000464B1E932146202202A8ADF87450B4272A
:103DC000FBF7C0FB40F264664FF0400E009402AA7D
:103DD0000AA83F4B8DF80B5019A98DF80C50099487
:103DE000CDF818E00797089600F060FF08B1FCF7DF
:103DF00097F81C22002119A8FBF7A4FB4FF42036EA
:103E000000234FF4702503243249334A199319A82B
:103E1000ADF872308DF874301A961B958DF870409D
:103E20001E911F9201F04AF908B1FCF779F8FCF7EE
:103E3000CBFF2A491320FBF7C1FDFFF747FE032004
:103E400000F0F0FF08B1FCF76BF8FBF7DBFE002891
:103E5000FBD1234A23480121FCF742FD08B1FCF7BE
:103E60005FF800224FF4C0311F48FCF74BFD58B9F2
:103E70001A491320FBF7A2FDFBF7C4FE0028FBD173
:103E8000FFF75EFB0028F3D0FCF74AF8F0E70248A2
:103E9000FEF704F8E3E600BF60720200C0290020CC
:103EA00044720200BC28002071380200582A002009
:103EB000093802005C7202003028002049350200F7
:103EC000E872020085360200382A0020982100207E
:103ED000D5380200E53702004535020004730200C0
:103EE0009D3A020068720200802800202DE9F84FF8
:103EF0004300DFF870A11E180AEBC6068846F16A77
:103F00000129174641D031D3022939D1013000EBC4
:103F10004000756A4FEAC0094FF0000B1CE0326A9E
:103F2000641BBC420AEB09012346A2EB050428BF2F
:103F30003B469C42486828BF1C46284441462246CE
:103F400002F07CFC336A25449D4208BF00253F1BDC
:103F5000A344A044756215D0B36AAB4203F1FF34A9
:103F6000DDD8326A1344013B5C1BDAE7B16A726A3E
:103F700091429CBF346A091901398A1A974236D98D
:103F80004FF0000B5846BDE8F88FB16A756AA94238
:103F900027D90139326AC5EB010B03440AEBC30A86
:103FA000BB45DAF824502F4B28BFBB46561B0130C7
:103FB000B34500EB40003BD303EBC00432466068DE
:103FC00041462844C6EB0B0502F038FC606808EB5C
:103FD00006012A4602F032FCCAF824505846BDE8D1
:103FE000F88F326A8C18013CC5EB040BD5E703440B
:103FF0000AEBC30A0130DAF82460DAF82040194BE2
:10400000A41BA74200EB40001ED303EBC0052246D1
:104010006868414630443E1B02F010FC686808EBBB
:104020000401324602F00AFCBB46CAF82460A9E744
:1040300003EBC003414658685A4628445D4402F0E9
:10404000FDFBCAF824509DE703EBC00341465868C6
:104050003A4630443E4402F0F1FBBB46CAF82460C5
:1040600090E700BF482F0020F8B5114C2378F3B932
:10407000A362104A63620220A365E362E36563659D
:104080000D4F0E4D0E49206110234FF4007623652D
:104090006061A261A264E01DE7612662E56402F04E
:1040A0002FFC0849204602F02BFC2023A371F8BD09
:1040B000482F00201C730200682B0020582B002082
:1040C000287302002C7302006DDF704772DF7047A7
:1040D00079DF70477DDF704765DF70472DE9F04F6E
:1040E00083B004880C9FBDF83490B7F800A0002C72
:1040F0004CD09846002316468B4605461C4603E0E6
:104100002A880134A24224DD6A6852F82400019012
:1041100000220DF1030101A8FFF7DEFF10BB9DF89F
:104120000320B242ECD103B33A8893194B4518DC13
:1041300042440DF1030101A80123FFF7CDFF88B927
:104140003A889DF803100A443A802A880134A24232
:10415000DADCDBB13B88013BCAEB03039BB2FF2BEC
:1041600012D90C2003B0BDE8F08F3B885A1C3344B1
:1041700002334B4592B2F4DC3A8008F802B03A8838
:10418000013292B23A80D3E708F80A30002003B037
:10419000BDE8F08F2DE9F04700231788138090F8D1
:1041A0002D3084B0144605460E46002B49D1AA781E
:1041B000002A70D1EA78002A2ED16A68A2B1D91CEF
:1041C000B94225D8022192F90020F1542388013305
:1041D0009BB20A212380F154238801339BB22380B0
:1041E000F2542388013323802B89002B40F02A814D
:1041F0002B8A002B40F03F812B8B002B40F0548109
:104200002A6A002A00F0A78021888B1DBB4262D950
:104210000C2004B0BDE8F087D91CB942F8D80221BF
:10422000F154238801339BB201212380F154238868
:104230000B449BB22380F25423880B449BB223800F
:10424000BBE7082FE4D902A8FFF73EFF0028E0D122
:1042500013880822CA54238801339BB21B2223806F
:10426000CA542088013080B22080062208440DF113
:10427000090102F0E3FA23889DF8082006339BB277
:1042800012F0FE0218BF01222380F254238801336A
:104290009BB223808BE70433BB42B9D802A8FFF757
:1042A00017FF0028B5D12388BDF808200321F15459
:1042B000238801339BB219212380F15423880133D1
:1042C0009BB2F1182380F254120A4A7023880233F9
:1042D0009BB223806EE71388052B40F2AF806FF40A
:1042E000486803EB080080B24FF27D3E704540F213
:1042F000A5805088052840F2A1806FF4486C844462
:104300001FFA8CFCF44540F299804FF6FF7E73450E
:1043100004D0704502D0834200F29080052373548C
:10432000238801339BB212212380F1542388013367
:104330009BB223801188F1543344090A59702388B1
:1043400002339BB223805288F2543344120A5A70CB
:10435000238802332380D5F82480B8F1000F30D0B1
:10436000B8F804202188131D0B44BB423FF650AF20
:10437000931CFE2B3FF64CAF03327254238801335B
:104380009BB2FF222380F254238801339BB2238007
:10439000B8F80020F2543344120A5A7020880230D0
:1043A00080B22080B8F804205AB1D8F8081000294B
:1043B00044D0304402F042FAB8F804302288134462
:1043C000238095F82C30002B40F08B802878002833
:1043D0003FF41FAF2B88012B30D023889A1CBA42A0
:1043E0003FF616AF012805D16978023119448F4292
:1043F000FFF40EAF023FFB1A04A99BB221F8083D5F
:10440000B018FFF767FE00287FF403AF2A78022A6E
:1044100000F0B480012A60D01A460821FE2A3FF637
:10442000F7AE2388551CF554238801339BB22380B3
:10443000F154238801331A442280EAE6072004B0AD
:10444000BDE8F08705F1080802228DE8900040469B
:1044500011463346FFF742FE00287FF4DAAE8DE8BE
:1044600090004046334610220621FFF737FE002811
:104470007FF4CFAEBCE605F110088DE89000404611
:10448000334602220321FFF729FE00287FF4C1AE44
:104490008DE890004046334610220721FFF71EFEAC
:1044A00000287FF4B6AEA7E605F118088DE8900065
:1044B0004046334602221421FFF710FE00287FF405
:1044C000A8AE8DE890004046334610221521FFF734
:1044D00005FE00287FF49DAE92E66A7893429CD256
:1044E0009AE7D5F82880B8F1000FA7D0B8F80420D3
:1044F0000232FE2A3FF68CAE23884FF000094FF0BF
:10450000160A0132F254238801339BB2238006F845
:1045100003A0238801339BB22380B8F80020F25413
:104520003344120A5A70238802339BB22380B8F8AE
:104530000410F0180A4669B1D8F808301946002B63
:104540003FF47CAF02F07AF9B8F8043022881344C3
:104550009BB2238009F1010995F82C205FFA89F9B3
:104560004A4509EB49087FF631AFAA6A02EB880891
:10457000B8F804200232FE2AC3D949E6BDF8082063
:104580009342FFF449AF092148E700BF2DE9F0430A
:1045900095B01F230D46ADF80E300446002800F0FC
:1045A0008480C27853077CD590F82D300021ADF877
:1045B0000C10002B40F0DD8183780CAF002B40F015
:1045C00019821946032014AE31445F1C023316FAD7
:1045D00087F74FF0020E16FA83F601F840EC83B22B
:1045E000012107F8401CADF80C3006F8402C666835
:1045F000002E00F08C80D81C1F2874D90C2015B018
:10460000BDE8F083A76A002F4BD0BA880232FE2A99
:10461000F4D8BDF80C304FF0000804AE4FF0160986
:104620001AE002F00BF9BDF80C20BB8894F82C10AE
:1046300013449BB2ADF80C3008F101085FFA88F81A
:10464000884508EB480780F0F080A26A02EB8707F4
:10465000BA880232FE2AD1D80DF1500E9E44581C61
:1046600001320DF1500C0EF8402C1CFA80F09A1C0F
:1046700092B200F8409CADF80C203888B054324417
:10468000000A50700433B7F804E09BB27246F01889
:10469000ADF80C30BEF1000FCED0BB681946002B30
:1046A000BFD1072015B0BDE8F083ADF80C00ADB167
:1046B000EB78002BF5D128460CA90DF10E02FFF77F
:1046C00069FD0028EED19DF80E300CAA20469DF819
:1046D0000C10FFF7FBFC15B0BDE8F0832B46ADF8DE
:1046E0000E502A46F2E714AF591C9A1C17FA81F1B2
:1046F0003B4417FA82F296F90060ADF80C000227ED
:104700000A2003F8407C01F8400C02F8406C238931
:10471000002B40F08F80238A002B40F0AB80238B4E
:10472000002B40F0C780226A002A42D0BDF80C302E
:10473000991D1F293FF662AF10880528B1D96FF483
:10474000486C00EB0C06B6B24FF27D37BE42A8D9DA
:104750005688052EA5D96FF4486EB6441FFA8EFE12
:10476000BE459ED94FF6FF77B84203D0BE4201D076
:10477000B04296D814A8C7185E1C10FA86F64FF0FF
:10478000050E981C07F840EC80B2122706F8407C12
:10479000ADF80C001788ADF80C1004AE3118375482
:1047A00004333F0A4F709BB25288F2543344120ACA
:1047B0005A70676AA7B3B888BDF80C30811C9A1C80
:1047C00056181F2E3FF61AAFFE293FF617AF14AE4C
:1047D0001E44591C0DF1500E1EFA81F1033006F8EB
:1047E000400C92B2FF2001F8400CADF80C20398843
:1047F00004AEB018B154090A41700433BA8898B2B3
:10480000ADF80C0062B1B96800293FF44AAF3044FA
:1048100002F014F8BDF80C20BB881344ADF80C303E
:1048200094F82C1000297FF4EDAE2378002B61D191
:1048300004AC3CE703A904F1080704AE4FF01F08DD
:104840000222009138463346CDF804801146FFF726
:1048500045FC00287FF426AF03AB0093CDF804801D
:104860003346384610220621FFF738FC00287FF433
:1048700019AF50E703AA04F1100704AE4FF01F0868
:10488000009238463346CDF8048002220321FFF718
:1048900025FC00287FF406AF03AB0093CDF804801D
:1048A0003346384610220721FFF718FC00287FF412
:1048B000F9AE34E703AA04F1180704AE4FF01F085D
:1048C000009238463346CDF8048002221421FFF7C7
:1048D00005FC00287FF4E6AE03AB0093CDF804801E
:1048E0003346384610221521FFF7F8FB00287FF4E5
:1048F000D9AE18E72288012A3FF4D3AEBDF80C20C8
:10490000901C1F283FF67AAE012B05D16378134423
:1049100002331F2B3FF672AEC2F11D0314A99BB2E6
:1049200004AE21F8203D3044FFF7D4FB00287FF48B
:10493000B9AE2278022A00F08780012A00F08B802D
:10494000ADF830301A460820FE2A3FF657AEBDF8C3
:104950000C3014AC591CE71814FA81F102331344DB
:10496000013207F8402C3446ADF80C3001F8400C09
:104970009DE60CAF3846FFF7A7FB00287FF492AE08
:10498000BDF80C3014A903F1010E9A1C11FA8EFE29
:104990000B4492B204AEB01808211B2603F8401C49
:1049A000ADF80C200DF1310106220EF8406C01F03B
:1049B00045FFBDF80C209DF83010931D11F0FE014D
:1049C0009BB23BD114A8034403F8401CD31DA2782A
:1049D0009BB2ADF80C304AB9E278002A3FF407AE3A
:1049E000D81C1F2819463FF609AEECE504331F2BEF
:1049F0003FF604AE3846FFF76BFB00287FF452AE5B
:104A0000BDF80C30BDF83010E2785F1C14AE16FA19
:104A100087F71E44981C4FF0030E06F840EC80B256
:104A200004AE4FF0190E07F840EC04333718315438
:104A30009BB2090AADF80C307970CEE714A90B448B
:104A4000012103F8401CC1E7BDF830209342FFF478
:104A500077AF092078E762789342FFF471AFADF841
:104A60003020082070E700BF73DF704774DF7047A5
:104A7000F0B5844D85B00646072200218248FAF73A
:104A800061FD6B78FBB9AB78804F002B70D17E4C09
:104A90006378002B70D1A378002B6DD1E378002BC5
:104AA0006AD12379002B67D16379002B64D1A37974
:104AB000003318BF0123701E032800F2DF80DFE8F7
:104AC00000F0164F1C38714F3B78012B04D0AA78A8
:104AD000002ADCD0022BDAD16D4B6E4A1B68002B0A
:104AE00000F0C3800121082011709847CFE76A7851
:104AF000002A35D0002B40F0BA80EB78CBB1644B64
:104B00001B6803223A70E3B9634B00221A7010222B
:104B100068460021FAF716FD3B7800228DF8002048
:104B20008DF80820042B49D8DFE803F093876D4BFC
:104B300028002B79D3B1564B1B6804223A70002B06
:104B4000E2D02A78002ADFD0544A1278002ADBD13A
:104B5000534851490270012207200A709847D6E74E
:104B6000AA78002AC9D0002BC7D002233B70CBE71C
:104B70003B78012BAED1AFE701239CE72B78A969E5
:104B8000EA69ADF80A10ADF80C20002B65D0434B54
:104B90001978002961D1424B1B78002B5DD0414B25
:104BA000042402221846DC708DF80820FFF7EEFC82
:104BB00000285FD13C4A3B7806211170002B33D08E
:104BC0002EE02B7829696A69ADF80A10ADF80C203F
:104BD000002B46D0314B1978002942D1304B1B783D
:104BE000002B3ED02F4B042402221846DC708DF897
:104BF0000820FFF7CBFC00283CD12B4A3B7805214D
:104C000011708BB10CE02848EA68AB68019401216F
:104C1000022404708DF80010ADF80C20ADF80A30B5
:104C20006846FFF721FF30B9194B1B6813B11E4AC4
:104C300010789847002005B0F0BD1B49019401226F
:104C400000230A708DF80020ADF80C30ADF80A3062
:104C5000E6E7154B00221A70E6E7134B04221A70A0
:104C6000DEE7114B03221A70DAE713700FE7012316
:104C70003B7049E73B78002BD6D0D1E700233B704F
:104C800042E700BFE82D0020E02D00202E2E00205E
:104C9000B42D00202F2E00202B2E0020DB2D0020F5
:104CA000A42D0020682D0020402E00202DE9F84F73
:104CB000DDF828E0002800F09880002A00F09580B8
:104CC000144605469C460E460FCC494FDFF84491EA
:104CD000DFF844A1DFF84481DFF844B1C8F800C030
:104CE0000FC794E80F00002487E80F00414F424BA4
:104CF0004248CBF800E0012289F800202146072233
:104D00004FF6FF79A3F800908AF80040FAF71AFCF2
:104D100021463C223846FAF715FC05F1100393E8CA
:104D20000300AA78EB7895F800E0BA70FB7007F101
:104D3000100395F801C087F800E083E8030005F14F
:104D4000080393E8030007F1080E05F118038EE845
:104D5000030093E803006A6A87F801C007F11803AB
:104D600083E80300B2B1264B7B62686A254A9A60E9
:104D7000B0F804E001881980A3F804E0BEF1000F48
:104D800008D0013A23468168C95C02F8011F01334B
:104D90007345F8D1AB6AB3B11B4BBB62A86A1B4A1F
:104DA0009A6084889C800188198044B1013A00236C
