:0200000270008C
:10800000807F0020EDB9070015BA070017BA0700F6
:1080100019BA07001BBA07001DBA070000000000CC
:108020000000000000000000000000001FBA070070
:1080300021BA07000000000023BA070025BA070094
:1080400027BA070027BA070027BA070027BA070090
:1080500027BA070027BA070027BA070027BA070080
:1080600027BA070027BA070027BA070027BA070070
:1080700027BA070035A0070027BA070027BA07006C
:1080800027BA0700559C070027BA070027BA070040
:10809000B997070027BA070065B5070027BA070098
:1080A00027BA070027BA070027BA070027BA070030
:1080B00027BA070027BA07000000000000000000F0
:1080C00027BA070027BA070027BA070027BA070010
:1080D00027BA070027BA070027BA070000000000E8
:1080E0000000000000000000000000000000000090
:1080F0000000000000000000000000000000000080
:10810000000000000000000000000000000000006F
:10811000000000000000000000000000000000005F
:1084000010B5054C237833B9044B13B10448AFF3CE
:1084100000800123237010BD902C0020000000007C
:1084200094D00700084B10B51BB108490848AFF3BA
:1084300000800848036803B910BD074B002BFBD030
:10844000BDE81040184700BF00000000942C002039
:1084500094D00700742C002000000000154B002B66
:1084600008BF134B9D46A3F5803A00218B460F466B
:108470001348144A121A00F065F80F4B002B00D075
:1084800098470E4B002B00D0984700200021040095
:108490000D000D48002802D00C48AFF3008000F01A
:1084A0002BF82000290002F053F900F011F800BF6A
:1084B00000000800807F0020000000000000000095
:1084C000902C0020BC3800200000000000000000BC
:1084D00008B5074B044613B10021AFF30080054BEC
:1084E0001868836A03B19847204600F033F800BF4C
:1084F0000000000024CD070070B50E4B0E4CE41AAE
:10850000A41000251E46A54204D056F825309847F1
:108510000135F8E704F0FAFB084C094BE41AA41003
:1085200000251E46A54204D056F82530984701354F
:10853000F8E770BD6C2C00206C2C0020702C002003
:108540006C2C002002440346934202D003F8011B26
:10855000FAE77047FEE700BF2DE9F04F0388112BC3
:108560008DB0044618D002D8102B05D03DE0122B58
:1085700033D0502B1DD038E08F4B82881A8000F109
:10858000100303CB8D4A8E4B1060516000221A708D
:108590008C4BDB894BBB26E0874B4FF6FF721A8072
:1085A000874B00221A7002F0EBFAF0B1854B9B6901
:1085B00010E0844DC288EB899A4240F0BD82038A64
:1085C000022B40F0B982837CD9070CD402F0D8FA90
:1085D00058B1AB694BB1984707E000F1080303CBF2
:1085E000764A1060516001F0DFFF2388142B00F001
:1085F000958218D8102B28D008D8022B40F0A384DD
:10860000714B0021188801F0F9FC9EE3112B2ED04C
:10861000132B40F098846C4800231A46852100886B
:1086200001F0FEFC91E3522B00F07F8206D8502B24
:1086300000F08282512B2FD000F085BC552B00F02A
:108640008083562B1ED000F07EBC4FF0A0434FF429
:108650000032C3F80C25C3F808255B4BA2881A80AA
:108660005A4A136823F00203136000F06CBC01F057
:108670005DFC08B101F090FE534B4FF6FF721A807B
:1086800000F061BCA379002B40F05D844E4B1321B8
:10869000188801F0FFFF58E3A579002D00F05384FE
:1086A0001022002108A8FFF74DFF022D40F04B8457
:1086B000474D2289AB899A4240F04584A37B043B15
:1086C000022B40F240849DF826303F4E298A3088A4
:1086D00043F001038DF82630238AADF82830638AF1
:1086E000ADF82A3004F1140302220B930023069301
:1086F0008DF82020ADF8182005AB06AA079301F0ED
:1087000087FC374668B99DF81430DA0709D440F27F
:10871000FD1308A93088ADF8243001F077FC00F093
:1087200012BC002608A93888ADF8246001F06EFC60
:10873000002840F008840C22314608A8FFF702FF09
:10874000207D431E052B00F2E781DFE813F00600D1
:108750007F018E019200E501C101638A062B01D0E1
:10876000032182E01B4A617D538813800120D4F8E5
:108770001630099181420A938DF8200001D0022918
:1087800067D11548017014490C78012C02D0022CD5
:108790002AD060E0002B60D0B3F5807F5FD8002541
:1087A0000E4B0F481D7020222946FFF7CBFE0D4BC4
:1087B0000A9A1D639A6357E06A3100203C31002019
:1087C000683100204C310020682C00204435002006
:1087D00058350020AC2C0020602C0020AC3200204A
:1087E000A43500206C350020002B36D0C3F30B01DC
:1087F00031B1A549A548496D0068194481422CD181
:10880000B3F5805F2BD8A249097851B39E499F4C9C
:10881000486D24681D18A54223D84B641379CC6C8D
:108820008C64013303F003039A4C13710023D3804B
:108830002368086501332360974B08631B68974AD8
:108840000121184402F0B6FC68B12368013B2360A3
:1088500001E0072408E0052406E0032404E00424E2
:1088600002E0082400E001242146012002F07AFA07
:1088700069E303238DF82030894B1C78012C02D04A
:10888000022C50D029E3804FFA6BBB6B9A4240F028
:10889000D9807F4E039633780BB10124D3E001F0E9
:1088A0002DFF012840F019837E4B93F874201D465C
:1088B000A2B393F87A30002B00F00F837A4A92E843
:1088C0000300002800F00383002900F0008395F8DE
:1088D000DB3023B195F8DC30002B40F0F88295F8BE
:1088E00084E0704BBEF1000F00F0F182D3F8886095
:1088F000342E40F0EC8213F88CCF4FF0000E43F290
:108900000C08E64580F2E382B8F8009053F804AF13
:10891000CA4500F01E820EF1010EF2E71B78002B13
:1089200000F0DB82D3E2584D2A6D6B6D696CD31A6F
:10893000994240F087800020AB6C68646A65EB6404
:1089400002F0E0FA002840F0C282504B296D1A680C
:1089500091429846A1D14F4C236813B101F03EF9E2
:10896000FAE7504E96F8B930032B1AD14E4F4F4BC1
:108970003B60494BD8F8001018684FF02009C7F841
:10898000049002F031F94A46002806F1BB0138682C
:1089900014BF0A24012404F08BF9002818BF052411
:1089A00000E00A246B6923B1012B40F09082404B18
:1089B00000E0404B012C2ED196F8A120032A15D8B7
:1089C000DFE802F002050B0E01229A6015E0A522F5
:1089D0009A60D6F8A4206A6318E0AA229A6010E090
:1089E000AC229A60D6F8A4206A630AE022B1023A67
:1089F000012A0AD80A2404E00A24D6F88020AA60B2
:108A000004E0D6F88020EA6000E00A24AA6C5A60EC
:108A1000D8F8002002E000229A605A601A60002113
:108A200020222548FFF78EFDB222FF212348FFF7C1
:108A300089FD002322482B6302F064FA002840F0ED
:108A4000468200E00824214604200FE7638A032BB6
:108A500001BFA27D637D43EA02231A4A11BF0321AD
:108A6000538013800121022000E704238DF8203079
:108A70000B4B1B78012B27D0022B40F03382024B8B
:108A8000186D996C2BE200BF6C350020A8320020D5
:108A9000AC32002094340020C8360020B1B5070065
:108AA000602C00207C3100203C350020283800203C
:108AB0009035002084350020A4350020C8350020E2
:108AC000C1B90700AC2C0020B04BD86B196C06E282
:108AD000638A022B01D0032133E2637D09930622CE
:108AE000012B8DF8202002D0022B40F02782A84ACB
:108AF0001370A74B1B78012B08D0022B40F020826B
:108B0000A24B4FF480549A6C196DEEE19F4B4FF4D9
:108B100080741A6CD96BE8E10321A7E600231A469A
:108B20001946A08801F07AFA0FE100231A46194687
:108B3000A08801F069FA08E1964BE2889B889A4286
:108B400040F001820C22002108A8FFF7FBFC022361
:108B50008DF820308E4BB4F810B01B78CDF828B0CB
:108B600004F11209012BCDF824908B4E02D0022B78
:108B70001BD0D2E0854CE56BA36B0BEB05029A4250
:108B800001D9276CCBE060195A4649465C3004F0A5
:108B90009EF80A99E56B09980D4404F14002E563DB
:108BA00000F09EFD07462064B9E07C4B774C1B78B3
:108BB000256DA76C002B00F0B280BBF5807F00F222
:108BC000AE80636D626C0BEB050AC3EB0A03934244
:108BD00000F2A58004F148025946484600F080FDA5
:108BE0000746A064F088C4F850A000EB0B03FF2BED
:108BF00006F1500832790CD800EB022049465A465B
:108C0000404404F064F8F3880A9A1344F38055460C
:108C100048E0C0F580739DB200EB022049462A4629
:108C2000404404F054F80A9BF2883179206B5B1BB6
:108C30000A93099B2B442A440993594D594BD3F865
:108C400000E02B6892B20133F28003322B60921065
:108C5000554B08EB0121704402F04AFB28B9226B06
:108C6000F38813442363554606E02B68E76CA7643A
:108C7000013B2B60656D256530790A9ADFF8189104
:108C8000013000F0030000233071F38052B10999E4
:108C900008EB002004F01BF8B9F806300A9A1344D8
:108CA000A9F80630F288DFF8F0A0002A37D0636D0B
:108CB000206B616CDFF8D490D31A03448B422ED31F
:108CC000384B374CD3F800E023689AF8041001338E
:108CD000033223609210344B08EB0121704402F000
:108CE00007FB38B9D9F83020BAF806301344C9F870
:108CF00030300AE02368D9F84C70D9F85450C9F8DC
:108D00004870013B2360C9F850503379013303F0B8
:108D1000030333710023F38001E000273D4676888A
:108D20001D4C002E00F00F812388013B9BB2238055
:108D3000002B40F008813946284602F037F826809B
:108D400001E11721A08801F05DF9002800F0FB8007
:108D500090E495F8A130032B00F2B980DFE803F02E
:108D6000022C090995F87C30002B00F0B080BF6818
:108D70001CE095F87CE0BEF1000F00F0A880FF68D1
:108D8000A3B1023B012B20D81AE000BF6C350020B4
:108D9000602C002058350020AC2C0020AC32002084
:108DA00094340020C8360020B1B50700D5F88030D3
:108DB0009F4200F28C8008E0023B012B05D800277F
:108DC000D5F880309F4280F0828095F8E8305F4F80
:108DD000002B7CD15E4B13602023DFF89081536021
:108DE00001F002FF002872D1DFF8849197F8E920A2
:108DF00009F1080A07F1EA01504603F068FF97F805
:108E0000E930C9F848A0402BC9F84C3065D198E842
:108E1000000AB9F1000F60D019F003085DD103F02A
:108E2000E1FD534600905A4649464A4803F0DEFDAC
:108E3000002852D0484A97F8A130C2F8008017465F
:108E4000032B44D8DFE803F002190A2195F8B0306B
:108E5000002B3CD03D4BD3F8B43014E095F8A8304B
:108E6000002B34D0394BD3F8AC203A603B4BC3F5E0
:108E7000FC239A421CD90424E5E595F8A23033B3CB
:108E8000324BD3F8A4303B6012E095F8A8202F4B6A
:108E9000EAB193F8A220D2B1D3F8A410D3F8AC2051
:108EA0008B183B6009B90324CDE5002AFBD0DDE730
:108EB00020222B49264803F00AFF38680028F2D008
:108EC00001F0B0FF0028D6D102F01CF808B10A2446
:108ED000B9E5039A01231370B5E50524B3E501F064
:108EE00065FF30E005210320C0E438884FF6FF73AA
:108EF000984228D01B4B1B68DB0724D51A4B240A49
:108F000060261C710C0A1E70D97106261C720C0C8E
:108F1000090E5E7099720126110A9E70DA7200269F
:108F20001973110C120E59739A73DE705E719E7173
:108F30005C720F22A98900F0DBFF04E0072100E04A
:108F40000521062092E40DB0BDE8F08F7C310020B1
:108F50002838002028CD0700A83200200080070014
:108F60003732002044350020483500203C350020B1
:108F7000AC2C002043681A44426039B10139934255
:108F800004D013F8010B01F8010FF8E70120704736
:108F9000084B5A6E013A5A6622B907490A7822F0FC
:108FA00002020A701B6E034A0133042B08BF002320
:108FB00013667047A03400204C38002028DF70472B
:108FC00029DF704730B5044685B00D4610220021D8
:108FD0006846FFF7B7FA237A012B0CD0022B12D187
:108FE0000123A2898DF80030E389ADF80A20D31A55
:108FF000ADF8083007E000238DF8003023690293B4
:10900000A38AADF80C3063680193236829469B68F6
:109010006846984705B030BD38B51B4B5A6E1C46A4
:1090200082B3196E182202FB01331A7A012A05D085
:10903000022A22D19889FFF7C1FF13E01825D88AA8
:109040009A8A05FB0144121AE1682469B2F5806F1F
:109050004FEA80000144B4BF92B24FF480622044D2
:10906000FFF7AEFF112807D1084A137823F0020357
:1090700043F00403137038BD20B118460921BDE840
:1090800038409FE738BD00BFA03400204C38002096
:1090900038B5294A1378014698073FD5274B1C6EEF
:1090A0001820022900FB04301A4602D0032927D0D9
:1090B0003FE0234B00211970037A012B02D0022BD1
:1090C00013D036E0C58A818A4B1BB3F5806FB4BFDD
:1090D0009BB24FF480632B4418259BB205FB0422FE
:1090E0009942D38225D1002113E08389028A01337A
:1090F0008381C38901339BB29A42C38119D108E0AD
:109100000F4A13780133DBB2032B11D900231370FC
:109110000821FFF757FFFFF73BFF0AE0590708D583
:109120000649496E03F0FB03137011B143F00203CB
:109130001370BDE838406FE74C380020A0340020A1
:10914000FC30002010B50B684C689B68036000225F
:1091500043608260C4609A782244026193F90340BC
:10916000224442614A68026101F10C0242615B786B
:1091700003F0C003802B04BF0431016110BD2DE951
:10918000F34704460F464FF000084FF00009002552
:10919000A3680BB3236801220DF10701204698470D
:1091A0000646C8B1A3689DF807A0013B2A46A36004
:1091B0000AF07F00002103F09DFD1AF0800F48EABD
:1091C000000849EA010905F1070502D0462DDFD163
:1091D00002E0C7E9008900E00026304602B0BDE8A1
:1091E000F0872DE9F34183680446884663B303683A
:1091F00001220DF107019847074628B3A3689DF89F
:109200000750013B2A06A3601BD505F07F05072602
:10921000A368CBB1236801220DF1070120469847CE
:1092200090B1A3689DF80720013BA36002F07F0383
:10923000B3401D43130606F1070602D5232EE7D1DE
:1092400002E0C8F8005000E00027384602B0BDE850
:10925000F08173B50D4601A90446FFF7C2FF06462B
:1092600008B900260AE094E80F0085E80F0001998C
:109270008A42F6D3A960A3685B1AA360304602B0A5
:1092800070BD30B5044685B0154699B90268114BDA
:109290009A420FD0102D07D9102269462046FFF7B9
:1092A000F0FFA8B1103DF5E72A4669462046FFF7D2
:1092B000E8FF0DE0A3689D4201D9002008E0236883
:1092C0002A46204698470028F7D0A3685D1BA56072
:1092D00005B030BD758F070013B5044605291ED8AB
:1092E000DFE801F0070F111D1D1B9DF90430002B55
:1092F00016DA012201A92046FFF7C3FF0028F4D1A6
:109300000EE0082204E001A9FFF76BFF40B1019ACB
:1093100000212046FFF7B5FF02E00422F8E7002015
:1093200002B010BD2DE9F04357687B7813F0C00CF4
:1093300089B006468E46144603D0BCF1400F66D075
:10934000B1E003F00F025A4903F03003102B51F83B
:1093500022500BD005D8002B40F0A5802269394659
:1093600009E0202B09D0302B3DD09CE0636901221D
:109370001A7022696168A84796E0BEF1020FD4F81E
:10938000148023D1042A21D804A9FFF762FF002802
:1093900000F08980069B93B1616898F800304A79A3
:1093A0009A420CD90879226900FB032204A8A84735
:1093B00030B198F80030013388F80030EAE7012036
:1093C000059B7360069B002B6ED06CE098F8003014
:1093D0007A799A4267D922693979581C88F800004D
:1093E00001FB032210E0636939781970072A0AD15A
:1093F000636820691A796146FFF7A4F863682169F8
:10940000986800F048FF226961683046B3E7176941
:109410003B6807F1040913B9FFF75EFF44E0022936
:1094200011D104A9FFF715FF00283CD03B68616803
:109430004A4604A89847002835D0069B002BF5D152
:10944000059B736030E001291AD008D305292AD181
:1094500004220DEB0201FFF714FF042515E000259F
:109460000DF1040801350B2D1DD001224146304677
:10947000FFF707FFB8B118F9013B002BF2DB05E05D
:10948000082201A9FFF7FDFE082568B1094B0493E6
:1094900001AB05930023069507933B6861684A4634
:1094A00004A8984700E0002009B0BDE8F08300BFA1
:1094B00068CD0700758F070010B542681378002B40
:1094C00040D002F10C034360137B5BB9016841603B
:1094D00083608A78C4682244026191F903100A44C7
:1094E00042612FE05178137901F03004302C0AD119
:1094F000547B04F03004302C05D1917803695B1A59
:10950000036100230CE001F0F004202C03D1517919
:1095100013FB01F304E001F0C001802908BF04231C
:10952000517811F0300F02BF816801318160917B69
:109530000B4401690B44036192F90F20134443610A
:10954000012010BD184610BD2DE9F04F0022CBB010
:109550000C468D5CE37843EA0563657843EA05438E
:10956000A57843EA05230AAD0434AB500432402AFF
:10957000EFD12B4610269D6B19685A684FEAF544C7
:1095800084EA754484EA95255C6A21446C184FEAA4
:10959000B24181EAF21181EAD20201362244402E20
:1095A0001A6403F10403E6D1036D0193436D029342
:1095B000836D0393C36D0493036E0593436E06930B
:1095C000836E0793C36E08939B46079FDDF818E0F0
:1095D000059BDDF81080039D029E0199DFF8AC9099
:1095E0004FF0000C4FEAF32282EAB31282EA736A68
:1095F0000AAA52F82C40224659F82C4014440AEB8F
:10960000040203EA0E0A27EA030484EA0A04144463
:109610005C444FEA713A85EA060B0BEA010B8AEAD1
:10962000B10A06EA05028BEA02028AEAB15A0CF193
:10963000010C9244BCF1400F04EB0802099254441F
:10964000A846BB4606D0774635469E460E46099B41
:109650002146C7E7019A22440265029A0A444265FC
:10966000039A099932448265049A2A44C265059A8C
:109670000A440266069A1A44079B4266734483664C
:10968000089B3B44C3664BB0BDE8F08F8CCD070010
:1096900038B50C4C616E0429054610D0226E8B182B
:1096A000032B88BF043B18220131616602FB03448F
:1096B00000212046FEF746FF2C60012038BD002027
:1096C00038BD00BFA0340020044A137813F0060F01
:1096D00003D143F0020313709EE470474C3800201E
:1096E00030B512B11368DB4301E04FF0FF33094D91
:1096F000014481420CD010F8012B5340082213F092
:10970000010418BF2C46013A84EA5303F7D1F0E76D
:10971000D84330BD2083B8ED10B5084B9A685AB1D4
:1097200050B9EFF3108272B605491C680C605C6892
:109730004C60986002B962B6002010BD0835002068
:1097400000E100E010B50A494A788C78531CDBB27E
:109750009C4208BF00230C789C421FBF03704868DE
:1097600002EB420200EBC20008BF002010BD00BFA8
:109770001435002038B50C4B0C4C4FF40032C3F8B4
:10978000802001254FF48033C4F84833C4F80833EF
:10979000656001F0AFF9064BA56000241C6001F084
:1097A000A9F9044B5C7038BD00E100E000100140F5
:1097B00034330020FC3000202DE9F04FAF4AB04890
:1097C00013780078AF49B04ED1F8008085B0984248
:1097D000009111D00133DBB2022B08BF00231370BC
:1097E0001378009A06EB83035C6808EB040323F00C
:1097F0007F431360012301E000242346A348A44DC6
:109800000278296896F80C90029100270190824610
:1098100001994978914232D002EB420EDAF80410F5
:109820009AF802B001EBCE0C013211F83E10D2B220
:10983000934508BF0022022905D00329E8D12968F1
:109840004FF0000E0DE0D5F800E0DCF804C07146E2
:10985000F3460029DCD08C4500F029818B46C9698C
:10986000F7E731B14FF0000008744FF0010EC969FD
:10987000F7E7BEF1000FCBD085480160C8E70FB114
:1098800086F80C90824D23B100231F46AE469C46BD
:109890001AE02F68029ABF1A18BF01271CE0D1F8FE
:1098A0000C90C1F800C0A41A1744CA69CEF8002071
:1098B000B9F1000F08D008EB070222F07F42CB611C
:1098C0004A60C1F808900B46296821B10A68A24293
:1098D000E5D9141B0C6001272A680292DFF8ACE17D
:1098E000327BDFF8AC8103924FF0000C4FF0010B9C
:1098F00013B11A46DB6928E0019A01991278497878
:1099000091426DD002EB42099EF802A0DEF80440BD
:109910000132D2B292458EF8002008BF8EF8003096
:1099200014F83920012A04EBC901E5D14A68147CF6
:10993000002CE1D188685060C86890600869D060E8
:1099400049699161039901B154600099D2F804A06A
:1099500009685048D2F80890C1EB0A0424F07F440B
:10996000844202D84C4414600AE0CAEB010121F0A1
:109970007F4149453ABFC1EB09011160C2F800C0FF
:109980002968C2F804C0C2F808C082F810B0C2F852
:109990001CC041B11468D1F800904C4506D8C4EB06
:1099A00009040C60D161C8F80020A1E78A46D1F80B
:1099B0000090A14509D2C9EB0404D1F81C908A4655
:1099C000B9F1000F07D04946F1E7C4EB0909C1F826
:1099D0000090894651461460C2F81C90CA6187E71E
:1099E0002B68029A9A4201D1002F5BD0002B57D0EE
:1099F000D3F800A0284D009BD5F804851C68737827
:109A0000C4EB080727F07F470337A3B9234A4FF475
:109A100080334FF400314FF00109C5F84433C5F8E5
:109A20000433C2F880111160C5F8009001F062F8AB
:109A3000154B83F80190BA452CBF04EB0A03E319D8
:109A400023F07F44C5F84045D5F80435124AC8EBE9
:109A5000030323F07F43C8EB0404033324F07F4463
:109A6000A3421FD9D2F80435C2F8403501F042F8BC
:109A70000A4B4FF40032C3F8002113E030330020CA
:109A80003133002034330020FC3000201435002016
:109A90002C330020FEFF7F000010014000E100E0B9
:109AA000FFF768FE0023337305B0BDE8F08F59451A
:109AB0000ED1DEF81CE0C5F800E0BEF1000F07D1C2
:109AC0000B4F0120B86000980127C0F800E0B946AC
:109AD000D1F81CE0D1F800C0CBF81CE0BEF1000FBB
:109AE0003FF496AEDEF800106144CEF800108FE629
:109AF000001001402DE9F743064602A8002400F8B3
:109B0000014D0D46174600F0CFFF234B234A18782E
:109B10001178CBB2224909888B4238BF0133C0B2D9
:109B200038BFDCB2A04209D014781378DBB2994276
:109B300086BF0133DBB20023137001E04FF6FF74E0
:109B40009DF80700FFF7E8FD4FF6FF739C421FD01A
:109B5000DFF85890D9F800304FEAC40803EB080248
:109B600043F834708EB185B10E4B18880E4B1B68CC
:109B70002A4604FB0030314603F0A9F8D9F800303A
:109B800098440020A8F8045003E00020908000E0F2
:109B9000042003B0BDE8F08391340020903400200D
:109BA00092340020683800208C34002038330020A4
:109BB00007B5084B1B88072B8DE8030005D9064A1B
:109BC00008216846FFF796FF00E0092003B05DF822
:109BD00004FB00BF68380020419C0700F8B5124C18
:109BE000124D264622782B789A421CD023781048B2
:109BF000104A078812681048DBB219B202EBC10E96
:109C0000006852F83120BEF8041003FB07009047AB
:109C10000A4A23781288DBB29A4286BF0133DBB24C
:109C200000233370DEE7F8BD91340020903400202B
:109C300068380020383300208C3400209234002013
:109C4000082910B501D000F0A7FB03684068BDE803
:109C5000104018472DE9F0412649274B0022C1F852
:109C60004021C1F84421C1F84821C1F84C21C1F874
:109C70000021C1F804211B68002B38D01F48D1F8FF
:109C800004150468DFF888800C1B24F07F44154617
:109C900017461A68A24214D8A41A15441A7CDE6921
:109CA00062B1D8F800201F742AB1996958699047A9
:109CB00020B100F071FB5A69986990470EB13346A4
:109CC000E7E70F4B0F4A197813788B4205D1013320
:109CD000DBB2022B08BF0023137012780A4B03EB90
:109CE00082034FF480125D60084BC3F80021BDE889
:109CF000F08100BF001001402C33002034330020DD
:109D00003033002031330020FC30002000E100E03F
:109D1000B0320020A6DF70477DDF704773DF7047E9
:109D200072DF704713B5144669460822FFF7A9FA97
:109D300018B1DDE90023C4E9002302B010BD13B55A
:109D4000144604220DEB0201FFF79BFA08B1019BB8
:109D5000236002B010BD73B50D4601A90646144636
:109D6000FFF73FFA98B1019A511C0FD26B7803F0BC
:109D7000C003802B0AD02B79994207D82146304660
:109D8000FFF77FFA019B0022E25400E0002002B0BE
:109D900070BD73B50D4601A906461446FFF721FABA
:109DA000A0B1019AFF2A10D8511C0ED26B7803F093
:109DB000C003802B09D02B79994206D82146304622
:109DC00001F8012BFFF75DFA00E0002002B070BD42
:109DD000F7B50F4669461646FFF7D1F950B3DDE9EE
:109DE0000045002304F001026D084FEA34041343D8
:109DF0001CBFE443ED43E8B13B79082B02D1C6E92F
:109E0000004517E0042B02D1346022460AE0022B01
:109E100003D123B233801AB204E0012B09D163B21B
:109E200033705AB2D317AB4206BFA24201200020C2
:109E300000E0002003B0F0BD37B50D46694614467A
:109E4000FFF79DF920B32B79082B04D1DDE9000140
:109E5000C4E9000113E0042B03D1DDE90001206017
:109E60000CE0022B03D10098208080B206E0012B89
:109E70000DD1DDE90001207000F0FF000021DDE9D7
:109E800000238B4206BF82420120002000E0002018
:109E900003B030BD37B50D4669461446FFF76FF97C
:109EA00020B32A79082A04D1DDE90023C4E900237C
:109EB0001CE0009B042A18464FEAE37103D123609B
:109EC0001A460B460BE0022A03D11BB223801AB2BA
:109ED00004E0012A09D15BB223705AB2D3178B4236
:109EE00006BF82420120002000E0002003B030BD08
:109EF00030B587B004460D46ADF80620002110228B
:109F000002A8FEF71FFB01238DF80A300DF10603AE
:109F1000049302A9044BADF8085020460593FFF7BF
:109F2000F9FE07B030BD00BF4835002010B5324CF7
:109F3000216811F002018AB058D1102201A8FEF761
:109F400001FB0B230122ADF8023002238DF81430FF
:109F50008DF815208DF81830062259238DF816201B
:109F60008DF819300322FE230DF102010DF11D00C1
:109F70008DF817208DF81A30FFF7CEFEC8B9BDF85E
:109F800002100B2908D84B1C8DF81B3009231944EB
:109F90008DF81C3089B206E00C238DF81B300823A5
:109FA0008DF81C30142100231A46C9B205A8FFF70A
:109FB000B7FE0346E8B98DF8040002908DF80C0056
:109FC0002822ADF8100001A8ADF80E20FFF7A6FE7C
:109FD00070B94FF0A0424FF40031C2F80C15C2F82E
:109FE0000815226842F00202226002E0002300E02D
:109FF000034618460AB010BD4435002067DF70479D
:10A0000063DF7047ADDF7047A9DF7047A8DF704797
:10A01000A5DF7047A2DF7047A0DF704786DF70477B
:10A020007FDF70477CDF704774DF70476DDF7047FC
:10A030006CDF704773B502A8002300F8063D00F0FE
:10A0400033FD284B1B7803F0FF04002B43D1264B34
:10A050001A68002A3FD0254AD2F80813C9073AD512
:10A060001C601B68019302A8214D019BD2F8086572
:10A0700000F8054D00F018FD696828681F2994BF95
:10A080004B1C234683421A466B6004D1202B14BF1D
:10A09000013300232B602B689DF803009A423ABFDE
:10A0A000C3F12103D218D21AAB682944934238BFB6
:10A0B0000F4B0E7338BF9A60FFF72EFB6B682A6850
:10A0C0001F2B94BF013300239A4201BF074A01238B
:10A0D000C2F8083353609DF80200FFF71DFB02B081
:10A0E00070BD00BF6038002000D1004000D00040AB
:10A0F0000C3100202DE9F04F8FB08B7805921A4477
:10A1000091F90330069200251A4404460095019502
:10A110000291039104950792A368002B46D008A9E9
:10A120002046FFF75EF818B9A368002B3ED035E053
:10A13000089E002E3AD0039F4FEAD60806F0070685
:10A14000039B1A7890452BD002A8FFF7B5F9039B23
:10A150009F42F5D1454500F28480039A537803F07D
:10A160000F03082B71D1157845457AD8069BD4F892
:10A1700008901F684FF0010AA368002F6ED0994520
:10A180006CD13B68D3F800B0BBF1000F6ED0334602
:10A19000424639462046D847002877D1002077E04C
:10A1A0005B7803F00F02082ACED02AE0039B049CC0
:10A1B0005D7802A8FFF780F90028F7D115F0300F7D
:10A1C00003D1039B1B7803B10134C4B1620900239E
:10A1D000934205D05DF823100131DFD10133F7E759
:10A1E0000EAA02EB830304F01F04C4F120044FF015
:10A1F000FF3253F8383C22FA04F4A342CED10120B6
:10A2000046E013F0300F10D1049B3F2B0DD85A09B4
:10A210000EA901EB820203F01F03012101FA03F3EF
:10A2200052F8381C194342F8381CE76827B102ABD2
:10A23000324641462046B84702AA31462046FFF73B
:10A2400071F800287FF468AFA8E702A8FFF734F997
:10A25000039B9F4281D14FF0FF3502E099457FF487
:10A260005BAF31462046FFF737F8EAE79B681B787B
:10A2700098450BD1394608A8FEF764FF87F80CA073
:10A2800008AA31462046FFF74DF885E7BF6873E717
:10A290000FB0BDE8F08F7FB5002302938378039160
:10A2A000194490F903300491194403780090019007
:10A2B00005913BB1684600F026F86846FFF7FCF8C8
:10A2C0000028F7D107B05DF804FBF0B585B00F4664
:10A2D0008C68694606461546FEF7BBFF88B1B8682C
:10A2E00078B17B7803F03003202B03D12946204638
:10A2F000FFF7D1FF2A4621466846FFF7FBFE019B88
:10A30000736005B0F0BD30B543685B7803F00F02B1
:10A31000082A87B00ED103691C680025002C34D0B0
:10A32000214625736846FEF70DFF6846FFF7EBFFF1
:10A33000A468F3E713F0C00209D103F0300110293B
:10A3400002D143691A700CE099060AD506E0802A0A
:10A350001BD1016900229B060A6016D543691A7059
:10A3600013E043685A7802F00F02072A04D101690A
:10A370009868FFF790FF08E099681A79006911B1B1
:10A3800002F0A5FC01E0FEF7DDF807B030BD08B52E
:10A3900000F002F875DF7047BFF34F8F0549064B99
:10A3A000CA6802F4E0621343CB60BFF34F8F00BF73
:10A3B000FDE700BF00ED00E00400FA0508B501F07C
:10A3C00069F810B1674B684A1A6001F043F828B188
:10A3D000664B674A1B68C3F34233136001F05AF8B7
:10A3E00020B1644AD36823F08073D36001F032F85F
:10A3F00040B14FF080430022C3F80C21C3F8102174
:10A40000C3F8382501F046F810B15B4B03221A60FF
:10A4100001F040F840B1594B05221A6001229A67B9
:10A4200000229A603F225A60554B1B78062B09D1B7
:10A43000544B1B681B0705D1534B1B6803F0F003FB
:10A44000502B46D001F006F828B1504B504A1B68FB
:10A4500003F04F0313604F4AD2F8883043F470037F
:10A46000C2F88830BFF34F8FBFF36F8F4FF01023C8
:10A47000D3F80022002A03DBD3F80432002B24DABD
:10A48000454B0122C3F80425D3F80024002AFBD051
:10A490004FF010221521C2F80012D3F80024002A30
:10A4A000FBD04FF0102315223B49C3F80422D1F80A
:10A4B0000024394B002AFAD00022C3F80425D3F82F
:10A4C0000024002AFBD0FFF767FF344B344A1A60A0
:10A4D00008BD4FF08052334BD2F80414C3F8201556
:10A4E000D2F80814C3F82415D2F80C14C3F82815B0
:10A4F000D2F81014C3F82C15D2F81414C3F8301580
:10A50000D2F81814C3F83415D2F81C14C3F8401547
:10A51000D2F82014C3F84415D2F82414C3F848150F
:10A52000D2F82814C3F84C15D2F82C14C3F85015DF
:10A53000D2F83014C3F85415D2F83414C3F86015A7
:10A54000D2F83814C3F86415D2F83C14C3F868156F
:10A55000D2F84014C3F86C15D2F84424C3F870251F
:10A5600070E700BF74C007400DF0ADBA44020010A0
:10A570003C050040F0ED00E0A00500401056004012
:10A58000E00F00F0E40F00F0E80F00F058020010B8
:10A59000E40E004000ED00E000E00140642C0020EB
:10A5A0000090D00300C000402DE9F743324D6B8886
:10A5B0002A899A420FD86A899A420CD36B6A23B1CE
:10A5C00002A8012200F8042D9847002385F82D30B9
:10A5D00003B0BDE8F08395F82D40274B2CB15B6AA2
:10A5E000002BF2D002A80022ECE75E699A69DFF83E
:10A5F000988093F82C30002B18BF1646D8F80430FA
:10A60000002B37D0042E33D91C4F7B6993B37B7C4E
:10A6100002A8012B00F8044D0CBFB1464FF0000911
:10A6200000F042FA0DF10300FFF78CF878B1012336
:10A630000370134B4760D3F8043583609DF80330F3
:10A64000C660C0F81090446188F8013000E004242E
:10A650009DF80400FFF760F82CB90A4B4FF4801204
:10A66000C3F80021B1E72046AB6A002BACD1ACE7C0
:10A670000720F9E70820F7E73C3100201C350020CF
:10A680000010014000E100E0143500207BDF70473E
:10A690007ADF704776DF704713B5174BD88D4FF6CA
:10A6A000FF7290421C4624D093F82C20197F01326F
:10A6B000D2B2914283F82C2007D303F10801FFF7AF
:10A6C00069FEB0B19B6A9BB913E0002384F82C307B
:10A6D00094F8203033B13B21FFF7DCFF10B1A36ABF
:10A6E00003B19847636A23B102A8002200F8042D41
:10A6F000984702B010BD00BF3C31002070B50E4B32
:10A700000E4C9A6B0E4D0F4921635C3363630E4B05
:10A71000E36304F140060D4BA26331460022284654
:10A720001A605A60FFF7B7FD3246294604F130003F
:10A73000FFF7E0FC70BD00BF6C3500203C3100200D
:10A740008CCE0700758F07008DB507003C350020C3
:10A750002DE9FF474FF0A0430322C3F844274FF4ED
:10A760000032C3F80C25B34EC3F80825B24AC3F82B
:10A770003427B24BB24900254FF4AE7230461D70FB
:10A7800002F0A5FA3468611C06D02A465821301D13
:10A79000FEF7A6FF84420DD04FF4AE720021A5480B
:10A7A000FDF7D0FE01230020736000F0ABFB08B181
:10A7B000FFF7F2FD32699F4D43F20803012A1B683F
:10A7C0000BD06A694AB1AC6904F6FF7424F47F6463
:10A7D00024F00F041C44243501E01C461835AA68F7
:10A7E000A52A62D002D8012A05D07CE0AA2A68D026
:10A7F000AC2A6CD077E071698E4A012973D1176B4E
:10A80000D2F824A0DD19C7EB0A07B7F5805F4FF037
:10A8100000024FF001012846B84628BF4FF4805887
:10A8200000F0C8FC034600285BD14246214628467A
:10A8300000F05EFD002854D103238DE8280068460F
:10A840004FEA98030294039300F0A4FC0246002808
:10A8500047D10121204600F0ADFC002841D1336BE7
:10A86000DFF8D0914344336300F04CFBB7EB0807AB
:10A8700045444444C9D143F208033A461868514656
:10A88000FEF72EFFD9F82830984204BF0123C9F8FB
:10A890001C006C4804BFC9F82030C9F818A000F0AB
:10A8A0001FFB002000F02EFB0FE0204600F070FBA5
:10A8B0000446B0B9284600F013FB204600F022FB06
:10A8C0000DE02946204600F0B3FB002308E02046B7
:10A8D00000F05EFB28B92946204600F0A9FB0123C1
:10A8E00010B1012300E000234FF0A042D2F8102560
:10A8F000920418D5B26D012A06D14E4B00209865FE
:10A9000000F000FB78B153E76BB900F0CFFA50B11B
:10A9100043F20804256800F03FFC00287ED1284659
:10A9200000F082FD7AE0FEF725FF474B4749484A91
:10A93000C3F8742105200022887003F5BC700A70EA
:10A940004A7048604349C3F8F0214FF48010E02476
:10A9500083F8F42183F8F521C1F8800181F81443CC
:10A96000086000F18040A0F56F203B4FC0F808253B
:10A9700081F81143D0F80415C3F8F81103F50071FC
:10A98000C3F8FC1103F52A71C3F85013334983F857
:10A990005423082008801421A3F85613304983F863
:10A9A00055237F1AFF08154688461C46BD4207D02E
:10A9B00058F83530984700287FF4FAAE0135F5E7AE
:10A9C000284A1C4D137843F001031370264B274A85
:10A9D0001A60274B04221A600023C4F85833B36B63
:10A9E000CBB1FFF78BFEB0B12B6A2BB9AB691BB1B2
:10A9F000154AC2F86C3107E0F26A0E4B5AB99A69EF
:10AA00004AB15B6AC4F86C31D4F86C0100F00AFA00
:10AA1000012384F87031FFF7E1F8FCE7246800F0C7
:10AA2000BBFB10B9204600F0FFFC002004B0BDE8DD
:10AA3000F08700BF6C3500200C0003009834002024
:10AA400000F00700903500203C3100201435002034
:10AA5000B19B070000E100E0902C00206838002046
:10AA6000882C00204C38002050380020919007009E
:10AA700048380020034B01B919705B6803B11847CF
:10AA8000704700BF9834002010B5054CE36E042BCE
:10AA900005D1044800F038FBFFF7A0F8F6E710BD39
:10AAA00098340020A086010070B5EFF3108572B6CF
:10AAB0000D4A946F012394B993670C4B0C49D3F85A
:10AAC0008060314011670A49C3F88010D3F88410C0
:10AAD00051674FF0FF32C3F88420047000E0037028
:10AAE00005B962B6002070BD9834002000E100E096
:10AAF000FC06FFBC204B21491A682F2300BF00BF72
:10AB000000BF00BF00BF00BF00BF00BF8A422FD000
:10AB100000BF00BF00BF00BF00BF00BF00BF00BF3D
:10AB200000BF00BF00BF00BF00BF00BF00BF00BF2D
:10AB300000BF00BF00BF00BF00BF00BF00BF00BF1D
:10AB400000BF00BF00BF00BF00BF00BF00BF00BF0D
:10AB500000BF00BF00BF00BF00BF00BF00BF00BFFD
:10AB600000BF00BF00BF00BF00BF00BF00BF00BFED
:10AB7000013BC3D1704700BF642C00200024F400C7
:10AB800037B5174DD5F8803033B3D5F898301BB3AF
:10AB900002A8002400F8014D85F89440FFF784FFD7
:10ABA0000DF10600FEF7CEFD48B10223037005F15A
:10ABB000840343609DF8063085F87D3000E004246E
:10ABC0009DF80700FEF7A8FD24B9064B4FF480124C
:10ABD000C3F80021204600E0082003B030BD00BFCC
:10ABE0009834002000E100E070B59CB00023109381
:10ABF00000220023CDE91223524B1493524B15939C
:10AC0000524B1693524B1793524B1893524B199326
:10AC1000524B1A9303F17453A3F52303A3F6924303
:10AC20001B9301B108B3044645180026AC4218D066
:10AC3000109B14F8011B1CAA1A440133402B02F884
:10AC4000701C1093F2D169466846FEF77DFCDDE981
:10AC5000122312F5007243F10003CDE9122310967E
:10AC6000E4E73F4CD4F8A4500DB90E2067E0109BE8
:10AC70001CAA1A448021372B03F1010302F8701C2F
:10AC80006E466B444FF0000105D89A1B382A11D04C
:10AC900003F8011BF9E79A1B3F2A02D803F8011BAE
:10ACA000F9E731463046FEF74FFC382200213046A6
:10ACB000FDF748FCDDE9122310980821E1FB002391
:10ACC00022FA01F1CDE912238DF83F208DF83E10D4
:10ACD000110C120E8DF83C201A0A8DF83D108DF8DB
:10ACE0003B308DF83A2031461A0C30461B0E8DF859
:10ACF00039208DF83830FEF727FC2A4600231B99AF
:10AD0000D94011701A99D94011711999D94011720D
:10AD10001899D94011731799D94011741699D940CF
:10AD200011751599D94011761499D9400833202B03
:10AD3000117702F10102E2D1C4F8A83000201CB062
:10AD400070BD00BF67E6096A85AE67BB72F36E3CF3
:10AD50003AF54FA57F520E518C68059BABD9831FE6
:10AD60009834002010B40F4B024698884FF6FF73BA
:10AD7000984212D00C4BD3F8AC40E4070DD56024B8
:10AD800083F8B12083F8B21083F8B0400322B3F8FF
:10AD9000CC105DF8044BFFF7ABB808205DF8044B0E
:10ADA000704700BF642C00209834002010B41B4B67
:10ADB000024698884FF6FF7398422AD0184BD3F872
:10ADC000AC40E40725D5602483F8B040032483F821
:10ADD000B140012483F8B240140A83F8B32083F809
:10ADE000B440140C120E83F8B6200A0A83F8B71088
:10ADF00083F8B8200A0C090E83F8B92083F8BA103A
:10AE000083F8B5400B22B3F8CC105DF8044BFFF784
:10AE10006FB808205DF8044B704700BF642C002019
:10AE20009834002038B543F20803054619681D4BD5
:10AE30001A68A2F54052521A824231D31A48D0F809
:10AE4000F440C0F83012012C1BD1D0F8EC3003F6DE
:10AE5000FF7323F47F6323F00F03D21A95424FF060
:10AE6000000204D9C0F8E440C0F8E8200EE00B442A
:10AE7000C0F8E840C0F8E420C0F8303200F1F8042F
:10AE800006E00023C0F8E430C0F8E83000F1EC043C
:10AE90000C2200212046FDF755FB2560002038BD1F
:10AEA000042038BD141000109834002010B50B4B4E
:10AEB000D3F8F40001280ED1D3F8F04064B1D3F8F0
:10AEC000EC1043F2080300221868FEF709FC231A6D
:10AED0005842584110BD002010BD00BF98340020DA
:10AEE00008B50C220021FDF72DFB054B0022C3F80D
:10AEF0000421C3F80821C3F8E420C3F8E82008BD02
:10AF00009834002070B51B4E05463378194C2BB190
:10AF1000194800F0F9F8FEF761FEF6E70123237007
:10AF20006560FFF7B1FD00220121144800F042F9ED
:10AF300007280246F5D018B100232370032070BD06
:10AF400058210F48FEF7CCFB0E49C4F8D4004FF44B
:10AF5000AE7201F5B07001F0BAFEFFF795FD0A4B35
:10AF60000A490648572200F0C3F90728F5D00028FF
:10AF7000E2D170BD98340020A086010000F00700E7
:10AF8000703500206C35002075AA0700CC360020F3
:10AF90002DE9F04F254CD4F80821D4F8043102F6FD
:10AFA000FF7AC3EB0A0A2AF47F6A2AF00F0A4FEAF3
:10AFB0009A0B0BF6FF7B2BF47F6B85B003F5805566
:10AFC0002BF00F0B1E180AB193422BD04FEA9B07B0
:10AFD0004FF001084FF003096846CDF80080019654
:10AFE0000295039700F0D6F8E8B96846CDF80090CE
:10AFF00001950296039700F0CDF8A0B9D345D4F897
:10B0000008318CBF8246CBEB0A0ACAEB030300204F
:10B010005D445E44C4F80431FFF774FFBAF1000FD9
:10B02000DAD100E0002005B0BDE8F08F98340020B0
:10B03000F0B5134BD3F808410B6885B025181C1BDD
:10B0400003230093A4080F4B019368460F46029513
:10B05000039400F09FF8064630B93846FFF740FFEA
:10B060003046FFF74FFF09E0102200216846FDF748
:10B0700069FA68460195029400F08CF805B0F0BDBD
:10B08000983400200080070010B40A4A136823F0A7
:10B09000010419B923F00303136002E044F0020431
:10B0A0001460436813B15DF8044B18475DF8044B16
:10B0B000704700BF48380020F0B50346186880F399
:10B0C00008885868FF2464B2EFF30585002D01D18C
:10B0D000A64600472546064621273FBAF0B400247D
:10B0E000002500260027F0B4F92040B2004700BF39
:10B0F000F0BD61DF704748DF70470021014A084614
:10B10000FEF7F8BC49B5070000283ED01F4B204A87
:10B110001B6800BF00BF00BF00BF00BF00BF00BF73
:10B1200000BF93422FD000BF00BF00BF00BF00BFD1
:10B1300000BF00BF00BF00BF00BF00BF00BF00BF17
:10B1400000BF00BF00BF00BF00BF00BF00BF00BF07
:10B1500000BF00BF00BF00BF00BF00BF00BF00BFF7
:10B1600000BF00BF00BF00BF00BF00BF00BF00BFE7
:10B1700000BF00BF00BF00BF00BF00BF00BF00BFD7
:10B1800000BF00BF00BF0138C3D17047642C00204E
:10B190000024F40018DF70471FB510220021684614
:10B1A000FDF7D0F9022368460093FFF7F3FF05B0DF
:10B1B0005DF804FB2DE9FF41484E3368054658070A
:10B1C000144615D59A074ED443F001033360337902
:10B1D000DB077ED5424B434A93421F4602D3424A85
:10B1E000934246D30220336823F00103336072E0B8
:10B1F000C5F30B02CABBDFF8F4E0C5F30F370E4608
:10B2000028464FF0020C7346CEF804C5D3F80084EC
:10B21000B8F1000FFAD0C3F80805D3F80084B8F1EC
:10B22000000FFAD0C3F80425DEF80084B8F1000F4F
:10B23000FAD0013E00F58050E6D105EB0135B4B1FE
:10B24000102231466846FDF77DF92D0B0123684633
:10B2500031468DF800300194ADF80870ADF80A5011
:10B26000A047304637E00A2035E0062033E020468C
:10B2700031E065B3C5F30B030BBB3B689D4220D3A4
:10B280001FFA81F87A6805EB08339A4219D3B8F1AE
:10B29000000F18D06846FEF7FBF9B0B1009B5C6068
:10B2A0001F60009B02222D0B1A729D81A3F8108053
:10B2B000FEF70AFA3368002043F0010396E7062000
:10B2C00091E705208FE704208DE707208BE7032017
:10B2D00089E7012087E704B0BDE8F0814838002005
:10B2E000782C0020782C0020882C002000E00140E1
:10B2F0002DE9F0430E4646491C460B6813F0040F37
:10B3000085B00546884610D09F0742D443F001031C
:10B310000B600B79D8076FD53E4B3F498B421F46D8
:10B3200039D33E498B4236D239E0002E66D0002810
:10B3300064D046EA00039B0762D1002A64D0384BF0
:10B340000121C3F80415D3F800140029FBD03448B8
:10B35000002356F8231045F82310D0F80074304924
:10B36000002FFAD001339A42F3D10023C1F80435FB
:10B37000D1F80034002BFBD0002674B1684631466A
:10B380008DF8006001940295ADF80C20A04730467E
:10B390003BE00A2039E0022037E0204635E06EB37A
:10B3A00065B346EA050399072AD13B689D4229D334
:10B3B0001FFA82F97A6805EB89039A4222D3B9F120
:10B3C000000F21D06846FEF763F998B1009B5C60DE
:10B3D0001F60009B01221A72DE601D61A3F81490A9
:10B3E000FEF772F9D8F8003043F001030020C8F8E6
:10B3F00000300AE0072008E0012006E0032004E016
:10B40000062002E0052000E0042005B0BDE8F0833E
:10B4100048380020782C0020782C0020882C002030
:10B4200000E0014013DF7047074A4FF0FF3108B5D5
:10B43000C2F880100346FFF7F5FF18B91846BDE8BB
:10B44000084039E608BD00BF00E100E060DF70475A
:10B4500010DF70470C4B1B78062B10D10B4B1B6871
:10B460001A070CD10A4B186800F0F003302B08D0F3
:10B4700000F0E000A0F1400358425841704700201E
:10B4800070470120704700BFE00F00F0E40F00F0AC
:10B49000E80F00F0094B1B78062B0CD1084B1B68FA
:10B4A0001A0708D1074B186800F0F000A0F130032C
:10B4B0005842584170470020704700BFE00F00F02D
:10B4C000E40F00F0E80F00F0F7B51E4EB568F46821
:10B4D000B5FA85F5B4FA84F46D096409374665BB9D
:10B4E000337C63BB01A8FFF706FE052806D008B130
:10B4F000FEF752FFBB680198984700E00125CCB9E0
:10B50000337CE3B97B8AADF802307B690DF102012F
:10B510001846FFF7EEFD0528044605D00028E7D1C0
:10B52000FA681846904700E00124002DD8D0002C7E
:10B53000D5D004E0002DD3D001E0002CE0D003B042
:10B54000F0BD00BF4838002008B509B1FEF724FF60
:10B55000034B1B7E13B1BDE80840B5E708BD00BF33
:10B560004838002008B5064BDA691AB1904730B167
:10B57000FEF712FF1B7E13B1BDE80840A4E708BD2B
:10B580004838002008B5FEF707FF00BF5B689A68DF
:10B59000054B9A4206D14268836804490132013B57
:10B5A0000A604B60704700BFF0CE07003C350020BA
:10B5B000024A1368013B1360704700BF94340020B7
:10B5C00038B5174C236813F0040523D143F0040366
:10B5D00014482360FFF798FD134B18884FF6FF734C
:10B5E000984204D01321FFF755F880B114E0236886
:10B5F0009B070CD5FEF718FD70B94FF0A0434FF430
:10B600000032C3F80825236843F002032360FFF7E4
:10B61000B7FA02E0002500E00546284638BD00BF25
:10B6200044350020C0D40100682C00202DE9F043EF
:10B630004FF0A0430322C3F84427C3F844274FF434
:10B640000032C3F80825C3F80825BB4B95B018682D
:10B650000490FFF7A1FD002859D1B848FFF7E2FE9A
:10B66000002854D1B64BB74A1A60B74B50221A8003
:10B67000B64BB74A1A60B74B1C68C4F340341CB1D0
:10B680004FF40052C3F88020B34904A8FFF7E0FE4E
:10B69000B04B30B1002C00F08D814FF400521A6095
:10B6A00088E1AE4A0121117093F81623C2F34112CA
:10B6B0008A4240F27F81AA4A9168002900F076818F
:10B6C000136843F4800313601C2200210DA8FCF7CB
:10B6D00039FF01239DF84820ADF834308DF83C3017
:10B6E0008DF83D308DF83E3017230021ADF8443001
:10B6F0009C4B139161F30002019314A9019B41F843
:10B70000303D0DA88DF84820FFF7A0FE019B0446B0
:10B71000002840F05181944B944A1A609DF81030F3
:10B720000D90012262F303030E9062F3071308A841
:10B730008DF81030FEF77AFC38B99DF8213008A852
:10B7400001338DF82130FEF773FC0446002840F0E9
:10B750003381874801F0C6FA854982B204A8FEF712
:10B7600061FC70B90C23ADF834301823ADF83630D5
:10B770000DA84FF4C873ADF83840ADF83A30FEF775
:10B7800087FF0446002840F017817A4B4FF6FF727E
:10B7900014A91A804FF65963012021F8483D764AD2
:10B7A0008DF80A00FEF738FC002840F08E80734BBD
:10B7B00004AC03F1100518685968224603C2083327
:10B7C000AB421446F7D16E4F04A83946FEF718FC79
:10B7D000044600287AD101461C224FF014090DA816
:10B7E000FCF7B0FE21464A4608A8FCF7ABFE9DF8E0
:10B7F0003430ADF800403E4643F004038DF8343059
:10B8000016F802398DF80E3002234FF00108ADF81A
:10B810000C30230A68F3030368F3420468F3071348
:10B82000E4B28DF8013044EA080403AD331D08AAE0
:10B830000DA937F8020C8DF802400895CDF824D0F8
:10B84000ADF82C90FEF7E6FB0446002840F0B480EB
:10B8500001461C220DA8FCF775FE21464A4608A8A1
:10B86000FCF770FE9DF83430ADF8004043F018034B
:10B870008DF83430B3788DF80E30230A204668F303
:10B88000030368F3071368F342008DF80130C4B274
:10B89000172344F01104ADF82C3008AA06F10C036C
:10B8A0000DA937F8020C8DF80240ADF80C80089510
:10B8B000CDF824D0FEF7AEFB044600287CD1314AF7
:10B8C000136843EA0803136002E00446002C73D1B6
:10B8D0001C2200210DA8FCF735FE40F6CD430E9347
:10B8E0004FF480430F9303238DF84030264B13937E
:10B8F0000DAD0FCD254E0FC695E80700244B86E809
:10B90000070024481C70FEF7C1FE88B9224B4FF691
:10B91000FF721A80214B1C70214B5B6853B1214B85
:10B920001A7C3AB9204A1C745C745A61FEF7FEFA1C
:10B93000044641E008243FE0C8CF0700008007002C
:10B940005C3800206C3800205A3800206438002011
:10B95000FBB0070000E100E085B50700603800207B
:10B9600008350020002C002054380020598507009D
:10B97000DCCF0700682C002058350020CCCF070012
:10B980005A350020443500208FA307004C31002099
:10B9900069310020443100206A31002068310020E4
:10B9A000143500201C35002099A607004FF48002B2
:10B9B0001A6089E6FEF7F0FC204615B0BDE8F0837A
:10B9C00008B5084C084BE41AE40800251E46A542B9
:10B9D00004D006EBC5035B68984708B1FEF7DCFCB2
:10B9E0000135F4E7902C0020882C00200649074AF6
:10B9F000074B9B1A03DD043BC858D050FBDCFEF715
:10BA0000DDFCFCF72BFD0000A0D00700002C00207F
:10BA1000902C0020FEE7FEE7FEE7FEE7FEE7FEE7EC
:10BA2000FEE7FEE7FEE7FEE78B1802448B4204D0F8
:10BA300013F8010D02F8010DF8E7704710B5013A4F
:10BA400052B2002A0ADB13B250F8234051F82330D7
:10BA50009C4205D8F3D24FF0FF3010BD002010BD3E
:10BA6000012010BD000000000000000000000000E8
:10BA7000C3F10803DB0070B50133002403A500BF48
:10BA80005B1920C940CAAD1920C0184720C940CA57
:10BA9000754120C020C940CA754120C020C940CA94
:10BAA000754120C020C940CA754120C020C940CA84
:10BAB000754120C020C940CA754120C020C940CA74
:10BAC000754120C06441204670BD00BF00000000E9
:10BAD000C3F10803DB0070B50133002403A500BFE8
:10BAE0005B1920C940CAAD1B20C0184720C940CAF5
:10BAF000B54120C020C940CAB54120C020C940CAB4
:10BB0000B54120C020C940CAB54120C020C940CAA3
:10BB1000B54120C020C940CAB54120C020C940CA93
:10BB2000B54120C06441B4FA84F0400970BD00BF43
:10BB30002DE9F04F08B4F8CA04B451F8042BA3FB64
:10BB4000028940F8048B4FF0000AE4FB629A4FF040
:10BB5000000BE5FB62AB4FF0000CE6FB62BC4FF064
:10BB6000000EE7FB62CE51F8042B4FF00008E3FB18
:10BB7000628940F8048BE4FB629AE5FB62ABE6FB6A
:10BB800062BCE7FB62CE51F8042B4FF00008E3FBE8
:10BB9000628940F8048BE4FB629AE5FB62ABE6FB4A
:10BBA00062BCE7FB62CE51F8042B4FF00008E3FBC8
:10BBB000628940F8048BE4FB629AE5FB62ABE6FB2A
:10BBC00062BCE7FB62CE51F8042B4FF00008E3FBA8
:10BBD000628940F8048BE4FB629AE5FB62ABE6FB0A
:10BBE00062BCE7FB62CE40F8049B40F804AB40F82F
:10BBF00004BB40F804CB40F804EB0CBC052B00F070
:10BC00001E810C68A0F11400A1F11401A2F114022C
:10BC100052F804EB4FF0000550F8046BE4FB6E564D
:10BC200052F804EB50F8047BE4FB6E6752F804EB27
:10BC300050F8048BE4FB6E7852F804EB50F8049B48
:10BC4000E4FB6E8952F804EB50F804ABE4FB6E9A07
:10BC5000A0F1140052F8044B51F804EB4FF0000C23
:10BC6000E4FB6EC540F804CB51F804EBE4FB6E56E0
:10BC700040F8045B51F804EBE4FB6E6740F8046B9A
:10BC800051F804EBE4FB6E7840F8047B51F804EBC8
:10BC9000E4FB6E8940F8048B51F804EBE4FB6E9AE8
:10BCA000A0E80006062B00F0CA800C68A0F118007E
:10BCB000A1F11801A2F1180252F804EB4FF00005AF
:10BCC00050F8046BE4FB6E5652F804EB50F8047B1A
:10BCD000E4FB6E6752F804EB50F8048BE4FB6E78DB
:10BCE00052F804EB50F8049BE4FB6E8952F804EB25
:10BCF00050F804ABE4FB6E9A52F804EB50F804BB26
:10BD0000E4FB6EABA0F1180052F8044B51F804EBC1
:10BD10004FF0000CE4FB6EC540F804CB51F804EB87
:10BD2000E4FB6E5640F8045B51F804EBE4FB6E67ED
:10BD300040F8046B51F804EBE4FB6E7840F8047BA8
:10BD400051F804EBE4FB6E8940F8048B51F804EBE6
:10BD5000E4FB6E9A40F8049B51F804EBE4FB6EABF5
:10BD6000A0E8000C072B6AD008B40C68A0F11C00F6
:10BD7000A1F11C01A2F11C0252F804EB4FF00005E6
:10BD800050F8046BE4FB6E5652F804EB50F8047B59
:10BD9000E4FB6E6752F804EB50F8048BE4FB6E781A
:10BDA00052F804EB50F8049BE4FB6E8952F804EB64
:10BDB00050F804ABE4FB6E9A52F804EB50F804BB65
:10BDC000E4FB6EAB52F804EB50F804CBE4FB6EBC22
:10BDD000A0F11C0052F8044B51F804EB4FF00003A3
:10BDE000E4FB6E3540F8043B51F804EBE4FB6E567F
:10BDF00040F8045B51F804EBE4FB6E6740F8046B19
:10BE000051F804EBE4FB6E7840F8047B51F804EB46
:10BE1000E4FB6E8940F8048B51F804EBE4FB6E9A66
:10BE200040F8049B51F804EBE4FB6EAB40F804AB24
:10BE300051F804EBE4FB6EBCA0E8001808BCBDE8B8
:10BE4000F08F2DE9F04FB1E8005E06B4AAFB0912AD
:10BE50004FF00003EBFB69234FF00004ECFB693467
:10BE60004FF00005EEFB69454FF00006EBFB6A63FF
:10BE7000ECFB6A344918524176415B41A9FB0978D1
:10BE80004FF0000949F1000918EB0108A0E8800112
:10BE9000AAFB0A78574158EB0608A0E88001EEFBA0
:10BEA0006A454FF0000A4AF1000A4FF00001ECFB2E
:10BEB0006B14EEFB6B454FF00002EEFB6C255FEA66
:10BEC00059094941644152416D4149F10009EBFB77
:10BED0006B3A1AEB010AA0E80804ACFB0C6A664155
:10BEE0005AEB020AA0E84004AEFB0E6A6E415AEB20
:10BEF000090AA0E8400406BC052A00F0E680A0F18B
:10BF00001400A1F11401B1E8E043A5FB0E344FF099
:10BF10000005E6FB6E454FF00006E7FB6E564FF05E
:10BF20000007E8FB6E674FF00008E9FB6E784FF002
:10BF30000009DB1864416D4176417F4158EB0808E8
:10BF400059F1000950F804CB13EB0C0350F804CB63
:10BF500054EB0C0450F804CB55EB0C0550F804CB13
:10BF600056EB0C0650F804CB57EB0C0758F10008C1
:10BF700059F10009A0F11400EEFB0E89A0E8F803C6
:10BF8000062A00F0A280A0F11800A1F11801B1E882
:10BF9000E047A5FB0E344FF00005E6FB6E454FF081
:10BFA0000006E7FB6E564FF00007E8FB6E674FF0A8
:10BFB0000008E9FB6E784FF00009EAFB6E894FF04C
:10BFC000000ADB1864416D4176417F4158EB080857
:10BFD00059EB09095AF1000A50F804CB13EB0C0392
:10BFE00050F804CB54EB0C0450F804CB55EB0C0583
:10BFF00050F804CB56EB0C0650F804CB57EB0C076B
:10C0000050F804CB58EB0C0859F100095AF1000A1A
:10C01000A0F11800EEFB0E9AA0E8F807072A54D00A
:10C02000A0F11C00A1F11C01B1E8E04FA5FB0E340A
:10C030004FF00005E6FB6E454FF00006E7FB6E563D
:10C040004FF00007E8FB6E674FF00008E9FB6E78E1
:10C050004FF00009EAFB6E894FF0000AEBFB6E9A85
:10C060004FF0000BDB1864416D4176417F4158EB86
:10C07000080859EB09095AEB0A0A5BF1000B50F862
:10C0800004CB13EB0C0350F804CB54EB0C0450F826
:10C0900004CB55EB0C0550F804CB56EB0C0650F8CE
:10C0A00004CB57EB0C0750F804CB58EB0C0850F8B6
:10C0B00004CB59EB0C095AF1000A5BF1000BA0F11B
:10C0C0001C00EEFB0EABA0E8F80FBDE8F08F0022DD
:10C0D00010B5144653B28B4204DA1BB2013240F859
:10C0E0002340F7E710BD2DE9F047B3F90250894628
:10C0F0000824E91D1F3591FBF4F42021944295FB9F
:10C10000F1F54FFA85F828BF14461F46414606460A
:10C11000FFF7DDFF22464946FFF786FCB7F90230FC
:10C12000E4009C4220D9E41A06EB85010023C4F107
:10C1300020008E4208D251F8042D22FA04F52B4338
:10C140000B6002FA00F3F4E72437424631463846E2
:10C15000FFF774FC012807D043463A463146304683
:10C16000BDE8F047FFF7B4BCBDE8F08710B5002389
:10C170001A465CB28C4204DA50F824400133224360
:10C18000F7E7B2FA82F0400910BD4A11012350F8D6
:10C19000220001F01F0103FA01F108407047013944
:10C1A00049B2002909DA013149B2A1B101F1804354
:10C1B000013B50F82330002004E050F82130002BE0
:10C1C000EDD0F0E713B15B080130FBE7013900EB7C
:10C1D000411108B270470846704730B5002463B279
:10C1E000934206DA1BB2013451F8235040F8235031
:10C1F000F5E730BDF0B5082289B00C460646FFF7DA
:10C20000ECFFCB6A03930B6B04934B6B05938B6B27
:10C210000693CB6B0793002708236A466946684656
:10C22000029701970097FFF723FC082305466A460B
:10C2300031463046FFF71CFC236B0393636B04937A
:10C24000A36B0593E36B0693054408236A4669468E
:10C2500068460797FFF70CFC082305446A463146F9
:10C260003046FFF705FC236A0093636A0193A36AD3
:10C270000293A36B0693E36B0793054408236A4676
:10C2800031463046059704970397FFF7F1FB636A41
:10C290000093A36A0193E36AA26B0293636B039317
:10C2A00004920693E26B236A0592054407936A465B
:10C2B000082331463046FFF7DBFBE36A0093236B2C
:10C2C0000193636B0293236A0693A36A0793054461
:10C2D00008236A4631463046059704970397FFF7CF
:10C2E000F7FB236B0093636B0193A36B0293E36BE8
:10C2F0000393636A0693E36A07932D1A08236A4639
:10C300003146304605970497FFF7E2FB636B0093D5
:10C31000A36B0193E36B0293236A0393636A049311
:10C32000A36A0593236B07932D1A08236A463146A7
:10C3300030460697FFF7CCFBA36B0093E36B0193AA
:10C34000636A0393A36A0493E36A0593636B079399
:10C350002D1A08236A463146304602970697FFF7A2
:10C36000B7FB2D1A16D508230D4A31463046FFF784
:10C370007FFB2D18F7D410E0082231460848FFF75C
:10C380005DFB012809D00823054A31463046FFF7F6
:10C390009FFB2D1A002DEFD0F5E709B0F0BD00BFCF
:10C3A000E8CF070070B5013A52B20023002A09DB3A
:10C3B00015B2013A50F8256051F8254074402343E6
:10C3C00052B2F3E7B3FA83F0400970BD00EB81018C
:10C3D0000023884206D251F8042D43EA52030B6031
:10C3E000D307F6E7704770B5036813F001050646FA
:10C3F000144605D013460A460146FFF739FB0546A9
:10C4000021463046FFF7E2FF45B104F18042013A90
:10C4100056F8223043F0004346F8223070BD70B524
:10C420009DF910401E4623460546FFF721FB30B913
:10C43000224629463046FFF701FB012807D0234654
:10C44000324629462846BDE87040FFF741BB70BD23
:10C4500070B59DF910401E4623460546FFF738FB90
:10C4600038B12346324629462846BDE87040FFF7DA
:10C47000FFBA70BD2DE9F04FA5B01C46039114AB77
:10C4800021468046104617460293FFF788FE494B27
:10C49000C0EB841005B22B40002BBEBF03F1FF336D
:10C4A00063F01F030133202695FBF6F676B20FFAF0
:10C4B00083F904A83146FFF70AFEB9F1000F30B244
:10C4C00014DD04AB002203EB8000C9F12006134603
:10C4D000A34212D257F8231001FA09FE4EEA0202D3
:10C4E00040F8232021FA06F20133F1E704AB22469B
:10C4F000394603EB8000FFF770FE27B27B00019303
:10C5000004AB03EB870704F1FF3924AB012603EBEF
:10C510008909002D42DB24AB0022C6F101009646BA
:10C5200003EB860A03EB8000019B51B299421BDAB0
:10C530000FFA81FC5AF8883C53F82CB024AB03EB7B
:10C54000810151F8803CC3EB0B03CEEB03039B4509
:10C5500004D034BF4FF0010E4FF0000E50F8881C8D
:10C56000013241F82C30DFE7CEEB06035E42214674
:10C5700004A85E41FFF72AFF24AB03EB84032146A6
:10C5800053F8802C59F8803C384643EAC273013D89
:10C5900049F8803C2DB2FFF719FFBAE724AB03EB53
:10C5A0008606224656F8881C4046FFF716FE25B040
:10C5B000BDE8F08F1F00008070B590B005469DF972
:10C5C00050401E4668462346FFF7B2FA23463246DD
:10C5D00069462846FFF74EFF10B070BD30B51C46C7
:10C5E00091B0054693F900306846FFF7A1FAD4F8F8
:10C5F000AC3069462846984711B030BD30B5144676
:10C6000091B0054692F900206846FFF71AFCD4F86D
:10C61000AC3069462846984711B030BD2DE9F0414D
:10C6200015468AB0044688462022002102A8FBF75E
:10C6300089FF2E1D95F9007003232A4641462046A6
:10C640000293FFF7DBFF334602AA214620460097FC
:10C65000FFF7FEFE2B46424621462046FFF7BEFF6F
:10C660000097334605F1840221462046FFF7D7FEA6
:10C670000AB0BDE8F0812DE9F04793F9006092B06F
:10C68000044689461046314615469846FFF76EFD2A
:10C69000002840F098804246494602A8FFF7AEFFC6
:10C6A000434602AA21460AA8FFF798FF02A90846B6
:10C6B0004246FFF7A3FF43462A4649464846FFF74E
:10C6C0008DFF08F10407424629462846FFF796FFEA
:10C6D0003B462A46214620460096FFF7A0FE3B46F1
:10C6E0002A46294628460096FFF799FE3B462A46E9
:10C6F000214628460096FFF7ABFE43462A462146D0
:10C700002046FFF76BFF3B4622462146284600960F
:10C71000FFF785FE3B4600962A4621462046FFF756
:10C720007EFE2368DB0714D533463A462146204671
:10C73000FFF79EF9314682462046FFF747FE06F195
:10C740008043013B54F8230040EACA7044F82300B8
:10C7500003E031462046FFF739FE4246214628468F
:10C76000FFF74CFF3B460AAA294628460096FFF7EA
:10C770006FFE3B460AAA294628460096FFF768FE48
:10C780000AA908463B462A460096FFF761FE434643
:10C790000AAA21462046FFF721FF02AA3B4610467F
:10C7A00021460096FFF754FE324629462046FFF701
:10C7B00014FD324649462846FFF70FFD324602A9CE
:10C7C0004846FFF70AFD12B0BDE8F0872DE9F043B7
:10C7D0008BB01446129D15F9046B00961F468046D7
:10C7E00089462B460246214602A8FFF731FE02A9E0
:10C7F000129A0846FFF702FF129B02AA41464046E2
:10C80000FFF7ECFE129B02AA21462046FFF7E6FE48
:10C810002B464A46394638460096FFF719FE129ACB
:10C82000394602A8FFF7EAFE02A92B46424608460F
:10C830000096FFF70DFE02A92B46224608460096F9
:10C84000FFF706FE2B464246214620460096FFF79C
:10C85000FFFD129B224649464846FFF7BFFE2B4686
:10C8600002AA414620460096FFF7F2FD129B22469F
:10C8700039463846FFF7B2FE2B464A463946384617
:10C880000096FFF7E5FD324602A92046FFF7A5FC1A
:10C890000BB0BDE8F083F0B5154689B01C460746DD
:10C8A0000E461A4629466846FFF7A8FE23466A4602
:10C8B00039463846FFF792FE23462A4669466846BF
:10C8C000FFF78CFE23466A4631463046FFF786FE68
:10C8D00009B0F0BDF0B50F46A1B00646194638467E
:10C8E00015461C46FFF742FC20B121463046FFF7B3
:10C8F000EEFB74E0224639466846FFF76EFC22469E
:10C90000294608A8FFF769FC214610A8FFF7DFFBBE
:10C910000123214618A81093FFF7D9FB224608A946
:10C920006846FFF78BF8002854D0009BDA0704D440
:10C9300021466846FFF74AFD26E0089BDB0704D442
:10C94000214608A8FFF742FD3EE0002823461FDDF0
:10C9500008AA69466846FFF7BBF821466846FFF714
:10C9600035FD224618A910A8FFF768F8002805DA57
:10C9700010A923462A460846FFF77AF810A923464D
:10C9800018AA0846FFF7A4F82246294610A81EE078
:10C9900008A96A460846FFF79BF8214608A8FFF752
:10C9A00015FD224610A918A8FFF748F8002805DA57
:10C9B00018A923462A460846FFF75AF818A923461D
:10C9C00010AA0846FFF784F82246294618A8FFF760
:10C9D0000AFDA3E7224610A93046FFF7FEFB21B06F
:10C9E000F0BD000000487047E4CF07002DE9F04F8C
:10C9F000EDB01F46DDF8D8810590B8F9026098F9CE
:10CA0000005020231F3696FBF3F676B206F1FF396D
:10CA100024AB002443F829406CAB03EB89034CA8FA
:10CA20008A469346394698F9012043F8804C43F8EA
:10CA3000604CFEF7F9FF98F9012054A8B918FEF7E9
:10CA4000F3FF29464CA8FFF791FB0746002840F06A
:10CA50002781294654A8FFF789FB0390002840F05E
:10CA6000218108F1240332464CA918460293FEF7AF
:10CA7000E5FF012840F01881324654A90298FEF7DC
:10CA8000DDFF0128069040F00F811CAC0CAF33464F
:10CA9000029A54A92046FFF71DFF039B47F829304F
:10CAA0005A46514638464346FFF71DFB394638463D
:10CAB000029B00962246FFF77FFD0DF5B879029B99
:10CAC000009622464CA914A8FFF776FD48462A4650
:10CAD0000599FFF782FBAB0009EB030A0793059B5F
:10CAE000A900591808F1440B50462A46FFF775FB78
:10CAF00059462A4634A8FFF770FBAB000BEB030145
:10CB00002A463CA8FFF769FB08F10403494634AA0A
:10CB1000204600950493FFF79BFC53464A463CA9E8
:10CB200034A8CDF80080FFF751FE2B46049A214629
:10CB30002046FFF7CFFE2246514648464346FFF7C0
:10CB4000AAFE039B08933146059B0A933846CDF80D
:10CB500024B0CDF82C90FFF722FB3146814614A873
:10CB6000FFF71DFB4845B8BF48461FFA80F909F199
:10CB7000FF3B0FFA8BFB59463846FFF706FB594639
:10CB8000071C14A818BF0127FFF7FFFA002814BFDD
:10CB9000022300231F430DF1200A2A465AF827706A
:10CBA00024A83946FFF719FB0DF1B00BAB00F918BB
:10CBB0002A465846FFF711FB29462046FFF787FA19
:10CBC000A9F10209069B23600FFA89F90DF1900A79
:10CBD000B9F1000F45DB43462246D8F8A470594608
:10CBE0005046B84749460CA8FFF7CFFA4946071CFC
:10CBF00014A818BF0127FFF7C8FA002814BF0223A2
:10CC000000231F4308AB53F827702FB32A46394639
:10CC100034A8FFF7E2FA079B2A46F9183CA8FFF769
:10CC2000DCFA434622463CA934A8FFF734FE049BB5
:10CC3000009534AA514644A8FFF70AFC5B465246C9
:10CC40003CA934A8CDF80080FFF7C0FD434644AAB4
:10CC500021462046FFF7C2FC09F1FF390FFA89F996
:10CC6000B6E72B46049A21462046FFF733FE43469B
:10CC7000224659465046FFF70EFE3246514602986C
:10CC8000FEF7DCFE012805D03346029A5146504695
:10CC9000FEF71EFF2A464CA95046FFF783FB04E02F
:10CCA000204602E0384600E003986DB0BDE8F08F02
:10CCB00010B501390244904207D010F8013B11F839
:10CCC000014FA342F7D0181B10BD002010BD10B5B6
:10CCD000431E0A44914204D011F8014B03F8014F5E
:10CCE000F8E710BD034613F8012B002AFBD1181AF0
:10CCF000013870479140031C90409C46203A934075
:10CD0000194352426346D34019437047F8B500BFF8
:10CD1000F8BC08BC9E467047F8B500BFF8BC08BC1C
:10CD20009E467047002C002004C95A416B08FF73CF
:10CD30001594294289471F81573C55CBC27ABB477E
:10CD4000FC86F42D5C73E408226295B221EE0BFFA1
:10CD50002CA82050481C5F6982190E93E02CA54C2A
:10CD60003FB0895D890B0CA7959E0700399E07008F
:10CD7000D19D07003F9D0700259D0700939D07005B
:10CD8000579D0700CBA2070000000000982F8A42A1
:10CD900091443771CFFBC0B5A5DBB5E95BC256390D
:10CDA000F111F159A4823F92D55E1CAB98AA07D825
:10CDB000015B8312BE853124C37D0C55745DBE7248
:10CDC000FEB1DE80A706DC9B74F19BC1C1699BE4C8
:10CDD0008647BEEFC69DC10FCCA10C246F2CE92D58
:10CDE000AA84744ADCA9B05CDA88F97652513E987C
:10CDF0006DC631A8C82703B0C77F59BFF30BE0C683
:10CE00004791A7D55163CA0667292914850AB72710
:10CE100038211B2EFC6D2C4D130D385354730A65AD
:10CE2000BB0A6A762EC9C281852C7292A1E8BFA284
:10CE30004B661AA8708B4BC2A3516CC719E892D1EC
:10CE4000240699D685350EF470A06A1016C1A4196F
:10CE5000086C371E4C774827B5BCB034B30C1C396E
:10CE60004AAAD84E4FCA9C5BF36F2E68EE828F742D
:10CE70006F63A5781478C8840802C78CFAFFBE9047
:10CE8000EB6C50A4F7A3F9BEF27871C6011704FC4D
:10CE90007000000098CF0700021704FCB4000000E7
:10CEA00068CF070000000000000000000000000044
:10CEB000000000000101000001000000000000006F
:10CEC000020500002100000000000000000000003A
:10CED000000000000000000001010000040000004C
:10CEE0000000000000000000000000000000000042
:10CEF000011104FC0400000000000000021104FC09
:10CF00000400000000000000032104FC04040000F1
:10CF100000000000041101FF0100000000000000FB
:10CF2000051102FE0400000000000000061104FCD0
:10CF30000400000000000000071104FC04000000D1
:10CF400000000000081701FF22000000B4CE070017
:10CF5000091001FF01000000B0CE07000000000032
:10CF60000000000000000000010700007000000049
:10CF700098CF07000201000001000000000000003F
:10CF80000305000041000000000000000000000058
:10CF90000000000000000000011101FF010000007E
:10CFA00000000000021702FE64000000F0CE07003F
:10CFB000031704FC04000000D8CE070000000000A6
:10CFC00000000000000000000100000750EADA3015
:10CFD0008883B89F604F15F30000C98E446675546E
:10CFE0006172670008200001FFFFFFFFFFFFFFFFE6
:10CFF000FFFFFFFF00000000000000000000000035
:10D0000001000000FFFFFFFF512563FCC2CAB9F316
:10D01000849E17A7ADFAE6BCFFFFFFFFFFFFFFFFEF
:10D0200000000000FFFFFFFF96C298D84539A1F429
:10D03000A033EB2D817D0377F240A463E5E6BCF8D5
:10D0400047422CE1F2D1176BF551BF376840B6CBA0
:10D05000CE5E316B5733CE2B169E0F7C4AEBE78E9C
:10D060009B7F1AFEE242E34F4B60D2273E3CCE3B11
:10D07000F6B053CCB0061D65BC86987655BDEBB3B3
:10D08000E7933AAAD835C65A77C607001DC60700E7
:08D09000F5C1070000000000DB
:08D09800C4B3FF7F010000009A
:10D0A0000000000000000000000000000000000080
:10D0B0000000000000000000000000000000000070
:10D0C0000000000000000000000000000000000060
:10D0D0000000000000000000000000000000000050
:10D0E0000000000000000000000000000000000040
:10D0F0000000000000000000000000000000000030
:10D10000010000000090D003FFFF0000258407000D
:08D1100001840700000000008B
:10D11800001000000030080089B00700000000007F
:08D128002DB60700C1B5070098
:020000020000FC
:020000041000EA
:041014000080070051
:0410180000E00700ED
:040000037000B9EDE3
:00000001FF
