:10000000000001204D5D0000755D0000775D00007F
:10001000795D00007B5D00007D5D00000000000058
:100020000000000000000000000000007F5D0000F4
:10003000815D000000000000835D0000855D000020
:10004000875D0000875D0000A129000021250000D8
:1000500019270000875D0000C5150000875D0000BE
:10006000875D0000875D0000875D0000875D000000
:10007000875D0000875D0000875D0000875D0000F0
:10008000875D0000C10C0000875D0000875D0000F7
:10009000850D0000875D0000875D0000875D000022
:1000A000875D0000875D0000875D0000875D0000C0
:1000B000875D0000875D0000000000000000000078
:1000C000875D0000875D0000875D0000875D0000A0
:1000D000875D0000875D0000875D00000000000074
:1000E0000000000000000000000000000000000010
:1000F0000000000000000000000000000000000000
:1001000000000000000000000000000000000000EF
:1001100000000000000000000000000000000000DF
:1004000010B5054C237833B9044B13B10448AFF34E
:1004100000800123237010BDE401002000000000D3
:10042000E8940000084B10B51BB108490848AFF329
:1004300000800848036803B910BD074B002BFBD0B0
:10044000BDE81040184700BF00000000E801002090
:10045000E8940000E001002000000000154B002B94
:1004600008BF134B9D46A3F5803A00218B460F46EB
:100470001348144A121A00F065F80F4B002B00D0F5
:1004800098470E4B002B00D0984700200021040015
:100490000D000D48002802D00C48AFF3008000F09A
:1004A0002BF82000290004F0CBFD00F011F800BF6C
:1004B0000000080000000120000000000000000013
:1004C000E4010020F8090020000000000000000006
:1004D00008B5074B044613B10021AFF30080054B6C
:1004E0001868836A03B19847204600F033F800BFCC
:1004F00000000000C88B000070B50E4B0E4CE41AD3
:10050000A41000251E46A54204D056F82530984771
:100510000135F8E708F04CFB084C094BE41AA4102D
:1005200000251E46A54204D056F8253098470135CF
:10053000F8E770BDD8010020D8010020DC010020C0
:10054000D801002002440346934202D003F8011B65
:10055000FAE77047FEE700BFF0B51746C7B01C4684
:10056000B9B106AE0B68604A30464FF4807107F0AF
:100570007FFE00280ADB4C9B0546062B00F2B2806A
:10058000DFE803F012323B4653637500002047B0AA
:10059000F0BD4C9B062B00F2A380DFE803F0048B38
:1005A00090957C8186000025384607F09BFE431914
:1005B000FF2B044640F28D80002CE7DB2C44B4F581
:1005C000807FE3D80A27002506AE22467119002055
:1005D00005F03CFA0544241A08B9013F01D0002C6B
:1005E000F3D1012047B0F0BDC0F5807123683A46D1
:1005F000701907F03DFE0446DEE7C0F580716268C1
:100600002368009270193A4607F032FE0446D3E799
:10061000C0F58071A2682368646800940192701923
:100620003A4607F025FE0446C6E7C0F58071E26849
:100630002368D4F808E0646802928DE810403A46D6
:10064000701907F015FE0446B6E7C0F58071206901
:10065000E26823680390D4F808E0646802928DE8A9
:1006600010403A46701907F003FE0446A4E7C0F5AF
:1006700080716269206923680492E2680390D4F86B
:1006800008E0646802928DE810403A46701907F05D
:10069000EFFD044690E74FF48071002506AEC6E7F3
:1006A0004FF48071002506AED1E74FF4807100252C
:1006B00006AEDEE74FF48071002506AE96E74FF4F4
:1006C0008071002506AE9AE74FF48071002506AED2
:1006D000A0E706AE39467019224607F0BDFD6BE76C
:1006E00000246FE7002469E7CC8B00002DE9F04F70
:1006F0001446C7B01D46002900F02381002B00F0EE
:1007000004810A2302934FF0000B06AF519B539ACA
:10071000134420261C4602990BEB0103049331334A
:10072000FB18039307EB0B031A460193002965D0CE
:10073000534203F003038B4228BF0B46062900F205
:10074000DB800B46019907F80B600A46012B02F18A
:10075000010200F0CF80022B4E7001F1020200F086
:10076000C980032B8E7001F1030200F0C3800A469A
:10077000042BCE7002F1040200F0BC80062B0E7137
:1007800001F1050240F0BE804E718A1D9846029923
:1007900099422ED00298C3EB0009A9F1040100F19F
:1007A000FF3E8908C3EB0E0E0131BEF1020F4FEA86
:1007B000810C12D95B444FF0203E012907EB030B5B
:1007C00047F803E005D00229CBF804E001D0CBF8CC
:1007D00008E0E1456244E0440BD00299167008F14C
:1007E00001038B4205D208F102008842567000D204
:1007F0009670019B029A134401931A46039B059736
:1008000002F1330A274602F1030B544603F10109B2
:10081000DDF844A10DE00BF8036C0BF8026C0BF84B
:10082000016C0BF1030BA34509F8016C09F10109F7
:100830002FD0AF42EFD9AA4556D9509B13F8058067
:100840000BF8016C4FEA28105FFA80FE092808F0C7
:100850000F00D4BF0EF1300E0EF1370E092894BFF1
:10086000303037300BF803EC0BF8020C07F0D8FCF3
:1008700040440BF1030B407810F0970F08BF4FF086
:100880002E08A34509F8018C05F1010509F10109BC
:10089000CFD1049B039903F1430A019B3C460D22EF
:1008A0004FF00A0B059F0A7481F811B0A14683F836
:1008B00030604FF000085446224607EB0801002044
:1008C00005F0C4F88044241A10B9BBF1010B01D023
:1008D000002CF1D14D454C464FF0000BFFF41BAFFF
:1008E000284647B0BDE8F08FCAEB0500529B13F8CD
:1008F0000080A5E798464AE7002B7FF423AF019AD2
:10090000984647E74FF0050841E706AF0B68114AE4
:1009100038464FF4807107F0ABFC0028E0DB0A2377
:1009200006460293204607F0DDFCC22828BFC220FD
:10093000834602462146B81907F08EFC0025B344D1
:10094000E4E61BB902952E4606AFEBE702918B4613
:1009500006AFDBE6CC8B000070B5074D074E2B7859
:1009600013B13378834205D0044605F0BFF9012363
:1009700034702B70002070BD0102002000020020A6
:10098000004870475905000000487047ED06000018
:1009900008B505F019F9C0B208BD00BF38B5002090
:1009A000FFF7DAFF044668B9FFF7EAFF0546FFF7ED
:1009B000EBFF054BFF22C3F810541C605C60C3F8CA
:1009C00014049A60204638BD040200200120FFF77D
:1009D000C3BF00BF2DE9F041224C064600200D4662
:1009E000A76800F0F9FCA2686368D4F8008013449B
:1009F0000133C8EB0303012B1BD8ABB1012100234A
:100A000061F301036FF38203052161F3C50308EA73
:100A10000202154904EB82026FF3891308F1010702
:100A200061F39F232760D3600020BDE8F04100F010
:100A3000EDBC08F101030020236000F0E7FC012277
:100A4000002362F301036FF3820307EA080766F3EA
:100A5000C50304EB87046FF3891365F39F23E360F9
:100A6000BDE8F08104020020D48B00002DE9F8439A
:100A7000264C8046002016460F46A56800F0ACFCC8
:100A8000A2686368D4F8009013440133C9EB0303F0
:100A9000022B1BD8ABB10121002361F301036FF3DB
:100AA0008203052161F3C50309EA0202184804EB39
:100AB00082026FF3891309F1010160F39F23216022
:100AC000D3600020BDE8F84300F0A0BC09F10203A8
:100AD0000020236000F09AFC0122002362F301034E
:100AE00009EB02016FF3820305EA090968F3C50304
:100AF0000D4004EB890962F3891304EB850467F365
:100B00009F23C9F80C30E660BDE8F883040200209A
:100B1000D48B00002DE9F0474C4E96E80C009A4229
:100B20008AB070D0B06804E0C4F3891202EB94522A
:100B3000134400EA0305023506EB850201335468CD
:100B400014F00302F0D0022A28D0C4F38312C4F3B5
:100B5000952C002A75D00DF1100E7546D71800EAB5
:100B6000030106EB81010133C96845F8041BBB4250
:100B7000F5D10092C4F3C20073466246D6F8104421
:100B8000324D0021A04738B177603068C01B18BFD4
:100B900001200AB0BDE8F0876F68F6E703F1010AAB
:100BA00020EA0A010340013106EB830389004FEA82
:100BB00094588845DA68DFF894E0C4F3891326D99D
:100BC000A9B300EA0A0C5FFA81F90EEB8C0CC9EBB1
:100BD00008010CF10C0C0EF10C00C9B2039102904B
:100BE000CDF80490CDF800C00021C4F3C200D6F8BF
:100BF0001474B847404520D006EB850560F38F1488
:100C00006C607768C1E700200AB0BDE8F08700EAB1
:100C10000A000EEB80000C308DE801010021DEF8A7
:100C2000149403910291C4F3C200C847E2E70EF1A5
:100C30000C0C08465FFA88F9D0E703300AEB9007FE
:100C4000A2E71F460DF1100E93E700BF040200203B
:100C5000FFF79EBE00B585B000230390194601AA98
:100C600044F20100ADF80430029300F003F805B03F
:100C70005DF804FB08B50E490120FFF7ABFEFFF756
:100C8000A5FEFFF747FF0028FBD10A4B1B68DB07D7
:100C900000D5FFDEBFF34F8F0749084BCA6802F447
:100CA000E0621343CB60BFF34F8F00BFFDE700BF8F
:100CB000E08B0000F0ED00E000ED00E00400FA053C
:100CC0002DE9F843274A284B0025C2F84051C2F8C5
:100CD0004451C2F84851C2F84C51C2F80051C2F810
:100CE00004511B681BB32149D2F804250C68204F1E
:100CF000141B1A6824F07F44A242A84609D8197C24
:100D0000DE69A41A1544A1B91EB133461A68A2427D
:100D1000F5D9184B18491A780B789A421BD0174905
:100D2000174A41F823504FF48013C2F80031BDE850
:100D3000F883D3F8149083F810803A689B6948468A
:100D400019462AB190470028DED0FFF783FFDBE782
:100D50001846C847D8E7531CDBB2022B08BF002354
:100D60000B70DCE700100140200600201C0600206C
:100D70002406002028060020290600203406002032
:100D800000E100E02DE9F04FA44AA5491378097865
:100D9000A44889B000680090994200F0EB800133CC
:100DA000DBB2022B08BF002313709F4A52F8236066
:100DB000009B9C4A334423F07F4313604FF0010EA5
:100DC0009A4B079693F800A0994BCDF818A0D3F84A
:100DD0000090964B5B7801931D46944BD3F804B07A
:100DE0009B7802931C46934B1B7804938D4B0027F2
:100DF0001B68039351464A464B460597BC46384606
:100E00002646B846A9421AD001EB410401311BF82D
:100E10003470C9B2B14208BF0021022F0BEBC404E9
:100E200000F08380032FEDD1002BEBD0DA6918742A
:100E30001346002AFAD1A9424FF0010CE4D1DDF8A3
:100E400018A0079E4746BCF1000F40F0A380059A0A
:100E500012B1744A03991160002F40F09C82BEF1D8
:100E6000000F40F0C681B9EB030218BF01220792C0
:100E7000059375461E466B4ACDF810B0D2F800C0F7
:100E80006B4ADFF8B891D646D2F800A0694A002331
:100E9000127800931F4606924FF001089B463DB31F
:100EA0006A68A9682C46ED69CCEB020323F07F4306
:100EB0004B4572D80B4423606760A76084F81080AC
:100EC000E761002E00F08B80316899427ED2304677
:100ED00003E01168994269D21046C2695B1A002A80
:100EE000F7D12360E2613346C4611E46002DD7D19D
:100EF000019B9E4500F0A4800EEB4E03049911F86F
:100F00003320039210460EF1010E029A5FFA8EFE14
:100F1000724508BF4FF0000E012801EBC30364D0F7
:100F20003346012200921E46E0E76468002B3FF43E
:100F300069AF9C429A4601D115E0BA46DAF81C70B6
:100F4000002F3FF45FAFBC42F7D1BA450CD0FC692B
:100F50003F68CAF81C40002C3FF454AF23683B4460
:100F6000236013464EE71F46DA6932B113464FF04D
:100F7000010CECE70026B64622E72F4B4FF00108A4
:100F8000C3F80880C44613460392CDF81080CDF80C
:100F90001480DCE726490A6059E7C2EB0C0222F014
:100FA0007F428A4209D28B1A236085E7C91A1160F1
:100FB0002360E2613346C46197E727606760A760FA
:100FC00084F81080E76156B131680023CB1A336092
:100FD0002346E661A2464FF0010B1E4686E72346F4
:100FE000A2464FF0010B1E4680E75C68227C00920F
:100FF00082B99A686260D968A1601869E0605B692B
:10100000A361069B002B00F0F180009A62600093C0
:101010002A4649E733461E4668E700BF28060020F7
:10102000290600201C060020340600202C06002083
:10103000200600202A06002000100140FEFF7F004D
:10104000009B5A46002B40F0AE8112B1824BC3F890
:1010500000A0059BB34200F0BF80002E00F00A8183
:101060007E497F4CD1F8040525783368CCEB00022B
:1010700022F07F420332002D50D17A4DDFF8ECE1AF
:10108000794F4FF48036C1F84463C1F804634FF4DC
:101090000036C5F880612E6001250D60DEF8006025
:1010A0002F2100BF00BF00BF00BF00BF00BF00BFB7
:1010B00000BFBE422FD000BF00BF00BF00BF00BFB7
:1010C00000BF00BF00BF00BF00BF00BF00BF00BF28
:1010D00000BF00BF00BF00BF00BF00BF00BF00BF18
:1010E00000BF00BF00BF00BF00BF00BF00BF00BF08
:1010F00000BF00BF00BF00BF00BF00BF00BF00BFF8
:1011000000BF00BF00BF00BF00BF00BF00BF00BFE7
:1011100000BF00BF00BF0139C3D1257093422CBF6F
:101120009C4494444D492CF07F43C1F84035D1F89C
:101130000425121A1B1A22F07F4223F07F43033248
:101140009A424DD9D1F80435484AC1F84035126861
:1011500045492F2300BF00BF00BF00BF00BF00BF35
:1011600000BF00BF8A422FD000BF00BF00BF00BF3A
:1011700000BF00BF00BF00BF00BF00BF00BF00BF77
:1011800000BF00BF00BF00BF00BF00BF00BF00BF67
:1011900000BF00BF00BF00BF00BF00BF00BF00BF57
:1011A00000BF00BF00BF00BF00BF00BF00BF00BF47
:1011B00000BF00BF00BF00BF00BF00BF00BF00BF37
:1011C00000BF00BF00BF00BF013BC3D1254B4FF4A0
:1011D0000032C3F8002103E0079B002B7FF43DAFF2
:1011E000234A0023137009B0BDE8F08F039B0093DE
:1011F0005AE6194ADDF800C0176800200546014686
:101200000446ABB11A68B2421BD8D8681C60B61A43
:101210001144DA6938B10CEB010727F07F47DD6133
:1012200098605F601D46134617467046002BE9D153
:10123000002840F0BC800023059301230793059EFE
:1012400019E6002840F0AC80921B05931A60012338
:101250000793059E0FE600BF200600200010014006
:101260003C06002000E100E00024F40064000020BF
:101270002A0600204F4A504B504D51484FF48031C0
:101280004FF400370124C3F88070C2F848132F23AD
:10129000C2F80813546029681D4600BF00BF00BF94
:1012A00000BF00BF00BF00BF00BF81422FD000BF02
:1012B00000BF00BF00BF00BF00BF00BF00BF00BF36
:1012C00000BF00BF00BF00BF00BF00BF00BF00BF26
:1012D00000BF00BF00BF00BF00BF00BF00BF00BF16
:1012E00000BF00BF00BF00BF00BF00BF00BF00BF06
:1012F00000BF00BF00BF00BF00BF00BF00BF00BFF6
:1013000000BF00BF00BF00BF00BF00BF00BF013D66
:10131000C3D194602B4A166000BF00BF00BF00BF5E
:1013200000BF00BF00BF00BF81422FD000BF00BF81
:1013300000BF00BF00BF00BF00BF00BF00BF00BFB5
:1013400000BF00BF00BF00BF00BF00BF00BF00BFA5
:1013500000BF00BF00BF00BF00BF00BF00BF00BF95
:1013600000BF00BF00BF00BF00BF00BF00BF00BF85
:1013700000BF00BF00BF00BF00BF00BF00BF00BF75
:1013800000BF00BF00BF00BF00BF00BF013BC3D113
:101390000D4B1E7024E70D4A9DF8101011705EE58C
:1013A0000B490F6050E70B4B83F800E04DE6084B0C
:1013B0001F6040E70010014000E100E064000020F1
:1013C0000024F4001C0600203C0600202A06002011
:1013D000200600202C06002008B5EFF30583C3F398
:1013E00008032BB172B6074A13680133136008BDB6
:1013F000EFF31483DB07F5D50349282000F020F82C
:10140000F0E700BF40060020F88B000008B5EFF3BE
:101410000583C3F3080333B1074A1368013B136024
:1014200003B962B608BDEFF31483DB07F4D50349B3
:10143000362000F005F8EFE740060020F88B0000AA
:1014400000B583B06A46ADF80000019144F2020095
:101450000021FFF70FFC03B05DF804FB032810B573
:10146000044603D909492220FFF7EAFF084B1C5D17
:101470001F2C04D907494FF4DA70FFF7E1FF01236D
:101480004FF0A042A340C2F80C3510BD508C0000B4
:10149000E48C0000948C0000032810B504460FD89B
:1014A0000A4B1C5D1F2C04D909494FF4DA70FFF771
:1014B000C7FF01234FF0A042A340C2F8083510BD7A
:1014C00004492820FFF7BCFFEAE700BFE48C0000D6
:1014D000948C0000508C0000032810B5044603D9FA
:1014E0000D494020FFF7ACFF0C4B1C5D1F2C04D9AD
:1014F0000B494FF4DA70FFF7A3FF4FF0A041012230
:10150000D1F8040502FA04F323EA00020340C1F80B
:101510000825C1F80C3510BD508C0000E48C00008B
:10152000948C000030B44FF0A04303224FF40035F8
:101530004FF480244FF400204FF48011C3F8442767
:10154000C3F84827C3F84C27C3F85027C3F80855F9
:10155000C3F80845C3F80805C3F8081530BC704740
:10156000072938B50D46044618D8002C1DDB04F1B8
:10157000604303F561436D01EDB283F80053E3B2BC
:101580006009800000F1604000F5614003F01F0237
:1015900001239340C0F88031036038BD07494FF400
:1015A0008470FFF74DFF002CE1DAE3B2044A03F048
:1015B0000F016D010A44EDB21576E1E7E88C0000F9
:1015C000FCEC00E02DE9F04F89B00026CC4B0396EF
:1015D0001A68012A00F04382CA4B1A68012A00F0F7
:1015E0003082C94B1A68012A00F01D82C74B1A6865
:1015F000012A00F00A82C64B1A68012A00F0F7811E
:10160000C44B1A68012A00F0E481C34B1A68012A0E
:1016100000F0D181C14B1A68012A00F0BE81C04B95
:101620001A68012A00F0AC8116F0FF0F1AD0BD4FE6
:1016300001250024A30003F180432E4203F5C0439B
:101640004FEA45050BD0D3F8100557F82420D3F8FE
:101650001015C0F30420C1F3014102B190470134D9
:10166000082CE7D1002E02DB09B0BDE8F08FAD4EAB
:101670004FF0FF33059396F9503000225C1C37463B
:10168000049200F0F180DBB223F0C00908AA4FEA0F
:10169000D90102EB010A03F007001AF80C2C4FF0F5
:1016A000010808FA00F812EA080422D007EB090240
:1016B0009D0992F9303057F823B0BBF1000F00F0CC
:1016C0004481032D00F04481B9F11F0F00F22E81F7
:1016D0004FEA890303F1A0431AF8144CD3F800270A
:1016E00014EA0804C2F3014240F0D680032A00F055
:1016F0000E8296F95130581C34D0DBB223F0C00969
:1017000008A94FEAD90201EB020A03F007001AF810
:101710000C1C4FF0010808FA00F811EA080F21D05C
:1017200007EB09019D0991F9303057F82330002B60
:1017300000F01D81032D00F01D81B9F11F0F00F293
:10174000C6804FEA890B0BF1A04B1AF8141CDBF88A
:10175000002711EA080FC2F3014240F0AB80032AD0
:1017600000F0BE8196F95230591C33D0DBB223F021
:10177000C00908A94FEAD90201EB020A03F00700E9
:101780001AF80C1C4FF0010808FA00F811EA080FCB
:1017900020D007EB09019D0991F9303057F823302B
:1017A000002B00F0C980032D00F0C980B9F11F0F94
:1017B00000F295804FEA890B0BF1A04B1AF8141C2C
:1017C000DBF8002711EA080FC2F301424ED1032AC9
:1017D00000F06F8196F953305A1C32D0DBB223F0FF
:1017E000C00908A94FEAD90201EB020A03F0070079
:1017F0001AF80C1C4FF0010808FA00F811EA080F5B
:101800001FD007EB09019D0991F9303057F82330BB
:10181000002B00F0A380032D00F0A380B9F11F0F6F
:1018200065D84FEA890B0BF1A04B1AF8141CDBF8B2
:10183000002711EA080FC2F3014222D1032A00F067
:101840001A81002C3FF410AF4FF0A043039AD3F855
:10185000103593423FF408AF039396F95030049A41
:1018600005925C1C7FF40FAF002442E7022AB1D13D
:10187000032D00F06181002BACD0294648469847E3
:10188000A8E7022ADDD1032D00F05981002BD8D022
:10189000294648469847D4E7022AE5D1032D00F0AF
:1018A00074810024BBF1000F3FF423AF2946484662
:1018B000D8471EE7022A7FF455AF032D00F042817E
:1018C000002B3FF44FAF2946484698474AE7164950
:1018D00001934FF4DA70FFF7B3FD019B31E7124932
:1018E00001934FF4DA70FFF7ABFD019B62E70E49FD
:1018F00001934FF4DA70FFF7A3FD019B91E700BF5E
:101900000061004004610040086100400C6100403B
:101910001061004014610040186100401C610040EB
:101920007C61004044060020948C000098494FF4EC
:10193000DA70FFF785FDCBE6032D7FF44BAF04A8EB
:10194000815C41EA0801815430E7032D40F0AD800D
:1019500004AA535C43EA08035354B5E6032D7FF40D
:1019600070AF04A8815C41EA0801815456E7032D59
:101970007FF4F8AE04A8815C41EA08018154DCE6FA
:1019800000221A601B6807934FF0A043079AD3F810
:101990001035039346F0004646E67E4AD2F804230B
:1019A00015067FF53CAE00221A601B680693069B65
:1019B00046F0800633E6774AD2F8042357067FF5CF
:1019C00029AE00221A601B680693069B46F040066B
:1019D00020E6704AD2F8042392067FF516AE002264
:1019E0001A601B680693069B46F020060DE6694ABE
:1019F000D2F80423D1067FF503AE00221A601B68DB
:101A00000693069B46F01006FAE5624AD2F80423D4
:101A100010077FF5F0AD00221A601B680693069B45
:101A200046F00806E7E55B4AD2F8042354077FF541
:101A3000DDAD00221A601B680693069B46F0040683
:101A4000D4E5544AD2F8042395077FF5CAAD0022A5
:101A50001A601B680693069B46F00206C1E54D49D5
:101A6000D1F8041311F0010121D01E601B68069308
:101A7000069B1646B0E5032D7FF408AF4FF40038FF
:101A8000B9F11F0F79D8DBF8001721F44031CBF8FA
:101A90000017DBF80027013448EA0202E4B2CBF871
:101AA0000027002B7FF4F4AECEE65C4621E60E461E
:101AB00092E5032D7FF4DFAE4FF40038B9F11F0F2C
:101AC00053D8DBF8001721F44031CBF80017DBF8CE
:101AD0000027013448EA0202E4B2CBF80027CAE644
:101AE000032D7FF4EDAE4FF40038B9F11F0F34D859
:101AF000DBF8001721F44031CBF80017DBF80027A2
:101B0000013448EA0202E4B2CBF80027D8E6032DFC
:101B10007FF4C8AE4FF40034B9F11F0F15D8D3F8D5
:101B2000001721F44031C3F80017D3F800272243EF
:101B3000C3F800270124B5E64FF44038BEE74FF460
:101B400040389DE74FF44038CFE7114901934FF4F7
:101B5000DA70FFF775FC019BE1E70D4901934FF443
:101B6000DA70FFF76DFC019BC2E7094901934FF45E
:101B7000DA70FFF765FC019BA3E7054901934FF479
:101B8000DA70FFF75DFC019B7DE74FF44034C3E75B
:101B9000948C0000006000402DE9F0410024C1F861
:101BA00004418EB0D1F804510495049DC1F824413C
:101BB000D1F824510395039DC1F81C41D1F81C5163
:101BC0000295029DC1F80841D1F808510195012BF9
:101BD00080F8264080F82340019D0CBF0224012498
:101BE0000125C1F800420D620D6004684CB140F25D
:101BF000862383608368C1F8043300200EB0BDE8FB
:101C0000F0812E4603F1FF3E4FF0020C90F8235076
:101C1000002D3BD1D1F8247190F82680002F48D0B8
:101C2000C1F82451D1F824510A950A9D4E6180F8DB
:101C300023604345EAD1D1F80451002DE6D00023BA
:101C4000C1F80431D1F8042190F823300592059AA7
:101C5000C3B1D1F8C434C1F8C4349BB113F0010F3F
:101C600018BF4FF4024048F2012208BF032013F0CE
:101C7000020F18BF104648F2022213F0040F18BFDB
:101C80001046BBE700200EB0BDE8F081C1F824414A
:101C9000D1F824510B950B9DC1F81C41D1F81C5172
:101CA0000C950C9DC1F80841D1F808510D950D9D7A
:101CB000C1E7D1F81C51ADB1C1F81C71D1F81C516C
:101CC0000995099DD1F824511DBB90F82650AB42CF
:101CD0003DD9555DC1F81C5590F82650013580F866
:101CE0002650A6E7D1F80871002FA2D0C1F80851FC
:101CF000D1F808710797079FD1F824719FB1C1F8F7
:101D00002451D1F824510695069D4E6180F8236038
:101D10008FE7C1F82471D1F824510895089D4E61D0
:101D200080F8236085E790F82650AB4281D9D1F83E
:101D30001875575590F826500135EDB2754580F865
:101D4000265006D0AB423FF474AF0E6271E74E618D
:101D50006FE7C1F800C2F8E72DE9F0430024C1F8AD
:101D600004418FB0D1F804510495049DC1F8244179
:101D7000D1F824510395039DC1F81C41D1F81C51A1
:101D80000295029DC1F80841D1F80851019501253D
:101D9000019EC1F8004280F8264080F823400D6281
:101DA0008D6090F826409DF85870A34213D9145DB9
:101DB000C1F81C4590F826402C4480F82640046861
:101DC0007CB140F2862383608368C1F8043300202D
:101DD0000FB0BDE8F083002F48D0CD610468002C1F
:101DE000EFD103F1FF3C4FF0010E4FF0020890F8E5
:101DF0002350002D3CD1D1F8246190F82690002E7C
:101E000049D0C1F82451D1F824510A950A9DC1F84E
:101E100014E080F823E04B45E9D1D1F80451002DBE
:101E2000E5D00023C1F80431D1F804310593059BB6
:101E300090F82330002B6AD0D1F8C434C1F8C434F0
:101E4000002B64D013F0010F18BF4FF4024048F28A
:101E5000012208BF032013F0020F18BF104648F2FA
:101E6000022213F0040F18BF1046B1E74D61A6E738
:101E7000C1F82441D1F824510B950B9DC1F81C41A8
:101E8000D1F81C510C950C9DC1F80841D1F80851AE
:101E90000D950D9DC1E7D1F81C51ADB1C1F81C6184
:101EA000D1F81C510995099DD1F8245125BB90F812
:101EB0002650AB4245D9555DC1F81C5590F82650C7
:101EC000013580F82650A6E7D1F80861002EA2D08F
:101ED000C1F80851D1F808610796079ED1F824612E
:101EE000CEB1C1F82451D1F824510695069DC1F810
:101EF00014E080F823E08EE7C1F82461D1F8245182
:101F00000895089DC1F814E080F823E083E70020DD
:101F10000FB0BDE8F08390F82650AB427FF67BAF60
:101F2000D1F81865565590F826500135EDB2654543
:101F300080F826500CD0AB423FF46DAFC1F820E0E2
:101F400069E717B10123CB6172E7C1F814E062E7DA
:101F5000C1F80082F2E700BF2DE9F04F804683B060
:101F60000C46002900F0F38194E8030088424AD02F
:101F700098F80450654EAF007919C900701890F8B0
:101F800022E0BEF1000F03D0082003B0BDE8F08FBF
:101F90007250C0F808E0436080F825E080F824E043
:101FA000A37B80F82730637BB3BB23684FF0A0414D
:101FB00003F5E07340F20C6041F82300636803F519
:101FC000E0737A1941F82300D8F80030216860687E
:101FD00056F83220C3F80815C3F80C05A168C3F8F9
:101FE000241532B1D8F80000217B40F30730FFF709
:101FF000B7FA3D4406EBC5050123002085F82230E1
:1020000003B0BDE8F08F4249D6208DE80C00FFF701
:1020100017FA9DE80C00ABE723684FF0A04203F5E8
:10202000E07340F20C6142F82310636803F5E0733B
:1020300042F82310D4F80090B9F11F0F00F29081FC
:1020400001234FF0A04203FA09F3C2F80835D4F88F
:102050000490B9F11F0F00F289814FF0A0430122D3
:1020600002FA09F2C3F808252168DFF8AC90294A82
:1020700001F5E07140F20D6043F82100616801F55F
:10208000E07143F821000423D9F8001000BF00BF1D
:1020900000BF00BF00BF00BF00BF00BF91422FD0F4
:1020A00000BF00BF00BF00BF00BF00BF00BF00BF38
:1020B00000BF00BF00BF00BF00BF00BF00BF00BF28
:1020C00000BF00BF00BF00BF00BF00BF00BF00BF18
:1020D00000BF00BF00BF00BF00BF00BF00BF00BF08
:1020E00000BF00BF00BF00BF00BF00BF00BF00BFF8
:1020F00000BF00BF00BF00BF00BF00BF00BF00BFE8
:10210000013BC3D14FF0000B9246A5E09C06002096
:10211000988D00000024F400640000204FF0A041DE
:10212000D1F8101521FA03F3DB0700F1B38023681F
:102130001F2B00F2A78001214FF0A04001FA03F30A
:10214000C0F80C35D9F80010042300BF00BF00BF51
:1021500000BF00BF00BF00BF00BF51452FD000BF70
:1021600000BF00BF00BF00BF00BF00BF00BF00BF77
:1021700000BF00BF00BF00BF00BF00BF00BF00BF67
:1021800000BF00BF00BF00BF00BF00BF00BF00BF57
:1021900000BF00BF00BF00BF00BF00BF00BF00BF47
:1021A00000BF00BF00BF00BF00BF00BF00BF00BF37
:1021B00000BF00BF00BF00BF00BF00BF00BF013BAA
:1021C000C3D123681F2B53D84FF0A04E0120984055
:1021D000CEF80805042300BF00BF00BF00BF00BF4A
:1021E00000BF00BF00BF51452FD000BF00BF00BFE0
:1021F00000BF00BF00BF00BF00BF00BF00BF00BFE7
:1022000000BF00BF00BF00BF00BF00BF00BF00BFD6
:1022100000BF00BF00BF00BF00BF00BF00BF00BFC6
:1022200000BF00BF00BF00BF00BF00BF00BF00BFB6
:1022300000BF00BF00BF00BF00BF00BF00BF00BFA6
:1022400000BF00BF00BF00BF00BF013BC3D10BF107
:10225000010BBBF1090F21D063681F2B7FF65EAF26
:102260004B4900934FF4DA70FFF7EAF8009B55E70B
:10227000474900934FF4DA70FFF7E2F8454B1968CD
:10228000009BA1E7424900934FF4DA70FFF7D8F8BA
:10229000009B50E7BBF1000F3FF487AED4F804A0D9
:1022A000BAF11F0F6ED84FF0A042012303FA0AF3D0
:1022B000C2F80C35D9F800203749042300BF00BF0D
:1022C00000BF00BF00BF00BF00BF00BF8A422FD0C9
:1022D00000BF00BF00BF00BF00BF00BF00BF00BF06
:1022E00000BF00BF00BF00BF00BF00BF00BF00BFF6
:1022F00000BF00BF00BF00BF00BF00BF00BF00BFE6
:1023000000BF00BF00BF00BF00BF00BF00BF00BFD5
:1023100000BF00BF00BF00BF00BF00BF00BF00BFC5
:1023200000BF00BF00BF00BF00BF00BF00BF00BFB5
:10233000013BC3D1D4F80490B9F11F0F1CD801237D
:102340004FF0A04203FA09F3C2F808352DE613490D
:10235000D5208DE80C00FFF773F89DE80C0003E62C
:102360000B494FF4DA70FFF76BF869E608494FF450
:10237000DA70FFF765F870E605494FF4DA70FFF799
:102380005FF8DCE702494FF4DA70FFF759F88AE7A3
:10239000948C0000640000200024F400988D00005C
:1023A000F8B504790C4DA7003B1905EBC3030646AD
:1023B00093F82230012B04D008494FF4A770FFF79F
:1023C0003FF83C44336805EBC4040221052284F83D
:1023D0002210C3F80025F8BD9C060020988D00004F
:1023E0002DE9F04F87B003AE9DF840500024746093
:1023F0000394B460C5B9AC460479DFF88880D0F89E
:1024000000E004EB8404E4004FF0FF3008EB040725
:10241000CEF8080397F8240050B1BB68CEF8043317
:10242000112007B0BDE8F08F01254FF0200CE3E745
:102430008DF80E308DF80D10049292468B4696E87A
:102440000700994607F10C0383E80700012187F88C
:1024500024104B46CEF888B5524600957146384652
:10246000C7F818C087F82090C7F81CA087F821503B
:10247000FFF772FC58F80430002BD2D187F82430D3
:10248000CFE700BF9C0600202DE9F04F0479234FD1
:10249000D0F800E004EB8404E4004FF0FF3007EBD9
:1024A000040885B0CEF8080301AD98F82460002038
:1024B00068600190A8603EB1D8F80830CEF80433C7
:1024C000112005B0BDE8F08F4FF0010B8DF80630FC
:1024D0008DF8051002928DF804B006F0FF0C9146BD
:1024E0000E4695E8070008F10C0585E8070088F816
:1024F00024B088F82030CEF88865C8F818C04A465D
:1025000071464046C8F81C9088F821C0FFF744FB8C
:102510003B59002BD5D188F82430D2E79C06002007
:10252000F0B5794C236891B0002B00F0C28094F88C
:102530002310754A754BA9B9D3F8240192F820608D
:1025400092F8265000284BD0C3F82411D3F8241158
:1025500008910121089882F823105961AE4214D0E5
:1025600011B0F0BD0022C3F82421D3F82411099141
:102570000999C3F81C21D3F81C110A910A99C3F8D0
:102580000821D3F808310B930B9B604BD3F804213F
:10259000002AE5D00022C3F80421D3F804310393C4
:1025A000039B94F823305848002B34D1017B8B1EB9
:1025B000012B6AD9564B93E8070010AD05E90700D7
:1025C00000238DF83030A3694F490022580784F862
:1025D0002420C5D40B6849680CA8984711B0F0BDF9
:1025E000D3F81C11D76961B3C3F81C01D3F81C11CF
:1025F00007910799D3F8241192F821E000295ED0C1
:10260000C3F82401D3F8241106910121069882F819
:1026100023105961A2E70C3007C810AB03E907008B
:102620003A4AD2F8C434C2F8C4349A0703D5012315
:102630008DF83030C7E75D0744BF02238DF8303096
:10264000C1E7D3F80801002888D0C3F80811D3F8EF
:10265000080105900598D3F8240100283ED1AE4228
:102660007FF67CAFD3F81815795592F82610013112
:10267000C9B2701E814282F826103CD08E423FF4CF
:102680006DAF224B01221A6268E7C26903699A4260
:1026900090D184694269C37BC261C4F340140329A9
:1026A00080F8214080F8203029D01849FFF774FACB
:1026B00056E7184940F2FF30FEF7C2FE37E7AE4258
:1026C00005D80122BEF1000F13D15A6146E7795DAA
:1026D000C3F81C156B1C82F826303FE7C3F82411A1
:1026E000D3F8241104910121049882F82310596130
:1026F00034E7DA6155E70222C3F80022C1E700940B
:102700000249FFF729FB2BE79C0600200030004020
:10271000A8060020988D00002DE9F043954F3A78E7
:102720008BB0002A40F088800123DFF87082924944
:102730003B7098F801900B68002B5FFA89F914BF81
:102740000123002303D00A600A680092009A8B4A92
:10275000116800294FEA430314BF0121002104D06E
:102760000020106012680192019A854A10680028C2
:1027700043EA412314BF0121002104D0002010604E
:1027800012680292029A7F4A1068002843EAC14305
:1027900014BF0124002404D00021116012680392A8
:1027A000039A794A1168002943EA045314BF0124AB
:1027B000002404D00021116012680492049A734A24
:1027C0001168002943EA446314BF0124002404D0A3
:1027D0000021116012680592059A53EA846427D09B
:1027E0000426012509F1FF39B9F1030F3FD8DFE8CD
:1027F00009F0575D022A664B234003BB4FF040228D
:10280000D8F80410D2F8D034C2F8D034D8F8082060
:10281000002B08BF4FF480731A4305200993C8F8B2
:1028200008208DF8200009B108A888474FF000095A
:10283000002388F801903B700BB0BDE8F08334F4BE
:10284000002400F09080534B2340002BD6D04FF053
:1028500040238DF81860D3F83C35D8F80420DBB25B
:1028600007930AB106A8904734F00204DED014F0B2
:102870000203F9D1600144D5E202D8F804208DF8B2
:10288000183056BF01234FF0020999468DF81C30CD
:102890000AB106A8904724F0C364002CA2D1C7E770
:1028A0003D4B23402BB134F480145FD0394B23408F
:1028B000BBB94FF04022D8F80410D2F8D034C2F897
:1028C000D034D8F80820002B08BF4FF480731A4387
:1028D00002200993C8F808208DF820000029A3D110
:1028E000A4E74FF040238DF81850D3F84C35D8F8B2
:1028F0000420DBB20793002AB4D134F00204B6D12D
:1029000094E7A30116D504F40023002BD8F8043073
:102910004FF003020CBF012100218DF81C100CBFE9
:1029200091464FF004098DF81820002BB3D006A86B
:102930009847B0E74FF04022D8F80410D2F8D034CE
:10294000C2F8D034D8F80820002B08BF4FF48073A9
:102950001A4306200993C8F808208DF820000029A2
:102960007FF462AF62E74FF0040961E74FF00209BC
:102970005EE700BFC406002004410040244100403F
:102980004C410040504100406441004068410040DB
:10299000020008060200000602001006C806002019
:1029A00070B59B4C237F8EB0002B75D1994AD2F81D
:1029B0000413890548D4974BD3F80423520704D550
:1029C000D3F80821002A40F0CA80924BD3F81C218A
:1029D000C2B1A28AA07D8E4992B282424FF000021B
:1029E000C3F81C2180F0A980D3F81C210692069A16
:1029F000888A8A8A8D6880B20132285C92B28A8283
:102A0000C3F81C05834BD3F84421DAB10022C3F884
:102A10004421D3F84411A27E04910499002A40F085
:102A20008980E27D7A4B6AB10022587ED968DA75D6
:102A300001228DF830000B918DF828200AA893E828
:102A4000060090470EB070BDD2F824110029B2D014
:102A5000C2F82431D2F82411A37E07914FF40171FA
:102A60000798C2F808130BB901235360694A02237F
:102A70008DF82830D2F88034C2F88034E07DE268E6
:102A80000D9300238DF83000E375237621680B92B7
:102A900063680AA8984798E75E4BD3F82421002A78
:102AA00040F09380D3F8101161B1C3F81021D3F82E
:102AB000101103910399D3F83C15E07DC9B2884207
:102AC00000F0AA80534BD3F84421B2B10022C3F8DE
:102AD0004421D3F84411E07D019101994C4960B142
:102AE000D3F83C35C8688DF830300123CA750B9097
:102AF0008DF828300AA80AC99847464BD3F82021F8
:102B0000002A9FD00022C3F82021D3F82011A07DF5
:102B1000009100993E49002894D0D3F84C058B6869
:102B20008DF830008A750B938DF828200AC90AA801
:102B3000984787E701221A6073E7D3F81C310593A1
:102B4000059B00283FF45EAF8B688DF830008A75D6
:102B50000B938DF828200AC90AA8984752E7E17D0F
:102B60002B4A002970D00021C3F80811D3F80811AE
:102B700008910899D068517ED3F818354354537E94
:102B8000D17D0133DBB25376627E214B8A427FF4E2
:102B90001CAF1A7E002A6DD19B7E13B91D4B0122FA
:102BA0005A601C4AE06863684FF40171C2F8081368
:102BB000627E8DF83020002501220B902168E5759A
:102BC0008DF828200AA89847FFE60022C3F82421A0
:102BD000D3F82411029102218DF828100299D3F81C
:102BE0008014C3F880140D91D3F83C15E368E275A6
:102BF00022768DF830100B93216863680AA89847F5
:102C0000044BD3F84421002A3FF477AF5EE700BFBE
:102C1000D406002000200040217EF1B1D3F80062EC
:102C2000E17526F02001E568C3F8001226698DF8E9
:102C3000300001238DF82830227621680B95E6605C
:102C400063680AA898473DE7C3F80811D3F808213C
:102C50000992099AD3F8183596E7E268E1750123DD
:102C60008DF830008DF828300B9294E80A000AA8FD
:102C7000984727E7DE685D7E1869DA750121002232
:102C8000D8601A765A768DF828100B968DF8305049
:102C900093E806000AA8904797E600BF30B587B0D2
:102CA00006AB02AD03F8042D002485E803001A46A4
:102CB0000094284601232921FFF792FB50BB0123F2
:102CC0000DF1160229212846FFF7DEFB0446D0B994
:102CD000284601230DF117022921FFF7D5FB0446F1
:102CE00000BB14490220FDF775FE9DF816009DF803
:102CF0001730114943EA002422461320FDF7B6FE9F
:102D0000204607B030BD0D490220FDF763FEE0B25A
:102D100007B030BD04460A490220FDF75BFEE0B271
:102D200007B030BD07490220FDF754FEE0B207B0FE
:102D300030BD00BFA88E0000C48E0000308E0000A1
:102D4000F88D00006C8E0000F0B58FB002AD85E804
:102D5000030095E803000AAB002483E803002D4E2E
:102D60008DF820400CAB08AF83E803003A461846C4
:102D700000940323102134707470B470F4703471B3
:102D80008DF821408DF82240FFF72AFB002836D12C
:102D900095E8030006AB0EAA83E803000C2302F8B3
:102DA000283D012387E803000024009310213846C2
:102DB0008DF814408DF81540FFF712FB0446C0B99A
:102DC0003846022305AA1021FFF75EFB0446D8B956
:102DD0009DF815409DF8143043EA0424262C224621
:102DE0000CBF0D490D491320FDF740FE20460FB0E2
:102DF000F0BD0B490220E4B2FDF7ECFDEEE7094916
:102E00000220FDF7E7FDC3E707490220E4B2FDF722
:102E1000E1FDE3E710090020008F0000208F000093
:102E2000F88D0000D08E0000308E00002DE9F043B8
:102E300093B002AC84E8030094E803000AAB12AD3F
:102E400083E803000C2305F8183D10AE012386E843
:102E5000030000272A463046009310218DF8387071
:102E60008DF83970FFF7BCFA002874D10DF13809DC
:102E700030464A4602231021FFF706FB074600288A
:102E80007FD19DF839709DF8383043EA07273A46DC
:102E900045491320FDF7EAFD94E8030008AB12AEA4
:102EA00083E80300072306F8303D012389E8030087
:102EB0004FF0000E32460093102148468DF830E066
:102EC0008DF831E0FFF78CFA8046002852D1484651
:102ED00002232A461021FFF7D7FA804600285CD14A
:102EE0009DF831209DF8303043EA02222F4913200B
:102EF000FDF7BCFD94E8030012AA092302F8383D4F
:102F0000012386E8030085E80300002400931021D4
:102F100028468DF814408DF81540FFF761FA0446F5
:102F200010BB2846022305AA1021FFF7ADFA04467C
:102F300068BB9DF815209DF8143043EA02221C4915
:102F40001320FDF793FD1B491320FDF743FD384681
:102F500013B0BDE8F083074617490220FFB2FDF722
:102F600039FD0DF1380992E713490220FDF732FDD2
:102F7000E2B2E4E710490220FDF72CFD5FFA88F287
:102F8000B4E70E490220FFB2FDF724FD7FE70B49AD
:102F90000220FDF71FFDE2B2D1E708490220FDF74C
:102FA00019FD5FFA88F2A1E7488F0000608F0000EA
:102FB000788F000030930000F88D0000308E000004
:102FC000F0B5814C99B002AF94F804C094F801E0D8
:102FD0002678A278E37887E803000CF0010C4FEA2A
:102FE0004E1E0EF0600E4CEAC616920097E80300E3
:102FF00046EA0E0602F01C025B00164303F00203D1
:1030000016AA1E430CAD002382E8030085E80300E6
:103010004FF0200E00931046022309AA1E218DF8BE
:1030200025608DF824E0FFF7DBF9002840F0C08030
:10303000A679E2796379F600920095E8030002F040
:10304000040206F008065B01164303F0600314AAAD
:103050001E43002382E803004FF0210E0093104628
:10306000022308AA1E218DF821608DF820E0FFF7C9
:10307000B7F9002840F09780667AA27A237AB600E2
:1030800095E8030002F0030206F004065B01164314
:1030900003F0200312AA1E43002382E803004FF02E
:1030A000220E00931046022307AA1E218DF81D60F0
:1030B0008DF81CE0FFF794F900286FD1267BE37AA6
:1030C00095E8030076009B0003F00C0306F002066F
:1030D00010AA1E43002382E803004FF0230E009342
:1030E0001046022306AA1E218DF819608DF818E0FB
:1030F000FFF776F900284CD1A37B647B95E80300A9
:103100009B010EAA03F04003002582E8030043EA76
:10311000C414009510462425022305AA1E218DF80B
:1031200015408DF81450FFF75BF968BB97E8030072
:1031300018AA0F2302F8503D0AAD002385E80300CA
:103140000093284601231E21FFF74AF90446A8B937
:10315000284601230DF113021E21FFF795F90446BD
:1031600058BB9DF813403D2C22460CBF1749184907
:103170001320FDF77BFC204619B0F0BD1549022055
:10318000E4B2FDF727FCEEE713490220FDF722FC2D
:10319000CCE711490220FDF71DFCADE70E490220E6
:1031A000FDF718FC8AE70C490220FDF713FC63E7E2
:1031B00009490220FDF70EFC3AE708490220E4B273
:1031C000FDF708FCCFE700BF3C0900200490000099
:1031D00024900000908F0000D08E0000C88F000067
:1031E000F0B5D24CA1B000220123032502AE257018
:1031F0006370E37023716371A270A271E271227235
:103200006272A272E27222736273A273E273227418
:103210006274A274E27422756275A275E2752276F8
:103220006276A276E2762277627786E8030096E8F5
:1032300003001EAB10AD85E80300A277009283E87F
:1032400003001F211846C027E27784F8202084F865
:10325000212084F822208DF82C1002230BAA18219B
:103260008DF82D70FFF7BCF8002840F07881677961
:10327000A1786078E278237907F00107C90047EA6E
:10328000001701F0080192000F4302F0040295E8D4
:1032900003005B00174303F002031CAA1F43002333
:1032A00082E803004FF0200E0093104602230AAA82
:1032B00018218DF829708DF828E0FFF791F8002883
:1032C00040F04881E37AE07994F806E0217A627A66
:1032D00003F00107000147EA8E1700F03000A37ADF
:1032E000C900074301F0080192000F4302F00402F5
:1032F00095E803005B00174303F002031AAA1F437B
:10330000002382E803004FF0210E009310460223B1
:1033100009AA18218DF825708DF824E0FFF760F8D0
:10332000002840F01281637BA27BE77B207B217C1D
:1033300094F811E09B01520103F0400302F02002D7
:103340001A433F0142EAC01307F01007A27CC900EC
:103350001F4301F008014FEA8E0E0F430EF0040EDA
:1033600095E80300520047EA0E0702F0020218AB8C
:103370001743002283E803004FF0220E0092184604
:1033800008AA022318218DF821708DF820E0FFF79C
:1033900027F8002840F0D480A77D227DE17C637D62
:1033A00007F00107120147EAC11702F0300295E861
:1033B00003005B00174303F0060316AA1F43002314
:1033C00082E803004FF0230E00931046022307AA61
:1033D00018218DF81D708DF81CE0FFF701F800280A
:1033E00040F09E80237F207E94F817E0617EA27ECD
:1033F00003F00107800147EACE1700F04000E37EAA
:10340000C900074301F0080192000F4302F00402D3
:1034100095E803005B00174303F0020314AA1F435F
:10342000002382E803004FF0240E0093104602238D
:1034300006AA18218DF819708DF818E0FEF7D0FF54
:10344000002868D1A37FE27F94F8200094F821102F
:1034500094F81DE094F822709B01520103F04003A0
:1034600002F020021A43040142EACE1304F01004D1
:10347000CA0095E80300234302F008047A001C43C5
:1034800002F0020212AB002583E80300144300950A
:1034900018462525022305AA18218DF815408DF818
:1034A0001450FEF79DFF88BB96E803000CAB20AAE2
:1034B00083E803000F2302F8703D0EAD002385E87A
:1034C00003000093284601231821FEF789FF0446D4
:1034D000B0B9284601230DF113021821FEF7D4FFDD
:1034E0000446002840D19DF81340332C22460CBFDF
:1034F0000F4910491320FDF7B9FA204621B0F0BD5D
:103500000D490220E4B2FDF765FAEEE70B4902200F
:10351000FDF760FAC8E709490220FDF75BFA91E779
:1035200006490220FDF756FA5CE700BF18090020A3
:103530005090000070900000908F0000D08E00002E
:103540000C490220FDF746FA26E70A490220FDF75A
:1035500041FAE8E607490220FDF73CFAB2E60549E0
:103560000220FDF737FA82E603490220E4B2FDF7B4
:1035700031FABAE7D08E0000C88F00002DE9F04F75
:103580008FB004AC84E803000EAE94E80300F72388
:1035900006F8183D0CAD002385E803003246009381
:1035A000284601237721FEF71BFF002840F02A81DF
:1035B0000AAF012328463A467721FEF765FF034606
:1035C000002840F03B819DF8283003930EAD94E82D
:1035D0000300F82305F81C3D002387E803002A4672
:1035E0000093772101233846FEF7FAFE03460028B0
:1035F00040F01D810123384632467721FEF744FF13
:103600000346002840F028819DF82030029394E87A
:1036100003000EAAF92302F8203D002386E80300E8
:103620000093772101233046FEF7DAFE0446002896
:1036300040F0F6802A46304601237721FEF724FF2A
:103640000446002840F001819DF81CE0864BDFF81D
:103650002CA21868BAF90A40BAF90860C117B0F587
:10366000FA3041F1FF31A0FB008900FB01F309EBC7
:103670004309E517F71704FB09F206FB01F308FB02
:10368000052200FB0733A4FB0845A6FB0067154491
:103690004FEA142B1F444BEA056B32033B0343EA0A
:1036A00016534FEA252C12EB0B02BAF8066043EBD7
:1036B0000C03003243F50043A2FB064506FB03550D
:1036C0006A10EB1752EA030400F0A580BAF90E4025
:1036D000029E039F04FB01F1E51700FB051536016F
:1036E000A4FB0001BAF9104046EA0736294404FB5E
:1036F00009FC46EA1E1EE5174F04CEF5801E08FBA6
:1037000005CC47EAD0374604A4FB0845BAF90C00BB
:10371000A41965444FF000084FEAEE7C4FEACC71E3
:103720004FEAC0097D414FEACE7014EB080445EB27
:10373000090541EA5E01001B61EB0501061841EB3A
:10374000010736184F41BD01B40145EA96653619A7
:103750006F41BC00B50044EA96742E1844EB010793
:10376000B500BC00401944EA9674614104F082FB44
:10377000BAF916204C13470B47EAC14702FB04F580
:10378000D31707FB0355A2FB072302FB04F6BAF984
:1037900014402B4407FB036604FB01FEA2FB072336
:1037A000E51700FB05EE3344A4FB0045560E7544B7
:1037B00046EAC3164FEAD4488019BAF912404FEAD4
:1037C000636748EA453879414FEAE54918EB000854
:1037D00049EB0109E5174FEA182242EA096229017B
:1037E00020014FEA2923801841EA1471594104F05D
:1037F00003FB9FED1E0A07EE900A27EE800A0FB02A
:10380000BDE8F08F0346DBB2194903930220FDF7B0
:10381000E1F80AAFDAE69FED170A0FB0BDE8F08FC6
:1038200013490220FDF7D6F85FFA84FE0EE7DBB2FB
:103830000F4902930220FDF7CDF8E8E6DBB20E490E
:1038400003930220FDF7C6F8C0E60B490220FDF7FE
:10385000C1F85FFA84FEF9E6DBB207490293022061
:10386000FDF7B8F8D3E600BF780900200000803BE0
:10387000908F000000000000C88F00004C0900205D
:103880002DE9F0479EB004AC84E803001EAF94E835
:103890000300D02307F8103D12AE002386E8030092
:1038A0003A460093304601237721FEF799FD002820
:1038B00040F098810DF1700830464246012377218F
:1038C000FEF7E2FD0546002840F0B4819DF8702027
:1038D000DF491320FDF7CAF894E803000AAB83E838
:1038E00003000DF16009002310AE86E8030089E8AB
:1038F0000300FA250093484601233A4677218DF8C4
:103900006850FEF76DFD0546002840F08D81484661
:10391000012342467721FEF7B7FD0546002840F017
:10392000CA819DF8705096E803000DF1580A0023F3
:103930008AE803004FF0FB0E0093504601233A46FD
:1039400077218DF868E0FEF74BFD2D0381460028B6
:1039500040F063815046012342467721FEF794FDF3
:103960008146002840F0A0819DF8709096E8030001
:103970000DF1500A00238AE80300FC26009350460C
:1039800001233A4677218DF86860FEF729FD45EA64
:1039900009150646002840F03A8150460123424668
:1039A0007721FEF771FD0646002840F077819DF8EB
:1039B0007030A84E9FEDA86AB6F800E0B6F9042072
:1039C000B6F902C0DFEDA56ADFF8B492A44945EA72
:1039D0001315CEEB151303FB03F34FEA4E0E1B1327
:1039E000CEEBD50002FB03F30CFB00F59B1303EBBE
:1039F000E52505EB850380331B1207EE903AF8EEC0
:103A0000E77AF2EE025A87EE867A1320C9F8005060
:103A10000DF1780A0CADB1EE046A27EE257AC7EEF7
:103A2000067A77EEA67AFCEEE77ACDED037A9DF87A
:103A30000C20FDF71BF894E80300FFF79FFDFCEE58
:103A4000C07A8849CDED037A9DF80C201320FDF74C
:103A50000DF894E8030008AB83E803000EAB83E89D
:103A60000300FFF78BFDDFED807A80EE277A17EEFB
:103A7000100A03F09DFD9FED721B41EC100B02F04C
:103A8000FBFA07EE900AF8EEE77AB7EE007A77EEE7
:103A9000C77A9FED767A67EE877A17EE900A03F081
:103AA00087FD69A3D3E9002303F0D6FD04F084F871
:103AB00007EE900AFCEEE77A6D49CDED037A9DF8AA
:103AC0000C201320FCF7D2FF94E80300FD230AF832
:103AD0005C3D002385E8030088E80300524600931C
:103AE000772101234046FEF77BFC0446002840F086
:103AF0008880404601233A467721FEF7C5FC0446FC
:103B0000002840F0C5809DF8684095E803001EAA93
:103B1000FE2302F8603D002387E80300009377212D
:103B200001233846FEF75CFC24020546002862D1DA
:103B30005246384601237721FEF7A6FC05460028A9
:103B400040F0A0809DF81C00D9F80030377F96F82F
:103B50002220B6F91EC0B6F92050A3F5963E0EFB02
:103B600007F70EFB02F1FF1207F500478A1202FB6E
:103B700007F24FEA0C5340EA04079212B6F91A40D2
:103B8000307E3C49C3EB873302F500120EFB153340
:103B900004FB02F203F5804302F500529213DB139B
:103BA00002FB03F3DA1302FB02F2D21100FB02F272
:103BB000A3EB221323EAE373B3F1C85FA8BF4FF06E
:103BC000C8531B1307EE903AFAEECB7A1320FCEEA3
:103BD000E77ACDED037A9DF80C20FCF747FF1EB085
:103BE000BDE8F087054624490220FCF7F3FE0DF1FD
:103BF0007008EAB26CE602201F49FCF7EBFEE8B25F
:103C0000A2E71D490220FCF7E5FEE4B27DE71A4970
:103C10000220FCF7DFFEF3B2CBE617490220FCF7E7
:103C2000D9FE5FFA89F9A1E613490220FCF7D2FE1A
:103C3000EDB278E611490220FCF7CCFEEAB247E685
:103C4000C5C551B9895AC83FE544BB0A293F0A4056
:103C50009C9000004C0900200000C8420000004277
:103C6000B0900000C890000080E6C547331633C707
:103C7000E490000000910000908F0000C88F0000C9
:103C80007809002002200F49FCF7A4FEE8B25BE7A8
:103C90000C490220FCF79EFEE4B236E709490220F7
:103CA000FCF798FEF3B284E606490220FCF792FE88
:103CB0005FFA89F95AE603490220FCF78BFEEDB260
:103CC00031E600BFC88F00002DE9F0439BB002AC85
:103CD00084E8030094E803000EAB1AAF83E8030006
:103CE0000F2307F8183D18AD002385E803003A4676
:103CF0000093284601231E21FEF772FB002840F0A6
:103D0000B4800DF1580928464A4601231E21FEF7CA
:103D1000BBFB8046002840F0CC809DF85880754958
:103D200042461320FCF7A2FE94E803000CAB1AAE47
:103D300083E80300282306F8203D002389E80300D8
:103D4000324600931E2101234846FEF749FB0546F3
:103D5000002840F0A880484601233A461E21FEF77D
:103D600093FB0546002840F0BF809DF85020624933
:103D700052B21320FCF77AFE94E803000AAB1AADA6
:103D800083E803002A2305F8283D002387E8030081
:103D90002A4600931E2101233846FEF721FB814667
:103DA000002879D13846012332461E21FEF76CFBEC
:103DB0008146002840F091809DF848204F4952B23A
:103DC0001320FCF753FE94E8030008AB1AAF83E816
:103DD00003002C2307F8503D002386E803003A46F1
:103DE00000931E2101233046FEF7FAFA814600288F
:103DF0004BD1304601232A461E21FEF745FB814662
:103E0000002863D19DF840203D4952B21320FCF7B1
:103E10002DFE94E803001AAA2E2302F8543D002335
:103E200087E8030085E8030000931E21012328464C
:103E3000FEF7D6FA044610BB284601230DF11702FF
:103E40001E21FEF721FB0446002839D19DF81720DA
:103E50002C4952B21320FCF709FE2B491320FCF722
:103E6000B9FD40461BB0BDE8F083804627490220DB
:103E70005FFA88F8FCF7AEFD0DF158094FE72349CA
:103E80000220FCF7A7FDE2B2E2E720490220FCF79E
:103E9000A1FD5FFA89F2B7E71C490220FCF79AFD01
:103EA0005FFA89F28AE719490220FCF793FDEAB22A
:103EB0005DE7174902205FFA88F8FCF78BFD2EE7D3
:103EC00013490220FCF786FDE2B2C1E71049022047
:103ED000FCF780FD5FFA89F296E70D490220FCF7B6
:103EE00079FD5FFA89F269E709490220FCF772FD62
:103EF000EAB23CE7209100003C910000589100009C
:103F0000749100009091000030930000908F0000A9
:103F1000C88F00002DE9F0439FB002AC84E8030095
:103F200094E8030010AB1EAD83E803000F2305F8EF
:103F3000183D1CAE002386E803002A460093304655
:103F400001231821FEF74CFA002840F0E6801AAF52
:103F500030463A4601231821FEF796FA804600289B
:103F600040F006819DF86880964942461320FCF790
:103F70007DFD94E803000EAB0DF1780983E80300A2
:103F8000272309F8203D002387E803004A460093D1
:103F9000182101233846FEF723FA0646002840F090
:103FA000DE80384601232A461821FEF76DFA0646C0
:103FB000002840F0FD809DF8602083491320FCF725
:103FC00055FD94E803000CAB1EAF83E803002923E2
:103FD00007F8283D002385E803003A46009318219E
:103FE00001232846FEF7FCF90646002840F0B18080
:103FF000284601234A461821FEF746FA06460028BD
:1040000040F0D0809DF85820704952B21320FCF740
:104010002DFD94E803000AAB1EAE83E803002B23BA
:1040200006F8303D002389E803003246009318214A
:1040300001234846FEF7D4F90546002840F0838066
:10404000484601233A461821FEF71EFA0546002885
:1040500040F0A2809DF850505D496DB213202A4671
:10406000FCF704FD012D4FF0000000F0A780002DAB
:104070007BDDFDF711FA94E8030008AB1EAD83E881
:1040800003002D2305F8603D002387E803002A463E
:104090000093182101233846FEF7A2F98146002833
:1040A0004AD13846012332461821FEF7EDF9814600
:1040B00000286AD19DF84820464952B21320FCF7E7
:1040C000D5FC94E803001EAA0C2302F8643D0023EB
:1040D00085E8030086E80300009318210123304699
:1040E000FEF77EF9044608BB304601230DF11702A6
:1040F0001821FEF7C9F90446002840D19DF8172081
:10410000354952B21320FCF7B1FC34491320FCF7B7
:1041100061FC40461FB0BDE8F08380463049022074
:104120005FFA88F8FCF756FC1AAF1DE72C4902200D
:10413000FCF750FCE2B2E3E729490220FCF74AFC15
:104140005FFA89F2B8E726490220FCF743FCEDB29A
:1041500082E723490220FCF73DFCF2B254E72049F4
:104160000220FCF737FCF2B227E7FDF777F982E788
:104170001C4902205FFA88F8FCF72CFCF4E6194988
:104180000220FCF727FCE2B2BAE716490220FCF74E
:1041900021FC5FFA89F28FE712490220FCF71AFC32
:1041A000EDB259E70F490220FCF714FCF2B22BE7FD
:1041B0000C490220FCF70EFCF2B2FEE6FDF78CF98A
:1041C00059E700BFAC910000C8910000E4910000E5
:1041D000009200001C920000389200003093000012
:1041E000908F0000C88F00002DE9F047D6B002ACD8
:1041F00084E8030056AF94E80300892307F8183DCC
:1042000054AD002385E803003A4600932846012375
:104210007721FEF7E5F8002840F000850DF5A47839
:104220002846424601237721FEF72EF981460028D1
:1042300040F000869DF8489156AE94E8030088232C
:1042400006F8203D002388E80300324600937721DA
:1042500001234046FEF7C4F84FEA09290546002825
:1042600040F0CC85404601233A467721FEF70CF911
:104270000546002840F0D9869DF840E1E34D0DF554
:10428000AC7894E803008B2308F8283DCE44002343
:1042900087E8030042460093772101233846A5F8BA
:1042A00000E0FEF79DF88146002840F09F853846E3
:1042B000012332467721FEF7E7F88146002840F0D7
:1042C000AC869DF8389156AF94E803008A2307F82E
:1042D000303D002386E803003A460093772101230E
:1042E0003046FEF77DF84FEA092A8146002840F063
:1042F00075853046012342467721FEF7C5F8814691
:10430000002840F082869DF8309156AE94E8030074
:104310008D2306F8383DD144002388E80300324657
:1043200000937721A5F8029001234046FEF758F844
:104330008146002840F04A85404601233A467721CD
:10434000FEF7A2F88146002840F057869DF8289194
:104350000DF5AC7894E803008C2308F8403D002369
:1043600087E8030042460093772101233846FEF791
:1043700037F84FEA092A8146002840F01F85384661
:10438000012332467721FEF77FF88146002840F06E
:104390002C869DF8209156AF94E803008F2307F8F0
:1043A000483DD144002386E803003A460093772134
:1043B000A5F8049001233046FEF712F88146002844
:1043C00040F0F4843046012342467721FEF75CF842
:1043D0008146002840F001869DF8189156AE94E879
:1043E00003008E2306F8503D002388E80300324680
:1043F0000093772101234046FDF7F2FF4FEA092A97
:104400008146002840F0CA84404601233A4677217D
:10441000FEF73AF88146002840F0D7859DF81091C4
:104420000DF5AC7894E80300912308F8583DD14489
:10443000002387E80300424600937721A5F8069001
:1044400001233846FDF7CCFF8146002840F09E84CA
:104450003846012332467721FEF716F881460028B8
:1044600040F0AB859DF8089156AF94E80300902387
:1044700007F8603D002386E803003A460093772161
:1044800001233046FDF7ACFF4FEA092A8146002898
:1044900040F074843046012342467721FDF7F4FF53
:1044A0008146002840F081859DF8009156AE94E841
:1044B0000300932306F8683DD144002388E80300F5
:1044C000324600937721A5F8089001234046FDF776
:1044D00087FF8146002840F04984404601233A4640
:1044E0007721FDF7D1FF8146002840F056859DF8E1
:1044F000F8900DF5AC7894E80300922308F8703D2D
:10450000002387E8030042460093772101233846C1
:10451000FDF766FF4FEA092A8146002840F01E8415
:104520003846012332467721FDF7AEFF8146002849
:1045300040F02B859DF8F09056AF94E8030095234A
:1045400007F8783DD144002386E803003A460093FB
:104550007721A5F80A9001233046FDF741FF8146F7
:10456000002840F0F4833046012342467721FDF7CE
:104570008BFF8146002840F000859DF8E89056AEFC
:1045800094E80300942306F8803D002388E80300A4
:1045900032460093772101234046FDF721FF4FEA81
:1045A000092A8146002840F0CB83404601233A4641
:1045B0007721FDF769FF8146002840F0D6849DF8F9
:1045C000E0900DF5AC7894E80300972308F8883D57
:1045D000D144002387E80300424600937721A5F8E1
:1045E0000C9001233846FDF7FBFE8146002840F081
:1045F000A0833846012332467721FDF745FF8146E7
:10460000002840F0AA849DF8D89001E04C090020D1
:1046100056AF94E80300962307F8903D002386E800
:1046200003003A460093772101233046FDF7D8FE78
:104630004FEA092A8146002840F07483304601235E
:1046400042467721FDF720FF8146002840F07D8417
:104650009DF8D09056AE94E80300992306F8983D53
:10466000D144002388E80300324600937721A5F85F
:104670000E9001234046FDF7B3FE8146002840F02E
:104680004A83404601233A467721FDF7FDFE8146E5
:10469000002840F052849DF8C8900DF5AC7894E85D
:1046A0000300982308F8A03D002387E80300424652
:1046B0000093772101233846FDF792FE4FEA092A3D
:1046C0008146002840F02083384601233246772176
:1046D000FDF7DAFE8146002840F027849DF8C0905F
:1046E00056AF94E803009B2307F8A83DD14400236C
:1046F00086E803003A4600937721A5F8109001233D
:104700003046FDF76DFE8146002840F0F6823046C7
:10471000012342467721FDF7B7FE8146002840F08D
:10472000FC839DF8B89056AE94E803009A2306F8EF
:10473000B03D002388E8030032460093772101232F
:104740004046FDF74DFE4FEA092A8146002840F019
:10475000CD82404601233A467721FDF795FE8146FA
:10476000002840F0D3839DF8B0900DF5AC7894E824
:1047700003009D2308F8B83DD144002387E80300D7
:10478000424600937721A5F8129001233846FDF7A1
:1047900027FE8146002840F0A28238460123324697
:1047A0007721FDF771FE8146002840F0A8839DF82F
:1047B000A89056AF94E803009C2307F8C03D00235F
:1047C00086E803003A460093772101233046FDF73F
:1047D00007FE4FEA092A8146002840F079823046D8
:1047E000012342467721FDF74FFE8146002840F025
:1047F0007F839DF8A09056AE94E803009F2306F8AF
:10480000C83DD144002388E8030032460093772155
:10481000A5F8149001234046FDF7E2FD81460028EB
:1048200040F04F82404601233A467721FDF72CFEA7
:104830008146002840F055839DF898900DF5AC789E
:1048400094E803009E2308F8D03D002387E8030086
:1048500042460093772101233846FDF7C1FD4FEA18
:10486000092A8146002840F0258238460123324635
:104870007721FDF709FE8146002840F02B839DF843
:10488000909056AF94E80300A12307F8D83DD14497
:10489000002386E803003A4600937721A5F8169096
:1048A00001233046FDF79CFD8146002840F0FB8146
:1048B0003046012342467721FDF7E6FD8146002878
:1048C00040F001839DF8889085F8189056AE94E8E2
:1048D0000300E22306F8E03D002388E803003246A7
:1048E0000093772101234046FDF77AFD8246002898
:1048F00040F0D281404601233A467721FDF7C4FDBE
:104900008246002840F0D8829DF880A00DF5AC7852
:1049100094E80300E12308F8E83D002387E803005A
:1049200042460093772101233846FDF759FD4FEAAF
:104930000A2A8146002840F0A881384601233246E1
:104940007721FDF7A1FD0746002840F0AF829DF8D2
:1049500078700DF5AC7994E80300E32309F8F03D95
:104960005744002386E803004A46009377216F836B
:1049700001233046FDF734FD0746002840F07F81D3
:104980003046012342467721FDF77EFD0746002889
:1049900040F086829DF870702F7756AF94E8030040
:1049A000E42307F8F83D002388E803003A46009323
:1049B000772101234046FDF713FD0646002840F00D
:1049C0005881404601234A467721FDF75DFD0646A2
:1049D000002840F05F829DF8686094E803000DF1C4
:1049E000580800234FF0E50E89E803004246009383
:1049F00077210123484688F800E0FDF7F1FC4FEAF3
:104A0000061A0646002840F02E81484601233A4601
:104A10007721FDF739FD0646002840F035829DF8E4
:104A2000606094E803000DF1500906F00F060023C2
:104A300056444FF0E60E87E803004A46009377217C
:104A4000EE830123384689F800E0FDF7C9FC0646ED
:104A5000002840F002813846012342467721FDF7C5
:104A600013FD0646002840F0098298F8006094E89B
:104A700003000DF1480A0023E52788E803005246A9
:104A8000009377218AF8007001234046FDF7A8FCC7
:104A900036010746002840F0DA80404601234A46A6
:104AA0007721FDF7F1FC0746002840F0E18199F8F5
:104AB000003094E8030010AF06EB13164FF0000C23
:104AC0004FF0E70E89E803003A46CDF800C0012315
:104AD0002E847721484687F800E0FDF781FC0646E2
:104AE000002840F0AE804846012352467721FDF76A
:104AF000CBFC0646002840F0B5819AF8006085F8A6
:104B0000226094E8030000258AE80300F4218DF870
:104B10002410504609AA0095022377218DF82550CC
:104B2000FDF75EFC002840F08081CA4EB3787578AE
:104B300094E803009B0003F01C0343EA451500239F
:104B400087E803004FF0F50E0093384608AA0223C9
:104B500077218DF821508DF820E0FDF741FC0028E9
:104B600040F05E8194E8030073790EAA82E80300A6
:104B7000002703F007011046F2258DF81D1000975D
:104B800007AA022377218DF81C50FDF729FC002885
:104B900040F0418135783379F27894E8030005F0EC
:104BA00003059B0045EA421503F01C030CAE4FF0D1
:104BB000000E86E803001D43F42706AA3046CDF810
:104BC00000E0022377218DF819508DF81870FDF759
:104BD00007FC002840F01A8194E803000AAD002386
:104BE00085E80300D0240093284605AA01237721F5
:104BF0008DF81440FDF7F4FB0446D0B928460DF1BA
:104C0000170201237721FDF73FFC0446002840F0FE
:104C100019819DF8170056B0BDE8F08781468E498E
:104C20000220FBF7D7FE0DF5A4785FFA89F9FFF7AC
:104C300003BB89490220FBF7CDFEE0B256B0BDE8C8
:104C4000F08785490220FBF7C5FEF6B257E7824997
:104C50000220FBF7BFFEFBB22BE77F490220FBF7E8
:104C6000B9FEF6B203E77C490220FBF7B3FEF6B2C9
:104C7000D7E679490220FBF7ADFEF6B2ADE67649FC
:104C80000220FBF7A7FEFFB286E673490220FBF77E
:104C9000A1FE5FFA89F75CE66F490220FBF79AFEF6
:104CA0005FFA8AFA32E66C490220FBF793FE5FFA5C
:104CB00089F909E668490220FBF78CFE5FFA89F959
:104CC000DFE565490220FBF785FE5FFA89F9B5E566
:104CD00061490220FBF77EFE5FFA89F98BE55E49A8
:104CE0000220FBF777FE5FFA89F962E55A49022054
:104CF000FBF770FE5FFA89F937E557490220FBF7A9
:104D000069FE5FFA89F90EE553490220FBF762FE5E
:104D10005FFA89F9E4E450490220FBF75BFE5FFA91
:104D200089F9BAE44C490220FBF754FE5FFA89F98D
:104D300090E449490220FBF74DFE5FFA89F967E4E8
:104D400045490220FBF746FE5FFA89F939E44249FA
:104D50000220FBF73FFE5FFA89F910E43E4902208A
:104D6000FBF738FE5FFA89F9FFF7E6BB3A49022004
:104D7000FBF730FE5FFA89F9FFF7BBBB364902202B
:104D8000FBF728FE5FFA89F9FFF790BB3249022052
:104D9000FBF720FE5FFA89F9FFF766BB2E49022078
:104DA000FBF718FE5FFA89F9FFF73ABB2A490220A0
:104DB000FBF710FE5FFA89F9FFF710BB26490220C6
:104DC000FBF708FE5FFA89F9FFF7E5BA22490220EE
:104DD000FBF700FE5FFA89F9FFF7BABA1E49022015
:104DE000FBF7F8FD5FFA89F9FFF78FBA1A4902203D
:104DF000FBF7F0FD5FFA89F9FFF765BA1649022063
:104E0000FBF7E8FD5FFA85FEFFF738BA1349022089
:104E1000FBF7E0FDE0E611490220FBF7DBFDB9E618
:104E20000E490220FBF7D6FD9CE60C490220FBF759
:104E3000D1FD7AE60A490220FBF7CCFD5FFA89F939
:104E4000FFF7FAB906490220FBF7C4FDE0B256B0FD
:104E5000BDE8F08770090020908F0000D08E000020
:104E6000C88F000075490220FBF7B4FDF6B246E694
:104E700072490220FBF7AEFDFBB21AE66F49022031
:104E8000FBF7A8FDF6B2F2E56C490220FBF7A2FDA4
:104E9000F6B2C6E569490220FBF79CFDF6B29CE537
:104EA00066490220FBF796FDFFB275E563490220D3
:104EB000FBF790FDFFB24CE560490220FBF78AFD4D
:104EC0005FFA8AFA22E55D490220FBF783FD5FFA6B
:104ED00089F9F9E459490220FBF77CFD5FFA89F969
:104EE000CFE456490220FBF775FD5FFA89F9A5E486
:104EF00052490220FBF76EFD5FFA89F97BE44F49C6
:104F00000220FBF767FD5FFA89F952E44B49022062
:104F1000FBF760FD5FFA89F927E448490220FBF7B7
:104F200059FD5FFA89F9FFF7FEBB44490220FBF700
:104F300051FD5FFA89F9FFF7D3BB40490220FBF727
:104F400049FD5FFA89F9FFF7A8BB3C490220FBF74E
:104F500041FD5FFA89F9FFF77DBB38490220FBF775
:104F600039FD5FFA89F9FFF753BB34490220FBF79B
:104F700031FD5FFA89F9FFF724BB30490220FBF7C6
:104F800029FD5FFA89F9FFF7FABA2C490220FBF7ED
:104F900021FD5FFA89F9FFF7CFBA28490220FBF714
:104FA00019FD5FFA89F9FFF7A4BA24490220FBF73B
:104FB00011FD5FFA89F9FFF779BA20490220FBF762
:104FC00009FD5FFA89F9FFF74FBA1C490220FBF788
:104FD00001FD5FFA89F9FFF723BA18490220FBF7B0
:104FE000F9FC5FFA89F9FFF7F9B914490220FBF7D8
:104FF000F1FC5FFA89F9FFF7CEB910490220FBF7FF
:10500000E9FC5FFA89F9FFF7A3B90C490220FBF725
:10501000E1FC5FFA89F9FFF778B908490220FBF74C
:10502000D9FC5FFA89F9FFF74EB904490220FBF772
:10503000D1FC5FFA85FEFFF721B900BFC88F0000E1
:105040002DE9F04FC9B0FCF76DFA0020FBF7A6FC84
:1050500008B1FBF7FFFD00241B2547942346224699
:105060001A24449545944FF0CD65022444A9A648DE
:1050700046958DF81C41FCF76FFF002800F08C80EE
:10508000FBF7E8FDA1491320FBF7A4FCFBF742FD69
:105090000028FBD10CAD0DF1500A0DF138092EACF2
:1050A0000DF1D80830AFFBF7D3FDA0F10A036F2B49
:1050B00000F2CA83DFE813F01D01C803C8031D0115
:1050C000C803C803C803C803C803C803C803C80388
:1050D000C803C803C803C803C803C803C803C80378
:1050E000C803C803C803C803C803C803C803C80368
:1050F000C803C803C803C803C803C803C803C80358
:10510000C803C803C803C803C803C803C803C80347
:10511000C803C803C803C803C803C803C803C80337
:10512000C803C803C803C803C803C803C803C80327
:10513000C803C803C803C803C803C803C803C80317
:10514000C803C803C803C803C803C803C803C80307
:10515000C803C803C803C803C803C803C803C803F7
:10516000C803C803C8032B03C803C8030B03FB020F
:10517000F002C803C8035802C803C803C803C80321
:10518000C803DA01C803CF01C4017400BD0346019E
:10519000C8033C01C80334015B48FDF701F971E71E
:1051A0005B491320FBF716FC574B93E8030038AB21
:1051B00083E80300FEF788FD38AB93E80300FEF7B1
:1051C000A9FE38AB93E80300FDF730FE38AB93E857
:1051D00003003AAB83E80300002642AB83E80300F8
:1051E00005AA00960123532142A88DF81460FDF70B
:1051F000F7F8002840F0DA8301230DF1170253215C
:1052000042A8FDF741F9002840F0D5833AAB93E876
:10521000030040AA002382E803001326009305AA96
:105220000123532140A88DF81460FDF7D9F80346F7
:10523000002840F0B48301230DF11702532140A848
:10524000FDF722F90346002840F0C0839DF817B00F
:105250003AAB93E80300142600233EAA82E8030039
:1052600000930DEB0602012353213EA88DF8146034
:10527000FDF7B6F80646002840F08B8301230DF1B8
:10528000170253213EA8FDF7FFF80646002840F01C
:1052900097839DF817603AAB93E803003CAA00237C
:1052A00082E803004FF0150E009305AA0123532155
:1052B0003CA88DF814E0FDF793F8002840F06183D6
:1052C00001230DF1170253213CA8FDF7DDF800285A
:1052D00040F0AC839DF817200E49330243EA0B439C
:1052E0001A431320FBF7C2FB074B93E80300FEF7BA
:1052F000C7FAFBF70FFC00283FF4D5AEFBF70AFC1A
:105300000028F6D1CFE600BFF08D000054920000D7
:1053100034930000809200008F491320FBF75AFB62
:105320000020FCF7D9F8FBF7F5FB0028E6D1BAE638
:105330008A4B93E80300FEF7C7FCFBF7EBFB002862
:10534000DCD1B0E6854B93E803000AAB83E80300A9
:1053500085E803004FF0000B5AE001230DF117021E
:1053600053215046FDF790F80646002840F0CE82C3
:105370009DF81760CDF800B095E8030012AB83E804
:1053800003004FF00A0E022307AA532112A88DF83A
:105390001CE08DF81DE0FDF723F8002840F0918215
:1053A00095E8030010ABCDF800B083E803000B20B4
:1053B0004FF0810E8DF81800022306AA532110A881
:1053C0008DF819E0FDF70CF8002840F0758295E89B
:1053D00003004FF0110ECDF800B0012389E803005F
:1053E00005AA532148468DF814E0FCF7F9FF002880
:1053F00040F04A8201230DF1170253214846FDF780
:1054000043F8002840F07A829DF817309E4283DBF3
:1054100095E803001126CDF800B001238AE80300C7
:1054200005AA532150468DF81460FCF7D9FF0646B3
:10543000002892D04A490220F6B2FBF7CBFA99E74E
:10544000464B93E80300FDF77FFCFBF763FB002866
:105450007FF454AF27E6414B93E80300FDF7B0FD1E
:10546000FBF758FB00287FF449AF1CE63D490220BA
:10547000FBF7B0FA394B93E8030020AB83E8030055
:1054800026AA002382E80300C026009305AA012370
:10549000292126A88DF81460FCF7A2FF002840F00F
:1054A000518201230DF11702292126A8FCF7ECFFF8
:1054B000002840F09C8220AB93E8030024AA00233C
:1054C00082E80300C126009305AA0123292124A80C
:1054D0008DF81460FCF784FF002840F02E82012331
:1054E0000DF11702292124A8FCF7CEFF002840F077
:1054F000798220AB93E8030022AA002382E803000C
:10550000C226009305AA0123292122A88DF8146040
:10551000FCF766FF002840F00B8201230DF1170213
:10552000292122A8FCF7B0FF002840F0568220ABCA
:1055300093E803005122FDF7B1FB20AB612293E811
:105540000300FDF7ABFB0020FBF7C6FFFBF7E2FA19
:1055500000287FF4D3AEA6E570920000F08D000025
:10556000908F00009C920000CB4B93E8030016AB99
:1055700083E8030000261EAB83E8030005AA00961B
:10558000012353211EA88DF81460FCF729FF002881
:1055900040F0F28101230DF1170253211EA8FCF700
:1055A00073FF002840F03D8216AB93E803001CAA6D
:1055B000002382E803001326009305AA0123532148
:1055C0001CA88DF81460FCF70BFF0646002840F07D
:1055D000CD8101230DF1170253211CA8FCF754FFC4
:1055E0000646002840F017829DF8176016AB93E836
:1055F00003004FF0140E00231AAA82E80300009360
:105600000DEB0E02012353211AA88DF814E0FCF7CC
:10561000E7FE0346002840F0A28101230DF11702A6
:1056200053211AA8FCF730FF0346002840F0EC8114
:105630009DF817B016AB93E8030018AA002382E880
:1056400003004FF0150E009305AA0123532118A85B
:105650008DF814E0FCF7C4FE002840F078810123A7
:105660000DF11702532118A8FCF70EFF002840F097
:10567000C3819DF817208949330443EA0B231A4359
:105680001320FBF7F3F90020FBF726FFFBF742FAA4
:1056900000287FF433AE06E57F4B93E80300FEF766
:1056A000EFF8FBF737FA00287FF428AEFBE47A4BDB
:1056B00093E80300FDF794FD774B93E80300FEF7B2
:1056C00029FCFBF727FA00287FF418AEEBE4724BB5
:1056D00093E8030044AB83E803000323704E0022E9
:1056E000337001237270B270F37033717371FEF70F
:1056F0007BFD602800F0108102466A491320FBF709
:10570000B5F9FBF707FA00287FF4F8ADCBE466495A
:105710001320FBF75FF9604B93E8030028AB83E8A5
:105720000300FDF74DFC28AB93E80300FDF758FD9F
:1057300028AB93E80300FDF707FB28AB93E80300D1
:105740002CAB83E8030084E803004FF0000B58E023
:1057500001230DF1170253214046FCF795FE064642
:10576000002840F0BD809DF81760CDF800B094E8A7
:10577000030034AB83E803004FF00A0E022309AAAA
:10578000532134A88DF824E08DF825E0FCF728FE9D
:10579000002840F0A08094E8030032ABCDF800B0C0
:1057A00083E803000B204FF0810E8DF820000223C8
:1057B00008AA532132A88DF821E0FCF711FE002839
:1057C00040F0848094E803004FF0110ECDF800B053
:1057D000012387E8030005AA532138468DF814E019
:1057E000FCF7FEFD00283AD101230DF117025321E9
:1057F0003846FCF749FE002878D19DF817309E42C4
:1058000036DB94E803001126CDF800B0012388E8C8
:10581000030005AA532140468DF81460FCF7E0FD13
:105820000646002894D021490220F6B2FBF7D2F8B0
:105830009BE7194B93E80300FDF7F8FAFBF76AF9C9
:1058400000287FF45BAD2EE4024619491320FBF7D4
:105850000DF9FBF75FF900287FF450AD23E40390C6
:1058600012490220FBF7B6F8039BDBB29E42C8DA6E
:1058700010491320FBF7AEF8074B93E803002AAB5F
:1058800083E80300032329E7039008490220FBF77C
:10589000A1F8039BDBB2B9E5F08D00008092000017
:1058A0007009002010930000CC920000908F00003F
:1058B000549300007092000060490220FBF78AF8C0
:1058C00085E55E490220FBF785F869E55B49022022
:1058D000FBF780F876E759490220FBF77BF85AE797
:1058E00057490220F6B2FBF775F83EE7039054499A
:1058F0000220FBF76FF8039BDBB280E7039050496F
:105900000220FBF767F8039BDBB27FE54C490220DE
:10591000F6B2FBF75FF82DE560224A491320FBF74A
:10592000A5F8FBF7F7F800287FF4E8ACFFF7BBBB5E
:1059300045490220FBF74EF8F9E543490220FBF701
:1059400049F8D6E540490220FBF744F8B3E5039057
:105950003D490220FBF73EF8039BDAB28BE63A4959
:1059600002205FFA83FBFBF735F863E63649022035
:10597000F6B2FBF72FF839E633490220FBF72AF895
:1059800012E6039030490220FBF724F8039BDAB2B9
:10599000A2E42D490220F6B2FBF71CF87BE42A4969
:1059A00002205FFA83FBFBF715F851E42649022039
:1059B000FBF710F82AE422490220FBF70BF825E454
:1059C0001F490220F6B2FBF705F864E41C490220E7
:1059D0005FFA83FBFAF7FEFF3AE419490220FAF76F
:1059E000F9FFA4E516490220FAF7F4FF81E514490E
:1059F0000220FAF7EFFF5EE5039011490220FAF763
:105A0000E9FF039BDAB236E60D4902205FFA83FB19
:105A1000FAF7E0FF0EE60A490220F6B2FAF7DAFFDB
:105A2000E4E507490220FAF7D5FFBDE503900449F4
:105A30000220FAF7CFFF039BDAB24DE4D08E0000CC
:105A4000C88F0000F4920000908F00002DE9F84FFD
:105A50004300DFF870A11E180AEBC6068846F16AFB
:105A60000129174641D031D3022939D1013000EB49
:105A70004000756A4FEAC0094FF0000B1CE0326A23
:105A8000641BBC420AEB09012346A2EB050428BFB4
:105A90003B469C42486828BF1C4628444146224653
:105AA00002F0DAFB336A25449D4208BF00253F1B04
:105AB000A344A044756215D0B36AAB4203F1FF342E
:105AC000DDD8326A1344013B5C1BDAE7B16A726AC3
:105AD00091429CBF346A091901398A1A974236D912
:105AE0004FF0000B5846BDE8F88FB16A756AA942BD
:105AF00027D90139326AC5EB010B03440AEBC30A0B
:105B0000BB45DAF824502F4B28BFBB46561B01304B
:105B1000B34500EB40003BD303EBC0043246606862
:105B200041462844C6EB0B0502F096FB606808EB83
:105B300006012A4602F090FBCAF824505846BDE8F8
:105B4000F88F326A8C18013CC5EB040BD5E703448F
:105B50000AEBC30A0130DAF82460DAF82040194B66
:105B6000A41BA74200EB40001ED303EBC005224656
:105B70006868414630443E1B02F06EFB686808EBE3
:105B80000401324602F068FBBB46CAF82460A9E76C
:105B900003EBC003414658685A4628445D4402F06E
:105BA0005BFBCAF824509DE703EBC00341465868ED
:105BB0003A4630443E4402F04FFBBB46CAF82460EC
:105BC00090E700BF7C0900202DE9F047404EDFF848
:105BD0001481DFF8149182B03546002318460193F2
:105BE000FBF7FAFB3378002B48D0B46D776DBC42DD
:105BF0001CD804D10020019BFBF708FCEDE74FF017
:105C0000010A0DF10300F16C01222144013402F07C
:105C100023FBB4650020019BFBF7F8FBBAF1010FF1
:105C2000DBD19DF8030002B0BDE8F0872B6DE96C75
:105C3000C4EB030ABAF1010F28BF4FF0010A214457
:105C400052460DF1030002F007FB2B6D54449C42B9
:105C500008BF00243F1BCAF10100B84228BF3846E4
:105C600000282DD1BAF1000FC4D0B465019BFBF719
:105C7000CDFB9DF8030002B0BDE8F0874FF4007E35
:105C8000144FAB6210246B620222AB65EB626B6552
:105C9000EB651149C5F820E01048C5F81880C5F833
:105CA0001C90C5F84880EF642C652A616A6102F097
:105CB00011FB0B49064802F00DFB2023AB7194E762
:105CC0000DF1030303EB0A000AF1010A9BE700BF91
:105CD0007C090020F4060020849300008309002042
:105CE000889300007893000004070020F8B5114C59
:105CF0002378F3B9A362104A63620220A365E362CA
:105D0000E36563650D4F0E4D0E49206110234FF47E
:105D1000007623656061A261A264E01DE7612662EE
:105D2000E56402F0D7FA0849204602F0D3FA2023AE
:105D3000A371F8BD7C0900207893000004070020BF
:105D4000F406002084930000889300000649074A67
:105D5000074B9B1A03DD043BC858D050FBDC00F016
:105D600013F8FAF77BFB0000F49400000000002019
:105D7000E4010020FEE7FEE7FEE7FEE7FEE7FEE7C0
:105D8000FEE7FEE7FEE7FEE7F0B4A64B1B78062B26
:105D90001BD0A54AD2F8883043F47003C2F888308B
:105DA000BFF34F8FBFF36F8F4FF01023D3F8002254
:105DB000002AC0F20581D3F80432002BC0F2008122
