:1000000000000120595E0000815E0000835E000058
:10001000855E0000875E0000895E00000000000031
:100020000000000000000000000000008B5E0000E7
:100030008D5E0000000000008F5E0000915E0000F9
:10004000935E0000935E0000A129000021250000BE
:1000500019270000935E0000C5150000935E0000A4
:10006000935E0000935E0000935E0000935E0000CC
:10007000935E0000935E0000935E0000935E0000BC
:10008000935E0000C10C0000935E0000935E0000D0
:10009000850D0000935E0000935E0000935E0000FB
:1000A000935E0000935E0000935E0000935E00008C
:1000B000935E0000935E000000000000000000005E
:1000C000935E0000935E0000935E0000935E00006C
:1000D000935E0000935E0000935E0000000000004D
:1000E0000000000000000000000000000000000010
:1000F0000000000000000000000000000000000000
:1001000000000000000000000000000000000000EF
:1001100000000000000000000000000000000000DF
:1004000010B5054C237833B9044B13B10448AFF34E
:1004100000800123237010BDE401002000000000D3
:1004200060960000084B10B51BB108490848AFF3AF
:1004300000800848036803B910BD074B002BFBD0B0
:10044000BDE81040184700BF00000000E801002090
:1004500060960000E001002000000000154B002B1A
:1004600008BF134B9D46A3F5803A00218B460F46EB
:100470001348144A121A00F065F80F4B002B00D0F5
:1004800098470E4B002B00D0984700200021040015
:100490000D000D48002802D00C48AFF3008000F09A
:1004A0002BF82000290004F093FF00F011F800BFA2
:1004B0000000080000000120000000000000000013
:1004C000E4010020F8090020000000000000000006
:1004D00008B5074B044613B10021AFF30080054B6C
:1004E0001868836A03B19847204600F033F800BFCC
:1004F00000000000D88C000070B50E4B0E4CE41AC2
:10050000A41000251E46A54204D056F82530984771
:100510000135F8E708F0D4FB084C094BE41AA410A5
:1005200000251E46A54204D056F8253098470135CF
:10053000F8E770BDD8010020D8010020DC010020C0
:10054000D801002002440346934202D003F8011B65
:10055000FAE77047FEE700BFF0B51746C7B01C4684
:10056000B9B106AE0B68604A30464FF4807107F0AF
:1005700007FF00280ADB4C9B0546062B00F2B280E1
:10058000DFE803F012323B4653637500002047B0AA
:10059000F0BD4C9B062B00F2A380DFE803F0048B38
:1005A00090957C8186000025384607F023FF43198B
:1005B000FF2B044640F28D80002CE7DB2C44B4F581
:1005C000807FE3D80A27002506AE22467119002055
:1005D00005F0C2FA0544241A08B9013F01D0002CE5
:1005E000F3D1012047B0F0BDC0F5807123683A46D1
:1005F000701907F0C5FE0446DEE7C0F58071626839
:100600002368009270193A4607F0BAFE0446D3E711
:10061000C0F58071A2682368646800940192701923
:100620003A4607F0ADFE0446C6E7C0F58071E268C1
:100630002368D4F808E0646802928DE810403A46D6
:10064000701907F09DFE0446B6E7C0F58071206979
:10065000E26823680390D4F808E0646802928DE8A9
:1006600010403A46701907F08BFE0446A4E7C0F527
:1006700080716269206923680492E2680390D4F86B
:1006800008E0646802928DE810403A46701907F05D
:1006900077FE044690E74FF48071002506AEC6E76A
:1006A0004FF48071002506AED1E74FF4807100252C
:1006B00006AEDEE74FF48071002506AE96E74FF4F4
:1006C0008071002506AE9AE74FF48071002506AED2
:1006D000A0E706AE39467019224607F045FE6BE7E3
:1006E00000246FE7002469E7DC8C00002DE9F04F5F
:1006F0001446C7B01D46002900F02381002B00F0EE
:1007000004810A2302934FF0000B06AF519B539ACA
:10071000134420261C4602990BEB0103049331334A
:10072000FB18039307EB0B031A460193002965D0CE
:10073000534203F003038B4228BF0B46062900F205
:10074000DB800B46019907F80B600A46012B02F18A
:10075000010200F0CF80022B4E7001F1020200F086
:10076000C980032B8E7001F1030200F0C3800A469A
:10077000042BCE7002F1040200F0BC80062B0E7137
:1007800001F1050240F0BE804E718A1D9846029923
:1007900099422ED00298C3EB0009A9F1040100F19F
:1007A000FF3E8908C3EB0E0E0131BEF1020F4FEA86
:1007B000810C12D95B444FF0203E012907EB030B5B
:1007C00047F803E005D00229CBF804E001D0CBF8CC
:1007D00008E0E1456244E0440BD00299167008F14C
:1007E00001038B4205D208F102008842567000D204
:1007F0009670019B029A134401931A46039B059736
:1008000002F1330A274602F1030B544603F10109B2
:10081000DDF844A10DE00BF8036C0BF8026C0BF84B
:10082000016C0BF1030BA34509F8016C09F10109F7
:100830002FD0AF42EFD9AA4556D9509B13F8058067
:100840000BF8016C4FEA28105FFA80FE092808F0C7
:100850000F00D4BF0EF1300E0EF1370E092894BFF1
:10086000303037300BF803EC0BF8020C07F060FD6A
:1008700040440BF1030B407810F0970F08BF4FF086
:100880002E08A34509F8018C05F1010509F10109BC
:10089000CFD1049B039903F1430A019B3C460D22EF
:1008A0004FF00A0B059F0A7481F811B0A14683F836
:1008B00030604FF000085446224607EB0801002044
:1008C00005F04AF98044241A10B9BBF1010B01D09C
:1008D000002CF1D14D454C464FF0000BFFF41BAFFF
:1008E000284647B0BDE8F08FCAEB0500529B13F8CD
:1008F0000080A5E798464AE7002B7FF423AF019AD2
:10090000984647E74FF0050841E706AF0B68114AE4
:1009100038464FF4807107F033FD0028E0DB0A23EE
:1009200006460293204607F065FDC22828BFC22074
:10093000834602462146B81907F016FD0025B34448
:10094000E4E61BB902952E4606AFEBE702918B4613
:1009500006AFDBE6DC8C000070B5074D074E2B7848
:1009600013B13378834205D0044605F045FA0123DC
:1009700034702B70002070BD0102002000020020A6
:10098000004870475905000000487047ED06000018
:1009900008B505F09FF9C0B208BD00BF38B500200A
:1009A000FFF7DAFF044668B9FFF7EAFF0546FFF7ED
:1009B000EBFF054BFF22C3F810541C605C60C3F8CA
:1009C00014049A60204638BD040200200120FFF77D
:1009D000C3BF00BF2DE9F041224C064600200D4662
:1009E000A76800F0F9FCA2686368D4F8008013449B
:1009F0000133C8EB0303012B1BD8ABB1012100234A
:100A000061F301036FF38203052161F3C50308EA73
:100A10000202154904EB82026FF3891308F1010702
:100A200061F39F232760D3600020BDE8F04100F010
:100A3000EDBC08F101030020236000F0E7FC012277
:100A4000002362F301036FF3820307EA080766F3EA
:100A5000C50304EB87046FF3891365F39F23E360F9
:100A6000BDE8F08104020020E48C00002DE9F84389
:100A7000264C8046002016460F46A56800F0ACFCC8
:100A8000A2686368D4F8009013440133C9EB0303F0
:100A9000022B1BD8ABB10121002361F301036FF3DB
:100AA0008203052161F3C50309EA0202184804EB39
:100AB00082026FF3891309F1010160F39F23216022
:100AC000D3600020BDE8F84300F0A0BC09F10203A8
:100AD0000020236000F09AFC0122002362F301034E
:100AE00009EB02016FF3820305EA090968F3C50304
:100AF0000D4004EB890962F3891304EB850467F365
:100B00009F23C9F80C30E660BDE8F883040200209A
:100B1000E48C00002DE9F0474C4E96E80C009A4218
:100B20008AB070D0B06804E0C4F3891202EB94522A
:100B3000134400EA0305023506EB850201335468CD
:100B400014F00302F0D0022A28D0C4F38312C4F3B5
:100B5000952C002A75D00DF1100E7546D71800EAB5
:100B6000030106EB81010133C96845F8041BBB4250
:100B7000F5D10092C4F3C20073466246D6F8104421
:100B8000324D0021A04738B177603068C01B18BFD4
:100B900001200AB0BDE8F0876F68F6E703F1010AAB
:100BA00020EA0A010340013106EB830389004FEA82
:100BB00094588845DA68DFF894E0C4F3891326D99D
:100BC000A9B300EA0A0C5FFA81F90EEB8C0CC9EBB1
:100BD00008010CF10C0C0EF10C00C9B2039102904B
:100BE000CDF80490CDF800C00021C4F3C200D6F8BF
:100BF0001474B847404520D006EB850560F38F1488
:100C00006C607768C1E700200AB0BDE8F08700EAB1
:100C10000A000EEB80000C308DE801010021DEF8A7
:100C2000149403910291C4F3C200C847E2E70EF1A5
:100C30000C0C08465FFA88F9D0E703300AEB9007FE
:100C4000A2E71F460DF1100E93E700BF040200203B
:100C5000FFF79EBE00B585B000230390194601AA98
:100C600044F20100ADF80430029300F003F805B03F
:100C70005DF804FB08B50E490120FFF7ABFEFFF756
:100C8000A5FEFFF747FF0028FBD10A4B1B68DB07D7
:100C900000D5FFDEBFF34F8F0749084BCA6802F447
:100CA000E0621343CB60BFF34F8F00BFFDE700BF8F
:100CB000F08C0000F0ED00E000ED00E00400FA052B
:100CC0002DE9F843274A284B0025C2F84051C2F8C5
:100CD0004451C2F84851C2F84C51C2F80051C2F810
:100CE00004511B681BB32149D2F804250C68204F1E
:100CF000141B1A6824F07F44A242A84609D8197C24
:100D0000DE69A41A1544A1B91EB133461A68A2427D
:100D1000F5D9184B18491A780B789A421BD0174905
:100D2000174A41F823504FF48013C2F80031BDE850
:100D3000F883D3F8149083F810803A689B6948468A
:100D400019462AB190470028DED0FFF783FFDBE782
:100D50001846C847D8E7531CDBB2022B08BF002354
:100D60000B70DCE700100140200600201C0600206C
:100D70002406002028060020290600203406002032
:100D800000E100E02DE9F04FA44AA5491378097865
:100D9000A44889B000680090994200F0EB800133CC
:100DA000DBB2022B08BF002313709F4A52F8236066
:100DB000009B9C4A334423F07F4313604FF0010EA5
:100DC0009A4B079693F800A0994BCDF818A0D3F84A
:100DD0000090964B5B7801931D46944BD3F804B07A
:100DE0009B7802931C46934B1B7804938D4B0027F2
:100DF0001B68039351464A464B460597BC46384606
:100E00002646B846A9421AD001EB410401311BF82D
:100E10003470C9B2B14208BF0021022F0BEBC404E9
:100E200000F08380032FEDD1002BEBD0DA6918742A
:100E30001346002AFAD1A9424FF0010CE4D1DDF8A3
:100E400018A0079E4746BCF1000F40F0A380059A0A
:100E500012B1744A03991160002F40F09C82BEF1D8
:100E6000000F40F0C681B9EB030218BF01220792C0
:100E7000059375461E466B4ACDF810B0D2F800C0F7
:100E80006B4ADFF8B891D646D2F800A0694A002331
:100E9000127800931F4606924FF001089B463DB31F
:100EA0006A68A9682C46ED69CCEB020323F07F4306
:100EB0004B4572D80B4423606760A76084F81080AC
:100EC000E761002E00F08B80316899427ED2304677
:100ED00003E01168994269D21046C2695B1A002A80
:100EE000F7D12360E2613346C4611E46002DD7D19D
:100EF000019B9E4500F0A4800EEB4E03049911F86F
:100F00003320039210460EF1010E029A5FFA8EFE14
:100F1000724508BF4FF0000E012801EBC30364D0F7
:100F20003346012200921E46E0E76468002B3FF43E
:100F300069AF9C429A4601D115E0BA46DAF81C70B6
:100F4000002F3FF45FAFBC42F7D1BA450CD0FC692B
:100F50003F68CAF81C40002C3FF454AF23683B4460
:100F6000236013464EE71F46DA6932B113464FF04D
:100F7000010CECE70026B64622E72F4B4FF00108A4
:100F8000C3F80880C44613460392CDF81080CDF80C
:100F90001480DCE726490A6059E7C2EB0C0222F014
:100FA0007F428A4209D28B1A236085E7C91A1160F1
:100FB0002360E2613346C46197E727606760A760FA
:100FC00084F81080E76156B131680023CB1A336092
:100FD0002346E661A2464FF0010B1E4686E72346F4
:100FE000A2464FF0010B1E4680E75C68227C00920F
:100FF00082B99A686260D968A1601869E0605B692B
:10100000A361069B002B00F0F180009A62600093C0
:101010002A4649E733461E4668E700BF28060020F7
:10102000290600201C060020340600202C06002083
:10103000200600202A06002000100140FEFF7F004D
:10104000009B5A46002B40F0AE8112B1824BC3F890
:1010500000A0059BB34200F0BF80002E00F00A8183
:101060007E497F4CD1F8040525783368CCEB00022B
:1010700022F07F420332002D50D17A4DDFF8ECE1AF
:10108000794F4FF48036C1F84463C1F804634FF4DC
:101090000036C5F880612E6001250D60DEF8006025
:1010A0002F2100BF00BF00BF00BF00BF00BF00BFB7
:1010B00000BFBE422FD000BF00BF00BF00BF00BFB7
:1010C00000BF00BF00BF00BF00BF00BF00BF00BF28
:1010D00000BF00BF00BF00BF00BF00BF00BF00BF18
:1010E00000BF00BF00BF00BF00BF00BF00BF00BF08
:1010F00000BF00BF00BF00BF00BF00BF00BF00BFF8
:1011000000BF00BF00BF00BF00BF00BF00BF00BFE7
:1011100000BF00BF00BF0139C3D1257093422CBF6F
:101120009C4494444D492CF07F43C1F84035D1F89C
:101130000425121A1B1A22F07F4223F07F43033248
:101140009A424DD9D1F80435484AC1F84035126861
:1011500045492F2300BF00BF00BF00BF00BF00BF35
:1011600000BF00BF8A422FD000BF00BF00BF00BF3A
:1011700000BF00BF00BF00BF00BF00BF00BF00BF77
:1011800000BF00BF00BF00BF00BF00BF00BF00BF67
:1011900000BF00BF00BF00BF00BF00BF00BF00BF57
:1011A00000BF00BF00BF00BF00BF00BF00BF00BF47
:1011B00000BF00BF00BF00BF00BF00BF00BF00BF37
:1011C00000BF00BF00BF00BF013BC3D1254B4FF4A0
:1011D0000032C3F8002103E0079B002B7FF43DAFF2
:1011E000234A0023137009B0BDE8F08F039B0093DE
:1011F0005AE6194ADDF800C0176800200546014686
:101200000446ABB11A68B2421BD8D8681C60B61A43
:101210001144DA6938B10CEB010727F07F47DD6133
:1012200098605F601D46134617467046002BE9D153
:10123000002840F0BC800023059301230793059EFE
:1012400019E6002840F0AC80921B05931A60012338
:101250000793059E0FE600BF200600200010014006
:101260003C06002000E100E00024F40064000020BF
:101270002A0600204F4A504B504D51484FF48031C0
:101280004FF400370124C3F88070C2F848132F23AD
:10129000C2F80813546029681D4600BF00BF00BF94
:1012A00000BF00BF00BF00BF00BF81422FD000BF02
:1012B00000BF00BF00BF00BF00BF00BF00BF00BF36
:1012C00000BF00BF00BF00BF00BF00BF00BF00BF26
:1012D00000BF00BF00BF00BF00BF00BF00BF00BF16
:1012E00000BF00BF00BF00BF00BF00BF00BF00BF06
:1012F00000BF00BF00BF00BF00BF00BF00BF00BFF6
:1013000000BF00BF00BF00BF00BF00BF00BF013D66
:10131000C3D194602B4A166000BF00BF00BF00BF5E
:1013200000BF00BF00BF00BF81422FD000BF00BF81
:1013300000BF00BF00BF00BF00BF00BF00BF00BFB5
:1013400000BF00BF00BF00BF00BF00BF00BF00BFA5
:1013500000BF00BF00BF00BF00BF00BF00BF00BF95
:1013600000BF00BF00BF00BF00BF00BF00BF00BF85
:1013700000BF00BF00BF00BF00BF00BF00BF00BF75
:1013800000BF00BF00BF00BF00BF00BF013BC3D113
:101390000D4B1E7024E70D4A9DF8101011705EE58C
:1013A0000B490F6050E70B4B83F800E04DE6084B0C
:1013B0001F6040E70010014000E100E064000020F1
:1013C0000024F4001C0600203C0600202A06002011
:1013D000200600202C06002008B5EFF30583C3F398
:1013E00008032BB172B6074A13680133136008BDB6
:1013F000EFF31483DB07F5D50349282000F020F82C
:10140000F0E700BF40060020088D000008B5EFF3AC
:101410000583C3F3080333B1074A1368013B136024
:1014200003B962B608BDEFF31483DB07F4D50349B3
:10143000362000F005F8EFE740060020088D000098
:1014400000B583B06A46ADF80000019144F2020095
:101450000021FFF70FFC03B05DF804FB032810B573
:10146000044603D909492220FFF7EAFF084B1C5D17
:101470001F2C04D907494FF4DA70FFF7E1FF01236D
:101480004FF0A042A340C2F80C3510BD608D0000A3
:10149000F48D0000A48D0000032810B504460FD879
:1014A0000A4B1C5D1F2C04D909494FF4DA70FFF771
:1014B000C7FF01234FF0A042A340C2F8083510BD7A
:1014C00004492820FFF7BCFFEAE700BFF48D0000C5
:1014D000A48D0000608D0000032810B5044603D9D8
:1014E0000D494020FFF7ACFF0C4B1C5D1F2C04D9AD
:1014F0000B494FF4DA70FFF7A3FF4FF0A041012230
:10150000D1F8040502FA04F323EA00020340C1F80B
:101510000825C1F80C3510BD608D0000F48D000069
:10152000A48D000030B44FF0A04303224FF40035E7
:101530004FF480244FF400204FF48011C3F8442767
:10154000C3F84827C3F84C27C3F85027C3F80855F9
:10155000C3F80845C3F80805C3F8081530BC704740
:10156000072938B50D46044618D8002C1DDB04F1B8
:10157000604303F561436D01EDB283F80053E3B2BC
:101580006009800000F1604000F5614003F01F0237
:1015900001239340C0F88031036038BD07494FF400
:1015A0008470FFF74DFF002CE1DAE3B2044A03F048
:1015B0000F016D010A44EDB21576E1E7F88D0000E8
:1015C000FCEC00E02DE9F04F89B00026CC4B0396EF
:1015D0001A68012A00F04382CA4B1A68012A00F0F7
:1015E0003082C94B1A68012A00F01D82C74B1A6865
:1015F000012A00F00A82C64B1A68012A00F0F7811E
:10160000C44B1A68012A00F0E481C34B1A68012A0E
:1016100000F0D181C14B1A68012A00F0BE81C04B95
:101620001A68012A00F0AC8116F0FF0F1AD0BD4FE6
:1016300001250024A30003F180432E4203F5C0439B
:101640004FEA45050BD0D3F8100557F82420D3F8FE
:101650001015C0F30420C1F3014102B190470134D9
:10166000082CE7D1002E02DB09B0BDE8F08FAD4EAB
:101670004FF0FF33059396F9503000225C1C37463B
:10168000049200F0F180DBB223F0C00908AA4FEA0F
:10169000D90102EB010A03F007001AF80C2C4FF0F5
:1016A000010808FA00F812EA080422D007EB090240
:1016B0009D0992F9303057F823B0BBF1000F00F0CC
:1016C0004481032D00F04481B9F11F0F00F22E81F7
:1016D0004FEA890303F1A0431AF8144CD3F800270A
:1016E00014EA0804C2F3014240F0D680032A00F055
:1016F0000E8296F95130581C34D0DBB223F0C00969
:1017000008A94FEAD90201EB020A03F007001AF810
:101710000C1C4FF0010808FA00F811EA080F21D05C
:1017200007EB09019D0991F9303057F82330002B60
:1017300000F01D81032D00F01D81B9F11F0F00F293
:10174000C6804FEA890B0BF1A04B1AF8141CDBF88A
:10175000002711EA080FC2F3014240F0AB80032AD0
:1017600000F0BE8196F95230591C33D0DBB223F021
:10177000C00908A94FEAD90201EB020A03F00700E9
:101780001AF80C1C4FF0010808FA00F811EA080FCB
:1017900020D007EB09019D0991F9303057F823302B
:1017A000002B00F0C980032D00F0C980B9F11F0F94
:1017B00000F295804FEA890B0BF1A04B1AF8141C2C
:1017C000DBF8002711EA080FC2F301424ED1032AC9
:1017D00000F06F8196F953305A1C32D0DBB223F0FF
:1017E000C00908A94FEAD90201EB020A03F0070079
:1017F0001AF80C1C4FF0010808FA00F811EA080F5B
:101800001FD007EB09019D0991F9303057F82330BB
:10181000002B00F0A380032D00F0A380B9F11F0F6F
:1018200065D84FEA890B0BF1A04B1AF8141CDBF8B2
:10183000002711EA080FC2F3014222D1032A00F067
:101840001A81002C3FF410AF4FF0A043039AD3F855
:10185000103593423FF408AF039396F95030049A41
:1018600005925C1C7FF40FAF002442E7022AB1D13D
:10187000032D00F06181002BACD0294648469847E3
:10188000A8E7022ADDD1032D00F05981002BD8D022
:10189000294648469847D4E7022AE5D1032D00F0AF
:1018A00074810024BBF1000F3FF423AF2946484662
:1018B000D8471EE7022A7FF455AF032D00F042817E
:1018C000002B3FF44FAF2946484698474AE7164950
:1018D00001934FF4DA70FFF7B3FD019B31E7124932
:1018E00001934FF4DA70FFF7ABFD019B62E70E49FD
:1018F00001934FF4DA70FFF7A3FD019B91E700BF5E
:101900000061004004610040086100400C6100403B
:101910001061004014610040186100401C610040EB
:101920007C61004044060020A48D000098494FF4DB
:10193000DA70FFF785FDCBE6032D7FF44BAF04A8EB
:10194000815C41EA0801815430E7032D40F0AD800D
:1019500004AA535C43EA08035354B5E6032D7FF40D
:1019600070AF04A8815C41EA0801815456E7032D59
:101970007FF4F8AE04A8815C41EA08018154DCE6FA
:1019800000221A601B6807934FF0A043079AD3F810
:101990001035039346F0004646E67E4AD2F804230B
:1019A00015067FF53CAE00221A601B680693069B65
:1019B00046F0800633E6774AD2F8042357067FF5CF
:1019C00029AE00221A601B680693069B46F040066B
:1019D00020E6704AD2F8042392067FF516AE002264
:1019E0001A601B680693069B46F020060DE6694ABE
:1019F000D2F80423D1067FF503AE00221A601B68DB
:101A00000693069B46F01006FAE5624AD2F80423D4
:101A100010077FF5F0AD00221A601B680693069B45
:101A200046F00806E7E55B4AD2F8042354077FF541
:101A3000DDAD00221A601B680693069B46F0040683
:101A4000D4E5544AD2F8042395077FF5CAAD0022A5
:101A50001A601B680693069B46F00206C1E54D49D5
:101A6000D1F8041311F0010121D01E601B68069308
:101A7000069B1646B0E5032D7FF408AF4FF40038FF
:101A8000B9F11F0F79D8DBF8001721F44031CBF8FA
:101A90000017DBF80027013448EA0202E4B2CBF871
:101AA0000027002B7FF4F4AECEE65C4621E60E461E
:101AB00092E5032D7FF4DFAE4FF40038B9F11F0F2C
:101AC00053D8DBF8001721F44031CBF80017DBF8CE
:101AD0000027013448EA0202E4B2CBF80027CAE644
:101AE000032D7FF4EDAE4FF40038B9F11F0F34D859
:101AF000DBF8001721F44031CBF80017DBF80027A2
:101B0000013448EA0202E4B2CBF80027D8E6032DFC
:101B10007FF4C8AE4FF40034B9F11F0F15D8D3F8D5
:101B2000001721F44031C3F80017D3F800272243EF
:101B3000C3F800270124B5E64FF44038BEE74FF460
:101B400040389DE74FF44038CFE7114901934FF4F7
:101B5000DA70FFF775FC019BE1E70D4901934FF443
:101B6000DA70FFF76DFC019BC2E7094901934FF45E
:101B7000DA70FFF765FC019BA3E7054901934FF479
:101B8000DA70FFF75DFC019B7DE74FF44034C3E75B
:101B9000A48D0000006000402DE9F0410024C1F850
:101BA00004418EB0D1F804510495049DC1F824413C
:101BB000D1F824510395039DC1F81C41D1F81C5163
:101BC0000295029DC1F80841D1F808510195012BF9
:101BD00080F8264080F82340019D0CBF0224012498
:101BE0000125C1F800420D620D6004684CB140F25D
:101BF000862383608368C1F8043300200EB0BDE8FB
:101C0000F0812E4603F1FF3E4FF0020C90F8235076
:101C1000002D3BD1D1F8247190F82680002F48D0B8
:101C2000C1F82451D1F824510A950A9D4E6180F8DB
:101C300023604345EAD1D1F80451002DE6D00023BA
:101C4000C1F80431D1F8042190F823300592059AA7
:101C5000C3B1D1F8C434C1F8C4349BB113F0010F3F
:101C600018BF4FF4024048F2012208BF032013F0CE
:101C7000020F18BF104648F2022213F0040F18BFDB
:101C80001046BBE700200EB0BDE8F081C1F824414A
:101C9000D1F824510B950B9DC1F81C41D1F81C5172
:101CA0000C950C9DC1F80841D1F808510D950D9D7A
:101CB000C1E7D1F81C51ADB1C1F81C71D1F81C516C
:101CC0000995099DD1F824511DBB90F82650AB42CF
:101CD0003DD9555DC1F81C5590F82650013580F866
:101CE0002650A6E7D1F80871002FA2D0C1F80851FC
:101CF000D1F808710797079FD1F824719FB1C1F8F7
:101D00002451D1F824510695069D4E6180F8236038
:101D10008FE7C1F82471D1F824510895089D4E61D0
:101D200080F8236085E790F82650AB4281D9D1F83E
:101D30001875575590F826500135EDB2754580F865
:101D4000265006D0AB423FF474AF0E6271E74E618D
:101D50006FE7C1F800C2F8E72DE9F0430024C1F8AD
:101D600004418FB0D1F804510495049DC1F8244179
:101D7000D1F824510395039DC1F81C41D1F81C51A1
:101D80000295029DC1F80841D1F80851019501253D
:101D9000019EC1F8004280F8264080F823400D6281
:101DA0008D6090F826409DF85870A34213D9145DB9
:101DB000C1F81C4590F826402C4480F82640046861
:101DC0007CB140F2862383608368C1F8043300202D
:101DD0000FB0BDE8F083002F48D0CD610468002C1F
:101DE000EFD103F1FF3C4FF0010E4FF0020890F8E5
:101DF0002350002D3CD1D1F8246190F82690002E7C
:101E000049D0C1F82451D1F824510A950A9DC1F84E
:101E100014E080F823E04B45E9D1D1F80451002DBE
:101E2000E5D00023C1F80431D1F804310593059BB6
:101E300090F82330002B6AD0D1F8C434C1F8C434F0
:101E4000002B64D013F0010F18BF4FF4024048F28A
:101E5000012208BF032013F0020F18BF104648F2FA
:101E6000022213F0040F18BF1046B1E74D61A6E738
:101E7000C1F82441D1F824510B950B9DC1F81C41A8
:101E8000D1F81C510C950C9DC1F80841D1F80851AE
:101E90000D950D9DC1E7D1F81C51ADB1C1F81C6184
:101EA000D1F81C510995099DD1F8245125BB90F812
:101EB0002650AB4245D9555DC1F81C5590F82650C7
:101EC000013580F82650A6E7D1F80861002EA2D08F
:101ED000C1F80851D1F808610796079ED1F824612E
:101EE000CEB1C1F82451D1F824510695069DC1F810
:101EF00014E080F823E08EE7C1F82461D1F8245182
:101F00000895089DC1F814E080F823E083E70020DD
:101F10000FB0BDE8F08390F82650AB427FF67BAF60
:101F2000D1F81865565590F826500135EDB2654543
:101F300080F826500CD0AB423FF46DAFC1F820E0E2
:101F400069E717B10123CB6172E7C1F814E062E7DA
:101F5000C1F80082F2E700BF2DE9F04F804683B060
:101F60000C46002900F0F38194E8030088424AD02F
:101F700098F80450654EAF007919C900701890F8B0
:101F800022E0BEF1000F03D0082003B0BDE8F08FBF
:101F90007250C0F808E0436080F825E080F824E043
:101FA000A37B80F82730637BB3BB23684FF0A0414D
:101FB00003F5E07340F20C6041F82300636803F519
:101FC000E0737A1941F82300D8F80030216860687E
:101FD00056F83220C3F80815C3F80C05A168C3F8F9
:101FE000241532B1D8F80000217B40F30730FFF709
:101FF000B7FA3D4406EBC5050123002085F82230E1
:1020000003B0BDE8F08F4249D6208DE80C00FFF701
:1020100017FA9DE80C00ABE723684FF0A04203F5E8
:10202000E07340F20C6142F82310636803F5E0733B
:1020300042F82310D4F80090B9F11F0F00F29081FC
:1020400001234FF0A04203FA09F3C2F80835D4F88F
:102050000490B9F11F0F00F289814FF0A0430122D3
:1020600002FA09F2C3F808252168DFF8AC90294A82
:1020700001F5E07140F20D6043F82100616801F55F
:10208000E07143F821000423D9F8001000BF00BF1D
:1020900000BF00BF00BF00BF00BF00BF91422FD0F4
:1020A00000BF00BF00BF00BF00BF00BF00BF00BF38
:1020B00000BF00BF00BF00BF00BF00BF00BF00BF28
:1020C00000BF00BF00BF00BF00BF00BF00BF00BF18
:1020D00000BF00BF00BF00BF00BF00BF00BF00BF08
:1020E00000BF00BF00BF00BF00BF00BF00BF00BFF8
:1020F00000BF00BF00BF00BF00BF00BF00BF00BFE8
:10210000013BC3D14FF0000B9246A5E09C06002096
:10211000A88E00000024F400640000204FF0A041CD
:10212000D1F8101521FA03F3DB0700F1B38023681F
:102130001F2B00F2A78001214FF0A04001FA03F30A
:10214000C0F80C35D9F80010042300BF00BF00BF51
:1021500000BF00BF00BF00BF00BF51452FD000BF70
:1021600000BF00BF00BF00BF00BF00BF00BF00BF77
:1021700000BF00BF00BF00BF00BF00BF00BF00BF67
:1021800000BF00BF00BF00BF00BF00BF00BF00BF57
:1021900000BF00BF00BF00BF00BF00BF00BF00BF47
:1021A00000BF00BF00BF00BF00BF00BF00BF00BF37
:1021B00000BF00BF00BF00BF00BF00BF00BF013BAA
:1021C000C3D123681F2B53D84FF0A04E0120984055
:1021D000CEF80805042300BF00BF00BF00BF00BF4A
:1021E00000BF00BF00BF51452FD000BF00BF00BFE0
:1021F00000BF00BF00BF00BF00BF00BF00BF00BFE7
:1022000000BF00BF00BF00BF00BF00BF00BF00BFD6
:1022100000BF00BF00BF00BF00BF00BF00BF00BFC6
:1022200000BF00BF00BF00BF00BF00BF00BF00BFB6
:1022300000BF00BF00BF00BF00BF00BF00BF00BFA6
:1022400000BF00BF00BF00BF00BF013BC3D10BF107
:10225000010BBBF1090F21D063681F2B7FF65EAF26
:102260004B4900934FF4DA70FFF7EAF8009B55E70B
:10227000474900934FF4DA70FFF7E2F8454B1968CD
:10228000009BA1E7424900934FF4DA70FFF7D8F8BA
:10229000009B50E7BBF1000F3FF487AED4F804A0D9
:1022A000BAF11F0F6ED84FF0A042012303FA0AF3D0
:1022B000C2F80C35D9F800203749042300BF00BF0D
:1022C00000BF00BF00BF00BF00BF00BF8A422FD0C9
:1022D00000BF00BF00BF00BF00BF00BF00BF00BF06
:1022E00000BF00BF00BF00BF00BF00BF00BF00BFF6
:1022F00000BF00BF00BF00BF00BF00BF00BF00BFE6
:1023000000BF00BF00BF00BF00BF00BF00BF00BFD5
:1023100000BF00BF00BF00BF00BF00BF00BF00BFC5
:1023200000BF00BF00BF00BF00BF00BF00BF00BFB5
:10233000013BC3D1D4F80490B9F11F0F1CD801237D
:102340004FF0A04203FA09F3C2F808352DE613490D
:10235000D5208DE80C00FFF773F89DE80C0003E62C
:102360000B494FF4DA70FFF76BF869E608494FF450
:10237000DA70FFF765F870E605494FF4DA70FFF799
:102380005FF8DCE702494FF4DA70FFF759F88AE7A3
:10239000A48D0000640000200024F400A88E00003A
:1023A000F8B504790C4DA7003B1905EBC3030646AD
:1023B00093F82230012B04D008494FF4A770FFF79F
:1023C0003FF83C44336805EBC4040221052284F83D
:1023D0002210C3F80025F8BD9C060020A88E00003E
:1023E0002DE9F04F87B003AE9DF840500024746093
:1023F0000394B460C5B9AC460479DFF88880D0F89E
:1024000000E004EB8404E4004FF0FF3008EB040725
:10241000CEF8080397F8240050B1BB68CEF8043317
:10242000112007B0BDE8F08F01254FF0200CE3E745
:102430008DF80E308DF80D10049292468B4696E87A
:102440000700994607F10C0383E80700012187F88C
:1024500024104B46CEF888B5524600957146384652
:10246000C7F818C087F82090C7F81CA087F821503B
:10247000FFF772FC58F80430002BD2D187F82430D3
:10248000CFE700BF9C0600202DE9F04F0479234FD1
:10249000D0F800E004EB8404E4004FF0FF3007EBD9
:1024A000040885B0CEF8080301AD98F82460002038
:1024B00068600190A8603EB1D8F80830CEF80433C7
:1024C000112005B0BDE8F08F4FF0010B8DF80630FC
:1024D0008DF8051002928DF804B006F0FF0C9146BD
:1024E0000E4695E8070008F10C0585E8070088F816
:1024F00024B088F82030CEF88865C8F818C04A465D
:1025000071464046C8F81C9088F821C0FFF744FB8C
:102510003B59002BD5D188F82430D2E79C06002007
:10252000F0B5794C236891B0002B00F0C28094F88C
:102530002310754A754BA9B9D3F8240192F820608D
:1025400092F8265000284BD0C3F82411D3F8241158
:1025500008910121089882F823105961AE4214D0E5
:1025600011B0F0BD0022C3F82421D3F82411099141
:102570000999C3F81C21D3F81C110A910A99C3F8D0
:102580000821D3F808310B930B9B604BD3F804213F
:10259000002AE5D00022C3F80421D3F804310393C4
:1025A000039B94F823305848002B34D1017B8B1EB9
:1025B000012B6AD9564B93E8070010AD05E90700D7
:1025C00000238DF83030A3694F490022580784F862
:1025D0002420C5D40B6849680CA8984711B0F0BDF9
:1025E000D3F81C11D76961B3C3F81C01D3F81C11CF
:1025F00007910799D3F8241192F821E000295ED0C1
:10260000C3F82401D3F8241106910121069882F819
:1026100023105961A2E70C3007C810AB03E907008B
:102620003A4AD2F8C434C2F8C4349A0703D5012315
:102630008DF83030C7E75D0744BF02238DF8303096
:10264000C1E7D3F80801002888D0C3F80811D3F8EF
:10265000080105900598D3F8240100283ED1AE4228
:102660007FF67CAFD3F81815795592F82610013112
:10267000C9B2701E814282F826103CD08E423FF4CF
:102680006DAF224B01221A6268E7C26903699A4260
:1026900090D184694269C37BC261C4F340140329A9
:1026A00080F8214080F8203029D01849FFF774FACB
:1026B00056E7184940F2FF30FEF7C2FE37E7AE4258
:1026C00005D80122BEF1000F13D15A6146E7795DAA
:1026D000C3F81C156B1C82F826303FE7C3F82411A1
:1026E000D3F8241104910121049882F82310596130
:1026F00034E7DA6155E70222C3F80022C1E700940B
:102700000249FFF729FB2BE79C0600200030004020
:10271000A8060020A88E00002DE9F043954F3A78D6
:102720008BB0002A40F088800123DFF87082924944
:102730003B7098F801900B68002B5FFA89F914BF81
:102740000123002303D00A600A680092009A8B4A92
:10275000116800294FEA430314BF0121002104D06E
:102760000020106012680192019A854A10680028C2
:1027700043EA412314BF0121002104D0002010604E
:1027800012680292029A7F4A1068002843EAC14305
:1027900014BF0124002404D00021116012680392A8
:1027A000039A794A1168002943EA045314BF0124AB
:1027B000002404D00021116012680492049A734A24
:1027C0001168002943EA446314BF0124002404D0A3
:1027D0000021116012680592059A53EA846427D09B
:1027E0000426012509F1FF39B9F1030F3FD8DFE8CD
:1027F00009F0575D022A664B234003BB4FF040228D
:10280000D8F80410D2F8D034C2F8D034D8F8082060
:10281000002B08BF4FF480731A4305200993C8F8B2
:1028200008208DF8200009B108A888474FF000095A
:10283000002388F801903B700BB0BDE8F08334F4BE
:10284000002400F09080534B2340002BD6D04FF053
:1028500040238DF81860D3F83C35D8F80420DBB25B
:1028600007930AB106A8904734F00204DED014F0B2
:102870000203F9D1600144D5E202D8F804208DF8B2
:10288000183056BF01234FF0020999468DF81C30CD
:102890000AB106A8904724F0C364002CA2D1C7E770
:1028A0003D4B23402BB134F480145FD0394B23408F
:1028B000BBB94FF04022D8F80410D2F8D034C2F897
:1028C000D034D8F80820002B08BF4FF480731A4387
:1028D00002200993C8F808208DF820000029A3D110
:1028E000A4E74FF040238DF81850D3F84C35D8F8B2
:1028F0000420DBB20793002AB4D134F00204B6D12D
:1029000094E7A30116D504F40023002BD8F8043073
:102910004FF003020CBF012100218DF81C100CBFE9
:1029200091464FF004098DF81820002BB3D006A86B
:102930009847B0E74FF04022D8F80410D2F8D034CE
:10294000C2F8D034D8F80820002B08BF4FF48073A9
:102950001A4306200993C8F808208DF820000029A2
:102960007FF462AF62E74FF0040961E74FF00209BC
:102970005EE700BFC406002004410040244100403F
:102980004C410040504100406441004068410040DB
:10299000020008060200000602001006C806002019
:1029A00070B59B4C237F8EB0002B75D1994AD2F81D
:1029B0000413890548D4974BD3F80423520704D550
:1029C000D3F80821002A40F0CA80924BD3F81C218A
:1029D000C2B1A28AA07D8E4992B282424FF000021B
:1029E000C3F81C2180F0A980D3F81C210692069A16
:1029F000888A8A8A8D6880B20132285C92B28A8283
:102A0000C3F81C05834BD3F84421DAB10022C3F884
:102A10004421D3F84411A27E04910499002A40F085
:102A20008980E27D7A4B6AB10022587ED968DA75D6
:102A300001228DF830000B918DF828200AA893E828
:102A4000060090470EB070BDD2F824110029B2D014
:102A5000C2F82431D2F82411A37E07914FF40171FA
:102A60000798C2F808130BB901235360694A02237F
:102A70008DF82830D2F88034C2F88034E07DE268E6
:102A80000D9300238DF83000E375237621680B92B7
:102A900063680AA8984798E75E4BD3F82421002A78
:102AA00040F09380D3F8101161B1C3F81021D3F82E
:102AB000101103910399D3F83C15E07DC9B2884207
:102AC00000F0AA80534BD3F84421B2B10022C3F8DE
:102AD0004421D3F84411E07D019101994C4960B142
:102AE000D3F83C35C8688DF830300123CA750B9097
:102AF0008DF828300AA80AC99847464BD3F82021F8
:102B0000002A9FD00022C3F82021D3F82011A07DF5
:102B1000009100993E49002894D0D3F84C058B6869
:102B20008DF830008A750B938DF828200AC90AA801
:102B3000984787E701221A6073E7D3F81C310593A1
:102B4000059B00283FF45EAF8B688DF830008A75D6
:102B50000B938DF828200AC90AA8984752E7E17D0F
:102B60002B4A002970D00021C3F80811D3F80811AE
:102B700008910899D068517ED3F818354354537E94
:102B8000D17D0133DBB25376627E214B8A427FF4E2
:102B90001CAF1A7E002A6DD19B7E13B91D4B0122FA
:102BA0005A601C4AE06863684FF40171C2F8081368
:102BB000627E8DF83020002501220B902168E5759A
:102BC0008DF828200AA89847FFE60022C3F82421A0
:102BD000D3F82411029102218DF828100299D3F81C
:102BE0008014C3F880140D91D3F83C15E368E275A6
:102BF00022768DF830100B93216863680AA89847F5
:102C0000044BD3F84421002A3FF477AF5EE700BFBE
:102C1000D406002000200040217EF1B1D3F80062EC
:102C2000E17526F02001E568C3F8001226698DF8E9
:102C3000300001238DF82830227621680B95E6605C
:102C400063680AA898473DE7C3F80811D3F808213C
:102C50000992099AD3F8183596E7E268E1750123DD
:102C60008DF830008DF828300B9294E80A000AA8FD
:102C7000984727E7DE685D7E1869DA750121002232
:102C8000D8601A765A768DF828100B968DF8305049
:102C900093E806000AA8904797E600BF30B587B0D2
:102CA00006AB02AD03F8042D002485E803001A46A4
:102CB0000094284601232921FFF792FB50BB0123F2
:102CC0000DF1160229212846FFF7DEFB0446D0B994
:102CD000284601230DF117022921FFF7D5FB0446F1
:102CE00000BB14490220FDF775FE9DF816009DF803
:102CF0001730114943EA002422461320FDF7B6FE9F
:102D0000204607B030BD0D490220FDF763FEE0B25A
:102D100007B030BD04460A490220FDF75BFEE0B271
:102D200007B030BD07490220FDF754FEE0B207B0FE
:102D300030BD00BFB88F0000D48F0000408F00006E
:102D4000088F00007C8F00002DE9F04F93B004AC99
:102D50009B4642F0800384E8030002930DF1400893
:102D60000DF1380A0DF130090AAF002650E00123B9
:102D70000DF11F0253214046FFF786FB0546002850
:102D800073D19DF81F50009694E803004FF00A0E8F
:102D90008AE80300022309AA532150468DF825B082
:102DA0008DF824E0FFF71CFB002859D194E80300BC
:102DB0004FF00B0E00969DF808C08DF821C089E8F1
:102DC0000300022308AA532148468DF820E0FFF7AC
:102DD00007FB00283FD194E803004FF0110E009646
:102DE000012387E8030007AA532138468DF81CE029
:102DF000FFF7F6FA18BB01230DF11F0253213846E5
:102E0000FFF742FB002836D19DF81F309D421FDBA3
:102E100094E8030011250096012388E8030007AA1F
:102E2000532140468DF81C50FFF7DAFA054600287A
:102E30009DD015490220EDB2FDF7CCFDA3E703902C
:102E400011490220FDF7C6FD039BDBB29D42DFDA8C
:102E500013B0BDE8F08F0D490220FDF7BBFDBAE7C6
:102E60000A490220FDF7B6FDA0E709490220EDB2AC
:102E7000FDF7B0FD87E7039005490220FDF7AAFDA5
:102E8000039BDBB2C2E700BFE08F0000549000005C
:102E9000189000002DE9F04F99B004AB83E80300CF
:102EA00004AA92E803000A230122FFF74DFF04ABB6
:102EB00093E803001A220023FFF746FF04AB93E8D0
:102EC00003001B220123FFF73FFF04AB93E803003D
:102ED0001C220523FFF738FF04AB93E803001D22F3
:102EE0000A23FFF731FF04AB93E803001E220A23F5
:102EF000FFF72AFF04AB93E8030010AC002306227F
:102F000084E80300FFF720FF94E803000223072270
:102F1000FFF71AFF94E8030040230822FFF714FF8D
:102F200094E8030041230922FFF70EFF04AB93E866
:102F300003000EAC00230E2284E80300FFF704FF19
:102F400094E8030002230F22FFF7FEFE94E803003B
:102F500040231022FFF7F8FE94E80300812311229A
:102F6000FFF7F2FE04AB93E803000CAC84E8030027
:102F700016AF0DF1280B0DF1500912AE4FF0110AEA
:102F80004FF000083BE001235A4653213846FFF733
:102F90007BFA054600287AD19DF82850CDF80080AC
:102FA00094E803004FF00B0C89E803004FF0130E78
:102FB000022309AA532148468DF824C08DF825E044
:102FC000FFF70EFA00285DD194E803000123CDF845
:102FD000008008AA86E80300532130468DF820A01F
:102FE000FFF7FEF910BB01235A4653213046FFF785
:102FF0004BFA002851D19DF828309D421FDB94E800
:1030000003000123CDF8008008AA87E803005321BC
:1030100038468DF820A0FFF7E3F905460028B2D026
:1030200028490220EDB2FDF7D5FCB7E7039025490A
:103030000220FDF7CFFC039BDBB29D42DFDA04A93F
:1030400003C918AA002302F8443D00938BE803004B
:10305000012353215846FFF7C3F9044628BB08AAA9
:10306000584601235321FFF70FFA044618BB9DF879
:103070002040154922461320FDF7F8FC204619B0E0
:10308000BDE8F08F11490220FDF7A4FC9CE7104930
:103090000220EDB2FDF79EFC80E703900C49022070
:1030A000FDF798FC039BDBB2A7E706490220E4B2D8
:1030B000FDF790FCDDE706490220E4B2FDF78AFC4B
:1030C000D7E700BFE08F000084900000549000001C
:1030D00018900000F0B58FB002AD85E8030095E8C8
:1030E00003000AAB002483E803002D4E8DF8204036
:1030F0000CAB08AF83E803003A461846009403235C
:10310000102134707470B470F47034718DF82140F3
:103110008DF82240FFF764F9002836D195E80300C6
:1031200006AB0EAA83E803000C2302F8283D012316
:1031300087E8030000240093102138468DF81440DE
:103140008DF81540FFF74CF90446C0B93846022304
:1031500005AA1021FFF798F90446D8B99DF8154043
:103160009DF8143043EA0424262C22460CBF0D4956
:103170000D491320FDF77AFC20460FB0F0BD0B4936
:103180000220E4B2FDF726FCEEE709490220FDF734
:1031900021FCC3E707490220E4B2FDF71BFCE3E78B
:1031A00010090020B8900000E8900000088F00008F
:1031B00054900000408F00002DE9F04393B002AC22
:1031C00084E8030094E803000AAB12AD83E803002F
:1031D0000C2305F8183D10AE012386E803000027F4
:1031E0002A463046009310218DF838708DF83970DA
:1031F000FFF7F6F8002874D10DF1380930464A4639
:1032000002231021FFF740F9074600287FD19DF8DF
:1032100039709DF8383043EA07273A46454913206C
:10322000FDF724FC94E8030008AB12AE83E803002A
:10323000072306F8303D012389E803004FF0000E14
:1032400032460093102148468DF830E08DF831E089
:10325000FFF7C6F88046002852D1484602232A4686
:103260001021FFF711F9804600285CD19DF831202C
:103270009DF8303043EA02222F491320FDF7F6FB78
:1032800094E8030012AA092302F8383D012386E8D6
:10329000030085E8030000240093102128468DF8E0
:1032A00014408DF81540FFF79BF8044610BB2846E4
:1032B000022305AA1021FFF7E7F8044668BB9DF832
:1032C00015209DF8143043EA02221C491320FDF713
:1032D000CDFB1B491320FDF77DFB384613B0BDE83D
:1032E000F083074617490220FFB2FDF773FB0DF18B
:1032F000380992E713490220FDF76CFBE2B2E4E7DC
:1033000010490220FDF766FB5FFA88F2B4E70E4928
:103310000220FFB2FDF75EFB7FE70B490220FDF7BD
:1033200059FBE2B2D1E708490220FDF753FB5FFAEF
:1033300088F2A1E718910000309100004891000048
:1033400014910000088F0000408F0000F0B5814C00
:1033500099B002AF94F804C094F801E02678A278FE
:10336000E37887E803000CF0010C4FEA4E1E0EF0E4
:10337000600E4CEAC616920097E8030046EA0E0675
:1033800002F01C025B00164303F0020316AA1E4360
:103390000CAD002382E8030085E803004FF0200E07
:1033A00000931046022309AA1E218DF825608DF88E
:1033B00024E0FFF715F8002840F0C080A679E279F4
:1033C0006379F600920095E8030002F0040206F02B
:1033D00008065B01164303F0600314AA1E43002392
:1033E00082E803004FF0210E00931046022308AA42
:1033F0001E218DF821608DF820E0FEF7F1FF0028F6
:1034000040F09780667AA27A237AB60095E80300A6
:1034100002F0030206F004065B01164303F02003EA
:1034200012AA1E43002382E803004FF0220E0093ED
:103430001046022307AA1E218DF81D608DF81CE09E
:10344000FEF7CEFF00286FD1267BE37A95E80300D4
:1034500076009B0003F00C0306F0020610AA1E4340
:10346000002382E803004FF0230E0093104602234E
:1034700006AA1E218DF819608DF818E0FEF7B0FF3E
:1034800000284CD1A37B647B95E803009B010EAA26
:1034900003F04003002582E8030043EAC4140095CA
:1034A00010462425022305AA1E218DF815408DF80B
:1034B0001450FEF795FF68BB97E8030018AA0F2386
:1034C00002F8503D0AAD002385E80300009328462A
:1034D00001231E21FEF784FF0446A8B928460123D4
:1034E0000DF113021E21FEF7CFFF044658BB9DF8D5
:1034F00013403D2C22460CBF174918491320FDF7F5
:10350000B5FA204619B0F0BD15490220E4B2FDF726
:1035100061FAEEE713490220FDF75CFACCE71149A6
:103520000220FDF757FAADE70E490220FDF752FAE7
:103530008AE70C490220FDF74DFA63E709490220AA
:10354000FDF748FA3AE708490220E4B2FDF742FAEB
:10355000CFE700BF3C09002060910000909100007F
:10356000E08F00005490000018900000F0B5D24C9D
:10357000A1B000220123032502AE25706370E37021
:1035800023716371A270A271E27122726272A272DF
:10359000E27222736273A273E27322746274A27481
:1035A000E27422756275A275E27522766276A27661
:1035B000E2762277627786E8030096E803001EAB86
:1035C00010AD85E80300A277009283E803001F2175
:1035D0001846C027E27784F8202084F8212084F858
:1035E00022208DF82C1002230BAA18218DF82D70A3
:1035F000FEF7F6FE002840F078816779A1786078C0
:10360000E278237907F00107C90047EA001701F0C3
:10361000080192000F4302F0040295E803005B00EA
:10362000174303F002031CAA1F43002382E8030090
:103630004FF0200E0093104602230AAA18218DF89D
:1036400029708DF828E0FEF7CBFE002840F0488175
:10365000E37AE07994F806E0217A627A03F00107D0
:10366000000147EA8E1700F03000A37AC900074333
:1036700001F0080192000F4302F0040295E80300F4
:103680005B00174303F002031AAA1F43002382E8DA
:1036900003004FF0210E00931046022309AA1821BF
:1036A0008DF825708DF824E0FEF79AFE002840F092
:1036B0001281637BA27BE77B207B217C94F811E065
:1036C0009B01520103F0400302F020021A433F0124
:1036D00042EAC01307F01007A27CC9001F4301F0A3
:1036E00008014FEA8E0E0F430EF0040E95E803001A
:1036F000520047EA0E0702F0020218AB17430022FD
:1037000083E803004FF0220E0092184608AA022315
:1037100018218DF821708DF820E0FEF761FE002859
:1037200040F0D480A77D227DE17C637D07F0010716
:10373000120147EAC11702F0300295E803005B006E
:10374000174303F0060316AA1F43002382E8030071
:103750004FF0230E00931046022307AA18218DF87C
:103760001D708DF81CE0FEF73BFE002840F09E80A7
:10377000237F207E94F817E0617EA27E03F001078C
:10378000800147EACE1700F04000E37EC9000743FE
:1037900001F0080192000F4302F0040295E80300D3
:1037A0005B00174303F0020314AA1F43002382E8BF
:1037B00003004FF0240E00931046022306AA18219E
:1037C0008DF819708DF818E0FEF70AFE002868D110
:1037D000A37FE27F94F8200094F8211094F81DE074
:1037E00094F822709B01520103F0400302F0200282
:1037F0001A43040142EACE1304F01004CA0095E80B
:103800000300234302F008047A001C4302F0020282
:1038100012AB002583E803001443009518462525C4
:10382000022305AA18218DF815408DF81450FEF7D3
:10383000D7FD88BB96E803000CAB20AA83E8030001
:103840000F2302F8703D0EAD002385E803000093BE
:10385000284601231821FEF7C3FD0446B0B92846C7
:1038600001230DF113021821FEF70EFE0446002875
:1038700040D19DF81340332C22460CBF0F4910490C
:103880001320FDF7F3F8204621B0F0BD0D490220CA
:10389000E4B2FDF79FF8EEE70B490220FDF79AF836
:1038A000C8E709490220FDF795F891E7064902208B
:1038B000FDF790F85CE700BF18090020C0910000F8
:1038C000F0910000E08F0000549000000C490220AD
:1038D000FDF780F826E70A490220FDF77BF8E8E6C5
:1038E00007490220FDF776F8B2E605490220FDF708
:1038F00071F882E603490220E4B2FDF76BF8BAE7FB
:1039000054900000189000002DE9F04F8FB004ACE7
:1039100084E803000EAE94E80300F72306F8183D90
:103920000CAD002385E803003246009328460123AE
:103930007721FEF755FD002840F02A810AAF0123C8
:1039400028463A467721FEF79FFD0346002840F0BF
:103950003B819DF8283003930EAD94E80300F823D3
:1039600005F81C3D002387E803002A4600937721D1
:1039700001233846FEF734FD0346002840F01D8140
:103980000123384632467721FEF77EFD03460028A4
:1039900040F028819DF82030029394E803000EAA9D
:1039A000F92302F8203D002386E8030000937721E5
:1039B00001233046FEF714FD0446002840F0F6804F
:1039C0002A46304601237721FEF75EFD0446002893
:1039D00040F001819DF81CE0864BDFF82CA21868AE
:1039E000BAF90A40BAF90860C117B0F5FA3041F1E6
:1039F000FF31A0FB008900FB01F309EB4309E51748
:103A0000F71704FB09F206FB01F308FB052200FB94
:103A10000733A4FB0845A6FB006715444FEA142BA7
:103A20001F444BEA056B32033B0343EA16534FEA4C
:103A3000252C12EB0B02BAF8066043EB0C030032A4
:103A400043F50043A2FB064506FB03556A10EB173E
:103A500052EA030400F0A580BAF90E40029E039FCB
:103A600004FB01F1E51700FB05153601A4FB00017D
:103A7000BAF9104046EA0736294404FB09FC46EA35
:103A80001E1EE5174F04CEF5801E08FB05CC47EA45
:103A9000D0374604A4FB0845BAF90C00A4196544C4
:103AA0004FF000084FEAEE7C4FEACC714FEAC009B4
:103AB0007D414FEACE7014EB080445EB090541EA5D
:103AC0005E01001B61EB0501061841EB010736188A
:103AD0004F41BD01B40145EA966536196F41BC00FE
:103AE000B50044EA96742E1844EB0107B500BC00FB
:103AF000401944EA9674614104F044FABAF9162078
:103B00004C13470B47EAC14702FB04F5D31707FBE9
:103B10000355A2FB072302FB04F6BAF914402B4419
:103B200007FB036604FB01FEA2FB0723E51700FB6E
:103B300005EE3344A4FB0045560E754446EAC31611
:103B40004FEAD4488019BAF912404FEA636748EA4D
:103B5000453879414FEAE54918EB000849EB01097E
:103B6000E5174FEA182242EA0962290120014FEACB
:103B70002923801841EA1471594104F0C5F99FEDD9
:103B80001E0A07EE900A27EE800A0FB0BDE8F08FFC
:103B90000346DBB2194903930220FCF71BFF0AAF6F
:103BA000DAE69FED170A0FB0BDE8F08F1349022047
:103BB000FCF710FF5FFA84FE0EE7DBB20F490293B9
:103BC0000220FCF707FFE8E6DBB20E490393022070
:103BD000FCF700FFC0E60B490220FCF7FBFE5FFA92
:103BE00084FEF9E6DBB2074902930220FCF7F2FEFD
:103BF000D3E600BF780900200000803BE08F000082
:103C000000000000189000004C0900200000000097
:103C10002DE9F0479EB004AC84E803001EAF94E8A1
:103C20000300D02307F8103D12AE002386E80300FE
:103C30003A460093304601237721FEF7D1FB002856
:103C400040F098810DF170083046424601237721FB
:103C5000FEF71AFC0546002840F0B4819DF870205C
:103C6000DF491320FCF702FF94E803000AAB83E866
:103C700003000DF16009002310AE86E8030089E817
:103C80000300FA250093484601233A4677218DF830
:103C90006850FEF7A5FB0546002840F08D81484698
:103CA000012342467721FEF7EFFB0546002840F04E
:103CB000CA819DF8705096E803000DF1580A002360
:103CC0008AE803004FF0FB0E0093504601233A466A
:103CD00077218DF868E0FEF783FB2D0381460028ED
:103CE00040F063815046012342467721FEF7CCFB2A
:103CF0008146002840F0A0819DF8709096E803006E
:103D00000DF1500A00238AE80300FC260093504678
:103D100001233A4677218DF86860FEF761FB45EA9A
:103D200009150646002840F03A81504601234246D4
:103D30007721FEF7A9FB0646002840F077819DF821
:103D40007030A84E9FEDA86AB6F800E0B6F90420DE
:103D5000B6F902C0DFEDA56ADFF8B492A44945EADE
:103D60001315CEEB151303FB03F34FEA4E0E1B1393
:103D7000CEEBD50002FB03F30CFB00F59B1303EB2A
:103D8000E52505EB850380331B1207EE903AF8EE2C
:103D9000E77AF2EE025A87EE867A1320C9F80050CD
:103DA0000DF1780A0CADB1EE046A27EE257AC7EE64
:103DB000067A77EEA67AFCEEE77ACDED037A9DF8E7
:103DC0000C20FCF753FE94E80300FFF79DFDFCEE8A
:103DD000C07A8849CDED037A9DF80C201320FCF7BA
:103DE00045FE94E8030008AB83E803000EAB83E8CC
:103DF0000300FFF789FDDFED807A80EE277A17EE6A
:103E0000100A03F05DFC9FED721B41EC100B02F0F9
:103E1000BBF907EE900AF8EEE77AB7EE007A77EE94
:103E2000C77A9FED767A67EE877A17EE900A03F0ED
:103E300047FC69A3D3E9002303F096FC03F044FF99
:103E400007EE900AFCEEE77A6D49CDED037A9DF816
:103E50000C201320FCF70AFE94E80300FD230AF867
:103E60005C3D002385E8030088E803005246009388
:103E7000772101234046FEF7B3FA0446002840F0BC
:103E80008880404601233A467721FEF7FDFA044632
:103E9000002840F0C5809DF8684095E803001EAA00
:103EA000FE2302F8603D002387E80300009377219A
:103EB00001233846FEF794FA24020546002862D111
:103EC0005246384601237721FEF7DEFA05460028E0
:103ED00040F0A0809DF81C00D9F80030377F96F89C
:103EE0002220B6F91EC0B6F92050A3F5963E0EFB6F
:103EF00007F70EFB02F1FF1207F500478A1202FBDB
:103F000007F24FEA0C5340EA04079212B6F91A403E
:103F1000307E3C49C3EB873302F500120EFB1533AC
:103F200004FB02F203F5804302F500529213DB1307
:103F300002FB03F3DA1302FB02F2D21100FB02F2DE
:103F4000A3EB221323EAE373B3F1C85FA8BF4FF0DA
:103F5000C8531B1307EE903AFAEECB7A1320FCEE0F
:103F6000E77ACDED037A9DF80C20FCF77FFD1EB0BB
:103F7000BDE8F087054624490220FCF72BFD0DF132
:103F80007008EAB26CE602201F49FCF723FDE8B294
:103F9000A2E71D490220FCF71DFDE4B27DE71A49A6
:103FA0000220FCF717FDF3B2CBE617490220FCF71D
:103FB00011FD5FFA89F9A1E613490220FCF70AFD19
:103FC000EDB278E611490220FCF704FDEAB247E6BB
:103FD000C5C551B9895AC83FE544BB0A293F0A40C3
:103FE000209200004C0900200000C842000000425E
:103FF000349200004C92000080E6C547331633C768
:104000006892000084920000E08F00001890000089
:104010007809002002200F49FCF7DCFCE8B25BE7DE
:104020000C490220FCF7D6FCE4B236E7094902202D
:10403000FCF7D0FCF3B284E606490220FCF7CAFC88
:104040005FFA89F95AE603490220FCF7C3FCEDB296
:1040500031E600BF189000002DE9F0439BB002ACA0
:1040600084E8030094E803000EAB1AAF83E8030072
:104070000F2307F8183D18AD002385E803003A46E2
:104080000093284601231E21FEF7AAF9002840F0DC
:10409000B4800DF1580928464A4601231E21FEF737
:1040A000F3F98046002840F0CC809DF8588075498F
:1040B00042461320FCF7DAFC94E803000CAB1AAE7E
:1040C00083E80300282306F8203D002389E8030045
:1040D000324600931E2101234846FEF781F905462A
:1040E000002840F0A880484601233A461E21FEF7EA
:1040F000CBF90546002840F0BF809DF8502062496A
:1041000052B21320FCF7B2FC94E803000AAB1AADDC
:1041100083E803002A2305F8283D002387E80300ED
:104120002A4600931E2101233846FEF759F981469D
:10413000002879D13846012332461E21FEF7A4F922
:104140008146002840F091809DF848204F4952B2A6
:104150001320FCF78BFC94E8030008AB1AAF83E84C
:1041600003002C2307F8503D002386E803003A465D
:1041700000931E2101233046FEF732F981460028C4
:104180004BD1304601232A461E21FEF77DF9814698
:10419000002863D19DF840203D4952B21320FCF71E
:1041A00065FC94E803001AAA2E2302F8543D00236C
:1041B00087E8030085E8030000931E2101232846B9
:1041C000FEF70EF9044610BB284601230DF1170235
:1041D0001E21FEF759F90446002839D19DF8172011
:1041E0002C4952B21320FCF741FC2B491320FCF759
:1041F000F1FB40461BB0BDE8F08380462749022012
:104200005FFA88F8FCF7E6FB0DF158094FE7234900
:104210000220FCF7DFFBE2B2E2E720490220FCF7D4
:10422000D9FB5FFA89F2B7E71C490220FCF7D2FB01
:104230005FFA89F28AE719490220FCF7CBFBEAB260
:104240005DE7174902205FFA88F8FCF7C3FB2EE709
:1042500013490220FCF7BEFBE2B2C1E7104902207D
:10426000FCF7B8FB5FFA89F296E70D490220FCF7EC
:10427000B1FB5FFA89F269E709490220FCF7AAFB62
:10428000EAB23CE7A4920000C0920000DC92000079
:10429000F89200001493000014910000E08F0000D9
:1042A000189000002DE9F0439FB002AC84E80300B1
:1042B00094E8030010AB1EAD83E803000F2305F85C
:1042C000183D1CAE002386E803002A4600933046C2
:1042D00001231821FEF784F8002840F0E6801AAF89
:1042E00030463A4601231821FEF7CEF880460028D2
:1042F00040F006819DF86880964942461320FCF7FD
:10430000B5FB94E803000EAB0DF1780983E80300D8
:10431000272309F8203D002387E803004A4600933D
:10432000182101233846FEF75BF80646002840F0C6
:10433000DE80384601232A461821FEF7A5F80646F6
:10434000002840F0FD809DF8602083491320FCF791
:104350008DFB94E803000CAB1EAF83E80300292318
:1043600007F8283D002385E803003A46009318210A
:1043700001232846FEF734F80646002840F0B180B5
:10438000284601234A461821FEF77EF806460028F3
:1043900040F0D0809DF85820704952B21320FCF7AD
:1043A00065FB94E803000AAB1EAE83E803002B23F1
:1043B00006F8303D002389E80300324600931821B7
:1043C00001234846FEF70CF80546002840F083809C
:1043D000484601233A461821FEF756F805460028BC
:1043E00040F0A2809DF850505D496DB213202A46DE
:1043F000FCF73CFB012D4FF0000000F0A780002DE2
:104400007BDDFDF749F894E8030008AB1EAD83E8B7
:1044100003002D2305F8603D002387E803002A46AA
:104420000093182101233846FDF7DAFF8146002862
:104430004AD13846012332461821FEF725F8814635
:1044400000286AD19DF84820464952B21320FCF753
:104450000DFB94E803001EAA0C2302F8643D002320
:1044600085E8030086E80300009318210123304605
:10447000FDF7B6FF044608BB304601230DF11702D5
:104480001821FEF701F80446002840D19DF81720B6
:10449000354952B21320FCF7E9FA34491320FCF7EE
:1044A00099FA40461FB0BDE8F083804630490220AB
:1044B0005FFA88F8FCF78EFA1AAF1DE72C49022044
:1044C000FCF788FAE2B2E3E729490220FCF782FA16
:1044D0005FFA89F2B8E726490220FCF77BFAEDB2D1
:1044E00082E723490220FCF775FAF2B254E720492B
:1044F0000220FCF76FFAF2B227E7FCF7AFFF82E782
:104500001C4902205FFA88F8FCF764FAF4E61949BE
:104510000220FCF75FFAE2B2BAE716490220FCF784
:1045200059FA5FFA89F28FE712490220FCF752FA32
:10453000EDB259E70F490220FCF74CFAF2B22BE733
:104540000C490220FCF746FAF2B2FEE6FCF7C4FF83
:1045500059E700BF309300004C93000068930000BF
:1045600084930000A0930000BC930000149100000D
:10457000E08F0000189000002DE9F047D6B002ACA3
:1045800084E8030056AF94E80300892307F8183D38
:1045900054AD002385E803003A46009328460123E2
:1045A0007721FDF71DFF002840F000850DF5A47868
:1045B0002846424601237721FDF766FF8146002801
:1045C00040F000869DF8489156AE94E80300882399
:1045D00006F8203D002388E8030032460093772147
:1045E00001234046FDF7FCFE4FEA09290546002855
:1045F00040F0CC85404601233A467721FDF744FF41
:104600000546002840F0D9869DF840E1E34D0DF5C0
:10461000AC7894E803008B2308F8283DCE440023AF
:1046200087E8030042460093772101233846A5F826
:1046300000E0FDF7D5FE8146002840F09F85384612
:10464000012332467721FDF71FFF8146002840F005
:10465000AC869DF8389156AF94E803008A2307F89A
:10466000303D002386E803003A460093772101237A
:104670003046FDF7B5FE4FEA092A8146002840F092
:1046800075853046012342467721FDF7FDFE8146C0
:10469000002840F082869DF8309156AE94E80300E1
:1046A0008D2306F8383DD144002388E803003246C4
:1046B00000937721A5F8029001234046FDF790FE74
:1046C0008146002840F04A85404601233A4677213A
:1046D000FDF7DAFE8146002840F057869DF82891C4
:1046E0000DF5AC7894E803008C2308F8403D0023D6
:1046F00087E8030042460093772101233846FDF7FF
:104700006FFE4FEA092A8146002840F01F8538468F
:10471000012332467721FDF7B7FE8146002840F09D
:104720002C869DF8209156AF94E803008F2307F85C
:10473000483DD144002386E803003A4600937721A0
:10474000A5F8049001233046FDF74AFE8146002873
:1047500040F0F4843046012342467721FDF794FE71
:104760008146002840F001869DF8189156AE94E8E5
:1047700003008E2306F8503D002388E803003246EC
:104780000093772101234046FDF72AFE4FEA092ACC
:104790008146002840F0CA84404601233A467721EA
:1047A000FDF772FE8146002840F0D7859DF81091F4
:1047B0000DF5AC7894E80300912308F8583DD144F6
:1047C000002387E80300424600937721A5F806906E
:1047D00001233846FDF704FE8146002840F09E8400
:1047E0003846012332467721FDF74EFE81460028E8
:1047F00040F0AB859DF8089156AF94E803009023F4
:1048000007F8603D002386E803003A4600937721CD
:1048100001233046FDF7E4FD4FEA092A81460028CE
:1048200040F074843046012342467721FDF72CFE88
:104830008146002840F081859DF8009156AE94E8AD
:104840000300932306F8683DD144002388E8030061
:10485000324600937721A5F8089001234046FDF7E2
:10486000BFFD8146002840F04984404601233A4676
:104870007721FDF709FE8146002840F056859DF816
:10488000F8900DF5AC7894E80300922308F8703D99
:10489000002387E80300424600937721012338462E
:1048A000FDF79EFD4FEA092A8146002840F01E844C
:1048B0003846012332467721FDF7E6FD8146002880
:1048C00040F02B859DF8F09056AF94E803009523B7
:1048D00007F8783DD144002386E803003A46009368
:1048E0007721A5F80A9001233046FDF779FD81462E
:1048F000002840F0F4833046012342467721FDF73B
:10490000C3FD8146002840F000859DF8E89056AE32
:1049100094E80300942306F8803D002388E8030010
:1049200032460093772101234046FDF759FD4FEAB7
:10493000092A8146002840F0CB83404601233A46AD
:104940007721FDF7A1FD8146002840F0D6849DF82F
:10495000E0900DF5AC7894E80300972308F8883DC3
:10496000D144002387E80300424600937721A5F84D
:104970000C9001233846FDF733FD8146002840F0B6
:10498000A0833846012332467721FDF77DFD81461D
:10499000002840F0AA849DF8D89001E04C0900203E
:1049A00056AF94E80300962307F8903D002386E86D
:1049B00003003A460093772101233046FDF710FDAE
:1049C0004FEA092A8146002840F0748330460123CB
:1049D00042467721FDF758FD8146002840F07D844E
:1049E0009DF8D09056AE94E80300992306F8983DC0
:1049F000D144002388E80300324600937721A5F8CC
:104A00000E9001234046FDF7EBFC8146002840F064
:104A10004A83404601233A467721FDF735FD81461A
:104A2000002840F052849DF8C8900DF5AC7894E8C9
:104A30000300982308F8A03D002387E803004246BE
:104A40000093772101233846FDF7CAFC4FEA092A73
:104A50008146002840F020833846012332467721E2
:104A6000FDF712FD8146002840F027849DF8C09094
:104A700056AF94E803009B2307F8A83DD1440023D8
:104A800086E803003A4600937721A5F810900123A9
:104A90003046FDF7A5FC8146002840F0F6823046FE
:104AA000012342467721FDF7EFFC8146002840F0C4
:104AB000FC839DF8B89056AE94E803009A2306F85C
:104AC000B03D002388E8030032460093772101239C
:104AD0004046FDF785FC4FEA092A8146002840F050
:104AE000CD82404601233A467721FDF7CDFC814631
:104AF000002840F0D3839DF8B0900DF5AC7894E891
:104B000003009D2308F8B83DD144002387E8030043
:104B1000424600937721A5F8129001233846FDF70D
:104B20005FFC8146002840F0A282384601233246CD
:104B30007721FDF7A9FC8146002840F0A8839DF865
:104B4000A89056AF94E803009C2307F8C03D0023CB
:104B500086E803003A460093772101233046FDF7AB
:104B60003FFC4FEA092A8146002840F0798230460E
:104B7000012342467721FDF787FC8146002840F05B
:104B80007F839DF8A09056AE94E803009F2306F81B
:104B9000C83DD144002388E80300324600937721C2
:104BA000A5F8149001234046FDF71AFC8146002821
:104BB00040F04F82404601233A467721FDF764FCDE
:104BC0008146002840F055839DF898900DF5AC780B
:104BD00094E803009E2308F8D03D002387E80300F3
:104BE00042460093772101233846FDF7F9FB4FEA4F
:104BF000092A8146002840F02582384601233246A2
:104C00007721FDF741FC8146002840F02B839DF879
:104C1000909056AF94E80300A12307F8D83DD14403
:104C2000002386E803003A4600937721A5F8169002
:104C300001233046FDF7D4FB8146002840F0FB817C
:104C40003046012342467721FDF71EFC81460028AD
:104C500040F001839DF8889085F8189056AE94E84E
:104C60000300E22306F8E03D002388E80300324613
:104C70000093772101234046FDF7B2FB82460028CE
:104C800040F0D281404601233A467721FDF7FCFBF4
:104C90008246002840F0D8829DF880A00DF5AC78BF
:104CA00094E80300E12308F8E83D002387E80300C7
:104CB00042460093772101233846FDF791FB4FEAE6
:104CC0000A2A8146002840F0A8813846012332464E
:104CD0007721FDF7D9FB0746002840F0AF829DF809
:104CE00078700DF5AC7994E80300E32309F8F03D02
:104CF0005744002386E803004A46009377216F83D8
:104D000001233046FDF76CFB0746002840F07F8109
:104D10003046012342467721FDF7B6FB07460028BF
:104D200040F086829DF870702F7756AF94E80300AC
:104D3000E42307F8F83D002388E803003A4600938F
:104D4000772101234046FDF74BFB0646002840F043
:104D50005881404601234A467721FDF795FB0646D8
:104D6000002840F05F829DF8686094E803000DF130
:104D7000580800234FF0E50E89E8030042460093EF
:104D800077210123484688F800E0FDF729FB4FEA28
:104D9000061A0646002840F02E81484601233A466E
:104DA0007721FDF771FB0646002840F035829DF81B
:104DB000606094E803000DF1500906F00F0600232F
:104DC00056444FF0E60E87E803004A4600937721E9
:104DD000EE830123384689F800E0FDF701FB064623
:104DE000002840F002813846012342467721FDF732
:104DF0004BFB0646002840F0098298F8006094E8D2
:104E000003000DF1480A0023E52788E80300524615
:104E1000009377218AF8007001234046FDF7E0FAFD
:104E200036010746002840F0DA80404601234A4612
:104E30007721FDF729FB0746002840F0E18199F82A
:104E4000003094E8030010AF06EB13164FF0000C8F
:104E50004FF0E70E89E803003A46CDF800C0012381
:104E60002E847721484687F800E0FDF7B9FA064618
:104E7000002840F0AE804846012352467721FDF7D6
:104E800003FB0646002840F0B5819AF8006085F8DB
:104E9000226094E8030000258AE80300F4218DF8DD
:104EA0002410504609AA0095022377218DF8255039
:104EB000FDF796FA002840F08081CA4EB3787578E5
:104EC00094E803009B0003F01C0343EA451500230C
:104ED00087E803004FF0F50E0093384608AA022336
:104EE00077218DF821508DF820E0FDF779FA002820
:104EF00040F05E8194E8030073790EAA82E8030013
:104F0000002703F007011046F2258DF81D100097C9
:104F100007AA022377218DF81C50FDF761FA0028BB
:104F200040F0418135783379F27894E8030005F058
:104F300003059B0045EA421503F01C030CAE4FF03D
:104F4000000E86E803001D43F42706AA3046CDF87C
:104F500000E0022377218DF819508DF81870FDF7C5
:104F60003FFA002840F01A8194E803000AAD0023BC
:104F700085E80300D0240093284605AA0123772161
:104F80008DF81440FDF72CFA0446D0B928460DF1EF
:104F9000170201237721FDF777FA0446002840F035
:104FA00019819DF8170056B0BDE8F08781468E49FB
:104FB0000220FBF70FFD0DF5A4785FFA89F9FFF7E2
:104FC00003BB89490220FBF705FDE0B256B0BDE8FE
:104FD000F08785490220FBF7FDFCF6B257E78249CE
:104FE0000220FBF7F7FCFBB22BE77F490220FBF71F
:104FF000F1FCF6B203E77C490220FBF7EBFCF6B2CA
:10500000D7E679490220FBF7E5FCF6B2ADE6764932
:105010000220FBF7DFFCFFB286E673490220FBF7B4
:10502000D9FC5FFA89F75CE66F490220FBF7D2FCF6
:105030005FFA8AFA32E66C490220FBF7CBFC5FFA92
:1050400089F909E668490220FBF7C4FC5FFA89F98F
:10505000DFE565490220FBF7BDFC5FFA89F9B5E59C
:1050600061490220FBF7B6FC5FFA89F98BE55E49DE
:105070000220FBF7AFFC5FFA89F962E55A4902208A
:10508000FBF7A8FC5FFA89F937E557490220FBF7DF
:10509000A1FC5FFA89F90EE553490220FBF79AFC5F
:1050A0005FFA89F9E4E450490220FBF793FC5FFAC8
:1050B00089F9BAE44C490220FBF78CFC5FFA89F9C4
:1050C00090E449490220FBF785FC5FFA89F967E41F
:1050D00045490220FBF77EFC5FFA89F939E4424931
:1050E0000220FBF777FC5FFA89F910E43E490220C1
:1050F000FBF770FC5FFA89F9FFF7E6BB3A4902203B
:10510000FBF768FC5FFA89F9FFF7BBBB3649022061
:10511000FBF760FC5FFA89F9FFF790BB3249022088
:10512000FBF758FC5FFA89F9FFF766BB2E490220AE
:10513000FBF750FC5FFA89F9FFF73ABB2A490220D6
:10514000FBF748FC5FFA89F9FFF710BB26490220FC
:10515000FBF740FC5FFA89F9FFF7E5BA2249022024
:10516000FBF738FC5FFA89F9FFF7BABA1E4902204B
:10517000FBF730FC5FFA89F9FFF78FBA1A49022072
:10518000FBF728FC5FFA89F9FFF765BA1649022098
:10519000FBF720FC5FFA85FEFFF738BA13490220BF
:1051A000FBF718FCE0E611490220FBF713FCB9E617
:1051B0000E490220FBF70EFC9CE60C490220FBF78F
:1051C00009FC7AE60A490220FBF704FC5FFA89F938
:1051D000FFF7FAB906490220FBF7FCFBE0B256B034
:1051E000BDE8F08770090020E08F000054900000B7
:1051F0001890000075490220FBF7ECFBF6B246E67A
:1052000072490220FBF7E6FBFBB21AE66F49022067
:10521000FBF7E0FBF6B2F2E56C490220FBF7DAFBA4
:10522000F6B2C6E569490220FBF7D4FBF6B29CE56D
:1052300066490220FBF7CEFBFFB275E56349022009
:10524000FBF7C8FBFFB24CE560490220FBF7C2FB4D
:105250005FFA8AFA22E55D490220FBF7BBFB5FFAA1
:1052600089F9F9E459490220FBF7B4FB5FFA89F99F
:10527000CFE456490220FBF7ADFB5FFA89F9A5E4BC
:1052800052490220FBF7A6FB5FFA89F97BE44F49FC
:105290000220FBF79FFB5FFA89F952E44B49022099
:1052A000FBF798FB5FFA89F927E448490220FBF7EE
:1052B00091FB5FFA89F9FFF7FEBB44490220FBF737
:1052C00089FB5FFA89F9FFF7D3BB40490220FBF75E
:1052D00081FB5FFA89F9FFF7A8BB3C490220FBF785
:1052E00079FB5FFA89F9FFF77DBB38490220FBF7AC
:1052F00071FB5FFA89F9FFF753BB34490220FBF7D2
:1053000069FB5FFA89F9FFF724BB30490220FBF7FC
:1053100061FB5FFA89F9FFF7FABA2C490220FBF723
:1053200059FB5FFA89F9FFF7CFBA28490220FBF74A
:1053300051FB5FFA89F9FFF7A4BA24490220FBF771
:1053400049FB5FFA89F9FFF779BA20490220FBF798
:1053500041FB5FFA89F9FFF74FBA1C490220FBF7BE
:1053600039FB5FFA89F9FFF723BA18490220FBF7E6
:1053700031FB5FFA89F9FFF7F9B914490220FBF70D
:1053800029FB5FFA89F9FFF7CEB910490220FBF734
:1053900021FB5FFA89F9FFF7A3B90C490220FBF75B
:1053A00019FB5FFA89F9FFF778B908490220FBF782
:1053B00011FB5FFA89F9FFF74EB904490220FBF7A8
:1053C00009FB5FFA85FEFFF721B900BF18900000C6
:1053D0002DE9F04FB1B0FCF7A5F80020FBF7DEFA9D
:1053E00008B1FBF737FC0025674C2F951B262B4691
:1053F0002A461A252C962D954FF0CD6602252CA90C
:1054000020462E968DF8BC50FCF7A6FD002800F033
:10541000B780FBF71FFC5D495D4F1320FBF7DAFAFD
:1054200094E8030006AD85E80300FDF78FFF95E8DB
:105430000300FEF79BF895E80300FDF74BFE95E8A7
:105440000300FDF727FD94E8030008AB83E80300A1
:105450000022012303257A70BA703D70FB703B7106
:105460007B71FFF789F8602802460CBF49494A4919
:105470001320FBF7FBFAFBF74DFB0028FBD10DF1E6
:10548000280B0DF150080DF1700A0DF18009FBF7A2
:10549000DFFBA0F10A036F2B00F2B882DFE813F004
:1054A0002101B602B6022101B602B602B602B60268
:1054B000B602B602B602B602B602B602B602B6022C
:1054C000B602B602B602B602B602B602B602B6021C
:1054D000B602B602B602B602B602B602B602B6020C
:1054E000B602B602B602B602B602B602B602B602FC
:1054F000B602B602B602B602B602B602B602B602EC
:10550000B602B602B602B602B602B602B602B602DB
:10551000B602B602B602B602B602B602B602B602CB
:10552000B602B602B602B602B602B602B602B602BB
:10553000B602B602B602B602B602B602B602B602AB
:10554000B602B602B602B602B602B602B6029902B8
:10555000B602B6027C026E026402B602B602D20144
:10556000B602B602B602B602B6025B01B60252013C
:1055700049017E0040012B01B6023701B6022F011E
:105580002046FCF70DFF46E7008F0000D89300008F
:1055900070090020F493000018940000A64913201D
:1055A000FBF718FA94E8030089E80300FEF754FDBE
:1055B00099E80300FEF776FE99E80300FDF7FCFD8D
:1055C00099E8030022AB83E8030000252AAB83E8B7
:1055D000030005AA0095012353212AA88DF8145031
:1055E000FCF7FEFE002840F04A8201230DF117026D
:1055F00053212AA8FCF748FF002840F0928222ABF2
:1056000093E8030028AA002382E8030013250093EF
:1056100005AA0123532128A88DF81450FCF7E0FEB9
:105620000346002840F0258201230DF11702532183
:1056300028A8FCF729FF0346002840F06C829DF85B
:10564000176022AB93E803001425002326AA82E802
:10565000030000930DEB05020123532126A88DF8CA
:105660001450FCF7BDFE0546002840F0FC810123E4
:105670000DF11702532126A8FCF706FF0546002866
:1056800040F043829DF8175022AB93E8030024AA10
:10569000002382E803004FF0150E009305AA0123B2
:1056A000532124A88DF814E0FCF79AFE002840F05E
:1056B000D28101230DF11702532124A8FCF7E4FE47
:1056C000002840F01A829DF817205C492B0243EA1B
:1056D000064313201A43FBF7C9F994E80300FEF7C9
:1056E00097FAFBF717FA00283FF4D1AEFBF712FA4E
:1056F0000028F6D1CBE694E80300FDF7CBFB0020B1
:10570000FBF7EAFEFBF706FA0028EFD1BFE694E8C4
:105710000300FEF7A1FCFBF7FDF90028E6D1B6E691
:1057200094E80300FDF748FDFBF7F4F90028DDD10C
:10573000ADE694E80300FDF7CDFCFBF7EBF900289C
:10574000D4D1A4E694E80300FDF700FEFBF7E2F9EC
:105750000028CBD19BE63A490220FBF73BF994E8BD
:10576000030000231AAA82E8030088E80300C0258A
:10577000009305AA012329211AA88DF81450FCF7DB
:105780002FFE002840F0628101230DF1170229212C
:105790001AA8FCF779FE002840F0AA8198E80300D7
:1057A000002318AA82E80300C125009305AA01235B
:1057B000292118A88DF81450FCF712FE002840F09B
:1057C000408101230DF11702292118A8FCF75CFE86
:1057D000002840F0888198E80300002316AA82E898
:1057E0000300C225009305AA0123292116A88DF8DC
:1057F0001450FCF7F5FD002840F01E8101230DF147
:105800001702292116A8FCF73FFE002840F0668108
:10581000512298E80300FDF741FA612298E803005D
:10582000FDF73CFA0020FBF757FEFBF773F9002861
:105830007FF45CAF2BE600BFB09400003C94000006
:105840005894000094E80300002512AB83E803009D
:105850008BE803000123009505AA532112A88DF8B7
:105860001450FCF7BDFD002840F0228101230DF10A
:105870001702532112A8FCF707FE002840F01D81F3
:105880009BE80300002310AA82E80300132500937D
:1058900005AA0123532110A88DF81450FCF7A0FD90
:1058A0000346002840F0FE8001230DF1170253212A
:1058B00010A8FCF7E9FD0346002840F009819DF897
:1058C00017609BE80300142500230EAA82E803005A
:1058D00000930DEB0502012353210EA88DF81450FF
:1058E000FCF77EFD0546002840F0D68001230DF12F
:1058F000170253210EA8FCF7C7FD0546002840F00B
:10590000E1809DF817509BE8030000230CAA82E871
:1059100003004FF0150E009305AA012353210CA894
:105920008DF814E0FCF75CFD002840F0AD80012309
:105930000DF1170253210CA8FCF7A6FD002840F03A
:10594000F5809DF817207D492B0243EA06431A4350
:105950001320FBF78BF80020FBF7BEFDFBF7DAF80E
:1059600000287FF4C3AE92E594E80300FEF750F9F7
:10597000FBF7D0F800287FF4B9AE88E594E803007F
:10598000FDF7F4FD94E80300FEF78CFCFBF7C2F88A
:1059900000287FF4ABAE7AE594E803002CAB83E8F3
:1059A0000300032300223B7001237A70BA70FB705E
:1059B0003B717B71FEF7E0FD602832D00246604902
:1059C0001320FBF753F8FBF7A5F800287FF48EAE01
:1059D0005DE55C491320FAF7FDFF94E803008AE8CF
:1059E0000300FDF7B3FC9AE80300FDF7BFFD9AE85A
:1059F0000300FDF76FFB9AE80300FDF74BFA94E80C
:105A000003001EAB83E803000323CBE702464E49A5
:105A10001320FBF72BF8FBF77DF800287FF466AE28
:105A200035E5602249491320FBF720F8FBF772F8AF
:105A300000287FF45BAE2AE545490220FAF7CAFF49
:105A4000E6E643490220FAF7C5FFC4E640490220D2
:105A5000FAF7C0FFA2E603903D490220FAF7BAFF29
:105A6000039BDAB231E63A490220EDB2FAF7B2FF0F
:105A70000AE637490220DEB2FAF7ACFFE1E5344925
:105A80000220FAF7A7FFBAE5039031490220FAF79E
:105A9000A1FF039BDAB256E72D490220EDB2FAF7D7
:105AA00099FF30E72A490220DEB2FAF793FF08E7B0
:105AB00027490220FAF78EFFE2E626490220FAF78C
:105AC00089FFDDE623490220EDB2FAF783FF1AE7EA
:105AD00020490220DEB2FAF77DFFF2E61D490220DE
:105AE000FAF778FF94E61B490220FAF773FF72E693
:105AF00018490220FAF76EFF50E60390154902207C
:105B0000FAF768FF039BDAB2DFE512490220EDB233
:105B1000FAF760FFB8E50F490220DEB2FAF75AFF44
:105B20008FE50C490220FAF755FF68E50390094913
:105B30000220FAF74FFF039BDAB204E73C9400001F
:105B40001894000088940000D0940000F4930000A2
:105B5000E08F0000189000002DE9F84F4300DFF8B7
:105B600070A11E180AEBC6068846F16A012917467D
:105B700041D031D3022939D1013000EB4000756AA0
:105B80004FEAC0094FF0000B1CE0326A641BBC42B4
:105B90000AEB09012346A2EB050428BF3B469C42C1
:105BA000486828BF1C4628444146224602F0DCFBD8
:105BB000336A25449D4208BF00253F1BA344A044EF
:105BC000756215D0B36AAB4203F1FF34DDD8326A97
:105BD0001344013B5C1BDAE7B16A726A91429CBFD5
:105BE000346A091901398A1A974236D94FF0000BE5
:105BF0005846BDE8F88FB16A756AA94227D90139BC
:105C0000326AC5EB010B03440AEBC30ABB45DAF861
:105C100024502F4B28BFBB46561B0130B34500EB29
:105C200040003BD303EBC004324660684146284441
:105C3000C6EB0B0502F098FB606808EB06012A46EC
:105C400002F092FBCAF824505846BDE8F88F326A39
:105C50008C18013CC5EB040BD5E703440AEBC30ADF
:105C60000130DAF82460DAF82040194BA41BA7426F
:105C700000EB40001ED303EBC00522466868414696
:105C800030443E1B02F070FB686808EB04013246AA
:105C900002F06AFBBB46CAF82460A9E703EBC00325
:105CA000414658685A4628445D4402F05DFBCAF8F4
:105CB00024509DE703EBC003414658683A46304400
:105CC0003E4402F051FBBB46CAF8246090E700BF97
:105CD0007C0900202DE9F047404EDFF81481DFF801
:105CE000149182B03546002318460193FBF774FBEC
:105CF0003378002B48D0B46D776DBC421CD804D1EA
:105D00000020019BFBF782FBEDE74FF0010A0DF14C
:105D10000300F16C01222144013402F025FBB4653B
:105D20000020019BFBF772FBBAF1010FDBD19DF85C
:105D3000030002B0BDE8F0872B6DE96CC4EB030AE9
:105D4000BAF1010F28BF4FF0010A214452460DF16C
:105D5000030002F009FB2B6D54449C4208BF002451
:105D60003F1BCAF10100B84228BF384600282DD198
:105D7000BAF1000FC4D0B465019BFBF747FB9DF857
:105D8000030002B0BDE8F0874FF4007E144FAB6211
:105D900010246B620222AB65EB626B65EB65114907
:105DA000C5F820E01048C5F81880C5F81C90C5F863
:105DB0004880EF642C652A616A6102F013FB0B498D
