:10000000000001201D44000045440000474400005A
:10001000494400004B4400004D4400000000000033
:100020000000000000000000000000004F4400003D
:1000300051440000000000005344000055440000FB
:10004000574400005744000085320000D5250000C9
:10005000CD270000574400007916000057440000E7
:100060005744000057440000574400005744000024
:100070005744000057440000574400005744000014
:1000800057440000750D000057440000574400001D
:10009000390E000057440000574400005744000048
:1000A00057440000574400005744000057440000E4
:1000B000574400005744000000000000000000000A
:1000C00057440000574400005744000057440000C4
:1000D000574400005744000057440000000000004F
:1000E0000000000000000000000000000000000010
:1000F0000000000000000000000000000000000000
:1001000000000000000000000000000000000000EF
:1001100000000000000000000000000000000000DF
:1004000010B5054C237833B9044B13B10448AFF34E
:1004100000800123237010BDE801002000000000CF
:1004200080580000084B10B51BB108490848AFF3CD
:1004300000800848036803B910BD074B002BFBD0B0
:10044000BDE81040184700BF00000000EC0100208C
:1004500080580000E401002000000000154B002B34
:1004600008BF134B9D46A3F5803A00218B460F46EB
:100470001348144A121A00F065F80F4B002B00D0F5
:1004800098470E4B002B00D0984700200021040015
:100490000D000D48002802D00C48AFF3008000F09A
:1004A0002BF82000290003F067F900F011F800BFD5
:1004B0000000080000000120000000000000000013
:1004C000E8010020080800200000000000000000F3
:1004D00008B5074B044613B10021AFF30080054B6C
:1004E0001868836A03B19847204600F033F800BFCC
:1004F00000000000F850000070B50E4B0E4CE41ADE
:10050000A41000251E46A54204D056F82530984771
:100510000135F8E704F0E4FD084C094BE41AA41097
:1005200000251E46A54204D056F8253098470135CF
:10053000F8E770BDDC010020DC010020E0010020B4
:10054000DC01002002440346934202D003F8011B61
:10055000FAE77047FEE700BF0378012B04BF014AAA
:1005600013707047040300202DE9F04FC7B01C46FC
:100570009248002914BF0A23002316460D46009313
:1005800002F03CFD002840F0E480002C00F0E58003
:1005900006AB83460193519B539A9E1820250296E1
:1005A00058460099019A0B46034404933133D318FB
:1005B0000393171800295FD07B4203F003038B429B
:1005C00028BF0B46062900F2EB800B46019A012B4F
:1005D000155407F1010200F0E180022B7D7007F154
:1005E000020200F0DB80032BBD7007F1030200F074
:1005F000D580042BFD7007F1040200F0CF80062B9C
:100600003D7107F1050240F0D1807D71BA1D9E4613
:10061000009999422ED0009EC3EB060AAAF104016C
:1006200006F1FF3B8908C3EB0B0B0131BBF1020F55
:100630004FEA810C12D90344019E4FF0203001296A
:1006400006EB030BF05005D00229CBF8040001D0D3
:10065000CBF80800D4456244E6440BD000981570EE
:100660000EF10103834205D20EF1020E7045557062
:1006700000D99570009B1F44039B059707F1330930
:1006800007F1030A264603F101084C46029FDDF8F4
:1006900044910DE00AF8035C0AF8025C0AF8015C78
:1006A0000AF1030AA24508F8015C08F101082FD0FD
:1006B000BE42EFD24E456BD2509B13F806B00AF8FB
:1006C000015C4FEA2B105FFA80FE09280BF00F0047
:1006D000D4BF0EF1300E0EF1370E092894BF303022
:1006E00037300AF803EC0AF8020C04F039F85844E1
:1006F0000AF1030A407810F0970F08BF4FF02E0B55
:10070000A24508F801BC06F1010608F10108CFD1A5
:10071000049B03980297059F019903F1430A0D2258
:100720000A23027443745246254887F8305004F077
:1007300033F85FFA8AF222492048344602F088FBF7
:1007400038B91E4802F05AFC18B9029B9C42FFF4CB
:1007500028AF204647B0BDE8F08F55B306A82B68F8
:10076000184A01904FF4807104F022F80028F0DB61
:100770000546304604F04EF8019BC22828BFC2202F
:10078000834602463146581904F006F8AB4402E7A6
:10079000C9EB0600529B13F800B090E79E4637E77E
:1007A000002B7FF413AF3A469E4634E74FF0050E18
:1007B0002EE706AB25460193DBE700BF640000206F
:1007C000040200201C5100002DE9F0416B48C6B026
:1007D0000C4616461D4602F011FCA8B9C4B106AF7E
:1007E0002368674A38464FF4807103F0E1FF002820
:1007F0000ADB4C9B8046062B00F2BD80DFE803F04D
:10080000146670327C405200002046B0BDE8F08192
:100810004C9B062B00F2AC80DFE803F0049C969022
:10082000847E8A004FF00008304603F0F3FF00EBAF
:100830000803FF2B044640F29380002CE4DB08EB16
:100840000402B2F5807FDFD8D4B206A94D4803F088
:10085000A3FF22464B49494802F0FAFAB0FA80F069
:100860004009D2E7C0F58071AA686C682B680192D4
:100870000094324607EB080003F09AFF0446DCE7D9
:10088000C0F580712869EA682B680390AC686D68D0
:10089000009502920194324607EB080003F088FFAE
:1008A0000446CAE7C0F580716A6928692B6804921A
:1008B000EA680390AC686D68009502920194324634
:1008C00007EB080003F074FF0446B6E7C0F580713B
:1008D0002B68324607EB080003F06AFF0446ACE7DA
:1008E000C0F580716A682B68009207EB08003246F9
:1008F00003F05EFF0446A0E7C0F58071EA68AC68CB
:100900002B686D68009502920194324607EB08004F
:1009100003F04EFF044690E74FF480714FF000085B
:1009200006AFAFE74FF480714FF0000806AFE5E780
:100930004FF480714FF0000806AFB5E74FF48071B7
:100940004FF0000806AF8FE74FF480714FF00008BA
:1009500006AFC7E74FF480714FF0000806AFB7E766
:1009600006AB314603EB0800224603F015FF64E7AF
:100970000024224669E7002461E700BF64000020EC
:100980001C51000004020020F0B51A4F3B7889B0DA
:100990001BB1194B1B78834229D0184D06460FCD49
:1009A0006C460FC495E80F004FF0000E84E80F006E
:1009B0000625052107224FF0EB7311480391082407
:1009C00002928DF814E000950194069302F08AF9E2
:1009D000002E0C4A0A4818BF0022694602F03AF875
:1009E00018B9054A012316703B7009B0F0BD00200C
:1009F00009B0F0BD0603002005030020FC500000F4
:100A0000640000205905000000487047C907000035
:100A1000004870476905000010B50E4B1B7882B086
:100A200073B90D4C0D48237001220DF1070102F03E
:100A3000F1FA2378002BFCD09DF8070002B010BD1E
:100A400001220DF10701054802F0E4FA9DF80700C4
:100A500002B010BD05030020040300206400002044
:100A600038B50020FFF790FF044668B9FFF7CCFFC8
:100A70000546FFF7CDFF054BFF22C3F810541C605D
:100A80005C60C3F814049A60204638BD0803002057
:100A90000120FFF779BF00BF2DE9F041224C064647
:100AA00000200D46A76800F0F1FCA2686368D4F846
:100AB000008013440133C8EB0303012B1BD8ABB1F7
:100AC0000121002361F301036FF38203052161F328
:100AD000C50308EA0202154904EB82026FF3891389
:100AE00008F1010761F39F232760D3600020BDE870
:100AF000F04100F0E5BC08F101030020236000F0A4
:100B0000DFFC0122002362F301036FF3820307EA93
:100B1000080766F3C50304EB87046FF3891365F3D5
:100B20009F23E360BDE8F08108030020245100000A
:100B30002DE9F843264C8046002016460F46A5684E
:100B400000F0A4FCA2686368D4F800901344013359
:100B5000C9EB0303022B1BD8ABB10121002361F3C6
:100B600001036FF38203052161F3C50309EA020261
:100B7000184804EB82026FF3891309F1010160F355
:100B80009F232160D3600020BDE8F84300F098BCAB
:100B900009F102030020236000F092FC01220023EF
:100BA00062F3010309EB02016FF3820305EA09090D
:100BB00068F3C5030D4004EB890962F3891304EB64
:100BC000850467F39F23C9F80C30E660BDE8F8831D
:100BD00008030020245100002DE9F0474C4E96E810
:100BE0000C009A428AB070D0B06804E0C4F3891255
:100BF00002EB9452134400EA0305023506EB85022A
:100C00000133546814F00302F0D0022A28D0C4F350
:100C10008312C4F3952C002A75D00DF1100E754681
:100C2000D71800EA030106EB81010133C96845F8D2
:100C3000041BBB42F5D10092C4F3C2007346624666
:100C4000D6F81044324D0021A04738B177603068A3
:100C5000C01B18BF01200AB0BDE8F0876F68F6E737
:100C600003F1010A20EA0A010340013106EB830384
:100C700089004FEA94588845DA68DFF894E0C4F3B5
:100C8000891326D9A9B300EA0A0C5FFA81F90EEBA1
:100C90008C0CC9EB08010CF10C0C0EF10C00C9B264
:100CA00003910290CDF80490CDF800C00021C4F368
:100CB000C200D6F81474B847404520D006EB85052D
:100CC00060F38F146C607768C1E700200AB0BDE85C
:100CD000F08700EA0A000EEB80000C308DE801017D
:100CE0000021DEF8149403910291C4F3C200C847B6
:100CF000E2E70EF10C0C08465FFA88F9D0E7033002
:100D00000AEB9007A2E71F460DF1100E93E700BF14
:100D100008030020FFF780BE00B585B000230390D4
:100D2000194601AA44F20100ADF80430029300F024
:100D300003F805B05DF804FB08B50B490120FFF787
:100D4000ABFEFFF7A5FEFFF747FF0028FBD1BFF37F
:100D50004F8F0649064BCA6802F4E0621343CB602A
:100D6000BFF34F8F00BFFDE73051000000ED00E002
:100D70000400FA052DE9F843274A284B0025C2F85C
:100D80004051C2F84451C2F84851C2F84C51C2F81F
:100D90000051C2F804511B681BB32149D2F8042545
:100DA0000C68204F141B1A6824F07F44A242A84606
:100DB00009D8197CDE69A41A1544A1B91EB13346BD
:100DC0001A68A242F5D9184B18491A780B789A423A
:100DD0001BD01749174A41F823504FF48013C2F82B
:100DE0000031BDE8F883D3F8149083F810803A6896
:100DF0009B69484619462AB190470028DED0FFF784
:100E00008BFFDBE71846C847D8E7531CDBB2022B41
:100E100008BF00230B70DCE700100140240700200E
:100E200020070020280700202C0700202D07002085
:100E30003807002000E100E02DE9F04FA44AA54961
:100E400013780978A44889B000680090994200F0AE
:100E5000EB800133DBB2022B08BF002313709F4AE3
:100E600052F82360009B9C4A334423F07F43136075
:100E70004FF0010E9A4B079693F800A0994BCDF8CE
:100E800018A0D3F80090964B5B7801931D46944BC5
:100E9000D3F804B09B7802931C46934B1B780493C1
:100EA0008D4B00271B68039351464A464B460597D6
:100EB000BC4638462646B846A9421AD001EB410442
:100EC00001311BF83470C9B2B14208BF0021022FB2
:100ED0000BEBC40400F08380032FEDD1002BEBD08B
:100EE000DA6918741346002AFAD1A9424FF0010CAE
:100EF000E4D1DDF818A0079E4746BCF1000F40F092
:100F0000A380059A12B1744A03991160002F40F032
:100F10009C82BEF1000F40F0C681B9EB030218BFFE
:100F200001220792059375461E466B4ACDF810B014
:100F3000D2F800C06B4ADFF8B891D646D2F800A0CC
:100F4000694A0023127800931F4606924FF0010869
:100F50009B463DB36A68A9682C46ED69CCEB020359
:100F600023F07F434B4572D80B4423606760A76032
:100F700084F81080E761002E00F08B803168994280
:100F80007ED2304603E01168994269D21046C269A8
:100F90005B1A002AF7D12360E2613346C4611E4622
:100FA000002DD7D1019B9E4500F0A4800EEB4E038F
:100FB000049911F83320039210460EF1010E029AA3
:100FC0005FFA8EFE724508BF4FF0000E012801EB5C
:100FD000C30364D03346012200921E46E0E76468F2
:100FE000002B3FF469AF9C429A4601D115E0BA4606
:100FF000DAF81C70002F3FF45FAFBC42F7D1BA455E
:101000000CD0FC693F68CAF81C40002C3FF454AF78
:1010100023683B44236013464EE71F46DA6932B12A
:1010200013464FF0010CECE70026B64622E72F4BA3
:101030004FF00108C3F80880C44613460392CDF868
:101040001080CDF81480DCE726490A6059E7C2EB2E
:101050000C0222F07F428A4209D28B1A236085E774
:10106000C91A11602360E2613346C46197E72760C3
:101070006760A76084F81080E76156B1316800238B
:10108000CB1A33602346E661A2464FF0010B1E46A1
:1010900086E72346A2464FF0010B1E4680E75C68B8
:1010A000227C009282B99A686260D968A16018694E
:1010B000E0605B69A361069B002B00F0F180009A61
:1010C000626000932A4649E733461E4668E700BF40
:1010D0002C0700202D0700202007002038070020C3
:1010E00030070020240700202E07002000100140B8
:1010F000FEFF7F00009B5A46002B40F0AE8112B1EC
:10110000824BC3F800A0059BB34200F0BF80002EC5
:1011100000F00A817E497F4CD1F8040525783368B8
:10112000CCEB000222F07F420332002D50D17A4DE9
:10113000DFF8ECE1794F4FF48036C1F84463C1F831
:1011400004634FF40036C5F880612E6001250D6000
:10115000DEF800602F2100BF00BF00BF00BF00BF4E
:1011600000BF00BF00BFBE422FD000BF00BF00BF06
:1011700000BF00BF00BF00BF00BF00BF00BF00BF77
:1011800000BF00BF00BF00BF00BF00BF00BF00BF67
:1011900000BF00BF00BF00BF00BF00BF00BF00BF57
:1011A00000BF00BF00BF00BF00BF00BF00BF00BF47
:1011B00000BF00BF00BF00BF00BF00BF00BF00BF37
:1011C00000BF00BF00BF00BF00BF0139C3D1257001
:1011D00093422CBF9C4494444D492CF07F43C1F86A
:1011E0004035D1F80425121A1B1A22F07F4223F051
:1011F0007F4303329A424DD9D1F80435484AC1F8A9
:101200004035126845492F2300BF00BF00BF00BF13
:1012100000BF00BF00BF00BF8A422FD000BF00BF89
:1012200000BF00BF00BF00BF00BF00BF00BF00BFC6
:1012300000BF00BF00BF00BF00BF00BF00BF00BFB6
:1012400000BF00BF00BF00BF00BF00BF00BF00BFA6
:1012500000BF00BF00BF00BF00BF00BF00BF00BF96
:1012600000BF00BF00BF00BF00BF00BF00BF00BF86
:1012700000BF00BF00BF00BF00BF00BF013BC3D124
:10128000254B4FF40032C3F8002103E0079B002BED
:101290007FF43DAF234A0023137009B0BDE8F08FFF
:1012A000039B00935AE6194ADDF800C01768002036
:1012B000054601460446ABB11A68B2421BD8D8684D
:1012C0001C60B61A1144DA6938B10CEB010727F03B
:1012D0007F47DD6198605F601D4613461746704684
:1012E000002BE9D1002840F0BC80002305930123A6
:1012F0000793059E19E6002840F0AC80921B0593E9
:101300001A6001230793059E0FE600BF2407002003
:10131000001001404007002000E100E00024F4003C
:101320006C0000202E0700204F4A504B504D514872
:101330004FF480314FF400370124C3F88070C2F8B5
:1013400048132F23C2F80813546029681D4600BFB4
:1013500000BF00BF00BF00BF00BF00BF00BF814291
:101360002FD000BF00BF00BF00BF00BF00BF00BF45
:1013700000BF00BF00BF00BF00BF00BF00BF00BF75
:1013800000BF00BF00BF00BF00BF00BF00BF00BF65
:1013900000BF00BF00BF00BF00BF00BF00BF00BF55
:1013A00000BF00BF00BF00BF00BF00BF00BF00BF45
:1013B00000BF00BF00BF00BF00BF00BF00BF00BF35
:1013C00000BF013DC3D194602B4A166000BF00BF2F
:1013D00000BF00BF00BF00BF00BF00BF81422FD0D1
:1013E00000BF00BF00BF00BF00BF00BF00BF00BF05
:1013F00000BF00BF00BF00BF00BF00BF00BF00BFF5
:1014000000BF00BF00BF00BF00BF00BF00BF00BFE4
:1014100000BF00BF00BF00BF00BF00BF00BF00BFD4
:1014200000BF00BF00BF00BF00BF00BF00BF00BFC4
:1014300000BF00BF00BF00BF00BF00BF00BF00BFB4
:10144000013BC3D10D4B1E7024E70D4A9DF81010CF
:1014500011705EE50B490F6050E70B4B83F800E01D
:101460004DE6084B1F6040E70010014000E100E03E
:101470006C0000200024F40020070020400700201A
:101480002E070020240700203007002008B5EFF3C6
:101490000583C3F308032BB172B6074A13680133FF
:1014A000136008BDEFF31483DB07F5D5034928204B
:1014B00000F020F8F0E700BF44070020485100008A
:1014C00008B5EFF30583C3F3080333B1074A136884
:1014D000013B136003B962B608BDEFF31483DB0769
:1014E000F4D50349362000F005F8EFE74407002063
:1014F0004851000000B583B06A46ADF80000019184
:1015000044F202000021FFF717FC03B05DF804FB72
:10151000032810B5044603D909492220FFF7EAFF42
:10152000084B1C5D1F2C04D907494FF4DA70FFF7F4
:10153000E1FF01234FF0A042A340C2F80C3510BDDB
:1015400088510000F0510000B8510000032810B588
:1015500004460FD80A4B1C5D1F2C04D909494FF4CF
:10156000DA70FFF7C7FF01234FF0A042A340C2F893
:10157000083510BD04492820FFF7BCFFEAE700BF8B
:10158000F0510000B851000088510000032810B548
:10159000044603D90D494020FFF7ACFF0C4B1C5DFE
:1015A0001F2C04D90B494FF4DA70FFF7A3FF4FF05B
:1015B000A0410122D1F8040502FA04F323EA000253
:1015C0000340C1F80825C1F80C3510BD8851000052
:1015D000F0510000B851000030B44FF0A043032296
:1015E0004FF400354FF480244FF400204FF4801165
:1015F000C3F84427C3F84827C3F84C27C3F850273B
:10160000C3F80855C3F80845C3F80805C3F808151A
:1016100030BC7047072938B50D46044618D8002C51
:101620001DDB04F1604303F561436D01EDB283F806
:101630000053E3B26009800000F1604000F56140B2
:1016400003F01F0201239340C0F88031036038BDCE
:1016500007494FF48470FFF74DFF002CE1DAE3B245
:10166000044A03F00F016D010A44EDB21576E1E77B
:10167000F4510000FCEC00E02DE9F04F89B00026A9
:10168000CC4B03961A68012A00F04382CA4B1A68B1
:10169000012A00F03082C94B1A68012A00F01D822D
:1016A000C74B1A68012A00F00A82C64B1A68012A41
:1016B00000F0F781C44B1A68012A00F0E481C34BA3
:1016C0001A68012A00F0D181C14B1A68012A00F082
:1016D000BE81C04B1A68012A00F0AC8116F0FF0FE2
:1016E0001AD0BD4F01250024A30003F180432E42F0
:1016F00003F5C0434FEA45050BD0D3F8100557F862
:101700002420D3F81015C0F30420C1F3014102B125
:1017100090470134082CE7D1002E02DB09B0BDE868
:10172000F08FAD4E4FF0FF33059396F95030002205
:101730005C1C3746049200F0F180DBB223F0C00954
:1017400008AA4FEAD90102EB010A03F007001AF8D0
:101750000C2C4FF0010808FA00F812EA080422D015
:1017600007EB09029D0992F9303057F823B0BBF11D
:10177000000F00F04481032D00F04481B9F11F0FE8
:1017800000F22E814FEA890303F1A0431AF8144CAA
:10179000D3F8002714EA0804C2F3014240F0D680CF
:1017A000032A00F00E8296F95130581C34D0DBB277
:1017B00023F0C00908A94FEAD90201EB020A03F09D
:1017C00007001AF80C1C4FF0010808FA00F811EA9B
:1017D000080F21D007EB09019D0991F9303057F826
:1017E0002330002B00F01D81032D00F01D81B9F185
:1017F0001F0F00F2C6804FEA890B0BF1A04B1AF8BD
:10180000141CDBF8002711EA080FC2F3014240F074
:10181000AB80032A00F0BE8196F95230591C33D0B8
:10182000DBB223F0C00908A94FEAD90201EB020A92
:1018300003F007001AF80C1C4FF0010808FA00F832
:1018400011EA080F20D007EB09019D0991F930300A
:1018500057F82330002B00F0C980032D00F0C98019
:10186000B9F11F0F00F295804FEA890B0BF1A04BE5
:101870001AF8141CDBF8002711EA080FC2F3014222
:101880004ED1032A00F06F8196F953305A1C32D0A2
:10189000DBB223F0C00908A94FEAD90201EB020A22
:1018A00003F007001AF80C1C4FF0010808FA00F8C2
:1018B00011EA080F1FD007EB09019D0991F930309B
:1018C00057F82330002B00F0A380032D00F0A380F5
:1018D000B9F11F0F65D84FEA890B0BF1A04B1AF82D
:1018E000141CDBF8002711EA080FC2F3014222D1D1
:1018F000032A00F01A81002C3FF410AF4FF0A043F0
:10190000039AD3F8103593423FF408AF039396F946
:101910005030049A05925C1C7FF40FAF002442E71C
:10192000022AB1D1032D00F06181002BACD02946F1
:1019300048469847A8E7022ADDD1032D00F05981D7
:10194000002BD8D0294648469847D4E7022AE5D14B
:10195000032D00F074810024BBF1000F3FF423AF8E
:1019600029464846D8471EE7022A7FF455AF032D83
:1019700000F04281002B3FF44FAF2946484698477C
:101980004AE7164901934FF4DA70FFF7B3FD019B64
:1019900031E7124901934FF4DA70FFF7ABFD019B79
:1019A00062E70E4901934FF4DA70FFF7A3FD019B44
:1019B00091E700BF00610040046100400861004001
:1019C0000C6100401061004014610040186100404B
:1019D0001C6100407C61004048070020B8510000B5
:1019E00098494FF4DA70FFF785FDCBE6032D7FF4BD
:1019F0004BAF04A8815C41EA0801815430E7032D14
:101A000040F0AD8004AA535C43EA08035354B5E6A2
:101A1000032D7FF470AF04A8815C41EA0801815472
:101A200056E7032D7FF4F8AE04A8815C41EA080173
:101A30008154DCE600221A601B6807934FF0A04334
:101A4000079AD3F81035039346F0004646E67E4ADF
:101A5000D2F8042315067FF53CAE00221A601B68FD
:101A60000693069B46F0800633E6774AD2F80423B5
:101A700057067FF529AE00221A601B680693069B65
:101A800046F0400620E6704AD2F8042392067FF51D
:101A900016AE00221A601B680693069B46F02006CD
:101AA0000DE6694AD2F80423D1067FF503AE002281
:101AB0001A601B680693069B46F01006FAE5624A18
:101AC000D2F8042310077FF5F0AD00221A601B68DE
:101AD0000693069B46F00806E7E55B4AD2F8042326
:101AE00054077FF5DDAD00221A601B680693069B44
:101AF00046F00406D4E5544AD2F8042395077FF54E
:101B0000CAAD00221A601B680693069B46F00206C7
:101B1000C1E54D49D1F8041311F0010121D01E6037
:101B20001B680693069B1646B0E5032D7FF408AFAD
:101B30004FF40038B9F11F0F79D8DBF8001721F402
:101B40004031CBF80017DBF80027013448EA0202E5
:101B5000E4B2CBF80027002B7FF4F4AECEE65C466F
:101B600021E60E4692E5032D7FF4DFAE4FF40038F8
:101B7000B9F11F0F53D8DBF8001721F44031CBF82F
:101B80000017DBF80027013448EA0202E4B2CBF880
:101B90000027CAE6032D7FF4EDAE4FF40038B9F10B
:101BA0001F0F34D8DBF8001721F44031CBF80017B1
:101BB000DBF80027013448EA0202E4B2CBF8002740
:101BC000D8E6032D7FF4C8AE4FF40034B9F11F0FEF
:101BD00015D8D3F8001721F44031C3F80017D3F813
:101BE00000272243C3F800270124B5E64FF440380C
:101BF000BEE74FF440389DE74FF44038CFE7114936
:101C000001934FF4DA70FFF775FC019BE1E70D4992
:101C100001934FF4DA70FFF76DFC019BC2E70949AD
:101C200001934FF4DA70FFF765FC019BA3E70549C8
:101C300001934FF4DA70FFF75DFC019B7DE74FF4F1
:101C40004034C3E7B8510000006000402DE9F04186
:101C50000024C1F804418EB0D1F804510495049DCC
:101C6000C1F82441D1F824510395039DC1F81C41CA
:101C7000D1F81C510295029DC1F80841D1F80851D4
:101C80000195012B80F8264080F82340019D0CBF70
:101C9000022401240125C1F800420D620D60046890
:101CA0004CB140F2862383608368C1F8043300207E
:101CB0000EB0BDE8F0812E4603F1FF3E4FF0020C5E
:101CC00090F82350002D3BD1D1F8247190F8268054
:101CD000002F48D0C1F82451D1F824510A950A9D0B
:101CE0004E6180F823604345EAD1D1F80451002DBC
:101CF000E6D00023C1F80431D1F8042190F8233054
:101D00000592059AC3B1D1F8C434C1F8C4349BB16B
:101D100013F0010F18BF4FF4024048F2012208BF30
:101D2000032013F0020F18BF104648F2022213F0EE
:101D3000040F18BF1046BBE700200EB0BDE8F081CD
:101D4000C1F82441D1F824510B950B9DC1F81C41D9
:101D5000D1F81C510C950C9DC1F80841D1F80851DF
:101D60000D950D9DC1E7D1F81C51ADB1C1F81C71A5
:101D7000D1F81C510995099DD1F824511DBB90F84B
:101D80002650AB423DD9555DC1F81C5590F8265000
:101D9000013580F82650A6E7D1F80871002FA2D0AF
:101DA000C1F80851D1F808710797079FD1F824713D
:101DB0009FB1C1F82451D1F824510695069D4E617A
:101DC00080F823608FE7C1F82471D1F82451089579
:101DD000089D4E6180F8236085E790F82650AB425D
:101DE00081D9D1F81875575590F826500135EDB2C4
:101DF000754580F8265006D0AB423FF474AF0E62B2
:101E000071E74E616FE7C1F800C2F8E72DE9F043D2
:101E10000024C1F804418FB0D1F804510495049D09
:101E2000C1F82441D1F824510395039DC1F81C4108
:101E3000D1F81C510295029DC1F80841D1F8085112
:101E400001950125019EC1F8004280F8264080F8E6
:101E500023400D628D6090F826409DF85870A34293
:101E600013D9145DC1F81C4590F826402C4480F825
:101E7000264004687CB140F2862383608368C1F801
:101E8000043300200FB0BDE8F083002F48D0CD61AF
:101E90000468002CEFD103F1FF3C4FF0010E4FF02E
:101EA000020890F82350002D3CD1D1F8246190F81D
:101EB0002690002E49D0C1F82451D1F824510A951A
:101EC0000A9DC1F814E080F823E04B45E9D1D1F830
:101ED0000451002DE5D00023C1F80431D1F80431BC
:101EE0000593059B90F82330002B6AD0D1F8C434B9
:101EF000C1F8C434002B64D013F0010F18BF4FF4A5
:101F0000024048F2012208BF032013F0020F18BF5D
:101F1000104648F2022213F0040F18BF1046B1E732
:101F20004D61A6E7C1F82441D1F824510B950B9DD2
:101F3000C1F81C41D1F81C510C950C9DC1F8084109
:101F4000D1F808510D950D9DC1E7D1F81C51ADB1E7
:101F5000C1F81C61D1F81C510995099DD1F8245193
:101F600025BB90F82650AB4245D9555DC1F81C55AC
:101F700090F82650013580F82650A6E7D1F8086180
:101F8000002EA2D0C1F80851D1F808610796079E2B
:101F9000D1F82461CEB1C1F82451D1F8245106956D
:101FA000069DC1F814E080F823E08EE7C1F82461B3
:101FB000D1F824510895089DC1F814E080F823E079
:101FC00083E700200FB0BDE8F08390F82650AB42C5
:101FD0007FF67BAFD1F81865565590F8265001353D
:101FE000EDB2654580F826500CD0AB423FF46DAFA2
:101FF000C1F820E069E717B10123CB6172E7C1F8AE
:1020000014E062E7C1F80082F2E700BF2DE9F04F6B
:10201000804683B00C46002900F0F38194E8030069
:1020200088424AD098F80450654EAF007919C9002B
:10203000701890F822E0BEF1000F03D0082003B022
:10204000BDE8F08F7250C0F808E0436080F825E0EA
:1020500080F824E0A37B80F82730637BB3BB236840
:102060004FF0A04103F5E07340F20C6041F823000B
:10207000636803F5E0737A1941F82300D8F800305B
:102080002168606856F83220C3F80815C3F80C05BB
:10209000A168C3F8241532B1D8F80000217B40F3C1
:1020A0000730FFF7B7FA3D4406EBC50501230020D2
:1020B00085F8223003B0BDE8F08F4249D6208DE884
:1020C0000C00FFF717FA9DE80C00ABE723684FF010
:1020D000A04203F5E07340F20C6142F823106368FC
:1020E00003F5E07342F82310D4F80090B9F11F0F04
:1020F00000F2908101234FF0A04203FA09F3C2F8E5
:102100000835D4F80490B9F11F0F00F289814FF01F
:10211000A043012202FA09F2C3F808252168DFF87A
:10212000AC90294A01F5E07140F20D6043F82100BE
:10213000616801F5E07143F821000423D9F800102B
:1021400000BF00BF00BF00BF00BF00BF00BF00BF97
:1021500091422FD000BF00BF00BF00BF00BF00BF33
:1021600000BF00BF00BF00BF00BF00BF00BF00BF77
:1021700000BF00BF00BF00BF00BF00BF00BF00BF67
:1021800000BF00BF00BF00BF00BF00BF00BF00BF57
:1021900000BF00BF00BF00BF00BF00BF00BF00BF47
:1021A00000BF00BF00BF00BF00BF00BF00BF00BF37
:1021B00000BF00BF013BC3D14FF0000B9246A5E02A
:1021C000A00700207C5200000024F4006C000020D6
:1021D0004FF0A041D1F8101521FA03F3DB0700F10D
:1021E000B38023681F2B00F2A78001214FF0A0408D
:1021F00001FA03F3C0F80C35D9F80010042300BF2E
:1022000000BF00BF00BF00BF00BF00BF00BF5145FF
:102210002FD000BF00BF00BF00BF00BF00BF00BF86
:1022200000BF00BF00BF00BF00BF00BF00BF00BFB6
:1022300000BF00BF00BF00BF00BF00BF00BF00BFA6
:1022400000BF00BF00BF00BF00BF00BF00BF00BF96
:1022500000BF00BF00BF00BF00BF00BF00BF00BF86
:1022600000BF00BF00BF00BF00BF00BF00BF00BF76
:1022700000BF013BC3D123681F2B53D84FF0A04EA2
:1022800001209840CEF80805042300BF00BF00BF1E
:1022900000BF00BF00BF00BF00BF51452FD000BF2F
:1022A00000BF00BF00BF00BF00BF00BF00BF00BF36
:1022B00000BF00BF00BF00BF00BF00BF00BF00BF26
:1022C00000BF00BF00BF00BF00BF00BF00BF00BF16
:1022D00000BF00BF00BF00BF00BF00BF00BF00BF06
:1022E00000BF00BF00BF00BF00BF00BF00BF00BFF6
:1022F00000BF00BF00BF00BF00BF00BF00BF013B69
:10230000C3D10BF1010BBBF1090F21D063681F2B67
:102310007FF65EAF4B4900934FF4DA70FFF7EAF8AF
:10232000009B55E7474900934FF4DA70FFF7E2F856
:10233000454B1968009BA1E7424900934FF4DA70BE
:10234000FFF7D8F8009B50E7BBF1000F3FF487AED2
:10235000D4F804A0BAF11F0F6ED84FF0A0420123A9
:1023600003FA0AF3C2F80C35D9F8002037490423E0
:1023700000BF00BF00BF00BF00BF00BF00BF00BF65
:102380008A422FD000BF00BF00BF00BF00BF00BF08
:1023900000BF00BF00BF00BF00BF00BF00BF00BF45
:1023A00000BF00BF00BF00BF00BF00BF00BF00BF35
:1023B00000BF00BF00BF00BF00BF00BF00BF00BF25
:1023C00000BF00BF00BF00BF00BF00BF00BF00BF15
:1023D00000BF00BF00BF00BF00BF00BF00BF00BF05
:1023E00000BF00BF013BC3D1D4F80490B9F11F0F67
:1023F0001CD801234FF0A04203FA09F3C2F80835B4
:102400002DE61349D5208DE80C00FFF773F89DE801
:102410000C0003E60B494FF4DA70FFF76BF869E63E
:1024200008494FF4DA70FFF765F870E605494FF494
:10243000DA70FFF75FF8DCE702494FF4DA70FFF774
:1024400059F88AE7B85100006C0000200024F4001D
:102450007C520000F8B504790C4DA7003B1905EB40
:10246000C303064693F82230012B04D008494FF4E9
:10247000A770FFF73FF83C44336805EBC404022122
:10248000052284F82210C3F80025F8BDA00700201B
:102490007C5200002DE9F04F87B003AE9DF840500C
:1024A000002474600394B460C5B9AC460479DFF8C5
:1024B0008880D0F800E004EB8404E4004FF0FF30A3
:1024C00008EB0407CEF8080397F8240050B1BB6866
:1024D000CEF80433112007B0BDE8F08F01254FF08E
:1024E000200CE3E78DF80E308DF80D100492924623
:1024F0008B4696E80700994607F10C0383E807002E
:10250000012187F824104B46CEF888B55246009535
:1025100071463846C7F818C087F82090C7F81CA045
:1025200087F82150FFF772FC58F80430002BD2D105
:1025300087F82430CFE700BFA00700202DE9F04F37
:102540000479234FD0F800E004EB8404E4004FF05A
:10255000FF3007EB040885B0CEF8080301AD98F80A
:102560002460002068600190A8603EB1D8F808306F
:10257000CEF80433112005B0BDE8F08F4FF0010B09
:102580008DF806308DF8051002928DF804B006F033
:10259000FF0C91460E4695E8070008F10C0585E80A
:1025A000070088F824B088F82030CEF88865C8F88D
:1025B00018C04A4671464046C8F81C9088F821C0A9
:1025C000FFF744FB3B59002BD5D188F82430D2E7E4
:1025D000A0070020F0B5794C236891B0002B00F0E3
:1025E000C28094F82310754A754BA9B9D3F8240119
:1025F00092F8206092F8265000284BD0C3F824119E
:10260000D3F8241108910121089882F82310596108
:10261000AE4214D011B0F0BD0022C3F82421D3F88B
:10262000241109910999C3F81C21D3F81C110A91AE
:102630000A99C3F80821D3F808310B930B9B604B20
:10264000D3F80421002AE5D00022C3F80421D3F8EE
:1026500004310393039B94F823305848002B34D162
:10266000017B8B1E012B6AD9564B93E8070010ADF6
:1026700005E9070000238DF83030A3694F49002297
:10268000580784F82420C5D40B6849680CA89847DB
:1026900011B0F0BDD3F81C11D76961B3C3F81C01A8
:1026A000D3F81C1107910799D3F8241192F821E06F
:1026B00000295ED0C3F82401D3F82411069101212A
:1026C000069882F823105961A2E70C3007C810ABB6
:1026D00003E907003A4AD2F8C434C2F8C4349A076E
:1026E00003D501238DF83030C7E75D0744BF0223CF
:1026F0008DF83030C1E7D3F80801002888D0C3F83E
:102700000811D3F8080105900598D3F82401002892
:102710003ED1AE427FF67CAFD3F81815795592F8CA
:1027200026100131C9B2701E814282F826103CD0B9
:102730008E423FF46DAF224B01221A6268E7C269F4
:1027400003699A4290D184694269C37BC261C4F330
:102750004014032980F8214080F8203029D01849FE
:10276000FFF774FA56E7184940F2FF30FEF7C2FE51
:1027700037E7AE4205D80122BEF1000F13D15A61EE
:1027800046E7795DC3F81C156B1C82F826303FE7DD
:10279000C3F82411D3F8241104910121049882F87C
:1027A0002310596134E7DA6155E70222C3F80022A9
:1027B000C1E700940249FFF729FB2BE7A00700209F
:1027C00000300040AC0700207C5200002DE9F043AF
:1027D000954F3A788BB0002A40F088800123DFF8CB
:1027E000708292493B7098F801900B68002B5FFA59
:1027F00089F914BF0123002303D00A600A680092FC
:10280000009A8B4A116800294FEA430314BF012143
:10281000002104D00020106012680192019A854ABC
:102820001068002843EA412314BF0121002104D08D
:102830000020106012680292029A7F4A10680028F5
:1028400043EAC14314BF0124002404D000211160D5
:1028500012680392039A794A1168002943EA0453E3
:1028600014BF0124002404D00021116012680492D6
:10287000049A734A1168002943EA446314BF01248F
:10288000002404D00021116012680592059A53EAD1
:10289000846427D00426012509F1FF39B9F1030F1B
:1028A0003FD8DFE809F0575D022A664B234003BB9F
:1028B0004FF04022D8F80410D2F8D034C2F8D03407
:1028C000D8F80820002B08BF4FF480731A43052066
:1028D0000993C8F808208DF8200009B108A8884796
:1028E0004FF00009002388F801903B700BB0BDE861
:1028F000F08334F4002400F09080534B2340002BED
:10290000D6D04FF040238DF81860D3F83C35D8F876
:102910000420DBB207930AB106A8904734F0020402
:10292000DED014F00203F9D1600144D5E202D8F8F8
:1029300004208DF8183056BF01234FF00209994644
:102940008DF81C300AB106A8904724F0C364002C0F
:10295000A2D1C7E73D4B23402BB134F480145FD0A4
:10296000394B2340BBB94FF04022D8F80410D2F8BD
:10297000D034C2F8D034D8F80820002B08BF4FF468
:1029800080731A4302200993C8F808208DF82000AC
:102990000029A3D1A4E74FF040238DF81850D3F8B5
:1029A0004C35D8F80420DBB20793002AB4D134F0B8
:1029B0000204B6D194E7A30116D504F40023002B3A
:1029C000D8F804304FF003020CBF012100218DF82C
:1029D0001C100CBF91464FF004098DF81820002BF5
:1029E000B3D006A89847B0E74FF04022D8F80410BB
:1029F000D2F8D034C2F8D034D8F80820002B08BF61
:102A00004FF480731A4306200993C8F808208DF804
:102A1000200000297FF462AF62E74FF0040961E70C
:102A20004FF002095EE700BFC807002004410040E4
:102A3000244100404C41004050410040644100406E
:102A4000684100400200080602000006020010066D
:102A5000CC0700202DE9F041064688B00D4600293C
:102A600000F0D78034799A4F64013B19D97E19B1AF
:102A7000082008B0BDE8F081697F1977D5F800809B
:102A8000B8F1FF3F17D0B8F11F0F00F20181012309
:102A90004FF0A04103FA08F3C1F80835D5F80080DB
:102AA000B8F11F0F00F2EC8008F5E0784FF0A0437A
:102AB000032143F82810D5F80480B8F1FF3F0AD06D
:102AC000B8F11F0F00F2D48008F5E0784FF0A04372
:102AD000002143F82810337907EB43131B7F002BA9
:102AE0004CD03368A969C3F82415687D2B7D316803
:102AF0000343C1F86C3595E803003368C3F80C054F
:102B0000C3F814152B7D012B4CD03B1970485A602B
:102B10002B693B51EAB13379297F326800EB4310CE
:102B2000037F002B7ED1C2F81C31D2F81C513268D1
:102B30000295029DC2F84431D2F8442133686548B9
:102B40000392039AC3F80403306840F30730FEF79A
:102B500061FD3379326807EB43131B7F002B54D0A0
:102B60000823C2F800353C4400200123E376E075D9
:102B70002076A075A07608B0BDE8F0813368A96919
:102B8000C3F82415687D2B7D31680343C1F86C358B
:102B9000336829686868C3F81405C3F80C152B7DE1
:102BA000012BB2D1D5F80880B8F1FF3F0AD0B8F1B7
:102BB0001F0F00F2858008F5E0784FF0A043002158
:102BC00043F82810D5F80C80B8F1FF3F28D0B8F1B1
:102BD0001F0F6DD801234FF0A04103FA08F3C1F88D
:102BE0000835D5F80C80B8F11F0F59D84FF0A04325
:102BF00008F5E078032143F82810EB683168A868ED
:102C0000C1F80835C1F810057FE70423C2F8003584
:102C1000A9E731490192EE20FEF76CFC019A21E709
:102C20004346EBE70023C2F81031D2F81051326866
:102C30000495049DC2F82031D2F8205132680595E0
:102C4000059DC2F82431D2F8245132680695069DBC
:102C5000C2F84431D2F84421336807921F48079ADA
:102C6000C3F80403306840F30730FEF7D3FC70E785
:102C70001B4901924FF4DA70FEF73CFC019A23E7FE
:102C8000174901924FF4DA70FEF734FC019A0BE712
:102C9000134901924FF4DA70FEF72CFC019AF6E624
:102CA0000F4901924FF4DA70FEF724FC019A9DE778
:102CB0000B4901924FF4DA70FEF71CFC019A89E788
:102CC000074901924FF4DA70FEF714FC019A72E79B
:102CD000D807002080000200C0520000100302004C
:102CE000B85100002DE9F8430479544E026864019C
:102CF00033191B7F002B00F083800023C2F80035BE
:102D000033194E4A5B68B3B1037902EB4312137F68
:102D1000002B78D103684A4AC3F808230368494D59
:102D20001B0B5AB25209203203F01F03012101FA92
:102D300003F345F82230037906EB43131B7F002B86
:102D400049D003684FF0FF32D3F80C95D3F81485BF
:102D5000D3F80855D3F81075C3F80C25C3F814251B
:102D60000368C3F80825C3F81025B9F1FF3F09D05F
:102D7000B9F11F0F5CD809F5E0794FF0A0430222AA
:102D800043F82920B8F1FF3F09D0B8F11F0F49D807
:102D900008F5E0784FF0A043022243F828207A1C7F
:102DA00008D01F2F38D807F5E0774FF0A043022254
:102DB00043F827206B1C08D01F2D27D805F5E07598
:102DC0004FF0A043022243F8252034440023E37649
:102DD0006360BDE8F88303684FF0FF32D3F80C95C9
:102DE000D3F81485D3F80855D3F81075C3F8142513
:102DF000C3F80C250368C3F80825C3F81025B4E709
:102E0000C2F800357CE703680F4A85E70F494FF4A5
:102E1000DA70FEF76FFBD1E70C494FF4DA70FEF77A
:102E200069FBC0E709494FF4DA70FEF763FBAFE7CF
:102E300006494FF4DA70FEF75DFB9CE7D8070020E7
:102E40008402020000E100E010030200B85100001B
:102E50002DE9F0410679674D7601AB1986B0DB7E2E
:102E6000012B04460F46904604D0634940F27B1084
:102E7000FEF740FBB8F1000F21D06FB123795B0161
:102E8000EA18127F9AB107F06042B2F1005F0ED0EB
:102E9000102006B0BDE8F081574940F27D10FEF7E2
:102EA00029FB23795B01EA18127F002AF0D12B4419
:102EB000504A9B7D4BB1112006B0BDE8F0814E49D0
:102EC0004FF4BE70FEF716FBD7E7164486F816805F
:102ED000B760B382267976013244117F19BB23682B
:102EE000C3F81C11D3F81C01236804900120049F2F
:102EF00098602068D2F808E0C0F81C11D0F81C31A6
:102F00000593059B918A938A576889B201331EF80D
:102F100001109BB29382C0F81C15002F30D0002006
:102F200006B0BDE8F08121689068C1F82031D1F881
:102F3000207121680197019FC1F85831D1F85811CB
:102F400023680291917D029FC3F84405C3F8481598
:102F50002368012199605368002BE0D1236801E0C8
:102F6000002945D1D3F82021D3F85811002AF7D0F1
:102F7000002914BF0F20002035440023AB7588E7DB
:102F8000907D938A9BB2834202F1140122D2216880
:102F900004E0938A9BB2B3F5807F03D0D1F81C3153
:102FA000002BF6D0938A9BB2B3F5807FE9D0C1F8AD
:102FB0001C71D1F81C310393039BB2F814C0938A9F
:102FC0001FFA8CFC01331EF80CC09BB29382C1F82F
:102FD0001CC5D6E70B889BB2B3F5807F08D022686A
:102FE000D2F81C31002BFBD00123D3600020C3E7B3
:102FF0000F20C1E7D8070020C05200000279044B1F
:1030000003EB4213987D003018BF0120704700BFCA
:10301000D80700202DE9F0410479984E6401331956
:1030200088B0DB7E012B05460F46904604D09449BC
:1030300040F23920FEF75EFAB8F1000F64D02B7928
:103040008E4906EB43131B7F43B107F06043B3F196
:10305000005F5FD0102008B0BDE8F08121444A68CD
:10306000002A41D134448549E37D5BBB84F8178055
:10307000E76063762376297949017218107F00286A
:1030800057D1927E8AB983B92A68C2F82431D2F81E
:1030900024012A6803900398C2F80831D2F8082165
:1030A0002B680492012204981A6072185368002B4E
:1030B00075D02B684FF401720020C3F8042308B0C8
:1030C000BDE8F081237ED3B1002A00F0B1802B79D6
:1030D00001EB43110B7F002B5AD02B684FF4047285
:1030E000C3F804231120B6E72B684FF40171344470
:1030F000C3F80813E37D6149002BB7D0E2E72761ED
:1031000084F818800123B6E75D4940F23A20FEF7C3
:10311000F1F994E721444A68002AA3D02B684FF4C0
:1031200004713444C3F80813E37D5449002B9DD047
:10313000C8E72A680021C2F81011D2F810012A68E5
:1031400001900198C2F84411D2F844112A68029102
:103150000299C2F83475C2F838858BB92B68012200
:103160001A602A795201B3185B68002B62D02B6871
:103170004FF404720020C3F8042308B0BDE8F081C6
:103180002A68D2F8003243F02003C2F80032E8E7A0
:103190002B684FF40172C3F8042311205BE7286801
:1031A000C0F84431D0F844310593059B2B68D3F81F
:1031B0002471D3F80841D3F8440144B9002830D130
:1031C000002FF4D031440023CB75032043E7002FB8
:1031D000F8D140BBD47DC3F80801D4B1D3F808417D
:1031E0000694069CD768547ED3F818353B55537E19
:1031F000D47D0133DBB25376537E9C42D6D8314422
:1032000000228B7ECA75002B34D02B6801221A60F5
:1032100021E7D3F808410794079CD3F81835537E6B
:10322000EDE7002FCED131440023CB750F2012E7FC
:10323000112010E72B6801E0A4B9B8B9D3F8101138
:10324000D3F84441D3F824010029F5D000284FF0E9
:103250000003324414BF032018469C42D37518BFA4
:103260000F20F8E632440F20D175F4E632440320F3
:10327000D475F0E62B6801225A60ECE6D8070020EE
:10328000C052000070B59B4C237F8EB0002B75D1CF
:10329000994AD2F80413890548D4974BD3F80423EC
:1032A000520704D5D3F80821002A40F0CA80924B77
:1032B000D3F81C21C2B1A28AA07D8E4992B282426B
:1032C0004FF00002C3F81C2180F0A980D3F81C2124
:1032D0000692069A888A8A8A8D6880B20132285CB2
:1032E00092B28A82C3F81C05834BD3F84421DAB129
:1032F0000022C3F84421D3F84411A27E049104991A
:10330000002A40F08980E27D7A4B6AB10022587E23
:10331000D968DA7501228DF830000B918DF82820DC
:103320000AA893E8060090470EB070BDD2F82411A9
:103330000029B2D0C2F82431D2F82411A37E07911B
:103340004FF401710798C2F808130BB901235360B9
:10335000694A02238DF82830D2F88034C2F88034CC
:10336000E07DE2680D9300238DF83000E37523764D
:1033700021680B9263680AA8984798E75E4BD3F8D8
:103380002421002A40F09380D3F8101161B1C3F8D2
:103390001021D3F8101103910399D3F83C15E07D67
:1033A000C9B2884200F0AA80534BD3F84421B2B18D
:1033B0000022C3F84421D3F84411E07D0191019922
:1033C0004C4960B1D3F83C35C8688DF830300123E2
:1033D000CA750B908DF828300AA80AC99847464B41
:1033E000D3F82021002A9FD00022C3F82021D3F84F
:1033F0002011A07D009100993E49002894D0D3F877
:103400004C058B688DF830008A750B938DF8282059
:103410000AC90AA8984787E701221A6073E7D3F818
:103420001C310593059B00283FF45EAF8B688DF837
:1034300030008A750B938DF828200AC90AA898478E
:1034400052E7E17D2B4A002970D00021C3F8081112
:10345000D3F8081108910899D068517ED3F818352F
:103460004354537ED17D0133DBB25376627E214BD0
:103470008A427FF41CAF1A7E002A6DD19B7E13B95D
:103480001D4B01225A601C4AE06863684FF40171C9
:10349000C2F80813627E8DF83020002501220B90BF
:1034A0002168E5758DF828200AA89847FFE60022D4
:1034B000C3F82421D3F82411029102218DF8281099
:1034C0000299D3F88014C3F880140D91D3F83C15F9
:1034D000E368E27522768DF830100B9321686368FB
:1034E0000AA89847044BD3F84421002A3FF477AF49
:1034F0005EE700BFD807002000200040217EF1B128
:10350000D3F80062E17526F02001E568C3F80012E7
:1035100026698DF8300001238DF828302276216845
:103520000B95E66063680AA898473DE7C3F8081161
:10353000D3F808210992099AD3F8183596E7E2687A
:10354000E17501238DF830008DF828300B9294E856
:103550000A000AA8984727E7DE685D7E1869DA75D1
:1035600001210022D8601A765A768DF828100B9621
:103570008DF8305093E806000AA8904797E600BF00
:1035800030B587B006AB02AD03F8042D002485E802
:1035900003001A460094284601232921FEF77AFFEA
:1035A00050BB01230DF1160229212846FEF7C6FF64
:1035B0000446D0B9284601230DF117022921FEF750
:1035C000BDFF044600BB14490220FDF765FA9DF8D3
:1035D00016009DF81730114943EA002422461320B3
:1035E000FDF7A6FA204607B030BD0D490220FDF7D1
:1035F00053FAE0B207B030BD04460A490220FDF795
:103600004BFAE0B207B030BD07490220FDF744FA9B
:10361000E0B207B030BD00BFB8530000D453000083
:1036200040530000085300007C5300002DE9F04F88
:1036300093B004AC9B4642F0800384E803000293FD
:103640000DF140080DF1380A0DF130090AAF0026DE
:1036500050E001230DF11F0253214046FEF76EFF9B
:103660000546002873D19DF81F50009694E803008A
:103670004FF00A0E8AE80300022309AA532150469C
:103680008DF825B08DF824E0FEF704FF002859D10D
:1036900094E803004FF00B0E00969DF808C08DF8DB
:1036A00021C089E80300022308AA532148468DF867
:1036B00020E0FEF7EFFE00283FD194E803004FF032
:1036C000110E0096012387E8030007AA532138460C
:1036D0008DF81CE0FEF7DEFE18BB01230DF11F0282
:1036E00053213846FEF72AFF002836D19DF81F30B7
:1036F0009D421FDB94E8030011250096012388E812
:10370000030007AA532140468DF81C50FEF7C2FE65
:10371000054600289DD015490220EDB2FDF7BCF901
:10372000A3E7039011490220FDF7B6F9039BDBB232
:103730009D42DFDA13B0BDE8F08F0D490220FDF79E
:10374000ABF9BAE70A490220FDF7A6F9A0E7094953
:103750000220EDB2FDF7A0F987E7039005490220AA
:10376000FDF79AF9039BDBB2C2E700BFE05300000C
:1037700054540000185400002DE9F04FDFB0FDF75D
:103780002BFF0020FDF76CF908B1FDF7C5FA002406
:103790001B255D94234622461A245A955B944FF0CC
:1037A000CD6502245AA990485C958DF87441FEF7C6
:1037B0002DFC002800F01481FDF7AEFA8B49132090
:1037C000FDF76AF9FDF708FA0028FBD1FDF7A2FA28
:1037D00072280DF58C7B48AC52AF0DF5A0794EAE3A
:1037E00000F08D8040F20881752800F08A8240F256
:1037F0009481772800F0A882792840F089827A4B5A
:1038000093E8030054AB83E803005AAA002382E83C
:1038100003001325009305AA012353215AA88DF80C
:103820001450FEF737FE0546002840F0CD840123F2
:103830000DF1170253215AA8FEF780FE0546002815
:1038400040F07E859DF8175054AB93E803004FF08D
:10385000140E002358AA82E8030000930DEB0E0219
:103860000123532158A88DF814E0FEF713FE0346F8
:10387000002840F0058501230DF11702532158A8B7
:10388000FEF75CFE0346002840F04C859DF817804B
:1038900054AB93E8030056AA002382E803004FF0DC
:1038A000150E009305AA0123532156A88DF814E0A4
:1038B000FEF7F0FD8246002840F0F08401230DF170
:1038C0001702532156A8FEF739FE8246002840F021
:1038D00093859DF8172046492B0443EA08231320BB
:1038E0001A43FDF725F90020FDF750FEFDF774F9A6
:1038F0000028FBD1FDF70EFA72287FF473AF3D4923
:103900000220FDF7C9F8384B93E803003EAB83E88B
:10391000030044AA002382E80300C025009305AAFF
:103920000123292144A88DF81450FEF7B3FD002887
:1039300040F0448401230DF11702292144A8FEF729
:10394000FDFD002840F0F6843EAB93E8030042AA58
:10395000002382E80300C125009305AA0123292141
:1039600042A88DF81450FEF795FD002840F0A4847D
:1039700001230DF11702292142A8FEF7DFFD0028DF
:1039800040F02E853EAB93E8030040AA002382E876
:103990000300C225009305AA0123292140A88DF820
:1039A0001450FEF777FD002840F0728401230DF1DA
:1039B0001702292140A8FEF7C1FD002840F0168516
:1039C0003EAB93E803005122FFF7DAFD3EAB6122E4
:1039D00093E80300FFF7D4FD0020FDF7D7FD85E74E
:1039E0000148FEF737FDE9E600530000845400006B
:1039F00010570000145600000D283FF477AF40F236
:103A00008481652800F06E82712840F08181C34B6B
:103A100093E8030018AA0EAB83E8030082E80300D2
:103A2000002320200093F0258DF82400022309AA0A
:103A30001E2118A88DF82550FEF72CFD002840F017
:103A400059840EAB93E80300002516AB83E803000E
:103A50004FF0220E0095022308AA1E2116A88DF809
:103A600021508DF820E0FEF715FD002840F03C8441
:103A70000EAB93E8030014AA82E80300002323207E
:103A800000930E258DF81C00022307AA1E2114A8FE
:103A90008DF81D50FEF7FEFC002840F037840EAB79
:103AA00093E8030012AA82E8030000232420009375
:103AB000C0258DF81800022306AA1E2112A88DF831
:103AC0001950FEF7E7FC002840F01A840EAB93E88B
:103AD000030010AA002382E803000F25009305AA23
:103AE00001231E2110A88DF81450FEF7D3FC0546C3
:103AF000002840F0708301230DF117021E2110A849
:103B0000FEF71CFD0546002840F045849DF817206F
:103B100083491320FDF70CF8E8E6742840F0F8809C
:103B20007E4B93E803008BE803007E490220FCF7FC
:103B3000B3FF0A2301229BE80300FFF777FD7A49D0
:103B40000220FCF7A9FF00231A229BE80300FFF7DD
:103B50006DFD01231B229BE80300FFF767FD052392
:103B60001C229BE80300FFF761FD0A231D229BE84E
:103B70000300FFF75BFD0A231E229BE80300FFF70B
:103B800055FD6A490220FCF787FF9BE803004CAB18
:103B900083E8030006220023FFF748FD4CA903C970
:103BA00002230722FFF742FD4CA903C94023082244
:103BB000FFF73CFD4CA94123092203C9FFF736FD5D
:103BC0005B490220FCF768FF9BE803004AAB83E8EF
:103BD00003000E220023FFF729FD4AA903C902238F
:103BE0000F22FFF723FD4AA903C940231022FFF744
:103BF0001DFD4AA903C981231122FFF717FD9BE888
:103C000003004FF0110A84E803004FF000083DE084
:103C100001230DF1170253213846FEF78FFC0546AC
:103C2000002860D19DF81750CDF8008094E803007B
:103C30004FF00B0C89E803004FF0130E02230DAA7E
:103C4000532148468DF834C08DF835E0FEF722FC4C
:103C5000002843D194E803000123CDF8008005AA91
:103C600086E80300532130468DF814A0FEF712FCBD
:103C700018BB01230DF1170253213046FEF75EFCFD
:103C8000002836D19DF817309D421FDB94E80300D1
:103C90000123CDF8008005AA87E8030053213846A8
:103CA0008DF814A0FEF7F6FB05460028B0D0214998
:103CB0000220EDB2FCF7F0FEB6E703901D490220AA
:103CC000FCF7EAFE039BDBB29D42DFDA1A490220D1
:103CD000FCF7E2FE0020FDF759FC07E61749022039
:103CE000FCF7DAFEB6E716490220EDB2FCF7D4FE87
:103CF0009AE7039012490220FCF7CEFE039BDBB249
:103D0000C2E70020FDF742FCF0E50A283FF4EEADE3
:103D100002460C491320FCF70BFFE7E500530000B7
:103D20009C54000040560000685600009456000065
:103D3000BC560000E0530000E4560000545400005C
:103D4000185400001C570000604B93E803001AABA6
:103D500083E8030024AA002382E803000F250093D0
:103D600005AA01231E2124A88DF81450FEF792FB0A
:103D70000546002840F0358201230DF117021E216F
:103D800024A8FEF7DBFB0546002840F00B839DF8D6
:103D900017204F491320FCF7CBFE1AAB93E8030022
:103DA00022AA002382E803002825009305AA012304
:103DB0001E2122A88DF81450FEF76CFB0546002842
:103DC00040F0408201230DF117021E2122A8FEF7C8
:103DD000B5FB0546002840F0BA829DF817203D4902
:103DE0001320FCF7A5FE1AAB93E8030020AA0023DA
:103DF00082E803002A25009305AA01231E2120A89A
:103E00008DF81450FEF746FB0546002840F0268248
:103E100001230DF117021E2120A8FEF78FFB054696
:103E2000002840F0CB829DF817202B491320FCF787
:103E30007FFE1AAB93E803001EAA002382E803006A
:103E40002C25009305AA01231E211EA88DF81450CD
:103E5000FEF720FB0546002840F0FA8101230DF112
:103E600017021E211EA8FEF769FB0546002840F038
:103E700074829DF8172019491320FCF759FE1AABDC
:103E800093E803001CAA002382E803002E25009378
:103E900005AA01231E211CA88DF81450FEF7FAFA7A
:103EA0000546002840F0E68101230DF117021E218E
:103EB0001CA8FEF743FB0546002840F02D829DF824
:103EC000172007491320FCF733FE0FE500530000CD
:103ED000BC540000D8540000F454000010550000F9
:103EE0002C550000C84B93E8030030AA28AB83E8A8
:103EF000030082E8030000232020009317258DF89B
:103F0000300002230CAA192130A88DF83150FEF799
:103F1000C1FA002840F0E38128AB93E803002EAA01
:103F200082E8030000231F200093C0258DF82C0099
:103F300002230BAA19212EA88DF82D50FEF7AAFAFC
:103F4000002840F0C78128AB93E8030000252CAB84
:103F500083E803004FF0230E009502230AAA1921DB
:103F60002CA88DF829508DF828E0FEF793FA002848
:103F700040F0AB8128AB93E803002AAA002382E833
:103F800003000F25009305AA012319212AA88DF803
:103F90001450FEF77FFA0546002840F009810123FE
:103FA0000DF1170219212AA8FEF7C8FA05460028C4
:103FB00040F0EB819DF8172094491320FCF7B8FDE1
:103FC000914B93E8030026AB83E8030038AA002353
:103FD00082E803000F25009305AA0123192138A8C0
:103FE0008DF81450FEF756FA0546002840F024815B
:103FF00001230DF11702192138A8FEF79FFA054693
:10400000002840F0BC819DF8172081491320FCF75F
:104010008FFD26AB93E8030036AA002382E8030055
:104020002725009305AA0123192136A88DF81450DD
:10403000FEF730FA0546002840F0F88001230DF124
:104040001702192136A8FEF779FA0546002840F034
:1040500090819DF817206F491320FCF769FD26AB6E
:1040600093E8030034AA002382E803002925009383
:1040700005AA0123192134A88DF81450FEF70AFA75
:104080000546002840F0B98001230DF117021921DF
:1040900034A8FEF753FA0546002840F064819DF8E5
:1040A00017205D4952B21320FCF742FD26AB93E87E
:1040B000030032AA002382E803002B25009305AAFF
:1040C0000123192132A88DF81450FEF7E3F90546B3
:1040D000002840F08C8001230DF11702192132A82D
:1040E000FEF72CFA0546002840F062819DF8175033
:1040F0004A496DB213202A46FCF71AFD012D4FF0F4
:10410000000000F08181002D40F3DC80FDF71EFAF5
:1041100026AB93E803003CAA002382E803002D2588
:10412000009305AA012319213CA88DF81450FEF72D
:10413000B1F90546002840F0978001230DF11702E0
:1041400019213CA8FEF7FAF90546002840F0428103
:104150009DF81720324952B21320FCF7E9FC26AB38
:1041600093E803003AAA002382E803000C25009399
:1041700005AA012319213AA88DF81450FEF78AF9EF
:104180000546002840F0928001230DF11702192105
:104190003AA8FEF7D3F90546002840F015819DF8AE
:1041A0001720204952B21320FCF7C2FCFFF79EBB38
:1041B0001D490220FCF770FCEAB2FDE61A49022014
:1041C000FCF76AFCFFF7C0BB17490220EDB2FCF711
:1041D00063FCFFF739BB14490220FCF75DFCEAB22F
:1041E00096E411490220FCF757FCEAB2D1E50E49EA
:1041F0000220FCF751FCEDB27AE70B490220FCF7F4
:104200004BFCEAB24DE700BF0053000048550000E8
:104210006C55000088550000A4550000C0550000F2
:10422000DC550000F8550000E053000078490220FA
:10423000FCF732FCEAB20EE775490220FCF72CFCD1
:10424000EAB2E2E672490220FCF726FCEAB2C6E5D1
:104250006F490220FCF720FCEAB20CE66C49022010
:10426000FCF71AFCEAB2E0E569490220FCF714FC0D
:10427000EAB26FE766490220FCF70EFCEAB220E6DC
:10428000634902205FFA83F8FCF706FCFFF700BBE6
:104290005F490220FCF700FCFFF792BB5C4902205B
:1042A000FCF7FAFB5FFA8AF2FFF715BB58490220C8
:1042B000FCF7F2FBEAB274E755490220FCF7ECFB8D
:1042C000FFF760BBFDF724F922E752490220FCF713
:1042D000E3FB4FE64F490220FCF7DEFB33E64D4996
:1042E0000220FCF7D9FB17E64A490220FCF7D4FB71
:1042F000FFF7BEBB47490220FCF7CEFBFFF7A1BB8F
:1043000044490220FCF7C8FBFFF7E0BB414902200B
:10431000FCF7C2FBFFF7C3BB3F490220FCF7BCFB25
:10432000EAB2CEE53C4902205FFA83F8FCF7B4FB21
:10433000FFF7AEBA38490220FCF7AEFBFFF704BB2B
:1043400035490220EDB2FCF7A7FBFFF77DBA3249F1
:104350000220FCF7A1FBEAB241E52F490220FCF75D
:104360009BFBEAB287E52C490220FCF795FBEAB2F9
:1043700097E629490220FCF78FFBEAB26BE6264953
:104380000220FCF789FBEAB23FE623490220FCF752
:1043900083FBEAB210E620490220FCF77DFBEAB27B
:1043A000FFF7B6BB1C490220FCF776FBEAB2F0E44B
:1043B00019490220FCF770FBEDB299E6164902207C
:1043C000FCF76AFBEAB230E513490220FCF764FB14
:1043D000EAB2E6E610490220FCF75EFBEAB2B9E673
:1043E0000D490220FCF758FBFFF7CCBA0A4902201E
:1043F000FCF752FBFFF7E4BA07490220FCF74CFB3D
:104400005FFA8AF2FFF767BAFDF7C0F880E600BFEF
:10441000E053000054540000185400000649074AB5
:10442000074B9B1A03DD043BC858D050FBDC00F05F
:1044300013F8FCF713F800008C580000000000206F
:10444000E8010020FEE7FEE7FEE7FEE7FEE7FEE705
:10445000FEE7FEE7FEE7FEE7F0B4A64B1B78062B6F
:104460001BD0A54AD2F8883043F47003C2F88830D4
:10447000BFF34F8FBFF36F8F4FF01023D3F800229D
:10448000002AC0F20581D3F80432002BC0F200816B
:104490009A4B9B4A1A60F0BC70479A4B1B681E07E8
:1044A000DFD1994B1B6803F0F003302B02D1974BFF
:1044B000974A1A60944B1B6803F0F002302A00F010
:1044C000D68003F0E003402B00F0D1808E4B1B68B8
:1044D00003F0F003302B00F0BB808B4B1B6803F024
:1044E000F002302A00F0A08003F0E003402B00F03F
:1044F0009B80854B1B6803F0F003302B00F0868017
:10450000814B1B6803F0F003302B68D07E4B1B6897
:1045100003F0F003502B10D07B4B1B6803F0F0022C
:10452000302A03D003F0E003402B9AD1794B7A4A2A
:104530001B6803F04F03136093E74FF08052774BF3
:10454000D2F80414C3F82015D2F80814C3F82415BF
:10455000D2F80C14C3F82815D2F81014C3F82C158F
:10456000D2F81414C3F83015D2F81814C3F834155F
:10457000D2F81C14C3F84015D2F82014C3F844151F
:10458000D2F82414C3F84815D2F82814C3F84C15EF
:10459000D2F82C14C3F85015D2F83014C3F85415BF
:1045A000D2F83414C3F86015D2F83814C3F864157F
:1045B000D2F83C14C3F86815D2F84014C3F86C154F
:1045C000D2F844244B49C3F870250A78062A7FF4B0
:1045D00048AF4C4B1B681B077FF443AF9CE7454B30
:1045E0004F491B784F4D5048504A05270F60012610
:1045F00000243F21062B2E60046011607FF431AF50
:10460000404B1B681A077FF42CAF7FE7394B484AB1
:104610001B780321062B11607FF423AF394B1B68F5
:1046200019077FF41EAF6BE7324B1B784FF08042C7
:104630000021062BC2F80C11C2F81011C2F838156F
:104640007FF40FAF2F4B1B6818077FF40AAF50E7BA
:104650003849284ACB68127823F08073062ACB6049
:10466000B4D1284B1B681C077FF4FBAE35E7324AF8
:10467000204B12681B783149C2F34232062B0A6084
:104680007FF4EFAE1F4B1B681D077FF4EAAE1DE7FA
:104690002B4B0122C3F80425D3F80024002AFBD0B9
:1046A0004FF0102315222649C3F80022D1F8003418
:1046B000002BFBD04FF0102315222149C3F8042210
:1046C000D1F800241E4B002AFAD00022C3F804259A
:1046D000D3F80024002AFBD0BFF34F8F0649194BB3
:1046E000CA6802F4E0621343CB60BFF34F8F00BF90
:1046F000FDE700BFE00F00F000ED00E06C000020DF
:104700000090D003E40F00F0E80F00F074C0074001
:104710000DF0ADBA58020010E40E004000C0004099
:10472000105600408856004018560040145600406D
:10473000A0050040F0ED00E0440200103C05004000
:1047400000E001400400FA05034B1B68186A034BA4
:10475000002808BF18467047600000207000002045
:1047600008B5034B1868FFF7EFFFD0F8EC0008BD61
:104770006000002082B001B901A93AB143B11378B9
:104780000B601278101C18BF012003E0104601E0F6
:104790006FF0010002B0704710B5431E0A44914209
:1047A00004D011F8014B03F8014FF8E710BD0000E9
:1047B0000CB430B5164B0C1E9DB01D6804DA8B236B
:1047C0002B604FF0FF301EE04FF40273ADF8143051
:1047D00014BF04F1FF332346049307934FF6FF738E
:1047E00002900690ADF81630209A21AB02A9284617
:1047F000019300F07DF8431CBCBF8B232B6014B1E8
:10480000029B00221A701DB0BDE8304002B0704714
:1048100060000020034613F8012B002AFBD1181A70
:104820000138704749B1FF2A85BF8A2303600A70A7
:104830004FF0FF3098BF01207047084670472DE9C0
:10484000F0478E689E4282460C46914698463ED876
:104850008A8912F4906F3AD0256809696F1A6569E0
:10486000022305EB450595FBF3F57B1C43449D4274
:1048700038BF1D4653050FD5294600F083FB064679
:1048800098B13A462169FFF787FFA38923F4906323
:1048900043F08003A38113E02A4600F0D1FB0646D3
:1048A00070B92169504600F01FFB0C23CAF8003094
:1048B000A38943F04003A3814FF0FF30BDE8F087A8
:1048C000266165613E44ED1B2660A560464646456F
:1048D00028BF464632464946206800F0E9FAA368F8
:1048E0009B1BA36023681E4426600020BDE8F08760
:1048F0002DE9F04F9DB0804603938B891C060D4631
:1049000016460DD50B695BB9402100F03BFB2860D2
:10491000286118B90C23C8F80030CDE040236B6142
:104920000023099320238DF82930DFF89CB1302330
:104930008DF82A3037463C4614F8013B1BB9B7EBDB
:10494000060910D003E0252BF9D02746F3E74B46A4
:10495000324629464046FFF772FF013000F0A7803B
:10496000099B4B4409933B78002B00F0A080002367
:104970004FF0FF3204930793059206938DF853305E
:104980001A930126052221784E4800F041FA671C4F
:10499000049B38B14B4A801A06FA00F01843049081
:1049A0003C46EFE7D90644BF20228DF853201A0772
:1049B00044BF2B228DF8532022782A2A03D0079A4D
:1049C00000210A200BE0039A111D12680391002AAE
:1049D00010DA524243F00200079204900BE027469F
:1049E00001343B78303B092B03D800FB0232012114
:1049F000F5E701B107923B782E2B1ED17B782A2B4D
:104A00000AD1039B1A1D1B680392002BB8BF4FF0FD
:104A1000FF330237059310E000230593781C1946F5
:104A20000A24074601303A78303A092A03D804FBB1
:104A300001210123F5E703B10591032239782248CA
:104A400000F0E6F940B14023CBEB000003FA00F0A0
:104A5000049B18430490013739781C488DF82810BE
:104A600006227E1C00F0D4F988B1194B33B9039BA0
:104A7000073323F007030833039314E003AB0093D9
:104A80002A46144B04A94046AFF3008007E003AB6D
:104A900000932A460F4B04A9404600F093F8B0F16A
:104AA000FF3F824603D0099B5344099342E7AB89F9
:104AB0005B0601D4099801E04FF0FF301DB0BDE85E
:104AC000F08F00BF4B5800005158000055580000AF
:104AD000000000003F4800002DE9F04791461F46C6
:104AE0000A698B68DDF820809342B8BF1346C9F885
:104AF000003091F8432006460C4612B10133C9F844
:104B000000302368990642BFD9F800300233C9F853
:104B10000030256815F0060510D104F1190A07E0E8
:104B20000123524639463046C04701301AD001357C
:104B3000E368D9F800209B1A9D42F1DB94F84330DA
:104B40002268003318BF012392060FD5E1185A1CC2
:104B5000302081F84300224494F8451082F8431035
:104B6000023303E04FF0FF30BDE8F08704F1430269
:104B700039463046C0470130F4D02268D9F8005099
:104B8000E36802F00602042A08BF5D1B2269A368DD
:104B90000CBF25EAE57500259342C4BF9B1AED18AA
:104BA0004FF000091A344D4509D0012322463946F9
:104BB0003046C0470130D5D009F10109F3E70020A4
:104BC000BDE8F0872DE9F04317460A7E85B06E2ACE
:104BD000984606460C460C9B01F1430E00F0AE8051
:104BE00011D8632A22D009D8002A00F0BB80582AA5
:104BF00040F0CA8081F84520834955E0642A1ED0E0
:104C0000692A1CD0C0E0732A00F0B08009D86F2A4E
:104C10002ED0702A40F0B8800A6842F020020A6064
:104C20003EE0752A24D0782A3AD0ADE01A6801F126
:104C30004205111D1960136884F84230A8E021680C
:104C40001A6811F0800F02D0111D196008E011F0F0
:104C5000400F02F10401196002D0B2F9003000E007
:104C60001368002B3CDA2D225B4284F8432037E0A6
:104C700021681A6811F0800F02D0111D196007E039
:104C800011F0400F02F10401196001D0138800E017
:104C90001368227E5C496F2A14BF0A2208221BE097
:104CA00078225A4984F845202268186812F0800F4B
:104CB00000F104051D6003D1550601D5038800E00D
:104CC0000368D00744BF42F0200222601BB922686B
:104CD00022F0200222601022002084F8430001E02C
:104CE00049490A226568A560002D08DB206820F08C
:104CF000040020602BB9002D7DD175460CE0002BFF
:104D000079D07546B3FBF2F002FB1033CB5C05F8AB
:104D1000013D03460028F5D1082A0BD12368DA07A4
:104D200008D5236962689A42DEBF302305F8013C4A
:104D300005F1FF35C5EB0E0323612EE008681A6804
:104D4000496910F0800F03D0101D1860136808E047
:104D500010F0400F02F104001860136801D01980B0
:104D600000E0196000232361754616E01A68111DE2
:104D70001960156862680021284600F049F808B1FA
:104D8000401B6060636804E004F1420584F842203F
:104D900001232361002384F84330CDF800803B4693
:104DA00003AA21463046FFF797FE013002D14FF0AB
:104DB000FF3026E023692A4639463046C047013095
:104DC000F5D023689B0710D5002504F1190907E0E9
:104DD00001234A4639463046C0470130E7D0013505
:104DE000E368039A9B1A9D42F2DBE068039B9842BA
:104DF000B8BF184605E00B7884F8423004F142054C
:104E00008AE705B0BDE8F0835C5800006D580000EB
:104E100001F0FF01102A2BDB10F0070F08D010F86B
:104E2000013B013A8B422DD010F0070F42B3F6D16F
:104E3000F0B441EA012141EA014122F007047FF088
:104E400000070023F0E80256083C85EA010586EADF
:104E5000010685FA47F5A3FA87F586FA47F6A5FA1B
:104E600087F68EB9EED1F0BC01F0FF0102F0070227
:104E700032B110F8013B013A83EA010313B1F8D1D2
:104E80000020704701387047002D06BF35460338B3
:104E9000073815F0010F07D1013015F4807F02BFEC
:104EA000013015F4C03F0130F0BC0138704700BF3D
:104EB000884210B501EB020301D8421E0BE0984274
:104EC000FBD28118D21AD34204D013F8014D01F855
:104ED000014DF8E710BD994204D011F8014B02F8DA
:104EE000014FF8E710BD000038B50546002946D04F
:104EF00051F8043C0C1F002BB8BFE41800F0D6F8A2
:104F00001F4A1368114613B96360146032E0A3426C
:104F10000ED92268A018834204BF18685B686360DA
:104F200004BF121822600C6024E0A24203D813468A
:104F30005A68002AF9D118681918A1420BD12168C2
:104F4000014458188242196014D1106852685A609E
:104F5000014419600EE002D90C232B600AE021689D
:104F60006018824204BF10685268626004BF09186A
:104F700021605C602846BDE8384000F098B838BD34
:104F8000FC07002070B5CD1C25F0030508350C2D5D
:104F900038BF0C25002D064601DBA94202D90C239F
:104FA000336046E000F082F8234B1C681A46214625
:104FB000A1B10B685B1B0ED40B2B03D90B60CC1873
:104FC000CD501EE08C420DBF63684B686360136078
:104FD00018BF0C4615E00C464968E9E7174C2368F2
:104FE0001BB9304600F052F820602946304600F0E8
:104FF0004DF8431C18D0C41C24F00304A0420DD16A
:105000002560304600F053F804F10B00231D20F01A
:105010000700C31A0ED05A42E25070BD211A304622
:1050200000F034F80130EBD10C233360304600F04F
:105030003EF8002070BD00BFFC070020F8070020EC
:10504000F8B5074615460E4621B91146BDE8F840A9
:10505000FFF798BF1AB9FFF747FF2846F8BD00F0E1
:1050600027F885420ED929463846FFF78BFF0446BC
:1050700050B131462A46FFF78FFB31463846FFF7DD
:1050800033FF01E03046F8BD2046F8BD38B5064C88
:10509000002305460846236000F014F8431C02D1A3
:1050A000236803B12B6038BD0408002070477047A7
:1050B00051F8040C0028BEBF091851F8043CC01870
:1050C00004387047044A05491368002B08BF0B4693
:1050D0001844106018467047000800200808002097
:1050E000F8B500BFF8BC08BC9E467047F8B500BFD5
:1050F000F8BC08BC9E46704700000020FFFFFFFF81
:10510000FFFFFFFFFFFFFFFFFFFFFFFF00000000AB
:10511000000000000000D601070100005B253038C8
:10512000645D00004F766572666C6F770D0A000053
:105130004150505F4552524F523A4552524F523AA7
:10514000466174616C0D0A002E2E2F2E2E2F2E2EEE
:105150002F2E2E2F2E2E2F2E2E2F636F6D706F6EF3
:10516000656E74732F6C69627261726965732F75F5
:1051700074696C2F6170705F7574696C5F706C61BD
:1051800074666F726D2E63002E2E2F2E2E2F2E2EF4
:105190002F2E2E2F2E2E2F2E2E2F636F6D706F6EB3
:1051A000656E74732F626F617264732F626F6172C8
:1051B00064732E63000000002E2E2F2E2E2F2E2E15
:1051C0002F2E2E2F2E2E2F2E2E2F636F6D706F6E83
:1051D000656E74732F647269766572735F6E726642
:1051E0002F68616C2F6E72665F6770696F2E680042
:1051F000111213142E2E2F2E2E2F2E2E2F2E2E2F39
:105200002E2E2F2E2E2F636F6D706F6E656E747342
:105210002F647269766572735F6E72662F636F6D4D
:105220006D6F6E2F6E72665F6472765F636F6D6D09
:105230006F6E2E63000000002E2E2F2E2E2F2E2E8E
:105240002F2E2E2F2E2E2F2E2E2F636F6D706F6E02
:10525000656E74732F647269766572735F6E7266C1
:105260002F6770696F74652F6E72665F6472765F08
:105270006770696F74652E63000000002E2E2F2E5C
:105280002E2F2E2E2F2E2E2F2E2E2F2E2E2F636FC3
:105290006D706F6E656E74732F647269766572736C
:1052A0005F6E72662F7477695F6D61737465722FBC
:1052B0006E72665F6472765F7477692E63000000B9
:1052C0002E2E2F2E2E2F2E2E2F2E2E2F2E2E2F2EF9
:1052D0002E2F636F6D706F6E656E74732F647269BD
:1052E000766572735F6E72662F756172742F6E725F
:1052F000665F6472765F756172742E6300000000F1
:1053000000300040000000004150503A5741524EDA
:10531000494E473A436F6D6D756E69636174696F8D
:105320006E206572726F72207768656E2061736B94
:10533000696E6720746F20726561640D0A00000059
:105340004150503A5741524E494E473A436F6D6D66
:10535000756E69636174696F6E206572726F722019
:105360007768656E2072656164696E672066697230
:10537000737420627974650D0A0000004150503A40
:105380005741524E494E473A436F6D6D756E696392
:105390006174696F6E206572726F72207768656ED6
:1053A0002072656164696E67207365636F6E642047
:1053B000627974650D0A00004150503A5741524ECF
:1053C000494E473A526561642032206279746573B0
:1053D0003A200000252E34783A200D0A0000000003
:1053E0004150503A5741524E494E473A436F6D6DC6
:1053F000756E69636174696F6E206572726F722079
:105400007768656E2061736B696E6720666F7220C6
:10541000627974650D0A00004150503A5741524E6E
:10542000494E473A436F6D6D756E69636174696F7C
:105430006E206572726F72207768656E207265618A
:1054400064696E672062797465206261636B0D0A1E
:10545000000000004150503A5741524E494E473AE1
:10546000436F6D6D756E69636174696F6E206572EF
:10547000726F72207768656E2057726974696E6703
:105480000D0A000053746172746564205375706571
:10549000722053656E736F720D0A00004D61676E66
:1054A00065746F6D6574657220496E697469616CAD
:1054B000697A6564202578200D0A00004D61676EC9
:1054C00065746F6D657465722057686F616D493AD8
:1054D0002025782E0D0A00004D61676E65746F6D92
:1054E00065746572204F55545F583A2025782E0D0B
:1054F0000A0000004D61676E65746F6D65746572BA
:10550000204F55545F593A2025782E0D0A0000008F
:105510004D61676E65746F6D65746572204F55548B
:105520005F5A3A2025782E0D0A0000004D61676E03
:1055300065746F6D657465722054454D503A202531
:10554000782E0D0A00000000416363656C65726F80
:105550006D6574657220496E697469616C697A65FC
:10556000643A2025782E0D0A00000000416363652F
:105570006C65726F6D657465722057686F616D49F7
:105580003A2025782E0D0A00416363656C65726FC1
:105590006D65746572205374617475733A20257853
:1055A0002E0D0A00416363656C65726F6D657465ED
:1055B00072204F5554583A2025642E0D0A000000E1
:1055C000416363656C65726F6D65746572204F55DC
:1055D00054593A2025642E0D0A000000416363658A
:1055E0006C65726F6D65746572204F55545A3A2020
:1055F00025642E0D0A000000416363656C65726FBF
:105600006D657465722054656D703A2025782E0D95
:105610000A0000004150503A5741524E494E473A15
:1056200054696D65206F6620466C6967687420490F
:105630006E697469616C697A65640D0A0000000026
:105640004150503A5741524E494E473A50726F7846
:10565000696D6974792053656E736F72205374613C
:1056600072740D0A000000004150503A5741524EEA
:10567000494E473A50726F78696D69747920536565
:105680006E736F72204669727374205365740D0ACD
:10569000000000004150503A5741524E494E473A9F
:1056A00050726F78696D6974792053656E736F728B
:1056B0002053657475700D0A000000004150503A87
:1056C0005741524E494E473A50726F78696D69742E
:1056D000792053656E736F72204368616E6E656CDE
:1056E000310D0A004150503A5741524E494E473A07
:1056F00050726F78696D6974792053656E736F723B
:1057000020496E697469616C697A65640D0A0000EC
:10571000252E34643A200D0A00000000596F7520D0
:1057200073656C65637465642025632E20556E6B0C
:105730006E6F776E20636F6D6D616E640D0A000091
:105740004300504F534958002E00002020202020B5
:105750002020202028282828282020202020202021
:105760002020202020202020202020881010101011
:105770001010101010101010101010040404040465
:105780000404040404101010101010104141414191
:105790004141010101010101010101010101010179
:1057A000010101010101101010101010424242428B
:1057B0004242020202020202020202020202020249
:1057C000020202020202101010102000000000006D
:1057D00000000000000000000000000000000000C9
:1057E00000000000000000000000000000000000B9
:1057F00000000000000000000000000000000000A9
:105800000000000000000000000000000000000098
:105810000000000000000000000000000000000088
:105820000000000000000000000000000000000078
:105830000000000000000000000000000000000068
:105840000000000000000000000000232D302B208D
:1058500000686C4C0065666745464700303132335E
:1058600034353637383941424344454600303132C9
:105870003334353637383961626364656600000059
:045880000000000024
:08588400D8ABFF7F010000001A
:10588C00000000000000000000000000000000000C
:10589C0000000000000000000000000000000000FC
:1058AC0000000000000000000000000000000000EC
:1058BC0000000000000000000000000000000000DC
:1058CC0000000000000000000000000000000000CC
:1058DC0000000000000000000000000000000000BC
:1058EC000000002000200040000000000090D003C9
:1058FC004300000000000000000000000000000059
:10590C00000000000000000000000000000000008B
:10591C004300000000000000000000000000000038
:10592C00000000000000000000000000000000006B
:10593C004300000000000000000000000000000018
:10594C00000000000000000000000000000000004B
:10595C0043000000000000000000000000000000F8
:10596C00000000000000000000000000000000002B
:10597C0043000000000000000000000000000000D8
:10598C00000000000000000000000000000000000B
:10599C0043000000000000000000000000000000B8
:1059AC0000000000000000000000000000000000EB
:1059BC004300000000000000000000000000000098
:1059CC0000000000000000000000000000000000CB
:1059DC002548000075470000000000004A570000F1
:1059EC004857000050580000505800005058000014
:1059FC0050580000505800005058000050580000FB
:105A0C005058000050580000FFFFFFFFFFFFFFFF42
:105A1C00FFFFFFFFFFFF0000010041534349490016
:105A2C00000000000000000000000000000000006A
:105A3C0000000000000000000000415343494900F1
:105A4C00000000000000000000000000000000004A
:105A5C000000000000000000000000002504000011
:085A6C0001040000000000002D
:040000030000441D98
:00000001FF
