:100000000000012029350000513500005335000063
:10001000553500005735000059350000000000003C
:100020000000000000000000000000005B35000040
:100030005D350000000000005F3500006135000004
:100040006335000063350000912900001125000090
:100050000927000063350000B51500006335000076
:100060006335000063350000633500006335000030
:100070006335000063350000633500006335000020
:1000800063350000B10C00006335000063350000EB
:10009000750D000063350000633500006335000016
:1000A00063350000633500006335000063350000F0
:1000B0006335000063350000000000000000000010
:1000C00063350000633500006335000063350000D0
:1000D0006335000063350000633500000000000058
:1000E0000000000000000000000000000000000010
:1000F0000000000000000000000000000000000000
:1001000000000000000000000000000000000000EF
:1001100000000000000000000000000000000000DF
:1004000010B5054C237833B9044B13B10448AFF34E
:1004100000800123237010BDE001002000000000D7
:1004200068470000084B10B51BB108490848AFF3F6
:1004300000800848036803B910BD074B002BFBD0B0
:10044000BDE81040184700BF00000000E401002094
:1004500068470000DC01002000000000154B002B65
:1004600008BF134B9D46A3F5803A00218B460F46EB
:100470001348144A121A00F065F80F4B002B00D0F5
:1004800098470E4B002B00D0984700200021040015
:100490000D000D48002802D00C48AFF3008000F09A
:1004A0002BF82000290002F00DFC00F011F800BF2D
:1004B0000000080000000120000000000000000013
:1004C000E0010020F409002000000000000000000E
:1004D00008B5074B044613B10021AFF30080054B6C
:1004E0001868836A03B19847204600F033F800BFCC
:1004F000000000001842000070B50E4B0E4CE41ACC
:10050000A41000251E46A54204D056F82530984771
:100510000135F8E703F074FE084C094BE41AA41007
:1005200000251E46A54204D056F8253098470135CF
:10053000F8E770BDD4010020D4010020D8010020CC
:10054000D401002002440346934202D003F8011B69
:10055000FAE77047FEE700BFF0B51746C7B01C4684
:10056000B9B106AE0B68604A30464FF4807103F0B3
:10057000A5F900280ADB4C9B0546062B00F2B28049
:10058000DFE803F012323B4653637500002047B0AA
:10059000F0BD4C9B062B00F2A380DFE803F0048B38
:1005A00090957C8186000025384603F0C1F94319F7
:1005B000FF2B044640F28D80002CE7DB2C44B4F581
:1005C000807FE3D80A27002506AE22467119002055
:1005D00002F0BCFE0544241A08B9013F01D0002CEA
:1005E000F3D1012047B0F0BDC0F5807123683A46D1
:1005F000701903F063F90446DEE7C0F580716268A4
:100600002368009270193A4603F058F90446D3E77C
:10061000C0F58071A2682368646800940192701923
:100620003A4603F04BF90446C6E7C0F58071E2682C
:100630002368D4F808E0646802928DE810403A46D6
:10064000701903F03BF90446B6E7C0F580712069E4
:10065000E26823680390D4F808E0646802928DE8A9
:1006600010403A46701903F029F90446A4E7C0F592
:1006700080716269206923680492E2680390D4F86B
:1006800008E0646802928DE810403A46701903F061
:1006900015F9044690E74FF48071002506AEC6E7D1
:1006A0004FF48071002506AED1E74FF4807100252C
:1006B00006AEDEE74FF48071002506AE96E74FF4F4
:1006C0008071002506AE9AE74FF48071002506AED2
:1006D000A0E706AE39467019224603F0E3F86BE74F
:1006E00000246FE7002469E71C4200002DE9F04F69
:1006F0001446C7B01D46002900F02381002B00F0EE
:1007000004810A2302934FF0000B06AF519B539ACA
:10071000134420261C4602990BEB0103049331334A
:10072000FB18039307EB0B031A460193002965D0CE
:10073000534203F003038B4228BF0B46062900F205
:10074000DB800B46019907F80B600A46012B02F18A
:10075000010200F0CF80022B4E7001F1020200F086
:10076000C980032B8E7001F1030200F0C3800A469A
:10077000042BCE7002F1040200F0BC80062B0E7137
:1007800001F1050240F0BE804E718A1D9846029923
:1007900099422ED00298C3EB0009A9F1040100F19F
:1007A000FF3E8908C3EB0E0E0131BEF1020F4FEA86
:1007B000810C12D95B444FF0203E012907EB030B5B
:1007C00047F803E005D00229CBF804E001D0CBF8CC
:1007D00008E0E1456244E0440BD00299167008F14C
:1007E00001038B4205D208F102008842567000D204
:1007F0009670019B029A134401931A46039B059736
:1008000002F1330A274602F1030B544603F10109B2
:10081000DDF844A10DE00BF8036C0BF8026C0BF84B
:10082000016C0BF1030BA34509F8016C09F10109F7
:100830002FD0AF42EFD9AA4556D9509B13F8058067
:100840000BF8016C4FEA28105FFA80FE092808F0C7
:100850000F00D4BF0EF1300E0EF1370E092894BFF1
:10086000303037300BF803EC0BF8020C02F0FEFFCF
:1008700040440BF1030B407810F0970F08BF4FF086
:100880002E08A34509F8018C05F1010509F10109BC
:10089000CFD1049B039903F1430A019B3C460D22EF
:1008A0004FF00A0B059F0A7481F811B0A14683F836
:1008B00030604FF000085446224607EB0801002044
:1008C00002F044FD8044241A10B9BBF1010B01D0A1
:1008D000002CF1D14D454C464FF0000BFFF41BAFFF
:1008E000284647B0BDE8F08FCAEB0500529B13F8CD
:1008F0000080A5E798464AE7002B7FF423AF019AD2
:10090000984647E74FF0050841E706AF0B68114AE4
:1009100038464FF4807102F0D1FF0028E0DB0A2353
:1009200006460293204603F003F8C22828BFC220DF
:10093000834602462146B81902F0B4FF0025B344AD
:10094000E4E61BB902952E4606AFEBE702918B4613
:1009500006AFDBE61C42000070B5074D074E2B7852
:1009600013B13378834205D0044602F0ADFD012374
:1009700034702B70002070BDFD010020FC010020B0
:10098000004870475905000000487047ED06000018
:1009900038B50020FFF7E0FF044668B9FFF7F0FF25
:1009A0000546FFF7F1FF054BFF22C3F810541C600A
:1009B0005C60C3F814049A60204638BD0002002031
:1009C0000120FFF7C9BF00BF2DE9F041224C0646C8
:1009D00000200D46A76800F0F7FCA2686368D4F811
:1009E000008013440133C8EB0303012B1BD8ABB1C8
:1009F0000121002361F301036FF38203052161F3F9
:100A0000C50308EA0202154904EB82026FF3891359
:100A100008F1010761F39F232760D3600020BDE840
:100A2000F04100F0EBBC08F101030020236000F06E
:100A3000E5FC0122002362F301036FF3820307EA5E
:100A4000080766F3C50304EB87046FF3891365F3A6
:100A50009F23E360BDE8F0810002002024420000F3
:100A60002DE9F843264C8046002016460F46A5681F
:100A700000F0AAFCA2686368D4F800901344013324
:100A8000C9EB0303022B1BD8ABB10121002361F397
:100A900001036FF38203052161F3C50309EA020232
:100AA000184804EB82026FF3891309F1010160F326
:100AB0009F232160D3600020BDE8F84300F09EBC76
:100AC00009F102030020236000F098FC01220023BA
:100AD00062F3010309EB02016FF3820305EA0909DE
:100AE00068F3C5030D4004EB890962F3891304EB35
:100AF000850467F39F23C9F80C30E660BDE8F883EE
:100B000000020020244200002DE9F0474C4E96E8F8
:100B10000C009A428AB070D0B06804E0C4F3891225
:100B200002EB9452134400EA0305023506EB8502FA
:100B30000133546814F00302F0D0022A28D0C4F321
:100B40008312C4F3952C002A75D00DF1100E754652
:100B5000D71800EA030106EB81010133C96845F8A3
:100B6000041BBB42F5D10092C4F3C2007346624637
:100B7000D6F81044324D0021A04738B17760306874
:100B8000C01B18BF01200AB0BDE8F0876F68F6E708
:100B900003F1010A20EA0A010340013106EB830355
:100BA00089004FEA94588845DA68DFF894E0C4F386
:100BB000891326D9A9B300EA0A0C5FFA81F90EEB72
:100BC0008C0CC9EB08010CF10C0C0EF10C00C9B235
:100BD00003910290CDF80490CDF800C00021C4F339
:100BE000C200D6F81474B847404520D006EB8505FE
:100BF00060F38F146C607768C1E700200AB0BDE82D
:100C0000F08700EA0A000EEB80000C308DE801014D
:100C10000021DEF8149403910291C4F3C200C84786
:100C2000E2E70EF10C0C08465FFA88F9D0E70330D2
:100C30000AEB9007A2E71F460DF1100E93E700BFE5
:100C40000002002000B585B000230390194601AAD8
:100C500044F20100ADF80430029300F003F805B04F
:100C60005DF804FB08B50E490120FFF7ADFEFFF764
:100C7000A7FEFFF749FF0028FBD10A4B1B68DB07E3
:100C800000D5FFDEBFF34F8F0749084BCA6802F457
:100C9000E0621343CB60BFF34F8F00BFFDE700BF9F
:100CA00030420000F0ED00E000ED00E00400FA0545
:100CB0002DE9F843274A284B0025C2F84051C2F8D5
:100CC0004451C2F84851C2F84C51C2F80051C2F820
:100CD00004511B681BB32149D2F804250C68204F2E
:100CE000141B1A6824F07F44A242A84609D8197C34
:100CF000DE69A41A1544A1B91EB133461A68A2428E
:100D0000F5D9184B18491A780B789A421BD0174915
:100D1000174A41F823504FF48013C2F80031BDE860
:100D2000F883D3F8149083F810803A689B6948469A
:100D300019462AB190470028DED0FFF783FFDBE792
:100D40001846C847D8E7531CDBB2022B08BF002364
:100D50000B70DCE7001001401C0600201806002084
:100D60002006002024060020250600203006002052
:100D700000E100E02DE9F04FA44AA5491378097875
:100D8000A44889B000680090994200F0EB800133DC
:100D9000DBB2022B08BF002313709F4A52F8236076
:100DA000009B9C4A334423F07F4313604FF0010EB5
:100DB0009A4B079693F800A0994BCDF818A0D3F85A
:100DC0000090964B5B7801931D46944BD3F804B08A
:100DD0009B7802931C46934B1B7804938D4B002702
:100DE0001B68039351464A464B460597BC46384616
:100DF0002646B846A9421AD001EB410401311BF83E
:100E00003470C9B2B14208BF0021022F0BEBC404F9
:100E100000F08380032FEDD1002BEBD0DA6918743A
:100E20001346002AFAD1A9424FF0010CE4D1DDF8B3
:100E300018A0079E4746BCF1000F40F0A380059A1A
:100E400012B1744A03991160002F40F09C82BEF1E8
:100E5000000F40F0C681B9EB030218BF01220792D0
:100E6000059375461E466B4ACDF810B0D2F800C007
:100E70006B4ADFF8B891D646D2F800A0694A002341
:100E8000127800931F4606924FF001089B463DB32F
:100E90006A68A9682C46ED69CCEB020323F07F4316
:100EA0004B4572D80B4423606760A76084F81080BC
:100EB000E761002E00F08B80316899427ED2304687
:100EC00003E01168994269D21046C2695B1A002A90
:100ED000F7D12360E2613346C4611E46002DD7D1AD
:100EE000019B9E4500F0A4800EEB4E03049911F87F
:100EF0003320039210460EF1010E029A5FFA8EFE25
:100F0000724508BF4FF0000E012801EBC30364D007
:100F10003346012200921E46E0E76468002B3FF44E
:100F200069AF9C429A4601D115E0BA46DAF81C70C6
:100F3000002F3FF45FAFBC42F7D1BA450CD0FC693B
:100F40003F68CAF81C40002C3FF454AF23683B4470
:100F5000236013464EE71F46DA6932B113464FF05D
:100F6000010CECE70026B64622E72F4B4FF00108B4
:100F7000C3F80880C44613460392CDF81080CDF81C
:100F80001480DCE726490A6059E7C2EB0C0222F024
:100F90007F428A4209D28B1A236085E7C91A116001
:100FA0002360E2613346C46197E727606760A7600A
:100FB00084F81080E76156B131680023CB1A3360A2
:100FC0002346E661A2464FF0010B1E4686E7234604
:100FD000A2464FF0010B1E4680E75C68227C00921F
:100FE00082B99A686260D968A1601869E0605B693B
:100FF000A361069B002B00F0F180009A62600093D1
:101000002A4649E733461E4668E700BF240600200B
:1010100025060020180600203006002028060020A3
:101020001C0600202606002000100140FEFF7F0065
:10103000009B5A46002B40F0AE8112B1824BC3F8A0
:1010400000A0059BB34200F0BF80002E00F00A8193
:101050007E497F4CD1F8040525783368CCEB00023B
:1010600022F07F420332002D50D17A4DDFF8ECE1BF
:10107000794F4FF48036C1F84463C1F804634FF4EC
:101080000036C5F880612E6001250D60DEF8006035
:101090002F2100BF00BF00BF00BF00BF00BF00BFC7
:1010A00000BFBE422FD000BF00BF00BF00BF00BFC7
:1010B00000BF00BF00BF00BF00BF00BF00BF00BF38
:1010C00000BF00BF00BF00BF00BF00BF00BF00BF28
:1010D00000BF00BF00BF00BF00BF00BF00BF00BF18
:1010E00000BF00BF00BF00BF00BF00BF00BF00BF08
:1010F00000BF00BF00BF00BF00BF00BF00BF00BFF8
:1011000000BF00BF00BF0139C3D1257093422CBF7F
:101110009C4494444D492CF07F43C1F84035D1F8AC
:101120000425121A1B1A22F07F4223F07F43033258
:101130009A424DD9D1F80435484AC1F84035126871
:1011400045492F2300BF00BF00BF00BF00BF00BF45
:1011500000BF00BF8A422FD000BF00BF00BF00BF4A
:1011600000BF00BF00BF00BF00BF00BF00BF00BF87
:1011700000BF00BF00BF00BF00BF00BF00BF00BF77
:1011800000BF00BF00BF00BF00BF00BF00BF00BF67
:1011900000BF00BF00BF00BF00BF00BF00BF00BF57
:1011A00000BF00BF00BF00BF00BF00BF00BF00BF47
:1011B00000BF00BF00BF00BF013BC3D1254B4FF4B0
:1011C0000032C3F8002103E0079B002B7FF43DAF02
:1011D000234A0023137009B0BDE8F08F039B0093EE
:1011E0005AE6194ADDF800C0176800200546014696
:1011F0000446ABB11A68B2421BD8D8681C60B61A54
:101200001144DA6938B10CEB010727F07F47DD6143
:1012100098605F601D46134617467046002BE9D163
:10122000002840F0BC800023059301230793059E0E
:1012300019E6002840F0AC80921B05931A60012348
:101240000793059E0FE600BF1C060020001001401A
:101250003806002000E100E00024F40064000020D3
:10126000260600204F4A504B504D51484FF48031D4
:101270004FF400370124C3F88070C2F848132F23BD
:10128000C2F80813546029681D4600BF00BF00BFA4
:1012900000BF00BF00BF00BF00BF81422FD000BF12
:1012A00000BF00BF00BF00BF00BF00BF00BF00BF46
:1012B00000BF00BF00BF00BF00BF00BF00BF00BF36
:1012C00000BF00BF00BF00BF00BF00BF00BF00BF26
:1012D00000BF00BF00BF00BF00BF00BF00BF00BF16
:1012E00000BF00BF00BF00BF00BF00BF00BF00BF06
:1012F00000BF00BF00BF00BF00BF00BF00BF013D77
:10130000C3D194602B4A166000BF00BF00BF00BF6E
:1013100000BF00BF00BF00BF81422FD000BF00BF91
:1013200000BF00BF00BF00BF00BF00BF00BF00BFC5
:1013300000BF00BF00BF00BF00BF00BF00BF00BFB5
:1013400000BF00BF00BF00BF00BF00BF00BF00BFA5
:1013500000BF00BF00BF00BF00BF00BF00BF00BF95
:1013600000BF00BF00BF00BF00BF00BF00BF00BF85
:1013700000BF00BF00BF00BF00BF00BF013BC3D123
:101380000D4B1E7024E70D4A9DF8101011705EE59C
:101390000B490F6050E70B4B83F800E04DE6084B1C
:1013A0001F6040E70010014000E100E06400002001
:1013B0000024F4001806002038060020260600202D
:1013C0001C0600202806002008B5EFF30583C3F3B0
:1013D00008032BB172B6074A13680133136008BDC6
:1013E000EFF31483DB07F5D50349282000F020F83C
:1013F000F0E700BF3C0600204842000008B5EFF3CC
:101400000583C3F3080333B1074A1368013B136034
:1014100003B962B608BDEFF31483DB07F4D50349C3
:10142000362000F005F8EFE73C06002048420000B7
:1014300000B583B06A46ADF80000019144F20200A5
:101440000021FFF70FFC03B05DF804FB032810B583
:10145000044603D909492220FFF7EAFF084B1C5D27
:101460001F2C04D907494FF4DA70FFF7E1FF01237D
:101470004FF0A042A340C2F80C3510BDA0420000BE
:1014800034430000E4420000032810B504460FD89E
:101490000A4B1C5D1F2C04D909494FF4DA70FFF781
:1014A000C7FF01234FF0A042A340C2F8083510BD8A
:1014B00004492820FFF7BCFFEAE700BF34430000DF
:1014C000E4420000A0420000032810B5044603D9FE
:1014D0000D494020FFF7ACFF0C4B1C5D1F2C04D9BD
:1014E0000B494FF4DA70FFF7A3FF4FF0A041012240
:1014F000D1F8040502FA04F323EA00020340C1F81C
:101500000825C1F80C3510BDA0420000344300008E
:10151000E442000030B44FF0A04303224FF4003502
:101520004FF480244FF400204FF48011C3F8442777
:10153000C3F84827C3F84C27C3F85027C3F8085509
:10154000C3F80845C3F80805C3F8081530BC704750
:10155000072938B50D46044618D8002C1DDB04F1C8
:10156000604303F561436D01EDB283F80053E3B2CC
:101570006009800000F1604000F5614003F01F0247
:1015800001239340C0F88031036038BD07494FF410
:101590008470FFF74DFF002CE1DAE3B2044A03F058
:1015A0000F016D010A44EDB21576E1E73843000002
:1015B000FCEC00E02DE9F04F89B00026CC4B0396FF
:1015C0001A68012A00F04382CA4B1A68012A00F007
:1015D0003082C94B1A68012A00F01D82C74B1A6875
:1015E000012A00F00A82C64B1A68012A00F0F7812E
:1015F000C44B1A68012A00F0E481C34B1A68012A1F
:1016000000F0D181C14B1A68012A00F0BE81C04BA5
:101610001A68012A00F0AC8116F0FF0F1AD0BD4FF6
:1016200001250024A30003F180432E4203F5C043AB
:101630004FEA45050BD0D3F8100557F82420D3F80E
:101640001015C0F30420C1F3014102B190470134E9
:10165000082CE7D1002E02DB09B0BDE8F08FAD4EBB
:101660004FF0FF33059396F9503000225C1C37464B
:10167000049200F0F180DBB223F0C00908AA4FEA1F
:10168000D90102EB010A03F007001AF80C2C4FF005
:10169000010808FA00F812EA080422D007EB090250
:1016A0009D0992F9303057F823B0BBF1000F00F0DC
:1016B0004481032D00F04481B9F11F0F00F22E8107
:1016C0004FEA890303F1A0431AF8144CD3F800271A
:1016D00014EA0804C2F3014240F0D680032A00F065
:1016E0000E8296F95130581C34D0DBB223F0C00979
:1016F00008A94FEAD90201EB020A03F007001AF821
:101700000C1C4FF0010808FA00F811EA080F21D06C
:1017100007EB09019D0991F9303057F82330002B70
:1017200000F01D81032D00F01D81B9F11F0F00F2A3
:10173000C6804FEA890B0BF1A04B1AF8141CDBF89A
:10174000002711EA080FC2F3014240F0AB80032AE0
:1017500000F0BE8196F95230591C33D0DBB223F031
:10176000C00908A94FEAD90201EB020A03F00700F9
:101770001AF80C1C4FF0010808FA00F811EA080FDB
:1017800020D007EB09019D0991F9303057F823303B
:10179000002B00F0C980032D00F0C980B9F11F0FA4
:1017A00000F295804FEA890B0BF1A04B1AF8141C3C
:1017B000DBF8002711EA080FC2F301424ED1032AD9
:1017C00000F06F8196F953305A1C32D0DBB223F00F
:1017D000C00908A94FEAD90201EB020A03F0070089
:1017E0001AF80C1C4FF0010808FA00F811EA080F6B
:1017F0001FD007EB09019D0991F9303057F82330CC
:10180000002B00F0A380032D00F0A380B9F11F0F7F
:1018100065D84FEA890B0BF1A04B1AF8141CDBF8C2
:10182000002711EA080FC2F3014222D1032A00F077
:101830001A81002C3FF410AF4FF0A043039AD3F865
:10184000103593423FF408AF039396F95030049A51
:1018500005925C1C7FF40FAF002442E7022AB1D14D
:10186000032D00F06181002BACD0294648469847F3
:10187000A8E7022ADDD1032D00F05981002BD8D032
:10188000294648469847D4E7022AE5D1032D00F0BF
:1018900074810024BBF1000F3FF423AF2946484672
:1018A000D8471EE7022A7FF455AF032D00F042818E
:1018B000002B3FF44FAF2946484698474AE7164960
:1018C00001934FF4DA70FFF7B3FD019B31E7124942
:1018D00001934FF4DA70FFF7ABFD019B62E70E490D
:1018E00001934FF4DA70FFF7A3FD019B91E700BF6E
:1018F0000061004004610040086100400C6100404C
:101900001061004014610040186100401C610040FB
:101910007C61004040060020E442000098494FF4FA
:10192000DA70FFF785FDCBE6032D7FF44BAF04A8FB
:10193000815C41EA0801815430E7032D40F0AD801D
:1019400004AA535C43EA08035354B5E6032D7FF41D
:1019500070AF04A8815C41EA0801815456E7032D69
:101960007FF4F8AE04A8815C41EA08018154DCE60A
:1019700000221A601B6807934FF0A043079AD3F820
:101980001035039346F0004646E67E4AD2F804231B
:1019900015067FF53CAE00221A601B680693069B75
:1019A00046F0800633E6774AD2F8042357067FF5DF
:1019B00029AE00221A601B680693069B46F040067B
:1019C00020E6704AD2F8042392067FF516AE002274
:1019D0001A601B680693069B46F020060DE6694ACE
:1019E000D2F80423D1067FF503AE00221A601B68EB
:1019F0000693069B46F01006FAE5624AD2F80423E5
:101A000010077FF5F0AD00221A601B680693069B55
:101A100046F00806E7E55B4AD2F8042354077FF551
:101A2000DDAD00221A601B680693069B46F0040693
:101A3000D4E5544AD2F8042395077FF5CAAD0022B5
:101A40001A601B680693069B46F00206C1E54D49E5
:101A5000D1F8041311F0010121D01E601B68069318
:101A6000069B1646B0E5032D7FF408AF4FF400380F
:101A7000B9F11F0F79D8DBF8001721F44031CBF80A
:101A80000017DBF80027013448EA0202E4B2CBF881
:101A90000027002B7FF4F4AECEE65C4621E60E462E
:101AA00092E5032D7FF4DFAE4FF40038B9F11F0F3C
:101AB00053D8DBF8001721F44031CBF80017DBF8DE
:101AC0000027013448EA0202E4B2CBF80027CAE654
:101AD000032D7FF4EDAE4FF40038B9F11F0F34D869
:101AE000DBF8001721F44031CBF80017DBF80027B2
:101AF000013448EA0202E4B2CBF80027D8E6032D0D
:101B00007FF4C8AE4FF40034B9F11F0F15D8D3F8E5
:101B1000001721F44031C3F80017D3F800272243FF
:101B2000C3F800270124B5E64FF44038BEE74FF470
:101B300040389DE74FF44038CFE7114901934FF407
:101B4000DA70FFF775FC019BE1E70D4901934FF453
:101B5000DA70FFF76DFC019BC2E7094901934FF46E
:101B6000DA70FFF765FC019BA3E7054901934FF489
:101B7000DA70FFF75DFC019B7DE74FF44034C3E76B
:101B8000E4420000006000402DE9F0410024C1F86B
:101B900004418EB0D1F804510495049DC1F824414C
:101BA000D1F824510395039DC1F81C41D1F81C5173
:101BB0000295029DC1F80841D1F808510195012B09
:101BC00080F8264080F82340019D0CBF02240124A8
:101BD0000125C1F800420D620D6004684CB140F26D
:101BE000862383608368C1F8043300200EB0BDE80B
:101BF000F0812E4603F1FF3E4FF0020C90F8235087
:101C0000002D3BD1D1F8247190F82680002F48D0C8
:101C1000C1F82451D1F824510A950A9D4E6180F8EB
:101C200023604345EAD1D1F80451002DE6D00023CA
:101C3000C1F80431D1F8042190F823300592059AB7
:101C4000C3B1D1F8C434C1F8C4349BB113F0010F4F
:101C500018BF4FF4024048F2012208BF032013F0DE
:101C6000020F18BF104648F2022213F0040F18BFEB
:101C70001046BBE700200EB0BDE8F081C1F824415A
:101C8000D1F824510B950B9DC1F81C41D1F81C5182
:101C90000C950C9DC1F80841D1F808510D950D9D8A
:101CA000C1E7D1F81C51ADB1C1F81C71D1F81C517C
:101CB0000995099DD1F824511DBB90F82650AB42DF
:101CC0003DD9555DC1F81C5590F82650013580F876
:101CD0002650A6E7D1F80871002FA2D0C1F808510C
:101CE000D1F808710797079FD1F824719FB1C1F807
:101CF0002451D1F824510695069D4E6180F8236049
:101D00008FE7C1F82471D1F824510895089D4E61E0
:101D100080F8236085E790F82650AB4281D9D1F84E
:101D20001875575590F826500135EDB2754580F875
:101D3000265006D0AB423FF474AF0E6271E74E619D
:101D40006FE7C1F800C2F8E72DE9F0430024C1F8BD
:101D500004418FB0D1F804510495049DC1F8244189
:101D6000D1F824510395039DC1F81C41D1F81C51B1
:101D70000295029DC1F80841D1F80851019501254D
:101D8000019EC1F8004280F8264080F823400D6291
:101D90008D6090F826409DF85870A34213D9145DC9
:101DA000C1F81C4590F826402C4480F82640046871
:101DB0007CB140F2862383608368C1F8043300203D
:101DC0000FB0BDE8F083002F48D0CD610468002C2F
:101DD000EFD103F1FF3C4FF0010E4FF0020890F8F5
:101DE0002350002D3CD1D1F8246190F82690002E8C
:101DF00049D0C1F82451D1F824510A950A9DC1F85F
:101E000014E080F823E04B45E9D1D1F80451002DCE
:101E1000E5D00023C1F80431D1F804310593059BC6
:101E200090F82330002B6AD0D1F8C434C1F8C43400
:101E3000002B64D013F0010F18BF4FF4024048F29A
:101E4000012208BF032013F0020F18BF104648F20A
:101E5000022213F0040F18BF1046B1E74D61A6E748
:101E6000C1F82441D1F824510B950B9DC1F81C41B8
:101E7000D1F81C510C950C9DC1F80841D1F80851BE
:101E80000D950D9DC1E7D1F81C51ADB1C1F81C6194
:101E9000D1F81C510995099DD1F8245125BB90F822
:101EA0002650AB4245D9555DC1F81C5590F82650D7
:101EB000013580F82650A6E7D1F80861002EA2D09F
:101EC000C1F80851D1F808610796079ED1F824613E
:101ED000CEB1C1F82451D1F824510695069DC1F820
:101EE00014E080F823E08EE7C1F82461D1F8245192
:101EF0000895089DC1F814E080F823E083E70020EE
:101F00000FB0BDE8F08390F82650AB427FF67BAF70
:101F1000D1F81865565590F826500135EDB2654553
:101F200080F826500CD0AB423FF46DAFC1F820E0F2
:101F300069E717B10123CB6172E7C1F814E062E7EA
:101F4000C1F80082F2E700BF2DE9F04F804683B070
:101F50000C46002900F0F38194E8030088424AD03F
:101F600098F80450654EAF007919C900701890F8C0
:101F700022E0BEF1000F03D0082003B0BDE8F08FCF
:101F80007250C0F808E0436080F825E080F824E053
:101F9000A37B80F82730637BB3BB23684FF0A0415D
:101FA00003F5E07340F20C6041F82300636803F529
:101FB000E0737A1941F82300D8F80030216860688E
:101FC00056F83220C3F80815C3F80C05A168C3F809
:101FD000241532B1D8F80000217B40F30730FFF719
:101FE000B7FA3D4406EBC5050123002085F82230F1
:101FF00003B0BDE8F08F4249D6208DE80C00FFF712
:1020000017FA9DE80C00ABE723684FF0A04203F5F8
:10201000E07340F20C6142F82310636803F5E0734B
:1020200042F82310D4F80090B9F11F0F00F290810C
:1020300001234FF0A04203FA09F3C2F80835D4F89F
:102040000490B9F11F0F00F289814FF0A0430122E3
:1020500002FA09F2C3F808252168DFF8AC90294A92
:1020600001F5E07140F20D6043F82100616801F56F
:10207000E07143F821000423D9F8001000BF00BF2D
:1020800000BF00BF00BF00BF00BF00BF91422FD004
:1020900000BF00BF00BF00BF00BF00BF00BF00BF48
:1020A00000BF00BF00BF00BF00BF00BF00BF00BF38
:1020B00000BF00BF00BF00BF00BF00BF00BF00BF28
:1020C00000BF00BF00BF00BF00BF00BF00BF00BF18
:1020D00000BF00BF00BF00BF00BF00BF00BF00BF08
:1020E00000BF00BF00BF00BF00BF00BF00BF00BFF8
:1020F000013BC3D14FF0000B9246A5E098060020AB
:10210000E84300000024F400640000204FF0A041E8
:10211000D1F8101521FA03F3DB0700F1B38023682F
:102120001F2B00F2A78001214FF0A04001FA03F31A
:10213000C0F80C35D9F80010042300BF00BF00BF61
:1021400000BF00BF00BF00BF00BF51452FD000BF80
:1021500000BF00BF00BF00BF00BF00BF00BF00BF87
:1021600000BF00BF00BF00BF00BF00BF00BF00BF77
:1021700000BF00BF00BF00BF00BF00BF00BF00BF67
:1021800000BF00BF00BF00BF00BF00BF00BF00BF57
:1021900000BF00BF00BF00BF00BF00BF00BF00BF47
:1021A00000BF00BF00BF00BF00BF00BF00BF013BBA
:1021B000C3D123681F2B53D84FF0A04E0120984065
:1021C000CEF80805042300BF00BF00BF00BF00BF5A
:1021D00000BF00BF00BF51452FD000BF00BF00BFF0
:1021E00000BF00BF00BF00BF00BF00BF00BF00BFF7
:1021F00000BF00BF00BF00BF00BF00BF00BF00BFE7
:1022000000BF00BF00BF00BF00BF00BF00BF00BFD6
:1022100000BF00BF00BF00BF00BF00BF00BF00BFC6
:1022200000BF00BF00BF00BF00BF00BF00BF00BFB6
:1022300000BF00BF00BF00BF00BF013BC3D10BF117
:10224000010BBBF1090F21D063681F2B7FF65EAF36
:102250004B4900934FF4DA70FFF7EAF8009B55E71B
:10226000474900934FF4DA70FFF7E2F8454B1968DD
:10227000009BA1E7424900934FF4DA70FFF7D8F8CA
:10228000009B50E7BBF1000F3FF487AED4F804A0E9
:10229000BAF11F0F6ED84FF0A042012303FA0AF3E0
:1022A000C2F80C35D9F800203749042300BF00BF1D
:1022B00000BF00BF00BF00BF00BF00BF8A422FD0D9
:1022C00000BF00BF00BF00BF00BF00BF00BF00BF16
:1022D00000BF00BF00BF00BF00BF00BF00BF00BF06
:1022E00000BF00BF00BF00BF00BF00BF00BF00BFF6
:1022F00000BF00BF00BF00BF00BF00BF00BF00BFE6
:1023000000BF00BF00BF00BF00BF00BF00BF00BFD5
:1023100000BF00BF00BF00BF00BF00BF00BF00BFC5
:10232000013BC3D1D4F80490B9F11F0F1CD801238D
:102330004FF0A04203FA09F3C2F808352DE613491D
:10234000D5208DE80C00FFF773F89DE80C0003E63C
:102350000B494FF4DA70FFF76BF869E608494FF460
:10236000DA70FFF765F870E605494FF4DA70FFF7A9
:102370005FF8DCE702494FF4DA70FFF759F88AE7B3
:10238000E4420000640000200024F400E843000060
:10239000F8B504790C4DA7003B1905EBC3030646BD
:1023A00093F82230012B04D008494FF4A770FFF7AF
:1023B0003FF83C44336805EBC4040221052284F84D
:1023C0002210C3F80025F8BD98060020E84300005D
:1023D0002DE9F04F87B003AE9DF8405000247460A3
:1023E0000394B460C5B9AC460479DFF88880D0F8AE
:1023F00000E004EB8404E4004FF0FF3008EB040736
:10240000CEF8080397F8240050B1BB68CEF8043327
:10241000112007B0BDE8F08F01254FF0200CE3E755
:102420008DF80E308DF80D10049292468B4696E88A
:102430000700994607F10C0383E80700012187F89C
:1024400024104B46CEF888B5524600957146384662
:10245000C7F818C087F82090C7F81CA087F821504B
:10246000FFF772FC58F80430002BD2D187F82430E3
:10247000CFE700BF980600202DE9F04F0479234FE5
:10248000D0F800E004EB8404E4004FF0FF3007EBE9
:10249000040885B0CEF8080301AD98F82460002048
:1024A00068600190A8603EB1D8F80830CEF80433D7
:1024B000112005B0BDE8F08F4FF0010B8DF806300C
:1024C0008DF8051002928DF804B006F0FF0C9146CD
:1024D0000E4695E8070008F10C0585E8070088F826
:1024E00024B088F82030CEF88865C8F818C04A466D
:1024F00071464046C8F81C9088F821C0FFF744FB9D
:102500003B59002BD5D188F82430D2E7980600201B
:10251000F0B5794C236891B0002B00F0C28094F89C
:102520002310754A754BA9B9D3F8240192F820609D
:1025300092F8265000284BD0C3F82411D3F8241168
:1025400008910121089882F823105961AE4214D0F5
:1025500011B0F0BD0022C3F82421D3F82411099151
:102560000999C3F81C21D3F81C110A910A99C3F8E0
:102570000821D3F808310B930B9B604BD3F804214F
:10258000002AE5D00022C3F80421D3F804310393D4
:10259000039B94F823305848002B34D1017B8B1EC9
:1025A000012B6AD9564B93E8070010AD05E90700E7
:1025B00000238DF83030A3694F490022580784F872
:1025C0002420C5D40B6849680CA8984711B0F0BD09
:1025D000D3F81C11D76961B3C3F81C01D3F81C11DF
:1025E00007910799D3F8241192F821E000295ED0D1
:1025F000C3F82401D3F8241106910121069882F82A
:1026000023105961A2E70C3007C810AB03E907009B
:102610003A4AD2F8C434C2F8C4349A0703D5012325
:102620008DF83030C7E75D0744BF02238DF83030A6
:10263000C1E7D3F80801002888D0C3F80811D3F8FF
:10264000080105900598D3F8240100283ED1AE4238
:102650007FF67CAFD3F81815795592F82610013122
:10266000C9B2701E814282F826103CD08E423FF4DF
:102670006DAF224B01221A6268E7C26903699A4270
:1026800090D184694269C37BC261C4F340140329B9
:1026900080F8214080F8203029D01849FFF774FADB
:1026A00056E7184940F2FF30FEF7C2FE37E7AE4268
:1026B00005D80122BEF1000F13D15A6146E7795DBA
:1026C000C3F81C156B1C82F826303FE7C3F82411B1
:1026D000D3F8241104910121049882F82310596140
:1026E00034E7DA6155E70222C3F80022C1E700941B
:1026F0000249FFF729FB2BE7980600200030004035
:10270000A4060020E84300002DE9F043954F3A78F5
:102710008BB0002A40F088800123DFF87082924954
:102720003B7098F801900B68002B5FFA89F914BF91
:102730000123002303D00A600A680092009A8B4AA2
:10274000116800294FEA430314BF0121002104D07E
:102750000020106012680192019A854A10680028D2
:1027600043EA412314BF0121002104D0002010605E
:1027700012680292029A7F4A1068002843EAC14315
:1027800014BF0124002404D00021116012680392B8
:10279000039A794A1168002943EA045314BF0124BB
:1027A000002404D00021116012680492049A734A34
:1027B0001168002943EA446314BF0124002404D0B3
:1027C0000021116012680592059A53EA846427D0AB
:1027D0000426012509F1FF39B9F1030F3FD8DFE8DD
:1027E00009F0575D022A664B234003BB4FF040229D
:1027F000D8F80410D2F8D034C2F8D034D8F8082071
:10280000002B08BF4FF480731A4305200993C8F8C2
:1028100008208DF8200009B108A888474FF000096A
:10282000002388F801903B700BB0BDE8F08334F4CE
:10283000002400F09080534B2340002BD6D04FF063
:1028400040238DF81860D3F83C35D8F80420DBB26B
:1028500007930AB106A8904734F00204DED014F0C2
:102860000203F9D1600144D5E202D8F804208DF8C2
:10287000183056BF01234FF0020999468DF81C30DD
:102880000AB106A8904724F0C364002CA2D1C7E780
:102890003D4B23402BB134F480145FD0394B23409F
:1028A000BBB94FF04022D8F80410D2F8D034C2F8A7
:1028B000D034D8F80820002B08BF4FF480731A4397
:1028C00002200993C8F808208DF820000029A3D120
:1028D000A4E74FF040238DF81850D3F84C35D8F8C2
:1028E0000420DBB20793002AB4D134F00204B6D13D
:1028F00094E7A30116D504F40023002BD8F8043084
:102900004FF003020CBF012100218DF81C100CBFF9
:1029100091464FF004098DF81820002BB3D006A87B
:102920009847B0E74FF04022D8F80410D2F8D034DE
:10293000C2F8D034D8F80820002B08BF4FF48073B9
:102940001A4306200993C8F808208DF820000029B2
:102950007FF462AF62E74FF0040961E74FF00209CC
:102960005EE700BFC0060020044100402441004053
:102970004C410040504100406441004068410040EB
:10298000020008060200000602001006C40600202D
:1029900070B59B4C237F8EB0002B75D1994AD2F82D
:1029A0000413890548D4974BD3F80423520704D560
:1029B000D3F80821002A40F0CA80924BD3F81C219A
:1029C000C2B1A28AA07D8E4992B282424FF000022B
:1029D000C3F81C2180F0A980D3F81C210692069A26
:1029E000888A8A8A8D6880B20132285C92B28A8293
:1029F000C3F81C05834BD3F84421DAB10022C3F895
:102A00004421D3F84411A27E04910499002A40F095
:102A10008980E27D7A4B6AB10022587ED968DA75E6
:102A200001228DF830000B918DF828200AA893E838
:102A3000060090470EB070BDD2F824110029B2D024
:102A4000C2F82431D2F82411A37E07914FF401710A
:102A50000798C2F808130BB901235360694A02238F
:102A60008DF82830D2F88034C2F88034E07DE268F6
:102A70000D9300238DF83000E375237621680B92C7
:102A800063680AA8984798E75E4BD3F82421002A88
:102A900040F09380D3F8101161B1C3F81021D3F83E
:102AA000101103910399D3F83C15E07DC9B2884217
:102AB00000F0AA80534BD3F84421B2B10022C3F8EE
:102AC0004421D3F84411E07D019101994C4960B152
:102AD000D3F83C35C8688DF830300123CA750B90A7
:102AE0008DF828300AA80AC99847464BD3F8202108
:102AF000002A9FD00022C3F82021D3F82011A07D06
:102B0000009100993E49002894D0D3F84C058B6879
:102B10008DF830008A750B938DF828200AC90AA811
:102B2000984787E701221A6073E7D3F81C310593B1
:102B3000059B00283FF45EAF8B688DF830008A75E6
:102B40000B938DF828200AC90AA8984752E7E17D1F
:102B50002B4A002970D00021C3F80811D3F80811BE
:102B600008910899D068517ED3F818354354537EA4
:102B7000D17D0133DBB25376627E214B8A427FF4F2
:102B80001CAF1A7E002A6DD19B7E13B91D4B01220A
:102B90005A601C4AE06863684FF40171C2F8081378
:102BA000627E8DF83020002501220B902168E575AA
:102BB0008DF828200AA89847FFE60022C3F82421B0
:102BC000D3F82411029102218DF828100299D3F82C
:102BD0008014C3F880140D91D3F83C15E368E275B6
:102BE00022768DF830100B93216863680AA8984705
:102BF000044BD3F84421002A3FF477AF5EE700BFCF
:102C0000D006002000200040217EF1B1D3F8006200
:102C1000E17526F02001E568C3F8001226698DF8F9
:102C2000300001238DF82830227621680B95E6606C
:102C300063680AA898473DE7C3F80811D3F808214C
:102C40000992099AD3F8183596E7E268E1750123ED
:102C50008DF830008DF828300B9294E80A000AA80D
:102C6000984727E7DE685D7E1869DA750121002242
:102C7000D8601A765A768DF828100B968DF8305059
:102C800093E806000AA8904797E600BF30B587B0E2
:102C900002AC002584E803008DF814208DF815306F
:102CA00000952046022305AA1921FFF791FB08B9D8
:102CB00007B030BD02490220FDF786FEF8E700BFED
:102CC000484400002DE9F04FABB0FEF723FC002094
:102CD000FDF75EFE08B1FDF7B5FF26AE00241B250B
:102CE000F460234622461A24269527944FF0CD659A
:102CF00002243146AD4828958DF8A440FFF724F909
:102D0000002800F00B83FDF79DFFA949A94C132073
:102D1000FDF75AFEA54B93E80300032300254FF06F
:102D200001080CAF0DF1180923701F22C02389E898
:102D3000030084F8018084F8038084F8048084F818
:102D40000580A570A571E57125726572A572E572A1
:102D500025736573A573E57325746574A574E574AF
:102D600025756575A575E57525766576A576E5768F
:102D7000257787E803006577A577E57784F8205005
:102D800084F8215084F82250FFF780FF6079A17801
:102D900094F801E0E278237900EA0800C90040EAEB
:102DA0000E1001F008019200014302F0040203FA40
:102DB00008F30A4303F00203134397E80300DBB26E
:102DC0002022FFF763FFE37AE07994F806E0217AA6
:102DD000627A03EA0803000143EA8E1E00F0300025
:102DE000A37AC9004EEA000001F0080192000143F5
:102DF00002F0040203FA08F30A4303F00203134348
:102E000097E80300DBB22122FFF740FF637BA27B40
:102E100094F80FE094F80CC0207C617C9B01520177
:102E200002F0200203F0400313434FEA0E1E43EA70
:102E3000CC130EF0100EA27CC00043EA0E0300F08B
:102E400008008900184301F0040102FA08F303F0B6
:102E5000020340EA0102134397E8030003F0FE0374
:102E60002222FFF713FFA17D227DE07C637D01EA32
:102E70000801120141EAC01102F0300203FA08F31E
:102E80000A4303F00603134397E8030003F0B70374
:102E90002322FFF7FBFE237F207E94F817E0617E5C
:102EA000A27E03EA0803800143EACE1E00F0400040
:102EB000E37EC9004EEA000001F0080192000143E0
:102EC00002F0040203FA08F30A4303F00203134377
:102ED00097E8030003F0CF032422FFF7D7FEA37F78
:102EE000E27F94F820E094F81DC094F8210094F853
:102EF00022109B01520102F0200203F040034FEA2E
:102F00000E14134343EACC1304F01004C20023430D
:102F100001FA08F102F008021A4301F00203134318
:102F200097E8030003F0FA032522FFF7AFFE99E8C4
:102F3000030008AB2AAF83E803000F2307F8183D0E
:102F40000DF1280900953A4689E8030043464846B2
:102F50001921FFF73DFA0446002840F0D981434685
:102F6000484632461921FFF787FA0446002840F008
:102F7000C9819DF89820332A0CBF0F490F491320AF
:102F8000FDF76EFD0EAC0DF1880B0DF1800A0DF111
:102F900078090DF170080025FDF7B6FD03460028FD
:102FA000FAD1074A07481168074A0FE04044000079
:102FB000784400001409002008450000384500004E
:102FC000640000200024F40040420F0000BF00BF56
:102FD00000BF00BF00BF00BF00BF00BF81422FD0B5
:102FE00000BF00BF00BF00BF00BF00BF00BF00BFE9
:102FF00000BF00BF00BF00BF00BF00BF00BF00BFD9
:1030000000BF00BF00BF00BF00BF00BF00BF00BFC8
:1030100000BF00BF00BF00BF00BF00BF00BF00BFB8
:1030200000BF00BF00BF00BF00BF00BF00BF00BFA8
:1030300000BF00BF00BF00BF00BF00BF00BF00BF98
:10304000013AC3D1B74A92E8030010AA82E803000C
:1030500084E803004FF00F0E009305AA86E80300F2
:103060000123304619218DF814E0FFF7B1F900284B
:1030700040F0E28001230DF1170219213046FFF7DD
:10308000FBF9002840F01B819DF81720A64913206A
:10309000FDF7E6FC94E8030012AB83E803004FF071
:1030A000270E0095012387E8030005AA1921384659
:1030B0008DF814E0FFF78CF9002840F0E58001233B
:1030C0000DF1170219213846FFF7D6F9002840F014
:1030D000EE809DF8172095491320FDF7C1FC94E878
:1030E000030014AB83E803004FF0290E0095012381
:1030F0008BE8030005AA192158468DF814E0FFF764
:1031000067F9002840F0B88001230DF1170219215A
:103110005846FFF7B1F9002840F0C1809DF817200C
:10312000834952B21320FDF79BFC94E8030016ABD1
:1031300083E803004FF02B0E009501238AE803007B
:1031400005AA192150468DF814E0FFF741F900282F
:1031500040F08A8001230DF1170219215046FFF734
:103160008BF9002840F0BB809DF8173071495BB2A5
:103170001A4613200393FDF773FC039B012B4FF0BA
:10318000000000F0BC80002B40F38680FEF77CF945
:1031900094E8030018AB83E803004FF02D0E009570
:1031A000012389E8030005AA192148468DF814E097
:1031B000FFF70EF900284FD101230DF11702192155
:1031C0004846FFF759F9002840F081809DF8172004
:1031D000594952B21320FDF743FC94E803001AAB9F
:1031E00083E803004FF00C0E0095012388E80300EC
:1031F00005AA192140468DF814E0FFF7E9F818BB3D
:1032000001230DF1170219214046FFF735F9002877
:103210006DD19DF81720494952B21320FDF720FCCB
:1032200013204749FDF7D0FB0020FEF74DF9FDF7CD
:103230006BFC0028FBD1AFE6039042490220FDF76A
:10324000C3FB039AD2B221E703903E490220FDF767
:10325000BBFB039AD2B2DEE703903A490220FDF7A6
:10326000B3FB039AD2B2B3E7039036490220FDF7CD
:10327000ABFB039BDBB279E7039032490220FDF7F9
:10328000A3FB039AD2B24BE703902E490220FDF72D
:103290009BFB039AD2B21EE7FEF7D8F878E70390BB
:1032A00029490220FDF790FB039AD2B238E7039038
:1032B00025490220FDF788FB039AD2B20BE7039061
:1032C00021490220FDF780FB039AD2B2DEE603908B
:1032D0001D490220FDF778FB039AD2B278E70390EC
:1032E00019490220FDF770FB039BDBB23EE7039018
:1032F00015490220FDF768FB039AD2B28BE7FEF76F
:10330000E3F845E710490220FDF75EFBE2B232E642
:103310000C490220FDF758FBE2B22CE60148FFF70A
:1033200037F8F2E44044000068450000844500009E
:10333000A0450000BC450000D8450000F445000051
:10334000C844000094440000CC4400002DE9F84F2C
:103350004300DFF870A11E180AEBC6068846F16A22
:103360000129174641D031D3022939D1013000EB70
:103370004000756A4FEAC0094FF0000B1CE0326A4A
:10338000641BBC420AEB09012346A2EB050428BFDB
:103390003B469C42486828BF1C462844414622467A
:1033A00000F080FA336A25449D4208BF00253F1B88
:1033B000A344A044756215D0B36AAB4203F1FF3455
:1033C000DDD8326A1344013B5C1BDAE7B16A726AEA
:1033D00091429CBF346A091901398A1A974236D939
:1033E0004FF0000B5846BDE8F88FB16A756AA942E4
:1033F00027D90139326AC5EB010B03440AEBC30A32
:10340000BB45DAF824502F4B28BFBB46561B013072
:10341000B34500EB40003BD303EBC0043246606889
:1034200041462844C6EB0B0500F03CFA606808EB07
:1034300006012A4600F036FACAF824505846BDE87C
:10344000F88F326A8C18013CC5EB040BD5E70344B6
:103450000AEBC30A0130DAF82460DAF82040194B8D
:10346000A41BA74200EB40001ED303EBC00522467D
:103470006868414630443E1B00F014FA686808EB67
:103480000401324600F00EFABB46CAF82460A9E7F0
:1034900003EBC003414658685A4628445D4400F097
:1034A00001FACAF824509DE703EBC003414658686F
:1034B0003A4630443E4400F0F5F9BB46CAF8246071
:1034C00090E700BF78090020F8B5114C2378F3B9D4
:1034D000A362104A63620220A365E362E365636549
:1034E0000D4F0E4D0E49206110234FF400762365D9
:1034F0006061A261A264E01DE7612662E56400F0FC
:103500000FFA0849204600F00BFA2023A371F8BDFA
:10351000780900201046000000070020F006002077
:103520001C460000204600000649074A074B9B1A2C
:1035300003DD043BC858D050FBDC00F013F8FCF767
:103540008DFF00007447000000000020E001002013
:10355000FEE7FEE7FEE7FEE7FEE7FEE7FEE7FEE743
:10356000FEE7FEE7F0B4A64B1B78062B1BD0A54A5E
:10357000D2F8883043F47003C2F88830BFF34F8F1D
:10358000BFF36F8F4FF01023D3F80022002AC0F250
:103590000581D3F80432002BC0F200819A4B9B4A7C
:1035A0001A60F0BC70479A4B1B681E07DFD1994B1D
:1035B0001B6803F0F003302B02D1974B974A1A6037
:1035C000944B1B6803F0F002302A00F0D68003F021
:1035D000E003402B00F0D1808E4B1B6803F0F0031A
:1035E000302B00F0BB808B4B1B6803F0F002302ABD
:1035F00000F0A08003F0E003402B00F09B80854B9F
:103600001B6803F0F003302B00F08680814B1B68B1
:1036100003F0F003302B68D07E4B1B6803F0F003FF
:10362000502B10D07B4B1B6803F0F002302A03D0E4
:1036300003F0E003402B9AD1794B7A4A1B6803F0E0
:103640004F03136093E74FF08052774BD2F8041486
:10365000C3F82015D2F80814C3F82415D2F80C14B6
:10366000C3F82815D2F81014C3F82C15D2F8141486
:10367000C3F83015D2F81814C3F83415D2F81C1456
:10368000C3F84015D2F82014C3F84415D2F8241416
:10369000C3F84815D2F82814C3F84C15D2F82C14E6
:1036A000C3F85015D2F83014C3F85415D2F83414B6
:1036B000C3F86015D2F83814C3F86415D2F83C1476
:1036C000C3F86815D2F84014C3F86C15D2F8442436
:1036D0004B49C3F870250A78062A7FF448AF4C4B53
:1036E0001B681B077FF443AF9CE7454B4F491B7892
:1036F0004F4D5048504A05270F60012600243F21B6
:10370000062B2E60046011607FF431AF404B1B68C4
:103710001A077FF42CAF7FE7394B484A1B78032107
:10372000062B11607FF423AF394B1B6819077FF418
:103730001EAF6BE7324B1B784FF080420021062B07
:10374000C2F80C11C2F81011C2F838157FF40FAF8F
:103750002F4B1B6818077FF40AAF50E73849284AF7
:10376000CB68127823F08073062ACB60B4D1284B43
:103770001B681C077FF4FBAE35E7324A204B12680A
:103780001B783149C2F34232062B0A607FF4EFAE58
:103790001F4B1B681D077FF4EAAE1DE72B4B012270
:1037A000C3F80425D3F80024002AFBD04FF01023DF
:1037B00015222649C3F80022D1F80034002BFBD093
:1037C0004FF0102315222149C3F80422D1F8002418
:1037D0001E4B002AFAD00022C3F80425D3F8002497
:1037E000002AFBD0BFF34F8F0649194BCA6802F479
:1037F000E0621343CB60BFF34F8F00BFFDE700BF14
:10380000E00F00F000ED00E0640000200090D00325
:10381000E40F00F0E80F00F074C007400DF0ADBAFF
:1038200058020010E40E004000C000401056004056
:10383000885600401856004014560040A00500402D
:10384000F0ED00E0440200103C05004000E00140C3
:103850000400FA05034B1B68186A034B002808BFD5
:1038600018467047600000206800002008B5034B30
:103870001868FFF7EFFFD0F8EC0008BD60000020EB
:1038800082B001B901A93AB143B113780B60127843
:10389000101C18BF012003E0104601E06FF001008A
:1038A00002B0704710B5431E0A44914204D011F88B
:1038B000014B03F8014FF8E710BD00000CB430B520
:1038C000164B0C1E9DB01D6804DA8B232B604FF045
:1038D000FF301EE04FF40273ADF8143014BF04F152
:1038E000FF332346049307934FF6FF73029006902D
:1038F000ADF81630209A21AB02A92846019300F0BA
:1039000085F8431CBCBF8B232B6014B1029B0022A3
:103910001A701DB0BDE8304002B070476000002052
:10392000034611F8012B03F8012B002AF9D1704747
:10393000034613F8012B002AFBD1181A01387047EF
:1039400049B1FF2A85BF8A2303600A704FF0FF3018
:1039500098BF01207047084670472DE9F0478E68F0
:103960009E4282460C46914698463ED88A8912F479
:10397000906F3AD0256809696F1A6569022305EBD3
:10398000450595FBF3F57B1C43449D4238BF1D461E
:1039900053050FD5294600F085FB064698B13A46F7
:1039A0002169FFF77FFFA38923F4906343F080032D
:1039B000A38113E02A4600F0D3FB064670B92169C3
:1039C000504600F021FB0C23CAF80030A38943F0D5
:1039D0004003A3814FF0FF30BDE8F08726616561A9
:1039E0003E44ED1B2660A5604646464528BF464638
:1039F00032464946206800F0EBFAA3689B1BA3609F
:103A000023681E4426600020BDE8F0872DE9F04FB2
:103A10009DB0804603938B891C060D4616460DD536
:103A20000B695BB9402100F03DFB2860286118B9A3
:103A30000C23C8F80030CDE040236B6100230993CC
:103A400020238DF82930DFF89CB130238DF82A30FF
:103A500037463C4614F8013B1BB9B7EB060910D0BA
:103A600003E0252BF9D02746F3E74B46324629469B
:103A70004046FFF772FF013000F0A780099B4B44DE
:103A800009933B78002B00F0A08000234FF0FF3219
:103A900004930793059206938DF853301A930126E9
:103AA000052221784E4800F043FA671C049B38B188
:103AB0004B4A801A06FA00F0184304903C46EFE7A0
:103AC000D90644BF20228DF853201A0744BF2B2269
:103AD0008DF8532022782A2A03D0079A00210A2041
:103AE0000BE0039A111D12680391002A10DA52426A
:103AF00043F00200079204900BE0274601343B7824
:103B0000303B092B03D800FB02320121F5E701B15C
:103B100007923B782E2B1ED17B782A2B0AD1039B50
:103B20001A1D1B680392002BB8BF4FF0FF330237FA
:103B3000059310E000230593781C19460A240746D4
:103B400001303A78303A092A03D804FB01210123D5
:103B5000F5E703B1059103223978224800F0E8F92E
:103B600040B14023CBEB000003FA00F0049B184364
:103B70000490013739781C488DF8281006227E1CE5
:103B800000F0D6F988B1194B33B9039B073323F002
:103B900007030833039314E003AB00932A46144B46
:103BA00004A94046AFF3008007E003AB00932A4628
:103BB0000F4B04A9404600F093F8B0F1FF3F824656
:103BC00003D0099B5344099342E7AB895B0601D4B8
:103BD000099801E04FF0FF301DB0BDE8F08F00BF45
:103BE00033470000394700003D4700000000000057
:103BF0005B3900002DE9F04791461F460A698B6842
:103C0000DDF820809342B8BF1346C9F8003091F820
:103C1000432006460C4612B10133C9F80030236830
:103C2000990642BFD9F800300233C9F80030256840
:103C300015F0060510D104F1190A07E001235246D8
:103C400039463046C04701301AD00135E368D9F80B
:103C500000209B1A9D42F1DB94F843302268003328
:103C600018BF012392060FD5E1185A1C302081F8A5
:103C70004300224494F8451082F84310023303E0D5
:103C80004FF0FF30BDE8F08704F14302394630467B
:103C9000C0470130F4D02268D9F80050E36802F040
:103CA0000602042A08BF5D1B2269A3680CBF25EA2F
:103CB000E57500259342C4BF9B1AED184FF000092B
:103CC0001A344D4509D00123224639463046C047B3
:103CD0000130D5D009F10109F3E70020BDE8F087F4
:103CE0002DE9F04317460A7E85B06E2A98460646AF
:103CF0000C460C9B01F1430E00F0AE8011D8632AF4
:103D000022D009D8002A00F0BB80582A40F0CA808F
:103D100081F84520834955E0642A1ED0692A1CD0C9
:103D2000C0E0732A00F0B08009D86F2A2ED0702A24
:103D300040F0B8800A6842F020020A603EE0752A2E
:103D400024D0782A3AD0ADE01A6801F14205111D5D
:103D50001960136884F84230A8E021681A6811F0ED
:103D6000800F02D0111D196008E011F0400F02F120
:103D70000401196002D0B2F9003000E01368002B92
:103D80003CDA2D225B4284F8432037E021681A6830
:103D900011F0800F02D0111D196007E011F0400FE3
:103DA00002F10401196001D0138800E01368227E3B
:103DB0005C496F2A14BF0A2208221BE078225A4964
:103DC00084F845202268186812F0800F00F104057D
:103DD0001D6003D1550601D5038800E00368D007B4
:103DE00044BF42F0200222601BB9226822F0200268
:103DF00022601022002084F8430001E049490A2291
:103E00006568A560002D08DB206820F004002060B4
:103E10002BB9002D7DD175460CE0002B79D075466D
:103E2000B3FBF2F002FB1033CB5C05F8013D034617
:103E30000028F5D1082A0BD12368DA0708D52369B1
:103E400062689A42DEBF302305F8013C05F1FF3578
:103E5000C5EB0E0323612EE008681A68496910F06B
:103E6000800F03D0101D1860136808E010F0400F99
:103E700002F104001860136801D0198000E0196095
:103E800000232361754616E01A68111D1960156834
:103E900062680021284600F04BF808B1401B6060C2
:103EA000636804E004F1420584F8422001232361A1
:103EB000002384F84330CDF800803B4603AA214616
:103EC0003046FFF797FE013002D14FF0FF3026E079
:103ED00023692A4639463046C0470130F5D0236869
:103EE0009B0710D5002504F1190907E001234A4674
:103EF00039463046C0470130E7D00135E368039AC0
:103F00009B1A9D42F2DBE068039B9842B8BF1846BB
:103F100005E00B7884F8423004F142058AE705B0E9
:103F2000BDE8F08344470000554700000000000052
:103F300001F0FF01102A2BDB10F0070F08D010F85A
:103F4000013B013A8B422DD010F0070F42B3F6D15E
:103F5000F0B441EA012141EA014122F007047FF077
:103F600000070023F0E80256083C85EA010586EACE
:103F7000010685FA47F5A3FA87F586FA47F6A5FA0A
:103F800087F68EB9EED1F0BC01F0FF0102F0070216
:103F900032B110F8013B013A83EA010313B1F8D1C1
:103FA0000020704701387047002D06BF35460338A2
:103FB000073815F0010F07D1013015F4807F02BFDB
:103FC000013015F4C03F0130F0BC0138704700BF2C
:103FD000884210B501EB020301D8421E0BE0984263
:103FE000FBD28118D21AD34204D013F8014D01F844
:103FF000014DF8E710BD994204D011F8014B02F8C9
:10400000014FF8E710BD000038B50546002946D03D
:1040100051F8043C0C1F002BB8BFE41800F0D6F890
:104020001F4A1368114613B96360146032E0A3425B
:104030000ED92268A018834204BF18685B686360C9
:1040400004BF121822600C6024E0A24203D8134679
:104050005A68002AF9D118681918A1420BD12168B1
:10406000014458188242196014D1106852685A608D
:10407000014419600EE002D90C232B600AE021688C
:104080006018824204BF10685268626004BF091859
:1040900021605C602846BDE8384000F098B838BD23
:1040A0000409002070B5CD1C25F0030508350C2D42
:1040B00038BF0C25002D064601DBA94202D90C238E
:1040C000336046E000F082F8234B1C681A46214614
:1040D000A1B10B685B1B0ED40B2B03D90B60CC1862
:1040E000CD501EE08C420DBF63684B686360136067
:1040F00018BF0C4615E00C464968E9E7174C2368E1
:104100001BB9304600F052F820602946304600F0D6
:104110004DF8431C18D0C41C24F00304A0420DD158
:104120002560304600F053F804F10B00231D20F009
:104130000700C31A0ED05A42E25070BD211A304611
:1041400000F034F80130EBD10C233360304600F03E
:104150003EF8002070BD00BF0409002000090020C7
:10416000F8B5074615460E4621B91146BDE8F84098
:10417000FFF798BF1AB9FFF747FF2846F8BD00F0D0
:1041800027F885420ED929463846FFF78BFF0446AB
:1041900050B131462A46FFF785FB31463846FFF7D6
:1041A00033FF01E03046F8BD2046F8BD38B5064C77
:1041B000002305460846236000F014F8431C02D192
:1041C000236803B12B6038BDF009002070477047A9
:1041D00051F8040C0028BEBF091851F8043CC0185F
:1041E00004387047044A05491368002B08BF0B4682
:1041F000184410601846704708090020F80900208C
:10420000F8B500BFF8BC08BC9E467047F8B500BFC3
:10421000F8BC08BC9E467047000000205B25303883
:10422000645D00004F766572666C6F770D0A000062
:104230004150505F4552524F523A4552524F523AB6
:10424000466174616C0D0A002E2E2F2E2E2F2E2EFD
:104250002F2E2E2F2E2E2F6E5246355F53444B5F3E
:1042600031322E322E305F663031326566612F6317
:104270006F6D706F6E656E74732F6C6962726172B0
:104280006965732F7574696C2F6170705F757469DF
:104290006C5F706C6174666F726D2E63000000005D
:1042A0002E2E2F2E2E2F2E2E2F2E2E2F2E2E2F6EE9
:1042B0005246355F53444B5F31322E322E305F66AB
:1042C0003031326566612F636F6D706F6E656E742D
:1042D000732F626F617264732F626F617264732EE9
:1042E000630000002E2E2F2E2E2F2E2E2F2E2E2F3F
:1042F0002E2E2F6E5246355F53444B5F31322E3295
:104300002E305F663031326566612F636F6D706F7E
:104310006E656E74732F647269766572735F6E7208
:10432000662F68616C2F6E72665F6770696F2E68AA
:1043300000000000111213142E2E2F2E2E2F2E2EC1
:104340002F2E2E2F2E2E2F6E5246355F53444B5F4D
:1043500031322E322E305F663031326566612F6326
:104360006F6D706F6E656E74732F647269766572AF
:10437000735F6E72662F636F6D6D6F6E2F6E7266F8
:104380005F6472765F636F6D6D6F6E2E6300000009
:104390002E2E2F2E2E2F2E2E2F2E2E2F2E2E2F6EF8
:1043A0005246355F53444B5F31322E322E305F66BA
:1043B0003031326566612F636F6D706F6E656E743C
:1043C000732F647269766572735F6E72662F6770A1
:1043D000696F74652F6E72665F6472765F6770696D
:1043E0006F74652E630000002E2E2F2E2E2F2E2E82
:1043F0002F2E2E2F2E2E2F6E5246355F53444B5F9D
:1044000031322E322E305F663031326566612F6375
:104410006F6D706F6E656E74732F647269766572FE
:10442000735F6E72662F7477695F6D617374657206
:104430002F6E72665F6472765F7477692E63000018
:1044400000300040000000004150503A5741524EA9
:10445000494E473A436F6D6D756E69636174696F5C
:104460006E206572726F72207768656E2057726970
:1044700074696E670D0A00000D0A537461727465E9
:10448000642053757065722053656E736F720D0AE8
:10449000000000004150503A5741524E494E473AB1
:1044A000436F6D6D756E69636174696F6E206572BF
:1044B000726F72207768656E2061736B696E67201A
:1044C000666F7220627974650D0A00004150503A9F
:1044D0005741524E494E473A436F6D6D756E696351
:1044E0006174696F6E206572726F72207768656E95
:1044F0002072656164696E6720627974652062610B
:10450000636B0D0A000000004C6973326465204142
:104510006363656C65726F6D6574657220496E6961
:104520007469616C697A6174696F6E3A2050617365
:1045300073202578200D0A004C6973326465204190
:104540006363656C65726F6D6574657220496E6931
:104550007469616C697A6174696F6E3A2046616949
:104560006C202578200D0A00416363656C65726FCD
:104570006D657465722057686F616D493A202578C2
:104580002E0D0A00416363656C65726F6D6574651D
:1045900072205374617475733A2025782E0D0A00C9
:1045A000416363656C65726F6D65746572204F550C
:1045B00054583A2025642E0D0A00000041636365BB
:1045C0006C65726F6D65746572204F5554593A2051
:1045D00025642E0D0A000000416363656C65726FEF
:1045E0006D65746572204F55545A3A2025642E0D1E
:1045F0000A000000416363656C65726F6D657465E8
:10460000722054656D703A2025782E0D0A00000046
:104610005465726D696E616C000000005254540064
:1046200053454747455200004300504F53495800F7
:104630002E0000202020202020202020282828288C
:104640002820202020202020202020202020202062
:1046500020202088101010101010101010101010B2
:1046600010101004040404040404040404101010C2
:10467000101010104141414141410101010101016E
:1046800001010101010101010101010101011010FC
:104690001010101042424242424202020202020242
:1046A00002020202020202020202020202021010CE
:1046B00010102000000000000000000000000000BA
:1046C00000000000000000000000000000000000EA
:1046D00000000000000000000000000000000000DA
:1046E00000000000000000000000000000000000CA
:1046F00000000000000000000000000000000000BA
:1047000000000000000000000000000000000000A9
:104710000000000000000000000000000000000099
:104720000000000000000000000000000000000089
:10473000000000232D302B2000686C4C006566675C
:104740004546470030313233343536373839414207
:1047500043444546003031323334353637383961D9
:0C47600062636465660000000000000059
:08476C00F0BCFF7F010000001A
:104774000000000000000000000000000000000035
:104784000000000000000000000000000000000025
:104794000000000000000000000000000000000015
:1047A4000000000000000000000000000000000005
:1047B40000000000000000000000000000000000F5
:1047C40000000000000000000000000000000000E5
:1047D400000000200090D00343000000000000000F
:1047E40000000000000000000000000000000000C5
:1047F4000000000000000000430000000000000072
:1048040000000000000000000000000000000000A4
:104814000000000000000000430000000000000051
:104824000000000000000000000000000000000084
:104834000000000000000000430000000000000031
:104844000000000000000000000000000000000064
:104854000000000000000000430000000000000011
:104864000000000000000000000000000000000044
:1048740000000000000000004300000000000000F1
:104884000000000000000000000000000000000024
:1048940000000000000000004300000000000000D1
:1048A4000000000000000000000000000000000004
:1048B40000000000000000004139000081380000C1
:1048C4000000000032460000304600003847000077
:1048D40038470000384700003847000038470000D8
:1048E40038470000384700003847000038470000C8
:1048F400FFFFFFFFFFFFFFFFFFFFFFFFFFFF0000C2
:104904000100415343494900000000000000000039
:104914000000000000000000000000000000000093
:10492400000041534349490000000000000000001A
:104934000000000000000000000000000000000073
:104944000000000025040000010400000000000035
:04000003000035299B
:00000001FF
