:1000000000000120315F0000595F00005B5F0000CD
:100010005D5F00005F5F0000615F000000000000A6
:10002000000000000000000000000000635F00000E
:10003000655F000000000000675F0000695F00006E
:100040006B5F00006B5F0000A1290000212500000C
:10005000192700006B5F0000C51500006B5F0000F2
:100060006B5F00006B5F00006B5F00006B5F000068
:100070006B5F00006B5F00006B5F00006B5F000058
:100080006B5F0000C10C00006B5F00006B5F000045
:10009000850D00006B5F00006B5F00006B5F000070
:1000A0006B5F00006B5F00006B5F00006B5F000028
:1000B0006B5F00006B5F00000000000000000000AC
:1000C0006B5F00006B5F00006B5F00006B5F000008
:1000D0006B5F00006B5F00006B5F000000000000C2
:1000E0000000000000000000000000000000000010
:1000F0000000000000000000000000000000000000
:1001000000000000000000000000000000000000EF
:1001100000000000000000000000000000000000DF
:1004000010B5054C237833B9044B13B10448AFF34E
:1004100000800123237010BDE401002000000000D3
:1004200098960000084B10B51BB108490848AFF377
:1004300000800848036803B910BD074B002BFBD0B0
:10044000BDE81040184700BF00000000E801002090
:1004500098960000E001002000000000154B002BE2
:1004600008BF134B9D46A3F5803A00218B460F46EB
:100470001348144A121A00F065F80F4B002B00D0F5
:1004800098470E4B002B00D0984700200021040015
:100490000D000D48002802D00C48AFF3008000F09A
:1004A0002BF82000290004F0C3FE00F011F800BF73
:1004B0000000080000000120000000000000000013
:1004C000E4010020F8090020000000000000000006
:1004D00008B5074B044613B10021AFF30080054B6C
:1004E0001868836A03B19847204600F033F800BFCC
:1004F00000000000B88D000070B50E4B0E4CE41AE1
:10050000A41000251E46A54204D056F82530984771
:100510000135F8E708F044FC084C094BE41AA41034
:1005200000251E46A54204D056F8253098470135CF
:10053000F8E770BDD8010020D8010020DC010020C0
:10054000D801002002440346934202D003F8011B65
:10055000FAE77047FEE700BFF0B51746C7B01C4684
:10056000B9B106AE0B68604A30464FF4807107F0AF
:1005700073FF00280ADB4C9B0546062B00F2B28075
:10058000DFE803F012323B4653637500002047B0AA
:10059000F0BD4C9B062B00F2A380DFE803F0048B38
:1005A00090957C8186000025384607F08FFF43191F
:1005B000FF2B044640F28D80002CE7DB2C44B4F581
:1005C000807FE3D80A27002506AE22467119002055
:1005D00005F02EFB0544241A08B9013F01D0002C78
:1005E000F3D1012047B0F0BDC0F5807123683A46D1
:1005F000701907F031FF0446DEE7C0F580716268CC
:100600002368009270193A4607F026FF0446D3E7A4
:10061000C0F58071A2682368646800940192701923
:100620003A4607F019FF0446C6E7C0F58071E26854
:100630002368D4F808E0646802928DE810403A46D6
:10064000701907F009FF0446B6E7C0F5807120690C
:10065000E26823680390D4F808E0646802928DE8A9
:1006600010403A46701907F0F7FE0446A4E7C0F5BB
:1006700080716269206923680492E2680390D4F86B
:1006800008E0646802928DE810403A46701907F05D
:10069000E3FE044690E74FF48071002506AEC6E7FE
:1006A0004FF48071002506AED1E74FF4807100252C
:1006B00006AEDEE74FF48071002506AE96E74FF4F4
:1006C0008071002506AE9AE74FF48071002506AED2
:1006D000A0E706AE39467019224607F0B1FE6BE777
:1006E00000246FE7002469E7BC8D00002DE9F04F7E
:1006F0001446C7B01D46002900F02381002B00F0EE
:1007000004810A2302934FF0000B06AF519B539ACA
:10071000134420261C4602990BEB0103049331334A
:10072000FB18039307EB0B031A460193002965D0CE
:10073000534203F003038B4228BF0B46062900F205
:10074000DB800B46019907F80B600A46012B02F18A
:10075000010200F0CF80022B4E7001F1020200F086
:10076000C980032B8E7001F1030200F0C3800A469A
:10077000042BCE7002F1040200F0BC80062B0E7137
:1007800001F1050240F0BE804E718A1D9846029923
:1007900099422ED00298C3EB0009A9F1040100F19F
:1007A000FF3E8908C3EB0E0E0131BEF1020F4FEA86
:1007B000810C12D95B444FF0203E012907EB030B5B
:1007C00047F803E005D00229CBF804E001D0CBF8CC
:1007D00008E0E1456244E0440BD00299167008F14C
:1007E00001038B4205D208F102008842567000D204
:1007F0009670019B029A134401931A46039B059736
:1008000002F1330A274602F1030B544603F10109B2
:10081000DDF844A10DE00BF8036C0BF8026C0BF84B
:10082000016C0BF1030BA34509F8016C09F10109F7
:100830002FD0AF42EFD9AA4556D9509B13F8058067
:100840000BF8016C4FEA28105FFA80FE092808F0C7
:100850000F00D4BF0EF1300E0EF1370E092894BFF1
:10086000303037300BF803EC0BF8020C07F0CCFDFE
:1008700040440BF1030B407810F0970F08BF4FF086
:100880002E08A34509F8018C05F1010509F10109BC
:10089000CFD1049B039903F1430A019B3C460D22EF
:1008A0004FF00A0B059F0A7481F811B0A14683F836
:1008B00030604FF000085446224607EB0801002044
:1008C00005F0B6F98044241A10B9BBF1010B01D030
:1008D000002CF1D14D454C464FF0000BFFF41BAFFF
:1008E000284647B0BDE8F08FCAEB0500529B13F8CD
:1008F0000080A5E798464AE7002B7FF423AF019AD2
:10090000984647E74FF0050841E706AF0B68114AE4
:1009100038464FF4807107F09FFD0028E0DB0A2382
:1009200006460293204607F0D1FDC22828BFC22008
:10093000834602462146B81907F082FD0025B344DC
:10094000E4E61BB902952E4606AFEBE702918B4613
:1009500006AFDBE6BC8D000070B5074D074E2B7867
:1009600013B13378834205D0044605F0B1FA012370
:1009700034702B70002070BD0102002000020020A6
:10098000004870475905000000487047ED06000018
:1009900008B505F00BFAC0B208BD00BF38B500209D
:1009A000FFF7DAFF044668B9FFF7EAFF0546FFF7ED
:1009B000EBFF054BFF22C3F810541C605C60C3F8CA
:1009C00014049A60204638BD040200200120FFF77D
:1009D000C3BF00BF2DE9F041224C064600200D4662
:1009E000A76800F0F9FCA2686368D4F8008013449B
:1009F0000133C8EB0303012B1BD8ABB1012100234A
:100A000061F301036FF38203052161F3C50308EA73
:100A10000202154904EB82026FF3891308F1010702
:100A200061F39F232760D3600020BDE8F04100F010
:100A3000EDBC08F101030020236000F0E7FC012277
:100A4000002362F301036FF3820307EA080766F3EA
:100A5000C50304EB87046FF3891365F39F23E360F9
:100A6000BDE8F08104020020C48D00002DE9F843A8
:100A7000264C8046002016460F46A56800F0ACFCC8
:100A8000A2686368D4F8009013440133C9EB0303F0
:100A9000022B1BD8ABB10121002361F301036FF3DB
:100AA0008203052161F3C50309EA0202184804EB39
:100AB00082026FF3891309F1010160F39F23216022
:100AC000D3600020BDE8F84300F0A0BC09F10203A8
:100AD0000020236000F09AFC0122002362F301034E
:100AE00009EB02016FF3820305EA090968F3C50304
:100AF0000D4004EB890962F3891304EB850467F365
:100B00009F23C9F80C30E660BDE8F883040200209A
:100B1000C48D00002DE9F0474C4E96E80C009A4237
:100B20008AB070D0B06804E0C4F3891202EB94522A
:100B3000134400EA0305023506EB850201335468CD
:100B400014F00302F0D0022A28D0C4F38312C4F3B5
:100B5000952C002A75D00DF1100E7546D71800EAB5
:100B6000030106EB81010133C96845F8041BBB4250
:100B7000F5D10092C4F3C20073466246D6F8104421
:100B8000324D0021A04738B177603068C01B18BFD4
:100B900001200AB0BDE8F0876F68F6E703F1010AAB
:100BA00020EA0A010340013106EB830389004FEA82
:100BB00094588845DA68DFF894E0C4F3891326D99D
:100BC000A9B300EA0A0C5FFA81F90EEB8C0CC9EBB1
:100BD00008010CF10C0C0EF10C00C9B2039102904B
:100BE000CDF80490CDF800C00021C4F3C200D6F8BF
:100BF0001474B847404520D006EB850560F38F1488
:100C00006C607768C1E700200AB0BDE8F08700EAB1
:100C10000A000EEB80000C308DE801010021DEF8A7
:100C2000149403910291C4F3C200C847E2E70EF1A5
:100C30000C0C08465FFA88F9D0E703300AEB9007FE
:100C4000A2E71F460DF1100E93E700BF040200203B
:100C5000FFF79EBE00B585B000230390194601AA98
:100C600044F20100ADF80430029300F003F805B03F
:100C70005DF804FB08B50E490120FFF7ABFEFFF756
:100C8000A5FEFFF747FF0028FBD10A4B1B68DB07D7
:100C900000D5FFDEBFF34F8F0749084BCA6802F447
:100CA000E0621343CB60BFF34F8F00BFFDE700BF8F
:100CB000D08D0000F0ED00E000ED00E00400FA054A
:100CC0002DE9F843274A284B0025C2F84051C2F8C5
:100CD0004451C2F84851C2F84C51C2F80051C2F810
:100CE00004511B681BB32149D2F804250C68204F1E
:100CF000141B1A6824F07F44A242A84609D8197C24
:100D0000DE69A41A1544A1B91EB133461A68A2427D
:100D1000F5D9184B18491A780B789A421BD0174905
:100D2000174A41F823504FF48013C2F80031BDE850
:100D3000F883D3F8149083F810803A689B6948468A
:100D400019462AB190470028DED0FFF783FFDBE782
:100D50001846C847D8E7531CDBB2022B08BF002354
:100D60000B70DCE700100140200600201C0600206C
:100D70002406002028060020290600203406002032
:100D800000E100E02DE9F04FA44AA5491378097865
:100D9000A44889B000680090994200F0EB800133CC
:100DA000DBB2022B08BF002313709F4A52F8236066
:100DB000009B9C4A334423F07F4313604FF0010EA5
:100DC0009A4B079693F800A0994BCDF818A0D3F84A
:100DD0000090964B5B7801931D46944BD3F804B07A
:100DE0009B7802931C46934B1B7804938D4B0027F2
:100DF0001B68039351464A464B460597BC46384606
:100E00002646B846A9421AD001EB410401311BF82D
:100E10003470C9B2B14208BF0021022F0BEBC404E9
:100E200000F08380032FEDD1002BEBD0DA6918742A
:100E30001346002AFAD1A9424FF0010CE4D1DDF8A3
:100E400018A0079E4746BCF1000F40F0A380059A0A
:100E500012B1744A03991160002F40F09C82BEF1D8
:100E6000000F40F0C681B9EB030218BF01220792C0
:100E7000059375461E466B4ACDF810B0D2F800C0F7
:100E80006B4ADFF8B891D646D2F800A0694A002331
:100E9000127800931F4606924FF001089B463DB31F
:100EA0006A68A9682C46ED69CCEB020323F07F4306
:100EB0004B4572D80B4423606760A76084F81080AC
:100EC000E761002E00F08B80316899427ED2304677
:100ED00003E01168994269D21046C2695B1A002A80
:100EE000F7D12360E2613346C4611E46002DD7D19D
:100EF000019B9E4500F0A4800EEB4E03049911F86F
:100F00003320039210460EF1010E029A5FFA8EFE14
:100F1000724508BF4FF0000E012801EBC30364D0F7
:100F20003346012200921E46E0E76468002B3FF43E
:100F300069AF9C429A4601D115E0BA46DAF81C70B6
:100F4000002F3FF45FAFBC42F7D1BA450CD0FC692B
:100F50003F68CAF81C40002C3FF454AF23683B4460
:100F6000236013464EE71F46DA6932B113464FF04D
:100F7000010CECE70026B64622E72F4B4FF00108A4
:100F8000C3F80880C44613460392CDF81080CDF80C
:100F90001480DCE726490A6059E7C2EB0C0222F014
:100FA0007F428A4209D28B1A236085E7C91A1160F1
:100FB0002360E2613346C46197E727606760A760FA
:100FC00084F81080E76156B131680023CB1A336092
:100FD0002346E661A2464FF0010B1E4686E72346F4
:100FE000A2464FF0010B1E4680E75C68227C00920F
:100FF00082B99A686260D968A1601869E0605B692B
:10100000A361069B002B00F0F180009A62600093C0
:101010002A4649E733461E4668E700BF28060020F7
:10102000290600201C060020340600202C06002083
:10103000200600202A06002000100140FEFF7F004D
:10104000009B5A46002B40F0AE8112B1824BC3F890
:1010500000A0059BB34200F0BF80002E00F00A8183
:101060007E497F4CD1F8040525783368CCEB00022B
:1010700022F07F420332002D50D17A4DDFF8ECE1AF
:10108000794F4FF48036C1F84463C1F804634FF4DC
:101090000036C5F880612E6001250D60DEF8006025
:1010A0002F2100BF00BF00BF00BF00BF00BF00BFB7
:1010B00000BFBE422FD000BF00BF00BF00BF00BFB7
:1010C00000BF00BF00BF00BF00BF00BF00BF00BF28
:1010D00000BF00BF00BF00BF00BF00BF00BF00BF18
:1010E00000BF00BF00BF00BF00BF00BF00BF00BF08
:1010F00000BF00BF00BF00BF00BF00BF00BF00BFF8
:1011000000BF00BF00BF00BF00BF00BF00BF00BFE7
:1011100000BF00BF00BF0139C3D1257093422CBF6F
:101120009C4494444D492CF07F43C1F84035D1F89C
:101130000425121A1B1A22F07F4223F07F43033248
:101140009A424DD9D1F80435484AC1F84035126861
:1011500045492F2300BF00BF00BF00BF00BF00BF35
:1011600000BF00BF8A422FD000BF00BF00BF00BF3A
:1011700000BF00BF00BF00BF00BF00BF00BF00BF77
:1011800000BF00BF00BF00BF00BF00BF00BF00BF67
:1011900000BF00BF00BF00BF00BF00BF00BF00BF57
:1011A00000BF00BF00BF00BF00BF00BF00BF00BF47
:1011B00000BF00BF00BF00BF00BF00BF00BF00BF37
:1011C00000BF00BF00BF00BF013BC3D1254B4FF4A0
:1011D0000032C3F8002103E0079B002B7FF43DAFF2
:1011E000234A0023137009B0BDE8F08F039B0093DE
:1011F0005AE6194ADDF800C0176800200546014686
:101200000446ABB11A68B2421BD8D8681C60B61A43
:101210001144DA6938B10CEB010727F07F47DD6133
:1012200098605F601D46134617467046002BE9D153
:10123000002840F0BC800023059301230793059EFE
:1012400019E6002840F0AC80921B05931A60012338
:101250000793059E0FE600BF200600200010014006
:101260003C06002000E100E00024F40064000020BF
:101270002A0600204F4A504B504D51484FF48031C0
:101280004FF400370124C3F88070C2F848132F23AD
:10129000C2F80813546029681D4600BF00BF00BF94
:1012A00000BF00BF00BF00BF00BF81422FD000BF02
:1012B00000BF00BF00BF00BF00BF00BF00BF00BF36
:1012C00000BF00BF00BF00BF00BF00BF00BF00BF26
:1012D00000BF00BF00BF00BF00BF00BF00BF00BF16
:1012E00000BF00BF00BF00BF00BF00BF00BF00BF06
:1012F00000BF00BF00BF00BF00BF00BF00BF00BFF6
:1013000000BF00BF00BF00BF00BF00BF00BF013D66
:10131000C3D194602B4A166000BF00BF00BF00BF5E
:1013200000BF00BF00BF00BF81422FD000BF00BF81
:1013300000BF00BF00BF00BF00BF00BF00BF00BFB5
:1013400000BF00BF00BF00BF00BF00BF00BF00BFA5
:1013500000BF00BF00BF00BF00BF00BF00BF00BF95
:1013600000BF00BF00BF00BF00BF00BF00BF00BF85
:1013700000BF00BF00BF00BF00BF00BF00BF00BF75
:1013800000BF00BF00BF00BF00BF00BF013BC3D113
:101390000D4B1E7024E70D4A9DF8101011705EE58C
:1013A0000B490F6050E70B4B83F800E04DE6084B0C
:1013B0001F6040E70010014000E100E064000020F1
:1013C0000024F4001C0600203C0600202A06002011
:1013D000200600202C06002008B5EFF30583C3F398
:1013E00008032BB172B6074A13680133136008BDB6
:1013F000EFF31483DB07F5D50349282000F020F82C
:10140000F0E700BF40060020E88D000008B5EFF3CC
:101410000583C3F3080333B1074A1368013B136024
:1014200003B962B608BDEFF31483DB07F4D50349B3
:10143000362000F005F8EFE740060020E88D0000B8
:1014400000B583B06A46ADF80000019144F2020095
:101450000021FFF70FFC03B05DF804FB032810B573
:10146000044603D909492220FFF7EAFF084B1C5D17
:101470001F2C04D907494FF4DA70FFF7E1FF01236D
:101480004FF0A042A340C2F80C3510BD288E0000DA
:10149000908E0000588E0000032810B504460FD827
:1014A0000A4B1C5D1F2C04D909494FF4DA70FFF771
:1014B000C7FF01234FF0A042A340C2F8083510BD7A
:1014C00004492820FFF7BCFFEAE700BF908E000028
:1014D000588E0000288E0000032810B5044603D95A
:1014E0000D494020FFF7ACFF0C4B1C5D1F2C04D9AD
:1014F0000B494FF4DA70FFF7A3FF4FF0A041012230
:10150000D1F8040502FA04F323EA00020340C1F80B
:101510000825C1F80C3510BD288E0000908E000003
:10152000588E000030B44FF0A04303224FF4003532
:101530004FF480244FF400204FF48011C3F8442767
:10154000C3F84827C3F84C27C3F85027C3F80855F9
:10155000C3F80845C3F80805C3F8081530BC704740
:10156000072938B50D46044618D8002C1DDB04F1B8
:10157000604303F561436D01EDB283F80053E3B2BC
:101580006009800000F1604000F5614003F01F0237
:1015900001239340C0F88031036038BD07494FF400
:1015A0008470FFF74DFF002CE1DAE3B2044A03F048
:1015B0000F016D010A44EDB21576E1E7948E00004B
:1015C000FCEC00E02DE9F04F89B00026CC4B0396EF
:1015D0001A68012A00F04382CA4B1A68012A00F0F7
:1015E0003082C94B1A68012A00F01D82C74B1A6865
:1015F000012A00F00A82C64B1A68012A00F0F7811E
:10160000C44B1A68012A00F0E481C34B1A68012A0E
:1016100000F0D181C14B1A68012A00F0BE81C04B95
:101620001A68012A00F0AC8116F0FF0F1AD0BD4FE6
:1016300001250024A30003F180432E4203F5C0439B
:101640004FEA45050BD0D3F8100557F82420D3F8FE
:101650001015C0F30420C1F3014102B190470134D9
:10166000082CE7D1002E02DB09B0BDE8F08FAD4EAB
:101670004FF0FF33059396F9503000225C1C37463B
:10168000049200F0F180DBB223F0C00908AA4FEA0F
:10169000D90102EB010A03F007001AF80C2C4FF0F5
:1016A000010808FA00F812EA080422D007EB090240
:1016B0009D0992F9303057F823B0BBF1000F00F0CC
:1016C0004481032D00F04481B9F11F0F00F22E81F7
:1016D0004FEA890303F1A0431AF8144CD3F800270A
:1016E00014EA0804C2F3014240F0D680032A00F055
:1016F0000E8296F95130581C34D0DBB223F0C00969
:1017000008A94FEAD90201EB020A03F007001AF810
:101710000C1C4FF0010808FA00F811EA080F21D05C
:1017200007EB09019D0991F9303057F82330002B60
:1017300000F01D81032D00F01D81B9F11F0F00F293
:10174000C6804FEA890B0BF1A04B1AF8141CDBF88A
:10175000002711EA080FC2F3014240F0AB80032AD0
:1017600000F0BE8196F95230591C33D0DBB223F021
:10177000C00908A94FEAD90201EB020A03F00700E9
:101780001AF80C1C4FF0010808FA00F811EA080FCB
:1017900020D007EB09019D0991F9303057F823302B
:1017A000002B00F0C980032D00F0C980B9F11F0F94
:1017B00000F295804FEA890B0BF1A04B1AF8141C2C
:1017C000DBF8002711EA080FC2F301424ED1032AC9
:1017D00000F06F8196F953305A1C32D0DBB223F0FF
:1017E000C00908A94FEAD90201EB020A03F0070079
:1017F0001AF80C1C4FF0010808FA00F811EA080F5B
:101800001FD007EB09019D0991F9303057F82330BB
:10181000002B00F0A380032D00F0A380B9F11F0F6F
:1018200065D84FEA890B0BF1A04B1AF8141CDBF8B2
:10183000002711EA080FC2F3014222D1032A00F067
:101840001A81002C3FF410AF4FF0A043039AD3F855
:10185000103593423FF408AF039396F95030049A41
:1018600005925C1C7FF40FAF002442E7022AB1D13D
:10187000032D00F06181002BACD0294648469847E3
:10188000A8E7022ADDD1032D00F05981002BD8D022
:10189000294648469847D4E7022AE5D1032D00F0AF
:1018A00074810024BBF1000F3FF423AF2946484662
:1018B000D8471EE7022A7FF455AF032D00F042817E
:1018C000002B3FF44FAF2946484698474AE7164950
:1018D00001934FF4DA70FFF7B3FD019B31E7124932
:1018E00001934FF4DA70FFF7ABFD019B62E70E49FD
:1018F00001934FF4DA70FFF7A3FD019B91E700BF5E
:101900000061004004610040086100400C6100403B
:101910001061004014610040186100401C610040EB
:101920007C61004044060020588E000098494FF426
:10193000DA70FFF785FDCBE6032D7FF44BAF04A8EB
:10194000815C41EA0801815430E7032D40F0AD800D
:1019500004AA535C43EA08035354B5E6032D7FF40D
:1019600070AF04A8815C41EA0801815456E7032D59
:101970007FF4F8AE04A8815C41EA08018154DCE6FA
:1019800000221A601B6807934FF0A043079AD3F810
:101990001035039346F0004646E67E4AD2F804230B
:1019A00015067FF53CAE00221A601B680693069B65
:1019B00046F0800633E6774AD2F8042357067FF5CF
:1019C00029AE00221A601B680693069B46F040066B
:1019D00020E6704AD2F8042392067FF516AE002264
:1019E0001A601B680693069B46F020060DE6694ABE
:1019F000D2F80423D1067FF503AE00221A601B68DB
:101A00000693069B46F01006FAE5624AD2F80423D4
:101A100010077FF5F0AD00221A601B680693069B45
:101A200046F00806E7E55B4AD2F8042354077FF541
:101A3000DDAD00221A601B680693069B46F0040683
:101A4000D4E5544AD2F8042395077FF5CAAD0022A5
:101A50001A601B680693069B46F00206C1E54D49D5
:101A6000D1F8041311F0010121D01E601B68069308
:101A7000069B1646B0E5032D7FF408AF4FF40038FF
:101A8000B9F11F0F79D8DBF8001721F44031CBF8FA
:101A90000017DBF80027013448EA0202E4B2CBF871
:101AA0000027002B7FF4F4AECEE65C4621E60E461E
:101AB00092E5032D7FF4DFAE4FF40038B9F11F0F2C
:101AC00053D8DBF8001721F44031CBF80017DBF8CE
:101AD0000027013448EA0202E4B2CBF80027CAE644
:101AE000032D7FF4EDAE4FF40038B9F11F0F34D859
:101AF000DBF8001721F44031CBF80017DBF80027A2
:101B0000013448EA0202E4B2CBF80027D8E6032DFC
:101B10007FF4C8AE4FF40034B9F11F0F15D8D3F8D5
:101B2000001721F44031C3F80017D3F800272243EF
:101B3000C3F800270124B5E64FF44038BEE74FF460
:101B400040389DE74FF44038CFE7114901934FF4F7
:101B5000DA70FFF775FC019BE1E70D4901934FF443
:101B6000DA70FFF76DFC019BC2E7094901934FF45E
:101B7000DA70FFF765FC019BA3E7054901934FF479
:101B8000DA70FFF75DFC019B7DE74FF44034C3E75B
:101B9000588E0000006000402DE9F0410024C1F89B
:101BA00004418EB0D1F804510495049DC1F824413C
:101BB000D1F824510395039DC1F81C41D1F81C5163
:101BC0000295029DC1F80841D1F808510195012BF9
:101BD00080F8264080F82340019D0CBF0224012498
:101BE0000125C1F800420D620D6004684CB140F25D
:101BF000862383608368C1F8043300200EB0BDE8FB
:101C0000F0812E4603F1FF3E4FF0020C90F8235076
:101C1000002D3BD1D1F8247190F82680002F48D0B8
:101C2000C1F82451D1F824510A950A9D4E6180F8DB
:101C300023604345EAD1D1F80451002DE6D00023BA
:101C4000C1F80431D1F8042190F823300592059AA7
:101C5000C3B1D1F8C434C1F8C4349BB113F0010F3F
:101C600018BF4FF4024048F2012208BF032013F0CE
:101C7000020F18BF104648F2022213F0040F18BFDB
:101C80001046BBE700200EB0BDE8F081C1F824414A
:101C9000D1F824510B950B9DC1F81C41D1F81C5172
:101CA0000C950C9DC1F80841D1F808510D950D9D7A
:101CB000C1E7D1F81C51ADB1C1F81C71D1F81C516C
:101CC0000995099DD1F824511DBB90F82650AB42CF
:101CD0003DD9555DC1F81C5590F82650013580F866
:101CE0002650A6E7D1F80871002FA2D0C1F80851FC
:101CF000D1F808710797079FD1F824719FB1C1F8F7
:101D00002451D1F824510695069D4E6180F8236038
:101D10008FE7C1F82471D1F824510895089D4E61D0
:101D200080F8236085E790F82650AB4281D9D1F83E
:101D30001875575590F826500135EDB2754580F865
:101D4000265006D0AB423FF474AF0E6271E74E618D
:101D50006FE7C1F800C2F8E72DE9F0430024C1F8AD
:101D600004418FB0D1F804510495049DC1F8244179
:101D7000D1F824510395039DC1F81C41D1F81C51A1
:101D80000295029DC1F80841D1F80851019501253D
:101D9000019EC1F8004280F8264080F823400D6281
:101DA0008D6090F826409DF85870A34213D9145DB9
:101DB000C1F81C4590F826402C4480F82640046861
:101DC0007CB140F2862383608368C1F8043300202D
:101DD0000FB0BDE8F083002F48D0CD610468002C1F
:101DE000EFD103F1FF3C4FF0010E4FF0020890F8E5
:101DF0002350002D3CD1D1F8246190F82690002E7C
:101E000049D0C1F82451D1F824510A950A9DC1F84E
:101E100014E080F823E04B45E9D1D1F80451002DBE
:101E2000E5D00023C1F80431D1F804310593059BB6
:101E300090F82330002B6AD0D1F8C434C1F8C434F0
:101E4000002B64D013F0010F18BF4FF4024048F28A
:101E5000012208BF032013F0020F18BF104648F2FA
:101E6000022213F0040F18BF1046B1E74D61A6E738
:101E7000C1F82441D1F824510B950B9DC1F81C41A8
:101E8000D1F81C510C950C9DC1F80841D1F80851AE
:101E90000D950D9DC1E7D1F81C51ADB1C1F81C6184
:101EA000D1F81C510995099DD1F8245125BB90F812
:101EB0002650AB4245D9555DC1F81C5590F82650C7
:101EC000013580F82650A6E7D1F80861002EA2D08F
:101ED000C1F80851D1F808610796079ED1F824612E
:101EE000CEB1C1F82451D1F824510695069DC1F810
:101EF00014E080F823E08EE7C1F82461D1F8245182
:101F00000895089DC1F814E080F823E083E70020DD
:101F10000FB0BDE8F08390F82650AB427FF67BAF60
:101F2000D1F81865565590F826500135EDB2654543
:101F300080F826500CD0AB423FF46DAFC1F820E0E2
:101F400069E717B10123CB6172E7C1F814E062E7DA
:101F5000C1F80082F2E700BF2DE9F04F804683B060
:101F60000C46002900F0F38194E8030088424AD02F
:101F700098F80450654EAF007919C900701890F8B0
:101F800022E0BEF1000F03D0082003B0BDE8F08FBF
:101F90007250C0F808E0436080F825E080F824E043
:101FA000A37B80F82730637BB3BB23684FF0A0414D
:101FB00003F5E07340F20C6041F82300636803F519
:101FC000E0737A1941F82300D8F80030216860687E
:101FD00056F83220C3F80815C3F80C05A168C3F8F9
:101FE000241532B1D8F80000217B40F30730FFF709
:101FF000B7FA3D4406EBC5050123002085F82230E1
:1020000003B0BDE8F08F4249D6208DE80C00FFF701
:1020100017FA9DE80C00ABE723684FF0A04203F5E8
:10202000E07340F20C6142F82310636803F5E0733B
:1020300042F82310D4F80090B9F11F0F00F29081FC
:1020400001234FF0A04203FA09F3C2F80835D4F88F
:102050000490B9F11F0F00F289814FF0A0430122D3
:1020600002FA09F2C3F808252168DFF8AC90294A82
:1020700001F5E07140F20D6043F82100616801F55F
:10208000E07143F821000423D9F8001000BF00BF1D
:1020900000BF00BF00BF00BF00BF00BF91422FD0F4
:1020A00000BF00BF00BF00BF00BF00BF00BF00BF38
:1020B00000BF00BF00BF00BF00BF00BF00BF00BF28
:1020C00000BF00BF00BF00BF00BF00BF00BF00BF18
:1020D00000BF00BF00BF00BF00BF00BF00BF00BF08
:1020E00000BF00BF00BF00BF00BF00BF00BF00BFF8
:1020F00000BF00BF00BF00BF00BF00BF00BF00BFE8
:10210000013BC3D14FF0000B9246A5E09C06002096
:102110001C8F00000024F400640000204FF0A04158
:10212000D1F8101521FA03F3DB0700F1B38023681F
:102130001F2B00F2A78001214FF0A04001FA03F30A
:10214000C0F80C35D9F80010042300BF00BF00BF51
:1021500000BF00BF00BF00BF00BF51452FD000BF70
:1021600000BF00BF00BF00BF00BF00BF00BF00BF77
:1021700000BF00BF00BF00BF00BF00BF00BF00BF67
:1021800000BF00BF00BF00BF00BF00BF00BF00BF57
:1021900000BF00BF00BF00BF00BF00BF00BF00BF47
:1021A00000BF00BF00BF00BF00BF00BF00BF00BF37
:1021B00000BF00BF00BF00BF00BF00BF00BF013BAA
:1021C000C3D123681F2B53D84FF0A04E0120984055
:1021D000CEF80805042300BF00BF00BF00BF00BF4A
:1021E00000BF00BF00BF51452FD000BF00BF00BFE0
:1021F00000BF00BF00BF00BF00BF00BF00BF00BFE7
:1022000000BF00BF00BF00BF00BF00BF00BF00BFD6
:1022100000BF00BF00BF00BF00BF00BF00BF00BFC6
:1022200000BF00BF00BF00BF00BF00BF00BF00BFB6
:1022300000BF00BF00BF00BF00BF00BF00BF00BFA6
:1022400000BF00BF00BF00BF00BF013BC3D10BF107
:10225000010BBBF1090F21D063681F2B7FF65EAF26
:102260004B4900934FF4DA70FFF7EAF8009B55E70B
:10227000474900934FF4DA70FFF7E2F8454B1968CD
:10228000009BA1E7424900934FF4DA70FFF7D8F8BA
:10229000009B50E7BBF1000F3FF487AED4F804A0D9
:1022A000BAF11F0F6ED84FF0A042012303FA0AF3D0
:1022B000C2F80C35D9F800203749042300BF00BF0D
:1022C00000BF00BF00BF00BF00BF00BF8A422FD0C9
:1022D00000BF00BF00BF00BF00BF00BF00BF00BF06
:1022E00000BF00BF00BF00BF00BF00BF00BF00BFF6
:1022F00000BF00BF00BF00BF00BF00BF00BF00BFE6
:1023000000BF00BF00BF00BF00BF00BF00BF00BFD5
:1023100000BF00BF00BF00BF00BF00BF00BF00BFC5
:1023200000BF00BF00BF00BF00BF00BF00BF00BFB5
:10233000013BC3D1D4F80490B9F11F0F1CD801237D
:102340004FF0A04203FA09F3C2F808352DE613490D
:10235000D5208DE80C00FFF773F89DE80C0003E62C
:102360000B494FF4DA70FFF76BF869E608494FF450
:10237000DA70FFF765F870E605494FF4DA70FFF799
:102380005FF8DCE702494FF4DA70FFF759F88AE7A3
:10239000588E0000640000200024F4001C8F000010
:1023A000F8B504790C4DA7003B1905EBC3030646AD
:1023B00093F82230012B04D008494FF4A770FFF79F
:1023C0003FF83C44336805EBC4040221052284F83D
:1023D0002210C3F80025F8BD9C0600201C8F0000C9
:1023E0002DE9F04F87B003AE9DF840500024746093
:1023F0000394B460C5B9AC460479DFF88880D0F89E
:1024000000E004EB8404E4004FF0FF3008EB040725
:10241000CEF8080397F8240050B1BB68CEF8043317
:10242000112007B0BDE8F08F01254FF0200CE3E745
:102430008DF80E308DF80D10049292468B4696E87A
:102440000700994607F10C0383E80700012187F88C
:1024500024104B46CEF888B5524600957146384652
:10246000C7F818C087F82090C7F81CA087F821503B
:10247000FFF772FC58F80430002BD2D187F82430D3
:10248000CFE700BF9C0600202DE9F04F0479234FD1
:10249000D0F800E004EB8404E4004FF0FF3007EBD9
:1024A000040885B0CEF8080301AD98F82460002038
:1024B00068600190A8603EB1D8F80830CEF80433C7
:1024C000112005B0BDE8F08F4FF0010B8DF80630FC
:1024D0008DF8051002928DF804B006F0FF0C9146BD
:1024E0000E4695E8070008F10C0585E8070088F816
:1024F00024B088F82030CEF88865C8F818C04A465D
:1025000071464046C8F81C9088F821C0FFF744FB8C
:102510003B59002BD5D188F82430D2E79C06002007
:10252000F0B5794C236891B0002B00F0C28094F88C
:102530002310754A754BA9B9D3F8240192F820608D
:1025400092F8265000284BD0C3F82411D3F8241158
:1025500008910121089882F823105961AE4214D0E5
:1025600011B0F0BD0022C3F82421D3F82411099141
:102570000999C3F81C21D3F81C110A910A99C3F8D0
:102580000821D3F808310B930B9B604BD3F804213F
:10259000002AE5D00022C3F80421D3F804310393C4
:1025A000039B94F823305848002B34D1017B8B1EB9
:1025B000012B6AD9564B93E8070010AD05E90700D7
:1025C00000238DF83030A3694F490022580784F862
:1025D0002420C5D40B6849680CA8984711B0F0BDF9
:1025E000D3F81C11D76961B3C3F81C01D3F81C11CF
:1025F00007910799D3F8241192F821E000295ED0C1
:10260000C3F82401D3F8241106910121069882F819
:1026100023105961A2E70C3007C810AB03E907008B
:102620003A4AD2F8C434C2F8C4349A0703D5012315
:102630008DF83030C7E75D0744BF02238DF8303096
:10264000C1E7D3F80801002888D0C3F80811D3F8EF
:10265000080105900598D3F8240100283ED1AE4228
:102660007FF67CAFD3F81815795592F82610013112
:10267000C9B2701E814282F826103CD08E423FF4CF
:102680006DAF224B01221A6268E7C26903699A4260
:1026900090D184694269C37BC261C4F340140329A9
:1026A00080F8214080F8203029D01849FFF774FACB
:1026B00056E7184940F2FF30FEF7C2FE37E7AE4258
:1026C00005D80122BEF1000F13D15A6146E7795DAA
:1026D000C3F81C156B1C82F826303FE7C3F82411A1
:1026E000D3F8241104910121049882F82310596130
:1026F00034E7DA6155E70222C3F80022C1E700940B
:102700000249FFF729FB2BE79C0600200030004020
:10271000A80600201C8F00002DE9F043954F3A7861
:102720008BB0002A40F088800123DFF87082924944
:102730003B7098F801900B68002B5FFA89F914BF81
:102740000123002303D00A600A680092009A8B4A92
:10275000116800294FEA430314BF0121002104D06E
:102760000020106012680192019A854A10680028C2
:1027700043EA412314BF0121002104D0002010604E
:1027800012680292029A7F4A1068002843EAC14305
:1027900014BF0124002404D00021116012680392A8
:1027A000039A794A1168002943EA045314BF0124AB
:1027B000002404D00021116012680492049A734A24
:1027C0001168002943EA446314BF0124002404D0A3
:1027D0000021116012680592059A53EA846427D09B
:1027E0000426012509F1FF39B9F1030F3FD8DFE8CD
:1027F00009F0575D022A664B234003BB4FF040228D
:10280000D8F80410D2F8D034C2F8D034D8F8082060
:10281000002B08BF4FF480731A4305200993C8F8B2
:1028200008208DF8200009B108A888474FF000095A
:10283000002388F801903B700BB0BDE8F08334F4BE
:10284000002400F09080534B2340002BD6D04FF053
:1028500040238DF81860D3F83C35D8F80420DBB25B
:1028600007930AB106A8904734F00204DED014F0B2
:102870000203F9D1600144D5E202D8F804208DF8B2
:10288000183056BF01234FF0020999468DF81C30CD
:102890000AB106A8904724F0C364002CA2D1C7E770
:1028A0003D4B23402BB134F480145FD0394B23408F
:1028B000BBB94FF04022D8F80410D2F8D034C2F897
:1028C000D034D8F80820002B08BF4FF480731A4387
:1028D00002200993C8F808208DF820000029A3D110
:1028E000A4E74FF040238DF81850D3F84C35D8F8B2
:1028F0000420DBB20793002AB4D134F00204B6D12D
:1029000094E7A30116D504F40023002BD8F8043073
:102910004FF003020CBF012100218DF81C100CBFE9
:1029200091464FF004098DF81820002BB3D006A86B
:102930009847B0E74FF04022D8F80410D2F8D034CE
:10294000C2F8D034D8F80820002B08BF4FF48073A9
:102950001A4306200993C8F808208DF820000029A2
:102960007FF462AF62E74FF0040961E74FF00209BC
:102970005EE700BFC406002004410040244100403F
:102980004C410040504100406441004068410040DB
:10299000020008060200000602001006C806002019
:1029A00070B59B4C237F8EB0002B75D1994AD2F81D
:1029B0000413890548D4974BD3F80423520704D550
:1029C000D3F80821002A40F0CA80924BD3F81C218A
:1029D000C2B1A28AA07D8E4992B282424FF000021B
:1029E000C3F81C2180F0A980D3F81C210692069A16
:1029F000888A8A8A8D6880B20132285C92B28A8283
:102A0000C3F81C05834BD3F84421DAB10022C3F884
:102A10004421D3F84411A27E04910499002A40F085
:102A20008980E27D7A4B6AB10022587ED968DA75D6
:102A300001228DF830000B918DF828200AA893E828
:102A4000060090470EB070BDD2F824110029B2D014
:102A5000C2F82431D2F82411A37E07914FF40171FA
:102A60000798C2F808130BB901235360694A02237F
:102A70008DF82830D2F88034C2F88034E07DE268E6
:102A80000D9300238DF83000E375237621680B92B7
:102A900063680AA8984798E75E4BD3F82421002A78
:102AA00040F09380D3F8101161B1C3F81021D3F82E
:102AB000101103910399D3F83C15E07DC9B2884207
:102AC00000F0AA80534BD3F84421B2B10022C3F8DE
:102AD0004421D3F84411E07D019101994C4960B142
:102AE000D3F83C35C8688DF830300123CA750B9097
:102AF0008DF828300AA80AC99847464BD3F82021F8
:102B0000002A9FD00022C3F82021D3F82011A07DF5
:102B1000009100993E49002894D0D3F84C058B6869
:102B20008DF830008A750B938DF828200AC90AA801
:102B3000984787E701221A6073E7D3F81C310593A1
:102B4000059B00283FF45EAF8B688DF830008A75D6
:102B50000B938DF828200AC90AA8984752E7E17D0F
:102B60002B4A002970D00021C3F80811D3F80811AE
:102B700008910899D068517ED3F818354354537E94
:102B8000D17D0133DBB25376627E214B8A427FF4E2
:102B90001CAF1A7E002A6DD19B7E13B91D4B0122FA
:102BA0005A601C4AE06863684FF40171C2F8081368
:102BB000627E8DF83020002501220B902168E5759A
:102BC0008DF828200AA89847FFE60022C3F82421A0
:102BD000D3F82411029102218DF828100299D3F81C
:102BE0008014C3F880140D91D3F83C15E368E275A6
:102BF00022768DF830100B93216863680AA89847F5
:102C0000044BD3F84421002A3FF477AF5EE700BFBE
:102C1000D406002000200040217EF1B1D3F80062EC
:102C2000E17526F02001E568C3F8001226698DF8E9
:102C3000300001238DF82830227621680B95E6605C
:102C400063680AA898473DE7C3F80811D3F808213C
:102C50000992099AD3F8183596E7E268E1750123DD
:102C60008DF830008DF828300B9294E80A000AA8FD
:102C7000984727E7DE685D7E1869DA750121002232
:102C8000D8601A765A768DF828100B968DF8305049
:102C900093E806000AA8904797E600BF30B587B0D2
:102CA00006AB02AD03F8042D002485E803001A46A4
:102CB0000094284601232921FFF792FB50BB0123F2
:102CC0000DF1160229212846FFF7DEFB0446D0B994
:102CD000284601230DF117022921FFF7D5FB0446F1
:102CE00000BB14490220FDF775FE9DF816009DF803
:102CF0001730114943EA002422461320FDF7B6FE9F
:102D0000204607B030BD0D490220FDF763FEE0B25A
:102D100007B030BD04460A490220FDF75BFEE0B271
:102D200007B030BD07490220FDF754FEE0B207B0FE
:102D300030BD00BF1890000034900000A08F00004C
:102D4000688F0000DC8F0000F0B58DB002AD85E823
:102D5000030095E8030008AB002483E803002B4E32
:102D60008DF818400AAB06AF83E803003A461846D0
:102D700000940323102134707470B470F4703471B3
:102D80008DF819408DF81A40FFF72AFB98BB95E89B
:102D900003000CAA0C2302F8203D012387E803005E
:102DA00000240093102138468DF814408DF815400A
:102DB000FFF716FB0446C0B93846022305AA1021C6
:102DC000FFF762FB0446D8B99DF815409DF8143012
:102DD00043EA0424262C22460CBF0D490D4913203A
:102DE000FDF744FE20460DB0F0BD0B490220E4B2D1
:102DF000FDF7F0FDEEE709490220FDF7EBFDC6E720
:102E000007490220E4B2FDF7E5FDE3E710090020E1
:102E10007090000090900000688F000040900000CB
:102E2000A08F00002DE9F04F93B004AC9B4642F018
:102E3000800384E8030002930DF140080DF1380A85
:102E40000DF130090AAF002650E001230DF11F02F9
:102E500053214046FFF718FB0546002873D19DF823
:102E60001F50009694E803004FF00A0E8AE8030012
:102E7000022309AA532150468DF825B08DF824E08D
:102E8000FFF7AEFA002859D194E803004FF00B0E7B
:102E900000969DF808C08DF821C089E80300022340
:102EA00008AA532148468DF820E0FFF799FA002838
:102EB0003FD194E803004FF0110E0096012387E8FC
:102EC000030007AA532138468DF81CE0FFF788FA63
:102ED00018BB01230DF11F0253213846FFF7D4FA26
:102EE000002836D19DF81F309D421FDB94E8030077
:102EF00011250096012388E8030007AA53214046C4
:102F00008DF81C50FFF76CFA054600289DD0154936
:102F10000220EDB2FDF75EFDA3E703901149022008
:102F2000FDF758FD039BDBB29D42DFDA13B0BDE82D
:102F3000F08F0D490220FDF74DFDBAE70A49022046
:102F4000FDF748FDA0E709490220EDB2FDF742FD7B
:102F500087E7039005490220FDF73CFD039BDBB2A8
:102F6000C2E700BFB890000040900000F090000061
:102F70002DE9F04F99B004AB83E8030004AA92E86E
:102F800003000A230122FFF74DFF04AB93E803007F
:102F90001A220023FFF746FF04AB93E803001B222D
:102FA0000123FFF73FFF04AB93E803001C22052336
:102FB000FFF738FF04AB93E803001D220A23FFF755
:102FC00031FF04AB93E803001E220A23FFF72AFF18
:102FD00004AB93E8030010AC0023062284E803004E
:102FE000FFF720FF94E8030002230722FFF71AFFF0
:102FF00094E8030040230822FFF714FF94E803003D
:1030000041230922FFF70EFF04AB93E803000EAC47
:1030100000230E2284E80300FFF704FF94E8030076
:1030200002230F22FFF7FEFE94E803004023102244
:10303000FFF7F8FE94E8030081231122FFF7F2FE68
:1030400004AB93E803000CAC84E8030016AF0DF169
:10305000280B0DF1500912AE4FF0110A4FF0000885
:103060003BE001235A4653213846FFF70DFA054647
:1030700000287DD19DF82850CDF8008094E8030009
:103080004FF00B0C89E803004FF0130E022309AA3E
:10309000532148468DF824C08DF825E0FFF7A0F9AC
:1030A000002860D194E803000123CDF8008008AA2D
:1030B00086E80300532130468DF820A0FFF790F9F1
:1030C00010BB01235A4653213046FFF7DDF9002893
:1030D00054D19DF828309D421FDB94E80300012362
:1030E000CDF8008008AA87E80300532138468DF800
:1030F00020A0FFF775F905460028B2D02949022023
:10310000EDB2FDF767FCB7E7039026490220FDF713
:1031100061FC039BDBB29D42DFDA04A903C918AA54
:10312000002302F8443D00938BE803000123532160
:103130005846FFF755F9044640BB08AA58460123F4
:103140005321FFF7A1F9044630BB9DF82040532CD2
:1031500022460CBF144915491320FDF787FC204671
:1031600019B0BDE8F08F12490220FDF733FC99E752
:1031700010490220EDB2FDF72DFC7DE703900D49CB
:103180000220FDF727FC039BDBB2A4E705490220E0
:10319000E4B2FDF71FFCDAE706490220E4B2FDF7CE
:1031A00019FCD4E7B89000002C9100005091000069
:1031B00040900000F0900000F0B5814C99B002AF53
:1031C00094F804C094F801E02678A278E37887E8C0
:1031D00003000CF0010C4FEA4E1E0EF0600E4CEA9C
:1031E000C616920097E8030046EA0E0602F01C029B
:1031F0005B00164303F0020316AA1E430CAD002326
:1032000082E8030085E803004FF0200E009310468B
:10321000022309AA1E218DF825608DF824E0FFF70E
:10322000DFF8002840F0C080A679E2796379F600E3
:10323000920095E8030002F0040206F008065B0124
:10324000164303F0600314AA1E43002382E8030020
:103250004FF0210E00931046022308AA1E218DF87C
:1032600021608DF820E0FFF7BBF8002840F0978040
:10327000667AA27A237AB60095E8030002F0030288
:1032800006F004065B01164303F0200312AA1E4356
:10329000002382E803004FF0220E00931046022321
:1032A00007AA1E218DF81D608DF81CE0FFF798F825
:1032B00000286FD1267BE37A95E8030076009B0017
:1032C00003F00C0306F0020610AA1E43002382E856
:1032D00003004FF0230E00931046022306AA1E217E
:1032E0008DF819608DF818E0FFF77AF800284CD1B6
:1032F000A37B647B95E803009B010EAA03F04003C7
:10330000002582E8030043EAC414009510462425F2
:10331000022305AA1E218DF815408DF81450FFF7E1
:103320005FF868BB97E8030018AA0F2302F8503D26
:103330000AAD002385E803000093284601231E21DF
:10334000FFF74EF80446A8B9284601230DF11302F1
:103350001E21FFF799F8044658BB9DF813403D2CF9
:1033600022460CBF174918491320FDF77FFB204662
:1033700019B0F0BD15490220E4B2FDF72BFBEEE7D2
:1033800013490220FDF726FBCCE711490220FDF787
:1033900021FBADE70E490220FDF71CFB8AE70C4933
:1033A0000220FDF717FB63E709490220FDF712FB36
:1033B0003AE708490220E4B2FDF70CFBCFE700BF73
:1033C0003C09002080910000A0910000B89000000E
:1033D00040900000F0900000F0B5D24CA1B0002267
:1033E0000123032502AE25706370E37023716371BE
:1033F000A270A271E27122726272A272E2722273F0
:103400006273A273E27322746274A274E27422750E
:103410006275A275E27522766276A276E2762277EE
:10342000627786E8030096E803001EAB10AD85E8DE
:103430000300A277009283E803001F211846C027EB
:10344000E27784F8202084F8212084F822208DF867
:103450002C1002230BAA18218DF82D70FEF7C0FF47
:10346000002840F078816779A1786078E278237944
:1034700007F00107C90047EA001701F008019200B0
:103480000F4302F0040295E803005B00174303F0CA
:1034900002031CAA1F43002382E803004FF0200E02
:1034A0000093104602230AAA18218DF829708DF87E
:1034B00028E0FEF795FF002840F04881E37AE079A4
:1034C00094F806E0217A627A03F00107000147EAE6
:1034D0008E1700F03000A37AC900074301F00801FD
:1034E00092000F4302F0040295E803005B001743CB
:1034F00003F002031AAA1F43002382E803004FF0DF
:10350000210E00931046022309AA18218DF8257078
:103510008DF824E0FEF764FF002840F01281637B01
:10352000A27BE77B207B217C94F811E09B01520178
:1035300003F0400302F020021A433F0142EAC013A5
:1035400007F01007A27CC9001F4301F008014FEAF1
:103550008E0E0F430EF0040E95E80300520047EA6A
:103560000E0702F0020218AB1743002283E80300A3
:103570004FF0220E0092184608AA022318218DF857
:1035800021708DF820E0FEF72BFF002840F0D4805A
:10359000A77D227DE17C637D07F00107120147EAE8
:1035A000C11702F0300295E803005B00174303F0F7
:1035B000060316AA1F43002382E803004FF0230EE0
:1035C00000931046022307AA18218DF81D708DF86C
:1035D0001CE0FEF705FF002840F09E80237F207E40
:1035E00094F817E0617EA27E03F00107800147EAAC
:1035F000CE1700F04000E37EC900074301F0080148
:1036000092000F4302F0040295E803005B001743A9
:1036100003F0020314AA1F43002382E803004FF0C3
:10362000240E00931046022306AA18218DF8197063
:103630008DF818E0FEF7D4FE002868D1A37FE27F62
:1036400094F8200094F8211094F81DE094F822706A
:103650009B01520103F0400302F020021A430401CF
:1036600042EACE1304F01004CA0095E80300234395
:1036700002F008047A001C4302F0020212AB00259B
:1036800083E803001443009518462525022305AA64
:1036900018218DF815408DF81450FEF7A1FE88BB57
:1036A00096E803000CAB20AA83E803000F2302F87E
:1036B000703D0EAD002385E80300009328460123EA
:1036C0001821FEF78DFE0446B0B9284601230DF1FE
:1036D00013021821FEF7D8FE0446002840D19DF8B9
:1036E0001340332C22460CBF0F4910491320FDF71D
:1036F000BDF9204621B0F0BD0D490220E4B2FDF72E
:1037000069F9EEE70B490220FDF764F9C8E70949BA
:103710000220FDF75FF991E706490220FDF75AF90B
:103720005CE700BF18090020CC910000EC9100007C
:10373000B8900000409000000C490220FDF74AF9C3
:1037400026E70A490220FDF745F9E8E60749022085
:10375000FDF740F9B2E605490220FDF73BF982E6A4
:1037600003490220E4B2FDF735F9BAE740900000C2
:10377000F09000002DE9F04F8FB004AC84E8030016
:103780000EAE94E80300F72306F8183D0CAD0023B5
:1037900085E8030032460093284601237721FEF78F
:1037A0001FFE002840F02A810AAF012328463A462E
:1037B0007721FEF769FE0346002840F03B819DF823
:1037C000283003930EAD94E80300F82305F81C3D60
:1037D000002387E803002A46009377210123384617
:1037E000FEF7FEFD0346002840F01D810123384608
:1037F00032467721FEF748FE0346002840F0288134
:103800009DF82030029394E803000EAAF92302F8F1
:10381000203D002386E803000093772101233046F2
:10382000FEF7DEFD0446002840F0F6802A463046CA
:1038300001237721FEF728FE0446002840F001818D
:103840009DF81CE0864BDFF82CA21868BAF90A40F4
:10385000BAF90860C117B0F5FA3041F1FF31A0FBA9
:10386000008900FB01F309EB4309E517F71704FB97
:1038700009F206FB01F308FB052200FB0733A4FB5A
:103880000845A6FB006715444FEA142B1F444BEA7A
:10389000056B32033B0343EA16534FEA252C12EB28
:1038A0000B02BAF8066043EB0C03003243F5004309
:1038B000A2FB064506FB03556A10EB1752EA030408
:1038C00000F0A580BAF90E40029E039F04FB01F1AF
:1038D000E51700FB05153601A4FB0001BAF91040FD
:1038E00046EA0736294404FB09FC46EA1E1EE51792
:1038F0004F04CEF5801E08FB05CC47EAD0374604BE
:10390000A4FB0845BAF90C00A41965444FF000085F
:103910004FEAEE7C4FEACC714FEAC0097D414FEA95
:10392000CE7014EB080445EB090541EA5E01001B6B
:1039300061EB0501061841EB010736184F41BD0147
:10394000B40145EA966536196F41BC00B50044EAFA
:1039500096742E1844EB0107B500BC00401944EAE8
:103960009674614104F07AFBBAF916204C13470BA8
:1039700047EAC14702FB04F5D31707FB0355A2FB37
:10398000072302FB04F6BAF914402B4407FB036635
:1039900004FB01FEA2FB0723E51700FB05EE334401
:1039A000A4FB0045560E754446EAC3164FEAD448B8
:1039B0008019BAF912404FEA636748EA45387941FD
:1039C0004FEAE54918EB000849EB0109E5174FEA12
:1039D000182242EA0962290120014FEA29238018AE
:1039E00041EA1471594104F0FBFA9FED1E0A07EEFB
:1039F000900A27EE800A0FB0BDE8F08F0346DBB2D5
:103A0000194903930220FCF7E5FF0AAFDAE69FEDC0
:103A1000170A0FB0BDE8F08F13490220FCF7DAFF58
:103A20005FFA84FE0EE7DBB20F4902930220FCF737
:103A3000D1FFE8E6DBB20E4903930220FCF7CAFF90
:103A4000C0E60B490220FCF7C5FF5FFA84FEF9E6E9
:103A5000DBB2074902930220FCF7BCFFD3E600BFAC
:103A6000780900200000803BB890000000000000B2
:103A7000F09000004C0900202DE9F0479EB004AC06
:103A800084E803001EAF94E80300D02307F8103D3C
:103A900012AE002386E803003A4600933046012325
:103AA0007721FEF79DFC002840F098810DF1700809
:103AB0003046424601237721FEF7E6FC0546002802
:103AC00040F0B4819DF87020DF491320FCF7CEFF51
:103AD00094E803000AAB83E803000DF160090023BA
:103AE00010AE86E8030089E80300FA2500934846F3
:103AF00001233A4677218DF86850FEF771FC0546A0
:103B0000002840F08D814846012342467721FEF788
:103B1000BBFC0546002840F0CA819DF8705096E82D
:103B200003000DF1580A00238AE803004FF0FB0E52
:103B30000093504601233A4677218DF868E0FEF75E
:103B40004FFC2D038146002840F06381504601233D
:103B500042467721FEF798FC8146002840F0A0817C
:103B60009DF8709096E803000DF1500A00238AE852
:103B70000300FC260093504601233A4677218DF836
:103B80006860FEF72DFC45EA09150646002840F05E
:103B90003A815046012342467721FEF775FC0646DE
:103BA000002840F077819DF87030A84E9FEDA86AFC
:103BB000B6F800E0B6F90420B6F902C0DFEDA56A58
:103BC000DFF8B492A44945EA1315CEEB151303FBB5
:103BD00003F34FEA4E0E1B13CEEBD50002FB03F3AB
:103BE0000CFB00F59B1303EBE52505EB8503803308
:103BF0001B1207EE903AF8EEE77AF2EE025A87EEE1
:103C0000867A1320C9F800500DF1780A0CADB1EE98
:103C1000046A27EE257AC7EE067A77EEA67AFCEEDE
:103C2000E77ACDED037A9DF80C20FCF71FFF94E8AE
:103C30000300FFF79FFDFCEEC07A8849CDED037AC3
:103C40009DF80C201320FCF711FF94E8030008AB4B
:103C500083E803000EAB83E80300FFF78BFDDFED85
:103C6000807A80EE277A17EE100A03F095FD9FED1B
:103C7000721B41EC100B02F0F3FA07EE900AF8EE1B
:103C8000E77AB7EE007A77EEC77A9FED767A67EE3D
:103C9000877A17EE900A03F07FFD69A3D3E900232A
:103CA00003F0CEFD04F07CF807EE900AFCEEE77A14
:103CB0006D49CDED037A9DF80C201320FCF7D6FE5C
:103CC00094E80300FD230AF85C3D002385E8030027
:103CD00088E8030052460093772101234046FEF70F
:103CE0007FFB0446002840F08880404601233A4686
:103CF0007721FEF7C9FB0446002840F0C5809DF8F7
:103D0000684095E803001EAAFE2302F8603D0023E8
:103D100087E803000093772101233846FEF760FB14
:103D200024020546002862D15246384601237721F5
:103D3000FEF7AAFB0546002840F0A0809DF81C0075
:103D4000D9F80030377F96F82220B6F91EC0B6F9B0
:103D50002050A3F5963E0EFB07F70EFB02F1FF1273
:103D600007F500478A1202FB07F24FEA0C5340EABC
:103D700004079212B6F91A40307E3C49C3EB8733F0
:103D800002F500120EFB153304FB02F203F580432B
:103D900002F500529213DB1302FB03F3DA1302FB6A
:103DA00002F2D21100FB02F2A3EB221323EAE37327
:103DB000B3F1C85FA8BF4FF0C8531B1307EE903A8A
:103DC000FAEECB7A1320FCEEE77ACDED037A9DF87C
:103DD0000C20FCF74BFE1EB0BDE8F08705462449D9
:103DE0000220FCF7F7FD0DF17008EAB26CE6022044
:103DF0001F49FCF7EFFDE8B2A2E71D490220FCF7DE
:103E0000E9FDE4B27DE71A490220FCF7E3FDF3B2D5
:103E1000CBE617490220FCF7DDFD5FFA89F9A1E640
:103E200013490220FCF7D6FDEDB278E611490220D5
:103E3000FCF7D0FDEAB247E6C5C551B9895AC83F7B
:103E4000E544BB0A293F0A40189200004C090020B3
:103E50000000C842000000422C9200004492000082
:103E600080E6C547331633C7609200007C9200009D
:103E7000B8900000F09000007809002002200F495F
:103E8000FCF7A8FDE8B25BE70C490220FCF7A2FDB5
:103E9000E4B236E709490220FCF79CFDF3B284E660
:103EA00006490220FCF796FD5FFA89F95AE60349B4
:103EB0000220FCF78FFDEDB231E600BFF09000006C
:103EC0002DE9F0439BB002AC84E8030094E80300C2
:103ED0000EAB1AAF83E803000F2307F8183D18ADA7
:103EE000002385E803003A460093284601231E215B
:103EF000FEF776FA002840F0B0800DF15809284608
:103F00004A4601231E21FEF7BFFA8046002840F0F2
:103F1000C8809DF85880734942461320FCF7A6FDDF
:103F200094E803000CAB1AAE83E80300282306F8DC
:103F3000203D002389E80300324600931E2101231F
:103F40004846FEF74DFA0546002840F0A480484652
:103F500001233A461E21FEF797FA0546002840F055
:103F6000BB809DF8502060491320FCF77FFD94E84A
:103F700003000AAB1AAD83E803002A2305F8283DA5
:103F8000002387E803002A4600931E2101233846B8
:103F9000FEF726FA8146002876D1384601233246BC
:103FA0001E21FEF771FA8146002840F08E809DF8B0
:103FB00048204E491320FCF759FD94E8030008AB54
:103FC0001AAF83E803002C2307F8503D002386E84E
:103FD00003003A4600931E2101233046FEF700FA03
:103FE0008146002849D1304601232A461E21FEF78A
:103FF0004BFA8146002861D19DF840203C491320AE
:10400000FCF734FD94E803001AAA2E2302F8543D6D
:10401000002387E8030085E8030000931E210123A5
:104020002846FEF7DDF9044608BB284601230DF1BA
:1040300017021E21FEF728FA0446002838D19DF801
:1040400017202C491320FCF711FD2B491320FCF7F6
:10405000C1FC40461BB0BDE8F083804627490220E2
:104060005FFA88F8FCF7B6FC0DF1580953E72349CD
:104070000220FCF7AFFCE2B2E3E720490220FCF7A4
:10408000A9FC5FFA89F2B9E71C490220FCF7A2FCFF
:104090005FFA89F28DE719490220FCF79BFCEAB22E
:1040A00061E7174902205FFA88F8FCF793FC32E7D2
:1040B00013490220FCF78EFCE2B2C2E7104902204D
:1040C000FCF788FC5FFA89F298E70D490220FCF7BB
:1040D00081FC5FFA89F26CE709490220FCF77AFC5F
:1040E000EAB240E79C920000B8920000D49200002F
:1040F000F09200000C930000E4940000B8900000DF
:10410000F09000002DE9F0439FB002AC84E803007A
:1041100094E8030010AB1EAD83E803000F2305F8FD
:10412000183D1CAE002386E803002A460093304663
:1041300001231821FEF754F9002840F0E6801AAF59
:1041400030463A4601231821FEF79EF980460028A2
:1041500040F006819DF86880964942461320FCF79E
:1041600085FC94E803000EAB0DF1780983E80300A9
:10417000272309F8203D002387E803004A460093DF
:10418000182101233846FEF72BF90646002840F097
:10419000DE80384601232A461821FEF775F90646C7
:1041A000002840F0FD809DF8602083491320FCF733
:1041B0005DFC94E803000CAB1EAF83E803002923E9
:1041C00007F8283D002385E803003A4600931821AC
:1041D00001232846FEF704F90646002840F0B18086
:1041E000284601234A461821FEF74EF906460028C4
:1041F00040F0D0809DF85820704952B21320FCF74F
:1042000035FC94E803000AAB1EAE83E803002B23C1
:1042100006F8303D002389E8030032460093182158
:1042200001234846FEF7DCF80546002840F083806D
:10423000484601233A461821FEF726F9054600288C
:1042400040F0A2809DF850505D496DB213202A467F
:10425000FCF70CFC012D4FF0000000F0A780002DB2
:104260007BDDFDF719F994E8030008AB1EAD83E888
:1042700003002D2305F8603D002387E803002A464C
:104280000093182101233846FEF7AAF8814600283A
:104290004AD13846012332461821FEF7F5F8814607
:1042A00000286AD19DF84820464952B21320FCF7F5
:1042B000DDFB94E803001EAA0C2302F8643D0023F2
:1042C00085E8030086E803000093182101233046A7
:1042D000FEF786F8044608BB304601230DF11702AD
:1042E0001821FEF7D1F80446002840D19DF8172088
:1042F000354952B21320FCF7B9FB34491320FCF7BF
:1043000069FB40461FB0BDE8F0838046304902207B
:104310005FFA88F8FCF75EFB1AAF1DE72C49022014
:10432000FCF758FBE2B2E3E729490220FCF752FB15
:104330005FFA89F2B8E726490220FCF74BFBEDB2A1
:1043400082E723490220FCF745FBF2B254E72049FB
:104350000220FCF73FFBF2B227E7FDF77FF882E788
:104360001C4902205FFA88F8FCF734FBF4E619498F
:104370000220FCF72FFBE2B2BAE716490220FCF755
:1043800029FB5FFA89F28FE712490220FCF722FB32
:10439000EDB259E70F490220FCF71CFBF2B22BE704
:1043A0000C490220FCF716FBF2B2FEE6FDF794F88A
:1043B00059E700BF28930000449300006093000079
:1043C0007C93000098930000B4930000E4940000F4
:1043D000B8900000F09000002DE9F047D6B002AC94
:1043E00084E8030056AF94E80300892307F8183DDA
:1043F00054AD002385E803003A4600932846012384
:104400007721FDF7EDFF002840F000850DF5A47839
:104410002846424601237721FEF736F881460028D8
:1044200040F000869DF8489156AE94E8030088233A
:1044300006F8203D002388E80300324600937721E8
:1044400001234046FDF7CCFF4FEA09290546002825
:1044500040F0CC85404601233A467721FEF714F818
:104460000546002840F0D9869DF840E1E34D0DF562
:10447000AC7894E803008B2308F8283DCE44002351
:1044800087E8030042460093772101233846A5F8C8
:1044900000E0FDF7A5FF8146002840F09F853846E3
:1044A000012332467721FDF7EFFF8146002840F0D7
:1044B000AC869DF8389156AF94E803008A2307F83C
:1044C000303D002386E803003A460093772101231C
:1044D0003046FDF785FF4FEA092A8146002840F063
:1044E00075853046012342467721FDF7CDFF814691
:1044F000002840F082869DF8309156AE94E8030083
:104500008D2306F8383DD144002388E80300324665
:1045100000937721A5F8029001234046FDF760FF44
:104520008146002840F04A85404601233A467721DB
:10453000FDF7AAFF8146002840F057869DF8289194
:104540000DF5AC7894E803008C2308F8403D002377
:1045500087E8030042460093772101233846FDF7A0
:104560003FFF4FEA092A8146002840F01F85384660
:10457000012332467721FDF787FF8146002840F06E
:104580002C869DF8209156AF94E803008F2307F8FE
:10459000483DD144002386E803003A460093772142
:1045A000A5F8049001233046FDF71AFF8146002844
:1045B00040F0F4843046012342467721FDF764FF42
:1045C0008146002840F001869DF8189156AE94E887
:1045D00003008E2306F8503D002388E8030032468E
:1045E0000093772101234046FDF7FAFE4FEA092A9E
:1045F0008146002840F0CA84404601233A4677218C
:10460000FDF742FF8146002840F0D7859DF81091C4
:104610000DF5AC7894E80300912308F8583DD14497
:10462000002387E80300424600937721A5F806900F
:1046300001233846FDF7D4FE8146002840F09E84D1
:104640003846012332467721FDF71EFF81460028B8
:1046500040F0AB859DF8089156AF94E80300902395
:1046600007F8603D002386E803003A46009377216F
:1046700001233046FDF7B4FE4FEA092A814600289F
:1046800040F074843046012342467721FDF7FCFE5A
:104690008146002840F081859DF8009156AE94E84F
:1046A0000300932306F8683DD144002388E8030003
:1046B000324600937721A5F8089001234046FDF784
:1046C0008FFE8146002840F04984404601233A4647
:1046D0007721FDF7D9FE8146002840F056859DF8E8
:1046E000F8900DF5AC7894E80300922308F8703D3B
:1046F000002387E8030042460093772101233846D0
:10470000FDF76EFE4FEA092A8146002840F01E841C
:104710003846012332467721FDF7B6FE8146002850
:1047200040F02B859DF8F09056AF94E80300952358
:1047300007F8783DD144002386E803003A46009309
:104740007721A5F80A9001233046FDF749FE8146FE
:10475000002840F0F4833046012342467721FDF7DC
:1047600093FE8146002840F000859DF8E89056AE03
:1047700094E80300942306F8803D002388E80300B2
:1047800032460093772101234046FDF729FE4FEA88
:10479000092A8146002840F0CB83404601233A464F
:1047A0007721FDF771FE8146002840F0D6849DF800
:1047B000E0900DF5AC7894E80300972308F8883D65
:1047C000D144002387E80300424600937721A5F8EF
:1047D0000C9001233846FDF703FE8146002840F087
:1047E000A0833846012332467721FDF74DFE8146EE
:1047F000002840F0AA849DF8D89001E04C090020E0
:1048000056AF94E80300962307F8903D002386E80E
:1048100003003A460093772101233046FDF7E0FD7F
:104820004FEA092A8146002840F07483304601236C
:1048300042467721FDF728FE8146002840F07D841E
:104840009DF8D09056AE94E80300992306F8983D61
:10485000D144002388E80300324600937721A5F86D
:104860000E9001234046FDF7BBFD8146002840F035
:104870004A83404601233A467721FDF705FE8146EB
:10488000002840F052849DF8C8900DF5AC7894E86B
:104890000300982308F8A03D002387E80300424660
:1048A0000093772101233846FDF79AFD4FEA092A44
:1048B0008146002840F02083384601233246772184
:1048C000FDF7E2FD8146002840F027849DF8C09066
:1048D00056AF94E803009B2307F8A83DD14400237A
:1048E00086E803003A4600937721A5F8109001234B
:1048F0003046FDF775FD8146002840F0F6823046CF
:10490000012342467721FDF7BFFD8146002840F094
:10491000FC839DF8B89056AE94E803009A2306F8FD
:10492000B03D002388E8030032460093772101233D
:104930004046FDF755FD4FEA092A8146002840F020
:10494000CD82404601233A467721FDF79DFD814601
:10495000002840F0D3839DF8B0900DF5AC7894E832
:1049600003009D2308F8B83DD144002387E80300E5
:10497000424600937721A5F8129001233846FDF7AF
:104980002FFD8146002840F0A2823846012332469E
:104990007721FDF779FD8146002840F0A8839DF836
:1049A000A89056AF94E803009C2307F8C03D00236D
:1049B00086E803003A460093772101233046FDF74D
:1049C0000FFD4FEA092A8146002840F079823046DF
:1049D000012342467721FDF757FD8146002840F02C
:1049E0007F839DF8A09056AE94E803009F2306F8BD
:1049F000C83DD144002388E8030032460093772164
:104A0000A5F8149001234046FDF7EAFC81460028F2
:104A100040F04F82404601233A467721FDF734FDAE
:104A20008146002840F055839DF898900DF5AC78AC
:104A300094E803009E2308F8D03D002387E8030094
:104A400042460093772101233846FDF7C9FC4FEA1F
:104A5000092A8146002840F0258238460123324643
:104A60007721FDF711FD8146002840F02B839DF84A
:104A7000909056AF94E80300A12307F8D83DD144A5
:104A8000002386E803003A4600937721A5F81690A4
:104A900001233046FDF7A4FC8146002840F0FB814D
:104AA0003046012342467721FDF7EEFC814600287F
:104AB00040F001839DF8889085F8189056AE94E8F0
:104AC0000300E22306F8E03D002388E803003246B5
:104AD0000093772101234046FDF782FC824600289F
:104AE00040F0D281404601233A467721FDF7CCFCC5
:104AF0008246002840F0D8829DF880A00DF5AC7861
:104B000094E80300E12308F8E83D002387E8030068
:104B100042460093772101233846FDF761FC4FEAB6
:104B20000A2A8146002840F0A881384601233246EF
:104B30007721FDF7A9FC0746002840F0AF829DF8D9
:104B400078700DF5AC7994E80300E32309F8F03DA3
:104B50005744002386E803004A46009377216F8379
:104B600001233046FDF73CFC0746002840F07F81DA
:104B70003046012342467721FDF786FC0746002890
:104B800040F086829DF870702F7756AF94E803004E
:104B9000E42307F8F83D002388E803003A46009331
:104BA000772101234046FDF71BFC0646002840F014
:104BB0005881404601234A467721FDF765FC0646A9
:104BC000002840F05F829DF8686094E803000DF1D2
:104BD000580800234FF0E50E89E803004246009391
:104BE00077210123484688F800E0FDF7F9FB4FEAFA
:104BF000061A0646002840F02E81484601233A4610
:104C00007721FDF741FC0646002840F035829DF8EB
:104C1000606094E803000DF1500906F00F060023D0
:104C200056444FF0E60E87E803004A46009377218A
:104C3000EE830123384689F800E0FDF7D1FB0646F4
:104C4000002840F002813846012342467721FDF7D3
:104C50001BFC0646002840F0098298F8006094E8A2
:104C600003000DF1480A0023E52788E803005246B7
:104C7000009377218AF8007001234046FDF7B0FBCE
:104C800036010746002840F0DA80404601234A46B4
:104C90007721FDF7F9FB0746002840F0E18199F8FC
:104CA000003094E8030010AF06EB13164FF0000C31
:104CB0004FF0E70E89E803003A46CDF800C0012323
:104CC0002E847721484687F800E0FDF789FB0646E9
:104CD000002840F0AE804846012352467721FDF778
:104CE000D3FB0646002840F0B5819AF8006085F8AD
:104CF000226094E8030000258AE80300F4218DF87F
:104D00002410504609AA0095022377218DF82550DA
:104D1000FDF766FB002840F08081CA4EB3787578B5
:104D200094E803009B0003F01C0343EA45150023AD
:104D300087E803004FF0F50E0093384608AA0223D7
:104D400077218DF821508DF820E0FDF749FB0028F0
:104D500040F05E8194E8030073790EAA82E80300B4
:104D6000002703F007011046F2258DF81D1000976B
:104D700007AA022377218DF81C50FDF731FB00288C
:104D800040F0418135783379F27894E8030005F0FA
:104D900003059B0045EA421503F01C030CAE4FF0DF
:104DA000000E86E803001D43F42706AA3046CDF81E
:104DB00000E0022377218DF819508DF81870FDF767
:104DC0000FFB002840F01A8194E803000AAD00238D
:104DD00085E80300D0240093284605AA0123772103
:104DE0008DF81440FDF7FCFA0446D0B928460DF1C1
:104DF000170201237721FDF747FB0446002840F006
:104E000019819DF8170056B0BDE8F08781468E499C
:104E10000220FBF7DFFD0DF5A4785FFA89F9FFF7B3
:104E200003BB89490220FBF7D5FDE0B256B0BDE8CF
:104E3000F08785490220FBF7CDFDF6B257E782499E
:104E40000220FBF7C7FDFBB22BE77F490220FBF7EF
:104E5000C1FDF6B203E77C490220FBF7BBFDF6B2C9
:104E6000D7E679490220FBF7B5FDF6B2ADE6764903
:104E70000220FBF7AFFDFFB286E673490220FBF785
:104E8000A9FD5FFA89F75CE66F490220FBF7A2FDF6
:104E90005FFA8AFA32E66C490220FBF79BFD5FFA63
:104EA00089F909E668490220FBF794FD5FFA89F960
:104EB000DFE565490220FBF78DFD5FFA89F9B5E56D
:104EC00061490220FBF786FD5FFA89F98BE55E49AF
:104ED0000220FBF77FFD5FFA89F962E55A4902205B
:104EE000FBF778FD5FFA89F937E557490220FBF7B0
:104EF00071FD5FFA89F90EE553490220FBF76AFD5F
:104F00005FFA89F9E4E450490220FBF763FD5FFA98
:104F100089F9BAE44C490220FBF75CFD5FFA89F994
:104F200090E449490220FBF755FD5FFA89F967E4EF
:104F300045490220FBF74EFD5FFA89F939E4424901
:104F40000220FBF747FD5FFA89F910E43E49022091
:104F5000FBF740FD5FFA89F9FFF7E6BB3A4902200B
:104F6000FBF738FD5FFA89F9FFF7BBBB3649022032
:104F7000FBF730FD5FFA89F9FFF790BB3249022059
:104F8000FBF728FD5FFA89F9FFF766BB2E4902207F
:104F9000FBF720FD5FFA89F9FFF73ABB2A490220A7
:104FA000FBF718FD5FFA89F9FFF710BB26490220CD
:104FB000FBF710FD5FFA89F9FFF7E5BA22490220F5
:104FC000FBF708FD5FFA89F9FFF7BABA1E4902201C
:104FD000FBF700FD5FFA89F9FFF78FBA1A49022043
:104FE000FBF7F8FC5FFA89F9FFF765BA164902206A
:104FF000FBF7F0FC5FFA85FEFFF738BA1349022091
:10500000FBF7E8FCE0E611490220FBF7E3FCB9E618
:105010000E490220FBF7DEFC9CE60C490220FBF760
:10502000D9FC7AE60A490220FBF7D4FC5FFA89F939
:10503000FFF7FAB906490220FBF7CCFCE0B256B004
:10504000BDE8F08770090020B89000004090000093
:10505000F090000075490220FBF7BCFCF6B246E672
:1050600072490220FBF7B6FCFBB21AE66F49022038
:10507000FBF7B0FCF6B2F2E56C490220FBF7AAFCA4
:10508000F6B2C6E569490220FBF7A4FCF6B29CE53E
:1050900066490220FBF79EFCFFB275E563490220DA
:1050A000FBF798FCFFB24CE560490220FBF792FC4D
:1050B0005FFA8AFA22E55D490220FBF78BFC5FFA72
:1050C00089F9F9E459490220FBF784FC5FFA89F970
:1050D000CFE456490220FBF77DFC5FFA89F9A5E48D
:1050E00052490220FBF776FC5FFA89F97BE44F49CD
:1050F0000220FBF76FFC5FFA89F952E44B4902206A
:10510000FBF768FC5FFA89F927E448490220FBF7BE
:1051100061FC5FFA89F9FFF7FEBB44490220FBF707
:1051200059FC5FFA89F9FFF7D3BB40490220FBF72E
:1051300051FC5FFA89F9FFF7A8BB3C490220FBF755
:1051400049FC5FFA89F9FFF77DBB38490220FBF77C
:1051500041FC5FFA89F9FFF753BB34490220FBF7A2
:1051600039FC5FFA89F9FFF724BB30490220FBF7CD
:1051700031FC5FFA89F9FFF7FABA2C490220FBF7F4
:1051800029FC5FFA89F9FFF7CFBA28490220FBF71B
:1051900021FC5FFA89F9FFF7A4BA24490220FBF742
:1051A00019FC5FFA89F9FFF779BA20490220FBF769
:1051B00011FC5FFA89F9FFF74FBA1C490220FBF78F
:1051C00009FC5FFA89F9FFF723BA18490220FBF7B7
:1051D00001FC5FFA89F9FFF7F9B914490220FBF7DE
:1051E000F9FB5FFA89F9FFF7CEB910490220FBF706
:1051F000F1FB5FFA89F9FFF7A3B90C490220FBF72D
:10520000E9FB5FFA89F9FFF778B908490220FBF753
:10521000E1FB5FFA89F9FFF74EB904490220FBF779
:10522000D9FB5FFA85FEFFF721B900BFF0900000BF
:105230002DE9F04FBDB0FCF775F90020FBF7AEFB90
:1052400008B1FBF707FD0025524C3B951B262B466A
:105250002A461A25389639954FF0CD66022538A989
:1052600020463A968DF8EC50FCF776FE002800F0C8
:105270008C80FBF7EFFC48491320FBF7ABFBFBF7F7
:1052800049FC0028FBD1DFF814810DF1380B18AF71
:105290000DF1800A0DF19009FBF7DAFCA0F10A0389
:1052A0006F2B00F2D783DFE813F0A201D503D503FB
:1052B000A201D503D503D503D503D503D503D50363
:1052C000D503D503D503D503D503D503D503D5031E
:1052D000D503D503D503D503D503D503D503D5030E
:1052E000D503D503D503D503D503D503D503D503FE
:1052F000D503D503D503D503D503D503D503D503EE
:10530000D503D503D503D503D503D503D503D503DD
:10531000D503D503D503D503D503D503D503D503CD
:10532000D503D503D503D503D503D503D503D503BD
:10533000D503D503D503D503D503D503D503D503AD
:10534000D503D503D503D503D503D503D503D5039D
:10535000D503D503D503D503B002D503D5038C02FD
:105360007E027402D503D5034903D503D503D503C3
:10537000D503D503CD02D5036A0260027B00CD01BF
:10538000AC01D503B801D503B0012046FDF708F8FC
:1053900071E700BF608F0000D0930000700900200B
:1053A000A2491320FBF716FB94E8030089E80300E9
:1053B000FEF786FD99E80300FEF7A4FE99E80300D6
:1053C00028AB2EAA83E8030082E803000123002013
:1053D0000C258DF814008DF81500009304AA1021F7
:1053E0002EA88DF81050FCF7FBFF0546002840F072
:1053F0008D83022305AA10212EA8FDF745F8054646
:10540000002840F0A7839DF815209DF8143043EA4A
:10541000022287491320FBF729FB28AB93E80300FE
:105420002CAA82E803000123002007258DF8140030
:105430008DF81500009304AA10212CA88DF81050A7
:10544000FCF7CEFF0546002840F05A83022305AA48
:1054500010212CA8FDF718F80546002840F0A58378
:105460009DF815209DF8143043EA0222714913205B
:10547000FBF7FCFA28AB93E803002AAA82E80300B2
:105480000123002009258DF814008DF815000093E4
:1054900004AA10212AA88DF81050FCF7A1FF054698
:1054A000002840F02783022305AA10212AA8FCF730
:1054B000EBFF0546002840F072839DF815209DF80B
:1054C000143043EA02225C491320FBF7CFFA5B4910
:1054D0001320FBF77FFA99E8030026AB83E803006B
:1054E000002536AB83E8030004AA0095012353216D
:1054F00036A88DF81050FCF773FF002840F0F582B5
:10550000012305AA532136A8FCF7BEFF002840F06E
:10551000418326AB93E8030034AA002382E803000A
:105520001325009304AA0123532134A88DF81050A9
:10553000FCF756FF0346002840F0BB82012305AA72
:10554000532134A8FCF7A0FF0346002840F0338322
:105550009DF8146026AB93E8030032AA002382E88A
:1055600003001425009304AA0123532132A88DF8C7
:105570001050FCF735FF0546002840F094820123C7
:1055800005AA532132A8FCF77FFF0546002840F00A
:105590003B839DF8145026AB93E8030030AA002308
:1055A00082E803004FF0150E009304AA0123532153
:1055B00030A88DF810E0FCF713FF002840F06B8254
:1055C000012305AA532130A8FCF75EFF002840F014
:1055D00013839DF814201A492B0243EA0643132033
:1055E0001A43FBF743FA94E80300FEF745FAFBF78A
:1055F00091FA00283FF450AEFBF78CFA0028F6D160
:105600004AE694E80300FDF7B3FC0020FBF764FFD3
:10561000FBF780FA0028EFD13EE694E80300FEF79E
:105620004FFCFBF777FA0028E6D135E6E894000056
:10563000EC930000049400001C940000E49400002B
:105640003494000094E8030006AB0CAA83E803003E
:1056500082E80300012300200C258DF814008DF84A
:105660001500009304AA10210CA88DF81050FCF727
:10567000B7FE0546002840F03282022305AA102119
:105680000CA8FCF701FF0546002840F07D829DF83C
:1056900015209DF8143043EA0222A1491320FBF79C
:1056A000E5F906AB93E803000AAA82E803000123A8
:1056B000002007258DF814008DF81500009304AA2A
:1056C00010210AA88DF81050FCF78AFE0546002824
:1056D00040F0FF81022305AA10210AA8FCF7D4FE9E
:1056E0000546002840F077829DF815209DF814307B
:1056F00043EA02228B491320FBF7B8F906AB93E883
:10570000030008AA82E803000123002009258DF880
:1057100014008DF81500009304AA102108A88DF834
:105720001050FCF75DFE0546002840F0A9810223D9
:1057300005AA102108A8FCF7A7FE0546002840F09E
:1057400050829DF815209DF8143043EA02227649D4
:105750001320FBF78BF975491320FBF73BF9FBF797
:10576000D9F900287FF448AF96E594E80300FDF7E7
:10577000EBFAFBF7CFF900287FF43EAF8CE594E815
:105780000300FDF719FDFBF7C5F900287FF434AFDE
:1057900082E594E80300FEF76FF9FBF7BBF90028F8
:1057A0007FF42AAF78E594E80300FDF715FE94E84E
:1057B0000300FEF7A7FCFBF7ADF900287FF41CAF50
:1057C0006AE594E8030038AB83E803000323002272
:1057D00088F80030012388F8012088F8022088F832
:1057E000033088F8043088F80530FEF7F5FD6028AE
:1057F00000F03B8102464E491320FBF737F9FBF7D7
:1058000089F900287FF4F8AE46E54A491320FBF7F2
:10581000E1F894E803008AE80300FDF7CDFC9AE87C
:105820000300FDF7D9FD9AE80300FDF78DFA9AE829
:105830000300FDF79DFB94E8030022AB83E803001F
:105840000323C4E73C490220FBF7C4F894E80300B3
:1058500000231EAA82E8030087E80300C025009306
:1058600004AA012329211EA88DF81050FCF7B8FDC9
:10587000002840F00B81012305AA29211EA8FCF76E
:1058800003FE002840F0B38197E8030000231CAA20
:1058900082E80300C125009304AA012329211CA842
:1058A0008DF81050FCF79CFD002840F00D8101237D
:1058B00005AA29211CA8FCF7E7FD002840F08681F5
:1058C00097E8030000231AAA82E80300C225009388
:1058D00004AA012329211AA88DF81050FCF780FD95
:1058E000002840F0EC80012305AA29211AA8FCF722
:1058F000CBFD002840F06581512297E80300FDF7B9
:10590000CDF9612297E80300FDF7C8F90020FBF705
:10591000E3FDFBF7FFF800287FF46EAEBCE400BFA8
:10592000EC930000049400001C940000E494000038
:10593000C4940000809400005094000094E8030098
:10594000002516AB83E803008BE8030001230095D4
:1059500004AA532116A88DF81050FCF741FD002829
:1059600040F0EE80012305AA532116A8FCF78CFD18
:10597000002840F0EA809BE80300002314AA82E894
:1059800003001325009304AA0123532114A88DF8C2
:105990001050FCF725FD0346002840F0CB80012382
:1059A00005AA532114A8FCF76FFD0346002840F018
:1059B000E5809DF814609BE80300002312AA82E8AA
:1059C00003001425009304AA0123532112A88DF883
:1059D0001050FCF705FD0546002840F0A580012386
:1059E00005AA532112A8FCF74FFD0546002840F0F8
:1059F000BF809DF814509BE80300002310AA82E8A2
:105A000003004FF0150E009304AA0123532110A8A0
:105A10008DF810E0FCF7E4FC00287DD1012305AAF5
:105A2000532110A8FCF730FD002840F099809DF824
:105A3000142078492B0243EA06431A431320FBF74C
:105A400015F80020FBF748FDFBF764F800287FF409
:105A5000D3AD21E4024670491320FBF707F8FBF7AA
:105A600059F800287FF4C8AD16E460226B49132072
:105A7000FAF7FCFFFBF74EF800287FF4BDAD0BE40E
:105A800067490220FAF7A6FFEAB260E665490220FC
:105A9000FAF7A0FFF8E6039062490220FAF79AFFAE
:105AA000039BDAB297E55F490220EDB2FAF792FF65
:105AB00071E55C490220DEB2FAF78CFF4AE55949EC
:105AC0000220FAF787FF17E756490220FAF782FF0C
:105AD000F6E653490220FAF77DFFEAB20AE650499A
:105AE0000220FAF777FFEAB2D7E54E490220FAF72B
:105AF00071FF0EE54A490220FAF76CFFEAB2E2E4D0
:105B000047490220FAF766FFEAB2AFE444490220AF
:105B1000FAF760FFEAB27CE4039042490220FAF708
:105B200059FF039BDAB284E73E490220EDB2FAF74F
:105B300051FF60E73B490220DEB2FAF74BFF3AE73C
:105B400038490220FAF746FF15E737490220FAF7ED
:105B500041FF10E735490220FAF73CFFEAB258E46A
:105B6000039031490220FAF735FF039BDAB260E770
:105B70002D490220EDB2FAF72DFF3CE72A49022019
:105B8000DEB2FAF727FF16E728490220FAF722FFCC
:105B9000EAB282E524490220FAF71CFFB9E423495E
:105BA0000220FAF717FFEAB28DE420490220FAF743
:105BB00011FFEAB25AE41C490220DEB2FAF70AFFEA
:105BC000C8E419490220FAF705FF95E616490220B4
:105BD000FAF700FF74E615490220FAF7FBFEEAB275
:105BE00088E512490220FAF7F5FEEAB2AFE50E4960
:105BF0000220FAF7EFFE47E603900B490220FAF77E
:105C0000E9FE039BDAB2E6E407490220EDB2FAF7B7
:105C1000E1FEC0E43494000008950000A894000060
:105C2000688F0000B8900000F0900000A08F000086
:105C30002DE9F84F4300DFF870A11E180AEBC606E5
:105C40008846F16A0129174641D031D3022939D15A
:105C5000013000EB4000756A4FEAC0094FF0000BBD
:105C60001CE0326A641BBC420AEB09012346A2EB2A
:105C7000050428BF3B469C42486828BF1C46284470
:105C80004146224602F0DCFB336A25449D4208BFB0
:105C900000253F1BA344A044756215D0B36AAB42F4
:105CA00003F1FF34DDD8326A1344013B5C1BDAE7B1
:105CB000B16A726A91429CBF346A091901398A1A21
:105CC000974236D94FF0000B5846BDE8F88FB16ABD
:105CD000756AA94227D90139326AC5EB010B034421
:105CE0000AEBC30ABB45DAF824502F4B28BFBB464A
:105CF000561B0130B34500EB40003BD303EBC0041F
:105D00003246606841462844C6EB0B0502F098FB1A
:105D1000606808EB06012A4602F092FBCAF824509C
:105D20005846BDE8F88F326A8C18013CC5EB040B6D
:105D3000D5E703440AEBC30A0130DAF82460DAF845
:105D40002040194BA41BA74200EB40001ED303EBDD
:105D5000C00522466868414630443E1B02F070FB95
:105D6000686808EB0401324602F06AFBBB46CAF8D9
:105D70002460A9E703EBC003414658685A4628440B
:105D80005D4402F05DFBCAF824509DE703EBC003BD
:105D9000414658683A4630443E4402F051FBBB4607
:105DA000CAF8246090E700BF7C0900202DE9F04785
:105DB000404EDFF81481DFF8149182B0354600239D
