:1000000000000120A1560000C9560000CB56000098
:10001000CD560000CF560000D15600000000000071
:10002000000000000000000000000000D3560000A7
:10003000D556000000000000D7560000D956000039
:10004000DB560000DB560000A1290000212500003E
:1000500019270000DB560000C5150000DB56000024
:10006000DB560000DB560000DB560000DB560000CC
:10007000DB560000DB560000DB560000DB560000BC
:10008000DB560000C10C0000DB560000DB56000010
:10009000850D0000DB560000DB560000DB5600003B
:1000A000DB560000DB560000DB560000DB5600008C
:1000B000DB560000DB5600000000000000000000DE
:1000C000DB560000DB560000DB560000DB5600006C
:1000D000DB560000DB560000DB560000000000008D
:1000E0000000000000000000000000000000000010
:1000F0000000000000000000000000000000000000
:1001000000000000000000000000000000000000EF
:1001100000000000000000000000000000000000DF
:1004000010B5054C237833B9044B13B10448AFF34E
:1004100000800123237010BDE001002000000000D7
:10042000E06B0000084B10B51BB108490848AFF35A
:1004300000800848036803B910BD074B002BFBD0B0
:10044000BDE81040184700BF00000000E401002094
:10045000E06B0000DC01002000000000154B002BC9
:1004600008BF134B9D46A3F5803A00218B460F46EB
:100470001348144A121A00F065F80F4B002B00D0F5
:1004800098470E4B002B00D0984700200021040015
:100490000D000D48002802D00C48AFF3008000F09A
:1004A0002BF82000290004F01DF800F011F800BF1F
:1004B0000000080000000120000000000000000013
:1004C000E0010020C0090020000000000000000042
:1004D00008B5074B044613B10021AFF30080054B6C
:1004E0001868836A03B19847204600F033F800BFCC
:1004F000000000009863000070B50E4B0E4CE41A2B
:10050000A41000251E46A54204D056F82530984771
:100510000135F8E705F034FF084C094BE41AA41044
:1005200000251E46A54204D056F8253098470135CF
:10053000F8E770BDD4010020D4010020D8010020CC
:10054000D401002002440346934202D003F8011B69
:10055000FAE77047FEE700BFF0B51746C7B01C4684
:10056000B9B106AE0B68604A30464FF4807105F0B1
:1005700061FA00280ADB4C9B0546062B00F2B2808C
:10058000DFE803F012323B4653637500002047B0AA
:10059000F0BD4C9B062B00F2A380DFE803F0048B38
:1005A00090957C8186000025384605F07DFA431938
:1005B000FF2B044640F28D80002CE7DB2C44B4F581
:1005C000807FE3D80A27002506AE22467119002055
:1005D00004F0E6FE0544241A08B9013F01D0002CBE
:1005E000F3D1012047B0F0BDC0F5807123683A46D1
:1005F000701905F01FFA0446DEE7C0F580716268E5
:100600002368009270193A4605F014FA0446D3E7BD
:10061000C0F58071A2682368646800940192701923
:100620003A4605F007FA0446C6E7C0F58071E2686D
:100630002368D4F808E0646802928DE810403A46D6
:10064000701905F0F7F90446B6E7C0F58071206926
:10065000E26823680390D4F808E0646802928DE8A9
:1006600010403A46701905F0E5F90446A4E7C0F5D4
:1006700080716269206923680492E2680390D4F86B
:1006800008E0646802928DE810403A46701905F05F
:10069000D1F9044690E74FF48071002506AEC6E715
:1006A0004FF48071002506AED1E74FF4807100252C
:1006B00006AEDEE74FF48071002506AE96E74FF4F4
:1006C0008071002506AE9AE74FF48071002506AED2
:1006D000A0E706AE39467019224605F09FF96BE790
:1006E00000246FE7002469E79C6300002DE9F04FC8
:1006F0001446C7B01D46002900F02381002B00F0EE
:1007000004810A2302934FF0000B06AF519B539ACA
:10071000134420261C4602990BEB0103049331334A
:10072000FB18039307EB0B031A460193002965D0CE
:10073000534203F003038B4228BF0B46062900F205
:10074000DB800B46019907F80B600A46012B02F18A
:10075000010200F0CF80022B4E7001F1020200F086
:10076000C980032B8E7001F1030200F0C3800A469A
:10077000042BCE7002F1040200F0BC80062B0E7137
:1007800001F1050240F0BE804E718A1D9846029923
:1007900099422ED00298C3EB0009A9F1040100F19F
:1007A000FF3E8908C3EB0E0E0131BEF1020F4FEA86
:1007B000810C12D95B444FF0203E012907EB030B5B
:1007C00047F803E005D00229CBF804E001D0CBF8CC
:1007D00008E0E1456244E0440BD00299167008F14C
:1007E00001038B4205D208F102008842567000D204
:1007F0009670019B029A134401931A46039B059736
:1008000002F1330A274602F1030B544603F10109B2
:10081000DDF844A10DE00BF8036C0BF8026C0BF84B
:10082000016C0BF1030BA34509F8016C09F10109F7
:100830002FD0AF42EFD9AA4556D9509B13F8058067
:100840000BF8016C4FEA28105FFA80FE092808F0C7
:100850000F00D4BF0EF1300E0EF1370E092894BFF1
:10086000303037300BF803EC0BF8020C05F0BAF817
:1008700040440BF1030B407810F0970F08BF4FF086
:100880002E08A34509F8018C05F1010509F10109BC
:10089000CFD1049B039903F1430A019B3C460D22EF
:1008A0004FF00A0B059F0A7481F811B0A14683F836
:1008B00030604FF000085446224607EB0801002044
:1008C00004F06EFD8044241A10B9BBF1010B01D075
:1008D000002CF1D14D454C464FF0000BFFF41BAFFF
:1008E000284647B0BDE8F08FCAEB0500529B13F8CD
:1008F0000080A5E798464AE7002B7FF423AF019AD2
:10090000984647E74FF0050841E706AF0B68114AE4
:1009100038464FF4807105F08DF80028E0DB0A239B
:1009200006460293204605F0BFF8C22828BFC22021
:10093000834602462146B81905F070F80025B344F5
:10094000E4E61BB902952E4606AFEBE702918B4613
:1009500006AFDBE69C63000070B5074D074E2B78B1
:1009600013B13378834205D0044604F069FE0123B5
:1009700034702B70002070BDFD010020FC010020B0
:10098000004870475905000000487047ED06000018
:1009900008B504F0C3FDC0B208BD00BF38B50020E3
:1009A000FFF7DAFF044668B9FFF7EAFF0546FFF7ED
:1009B000EBFF054BFF22C3F810541C605C60C3F8CA
:1009C00014049A60204638BD000200200120FFF781
:1009D000C3BF00BF2DE9F041224C064600200D4662
:1009E000A76800F0F9FCA2686368D4F8008013449B
:1009F0000133C8EB0303012B1BD8ABB1012100234A
:100A000061F301036FF38203052161F3C50308EA73
:100A10000202154904EB82026FF3891308F1010702
:100A200061F39F232760D3600020BDE8F04100F010
:100A3000EDBC08F101030020236000F0E7FC012277
:100A4000002362F301036FF3820307EA080766F3EA
:100A5000C50304EB87046FF3891365F39F23E360F9
:100A6000BDE8F08100020020A46300002DE9F843F6
:100A7000264C8046002016460F46A56800F0ACFCC8
:100A8000A2686368D4F8009013440133C9EB0303F0
:100A9000022B1BD8ABB10121002361F301036FF3DB
:100AA0008203052161F3C50309EA0202184804EB39
:100AB00082026FF3891309F1010160F39F23216022
:100AC000D3600020BDE8F84300F0A0BC09F10203A8
:100AD0000020236000F09AFC0122002362F301034E
:100AE00009EB02016FF3820305EA090968F3C50304
:100AF0000D4004EB890962F3891304EB850467F365
:100B00009F23C9F80C30E660BDE8F883000200209E
:100B1000A46300002DE9F0474C4E96E80C009A4281
:100B20008AB070D0B06804E0C4F3891202EB94522A
:100B3000134400EA0305023506EB850201335468CD
:100B400014F00302F0D0022A28D0C4F38312C4F3B5
:100B5000952C002A75D00DF1100E7546D71800EAB5
:100B6000030106EB81010133C96845F8041BBB4250
:100B7000F5D10092C4F3C20073466246D6F8104421
:100B8000324D0021A04738B177603068C01B18BFD4
:100B900001200AB0BDE8F0876F68F6E703F1010AAB
:100BA00020EA0A010340013106EB830389004FEA82
:100BB00094588845DA68DFF894E0C4F3891326D99D
:100BC000A9B300EA0A0C5FFA81F90EEB8C0CC9EBB1
:100BD00008010CF10C0C0EF10C00C9B2039102904B
:100BE000CDF80490CDF800C00021C4F3C200D6F8BF
:100BF0001474B847404520D006EB850560F38F1488
:100C00006C607768C1E700200AB0BDE8F08700EAB1
:100C10000A000EEB80000C308DE801010021DEF8A7
:100C2000149403910291C4F3C200C847E2E70EF1A5
:100C30000C0C08465FFA88F9D0E703300AEB9007FE
:100C4000A2E71F460DF1100E93E700BF000200203F
:100C5000FFF79EBE00B585B000230390194601AA98
:100C600044F20100ADF80430029300F003F805B03F
:100C70005DF804FB08B50E490120FFF7ABFEFFF756
:100C8000A5FEFFF747FF0028FBD10A4B1B68DB07D7
:100C900000D5FFDEBFF34F8F0749084BCA6802F447
:100CA000E0621343CB60BFF34F8F00BFFDE700BF8F
:100CB000B0630000F0ED00E000ED00E00400FA0594
:100CC0002DE9F843274A284B0025C2F84051C2F8C5
:100CD0004451C2F84851C2F84C51C2F80051C2F810
:100CE00004511B681BB32149D2F804250C68204F1E
:100CF000141B1A6824F07F44A242A84609D8197C24
:100D0000DE69A41A1544A1B91EB133461A68A2427D
:100D1000F5D9184B18491A780B789A421BD0174905
:100D2000174A41F823504FF48013C2F80031BDE850
:100D3000F883D3F8149083F810803A689B6948468A
:100D400019462AB190470028DED0FFF783FFDBE782
:100D50001846C847D8E7531CDBB2022B08BF002354
:100D60000B70DCE7001001401C0600201806002074
:100D70002006002024060020250600203006002042
:100D800000E100E02DE9F04FA44AA5491378097865
:100D9000A44889B000680090994200F0EB800133CC
:100DA000DBB2022B08BF002313709F4A52F8236066
:100DB000009B9C4A334423F07F4313604FF0010EA5
:100DC0009A4B079693F800A0994BCDF818A0D3F84A
:100DD0000090964B5B7801931D46944BD3F804B07A
:100DE0009B7802931C46934B1B7804938D4B0027F2
:100DF0001B68039351464A464B460597BC46384606
:100E00002646B846A9421AD001EB410401311BF82D
:100E10003470C9B2B14208BF0021022F0BEBC404E9
:100E200000F08380032FEDD1002BEBD0DA6918742A
:100E30001346002AFAD1A9424FF0010CE4D1DDF8A3
:100E400018A0079E4746BCF1000F40F0A380059A0A
:100E500012B1744A03991160002F40F09C82BEF1D8
:100E6000000F40F0C681B9EB030218BF01220792C0
:100E7000059375461E466B4ACDF810B0D2F800C0F7
:100E80006B4ADFF8B891D646D2F800A0694A002331
:100E9000127800931F4606924FF001089B463DB31F
:100EA0006A68A9682C46ED69CCEB020323F07F4306
:100EB0004B4572D80B4423606760A76084F81080AC
:100EC000E761002E00F08B80316899427ED2304677
:100ED00003E01168994269D21046C2695B1A002A80
:100EE000F7D12360E2613346C4611E46002DD7D19D
:100EF000019B9E4500F0A4800EEB4E03049911F86F
:100F00003320039210460EF1010E029A5FFA8EFE14
:100F1000724508BF4FF0000E012801EBC30364D0F7
:100F20003346012200921E46E0E76468002B3FF43E
:100F300069AF9C429A4601D115E0BA46DAF81C70B6
:100F4000002F3FF45FAFBC42F7D1BA450CD0FC692B
:100F50003F68CAF81C40002C3FF454AF23683B4460
:100F6000236013464EE71F46DA6932B113464FF04D
:100F7000010CECE70026B64622E72F4B4FF00108A4
:100F8000C3F80880C44613460392CDF81080CDF80C
:100F90001480DCE726490A6059E7C2EB0C0222F014
:100FA0007F428A4209D28B1A236085E7C91A1160F1
:100FB0002360E2613346C46197E727606760A760FA
:100FC00084F81080E76156B131680023CB1A336092
:100FD0002346E661A2464FF0010B1E4686E72346F4
:100FE000A2464FF0010B1E4680E75C68227C00920F
:100FF00082B99A686260D968A1601869E0605B692B
:10100000A361069B002B00F0F180009A62600093C0
:101010002A4649E733461E4668E700BF24060020FB
:101020002506002018060020300600202806002093
:101030001C0600202606002000100140FEFF7F0055
:10104000009B5A46002B40F0AE8112B1824BC3F890
:1010500000A0059BB34200F0BF80002E00F00A8183
:101060007E497F4CD1F8040525783368CCEB00022B
:1010700022F07F420332002D50D17A4DDFF8ECE1AF
:10108000794F4FF48036C1F84463C1F804634FF4DC
:101090000036C5F880612E6001250D60DEF8006025
:1010A0002F2100BF00BF00BF00BF00BF00BF00BFB7
:1010B00000BFBE422FD000BF00BF00BF00BF00BFB7
:1010C00000BF00BF00BF00BF00BF00BF00BF00BF28
:1010D00000BF00BF00BF00BF00BF00BF00BF00BF18
:1010E00000BF00BF00BF00BF00BF00BF00BF00BF08
:1010F00000BF00BF00BF00BF00BF00BF00BF00BFF8
:1011000000BF00BF00BF00BF00BF00BF00BF00BFE7
:1011100000BF00BF00BF0139C3D1257093422CBF6F
:101120009C4494444D492CF07F43C1F84035D1F89C
:101130000425121A1B1A22F07F4223F07F43033248
:101140009A424DD9D1F80435484AC1F84035126861
:1011500045492F2300BF00BF00BF00BF00BF00BF35
:1011600000BF00BF8A422FD000BF00BF00BF00BF3A
:1011700000BF00BF00BF00BF00BF00BF00BF00BF77
:1011800000BF00BF00BF00BF00BF00BF00BF00BF67
:1011900000BF00BF00BF00BF00BF00BF00BF00BF57
:1011A00000BF00BF00BF00BF00BF00BF00BF00BF47
:1011B00000BF00BF00BF00BF00BF00BF00BF00BF37
:1011C00000BF00BF00BF00BF013BC3D1254B4FF4A0
:1011D0000032C3F8002103E0079B002B7FF43DAFF2
:1011E000234A0023137009B0BDE8F08F039B0093DE
:1011F0005AE6194ADDF800C0176800200546014686
:101200000446ABB11A68B2421BD8D8681C60B61A43
:101210001144DA6938B10CEB010727F07F47DD6133
:1012200098605F601D46134617467046002BE9D153
:10123000002840F0BC800023059301230793059EFE
:1012400019E6002840F0AC80921B05931A60012338
:101250000793059E0FE600BF1C060020001001400A
:101260003806002000E100E00024F40064000020C3
:10127000260600204F4A504B504D51484FF48031C4
:101280004FF400370124C3F88070C2F848132F23AD
:10129000C2F80813546029681D4600BF00BF00BF94
:1012A00000BF00BF00BF00BF00BF81422FD000BF02
:1012B00000BF00BF00BF00BF00BF00BF00BF00BF36
:1012C00000BF00BF00BF00BF00BF00BF00BF00BF26
:1012D00000BF00BF00BF00BF00BF00BF00BF00BF16
:1012E00000BF00BF00BF00BF00BF00BF00BF00BF06
:1012F00000BF00BF00BF00BF00BF00BF00BF00BFF6
:1013000000BF00BF00BF00BF00BF00BF00BF013D66
:10131000C3D194602B4A166000BF00BF00BF00BF5E
:1013200000BF00BF00BF00BF81422FD000BF00BF81
:1013300000BF00BF00BF00BF00BF00BF00BF00BFB5
:1013400000BF00BF00BF00BF00BF00BF00BF00BFA5
:1013500000BF00BF00BF00BF00BF00BF00BF00BF95
:1013600000BF00BF00BF00BF00BF00BF00BF00BF85
:1013700000BF00BF00BF00BF00BF00BF00BF00BF75
:1013800000BF00BF00BF00BF00BF00BF013BC3D113
:101390000D4B1E7024E70D4A9DF8101011705EE58C
:1013A0000B490F6050E70B4B83F800E04DE6084B0C
:1013B0001F6040E70010014000E100E064000020F1
:1013C0000024F4001806002038060020260600201D
:1013D0001C0600202806002008B5EFF30583C3F3A0
:1013E00008032BB172B6074A13680133136008BDB6
:1013F000EFF31483DB07F5D50349282000F020F82C
:10140000F0E700BF3C060020C863000008B5EFF31A
:101410000583C3F3080333B1074A1368013B136024
:1014200003B962B608BDEFF31483DB07F4D50349B3
:10143000362000F005F8EFE73C060020C863000006
:1014400000B583B06A46ADF80000019144F2020095
:101450000021FFF70FFC03B05DF804FB032810B573
:10146000044603D909492220FFF7EAFF084B1C5D17
:101470001F2C04D907494FF4DA70FFF7E1FF01236D
:101480004FF0A042A340C2F80C3510BD0864000024
:101490007064000038640000032810B504460FD8BB
:1014A0000A4B1C5D1F2C04D909494FF4DA70FFF771
:1014B000C7FF01234FF0A042A340C2F8083510BD7A
:1014C00004492820FFF7BCFFEAE700BF7064000072
:1014D0003864000008640000032810B5044603D9EE
:1014E0000D494020FFF7ACFF0C4B1C5D1F2C04D9AD
:1014F0000B494FF4DA70FFF7A3FF4FF0A041012230
:10150000D1F8040502FA04F323EA00020340C1F80B
:101510000825C1F80C3510BD086400007064000097
:101520003864000030B44FF0A04303224FF400357C
:101530004FF480244FF400204FF48011C3F8442767
:10154000C3F84827C3F84C27C3F85027C3F80855F9
:10155000C3F80845C3F80805C3F8081530BC704740
:10156000072938B50D46044618D8002C1DDB04F1B8
:10157000604303F561436D01EDB283F80053E3B2BC
:101580006009800000F1604000F5614003F01F0237
:1015900001239340C0F88031036038BD07494FF400
:1015A0008470FFF74DFF002CE1DAE3B2044A03F048
:1015B0000F016D010A44EDB21576E1E77464000095
:1015C000FCEC00E02DE9F04F89B00026CC4B0396EF
:1015D0001A68012A00F04382CA4B1A68012A00F0F7
:1015E0003082C94B1A68012A00F01D82C74B1A6865
:1015F000012A00F00A82C64B1A68012A00F0F7811E
:10160000C44B1A68012A00F0E481C34B1A68012A0E
:1016100000F0D181C14B1A68012A00F0BE81C04B95
:101620001A68012A00F0AC8116F0FF0F1AD0BD4FE6
:1016300001250024A30003F180432E4203F5C0439B
:101640004FEA45050BD0D3F8100557F82420D3F8FE
:101650001015C0F30420C1F3014102B190470134D9
:10166000082CE7D1002E02DB09B0BDE8F08FAD4EAB
:101670004FF0FF33059396F9503000225C1C37463B
:10168000049200F0F180DBB223F0C00908AA4FEA0F
:10169000D90102EB010A03F007001AF80C2C4FF0F5
:1016A000010808FA00F812EA080422D007EB090240
:1016B0009D0992F9303057F823B0BBF1000F00F0CC
:1016C0004481032D00F04481B9F11F0F00F22E81F7
:1016D0004FEA890303F1A0431AF8144CD3F800270A
:1016E00014EA0804C2F3014240F0D680032A00F055
:1016F0000E8296F95130581C34D0DBB223F0C00969
:1017000008A94FEAD90201EB020A03F007001AF810
:101710000C1C4FF0010808FA00F811EA080F21D05C
:1017200007EB09019D0991F9303057F82330002B60
:1017300000F01D81032D00F01D81B9F11F0F00F293
:10174000C6804FEA890B0BF1A04B1AF8141CDBF88A
:10175000002711EA080FC2F3014240F0AB80032AD0
:1017600000F0BE8196F95230591C33D0DBB223F021
:10177000C00908A94FEAD90201EB020A03F00700E9
:101780001AF80C1C4FF0010808FA00F811EA080FCB
:1017900020D007EB09019D0991F9303057F823302B
:1017A000002B00F0C980032D00F0C980B9F11F0F94
:1017B00000F295804FEA890B0BF1A04B1AF8141C2C
:1017C000DBF8002711EA080FC2F301424ED1032AC9
:1017D00000F06F8196F953305A1C32D0DBB223F0FF
:1017E000C00908A94FEAD90201EB020A03F0070079
:1017F0001AF80C1C4FF0010808FA00F811EA080F5B
:101800001FD007EB09019D0991F9303057F82330BB
:10181000002B00F0A380032D00F0A380B9F11F0F6F
:1018200065D84FEA890B0BF1A04B1AF8141CDBF8B2
:10183000002711EA080FC2F3014222D1032A00F067
:101840001A81002C3FF410AF4FF0A043039AD3F855
:10185000103593423FF408AF039396F95030049A41
:1018600005925C1C7FF40FAF002442E7022AB1D13D
:10187000032D00F06181002BACD0294648469847E3
:10188000A8E7022ADDD1032D00F05981002BD8D022
:10189000294648469847D4E7022AE5D1032D00F0AF
:1018A00074810024BBF1000F3FF423AF2946484662
:1018B000D8471EE7022A7FF455AF032D00F042817E
:1018C000002B3FF44FAF2946484698474AE7164950
:1018D00001934FF4DA70FFF7B3FD019B31E7124932
:1018E00001934FF4DA70FFF7ABFD019B62E70E49FD
:1018F00001934FF4DA70FFF7A3FD019B91E700BF5E
:101900000061004004610040086100400C6100403B
:101910001061004014610040186100401C610040EB
:101920007C610040400600203864000098494FF474
:10193000DA70FFF785FDCBE6032D7FF44BAF04A8EB
:10194000815C41EA0801815430E7032D40F0AD800D
:1019500004AA535C43EA08035354B5E6032D7FF40D
:1019600070AF04A8815C41EA0801815456E7032D59
:101970007FF4F8AE04A8815C41EA08018154DCE6FA
:1019800000221A601B6807934FF0A043079AD3F810
:101990001035039346F0004646E67E4AD2F804230B
:1019A00015067FF53CAE00221A601B680693069B65
:1019B00046F0800633E6774AD2F8042357067FF5CF
:1019C00029AE00221A601B680693069B46F040066B
:1019D00020E6704AD2F8042392067FF516AE002264
:1019E0001A601B680693069B46F020060DE6694ABE
:1019F000D2F80423D1067FF503AE00221A601B68DB
:101A00000693069B46F01006FAE5624AD2F80423D4
:101A100010077FF5F0AD00221A601B680693069B45
:101A200046F00806E7E55B4AD2F8042354077FF541
:101A3000DDAD00221A601B680693069B46F0040683
:101A4000D4E5544AD2F8042395077FF5CAAD0022A5
:101A50001A601B680693069B46F00206C1E54D49D5
:101A6000D1F8041311F0010121D01E601B68069308
:101A7000069B1646B0E5032D7FF408AF4FF40038FF
:101A8000B9F11F0F79D8DBF8001721F44031CBF8FA
:101A90000017DBF80027013448EA0202E4B2CBF871
:101AA0000027002B7FF4F4AECEE65C4621E60E461E
:101AB00092E5032D7FF4DFAE4FF40038B9F11F0F2C
:101AC00053D8DBF8001721F44031CBF80017DBF8CE
:101AD0000027013448EA0202E4B2CBF80027CAE644
:101AE000032D7FF4EDAE4FF40038B9F11F0F34D859
:101AF000DBF8001721F44031CBF80017DBF80027A2
:101B0000013448EA0202E4B2CBF80027D8E6032DFC
:101B10007FF4C8AE4FF40034B9F11F0F15D8D3F8D5
:101B2000001721F44031C3F80017D3F800272243EF
:101B3000C3F800270124B5E64FF44038BEE74FF460
:101B400040389DE74FF44038CFE7114901934FF4F7
:101B5000DA70FFF775FC019BE1E70D4901934FF443
:101B6000DA70FFF76DFC019BC2E7094901934FF45E
:101B7000DA70FFF765FC019BA3E7054901934FF479
:101B8000DA70FFF75DFC019B7DE74FF44034C3E75B
:101B900038640000006000402DE9F0410024C1F8E5
:101BA00004418EB0D1F804510495049DC1F824413C
:101BB000D1F824510395039DC1F81C41D1F81C5163
:101BC0000295029DC1F80841D1F808510195012BF9
:101BD00080F8264080F82340019D0CBF0224012498
:101BE0000125C1F800420D620D6004684CB140F25D
:101BF000862383608368C1F8043300200EB0BDE8FB
:101C0000F0812E4603F1FF3E4FF0020C90F8235076
:101C1000002D3BD1D1F8247190F82680002F48D0B8
:101C2000C1F82451D1F824510A950A9D4E6180F8DB
:101C300023604345EAD1D1F80451002DE6D00023BA
:101C4000C1F80431D1F8042190F823300592059AA7
:101C5000C3B1D1F8C434C1F8C4349BB113F0010F3F
:101C600018BF4FF4024048F2012208BF032013F0CE
:101C7000020F18BF104648F2022213F0040F18BFDB
:101C80001046BBE700200EB0BDE8F081C1F824414A
:101C9000D1F824510B950B9DC1F81C41D1F81C5172
:101CA0000C950C9DC1F80841D1F808510D950D9D7A
:101CB000C1E7D1F81C51ADB1C1F81C71D1F81C516C
:101CC0000995099DD1F824511DBB90F82650AB42CF
:101CD0003DD9555DC1F81C5590F82650013580F866
:101CE0002650A6E7D1F80871002FA2D0C1F80851FC
:101CF000D1F808710797079FD1F824719FB1C1F8F7
:101D00002451D1F824510695069D4E6180F8236038
:101D10008FE7C1F82471D1F824510895089D4E61D0
:101D200080F8236085E790F82650AB4281D9D1F83E
:101D30001875575590F826500135EDB2754580F865
:101D4000265006D0AB423FF474AF0E6271E74E618D
:101D50006FE7C1F800C2F8E72DE9F0430024C1F8AD
:101D600004418FB0D1F804510495049DC1F8244179
:101D7000D1F824510395039DC1F81C41D1F81C51A1
:101D80000295029DC1F80841D1F80851019501253D
:101D9000019EC1F8004280F8264080F823400D6281
:101DA0008D6090F826409DF85870A34213D9145DB9
:101DB000C1F81C4590F826402C4480F82640046861
:101DC0007CB140F2862383608368C1F8043300202D
:101DD0000FB0BDE8F083002F48D0CD610468002C1F
:101DE000EFD103F1FF3C4FF0010E4FF0020890F8E5
:101DF0002350002D3CD1D1F8246190F82690002E7C
:101E000049D0C1F82451D1F824510A950A9DC1F84E
:101E100014E080F823E04B45E9D1D1F80451002DBE
:101E2000E5D00023C1F80431D1F804310593059BB6
:101E300090F82330002B6AD0D1F8C434C1F8C434F0
:101E4000002B64D013F0010F18BF4FF4024048F28A
:101E5000012208BF032013F0020F18BF104648F2FA
:101E6000022213F0040F18BF1046B1E74D61A6E738
:101E7000C1F82441D1F824510B950B9DC1F81C41A8
:101E8000D1F81C510C950C9DC1F80841D1F80851AE
:101E90000D950D9DC1E7D1F81C51ADB1C1F81C6184
:101EA000D1F81C510995099DD1F8245125BB90F812
:101EB0002650AB4245D9555DC1F81C5590F82650C7
:101EC000013580F82650A6E7D1F80861002EA2D08F
:101ED000C1F80851D1F808610796079ED1F824612E
:101EE000CEB1C1F82451D1F824510695069DC1F810
:101EF00014E080F823E08EE7C1F82461D1F8245182
:101F00000895089DC1F814E080F823E083E70020DD
:101F10000FB0BDE8F08390F82650AB427FF67BAF60
:101F2000D1F81865565590F826500135EDB2654543
:101F300080F826500CD0AB423FF46DAFC1F820E0E2
:101F400069E717B10123CB6172E7C1F814E062E7DA
:101F5000C1F80082F2E700BF2DE9F04F804683B060
:101F60000C46002900F0F38194E8030088424AD02F
:101F700098F80450654EAF007919C900701890F8B0
:101F800022E0BEF1000F03D0082003B0BDE8F08FBF
:101F90007250C0F808E0436080F825E080F824E043
:101FA000A37B80F82730637BB3BB23684FF0A0414D
:101FB00003F5E07340F20C6041F82300636803F519
:101FC000E0737A1941F82300D8F80030216860687E
:101FD00056F83220C3F80815C3F80C05A168C3F8F9
:101FE000241532B1D8F80000217B40F30730FFF709
:101FF000B7FA3D4406EBC5050123002085F82230E1
:1020000003B0BDE8F08F4249D6208DE80C00FFF701
:1020100017FA9DE80C00ABE723684FF0A04203F5E8
:10202000E07340F20C6142F82310636803F5E0733B
:1020300042F82310D4F80090B9F11F0F00F29081FC
:1020400001234FF0A04203FA09F3C2F80835D4F88F
:102050000490B9F11F0F00F289814FF0A0430122D3
:1020600002FA09F2C3F808252168DFF8AC90294A82
:1020700001F5E07140F20D6043F82100616801F55F
:10208000E07143F821000423D9F8001000BF00BF1D
:1020900000BF00BF00BF00BF00BF00BF91422FD0F4
:1020A00000BF00BF00BF00BF00BF00BF00BF00BF38
:1020B00000BF00BF00BF00BF00BF00BF00BF00BF28
:1020C00000BF00BF00BF00BF00BF00BF00BF00BF18
:1020D00000BF00BF00BF00BF00BF00BF00BF00BF08
:1020E00000BF00BF00BF00BF00BF00BF00BF00BFF8
:1020F00000BF00BF00BF00BF00BF00BF00BF00BFE8
:10210000013BC3D14FF0000B9246A5E0980600209A
:10211000FC6400000024F400640000204FF0A041A3
:10212000D1F8101521FA03F3DB0700F1B38023681F
:102130001F2B00F2A78001214FF0A04001FA03F30A
:10214000C0F80C35D9F80010042300BF00BF00BF51
:1021500000BF00BF00BF00BF00BF51452FD000BF70
:1021600000BF00BF00BF00BF00BF00BF00BF00BF77
:1021700000BF00BF00BF00BF00BF00BF00BF00BF67
:1021800000BF00BF00BF00BF00BF00BF00BF00BF57
:1021900000BF00BF00BF00BF00BF00BF00BF00BF47
:1021A00000BF00BF00BF00BF00BF00BF00BF00BF37
:1021B00000BF00BF00BF00BF00BF00BF00BF013BAA
:1021C000C3D123681F2B53D84FF0A04E0120984055
:1021D000CEF80805042300BF00BF00BF00BF00BF4A
:1021E00000BF00BF00BF51452FD000BF00BF00BFE0
:1021F00000BF00BF00BF00BF00BF00BF00BF00BFE7
:1022000000BF00BF00BF00BF00BF00BF00BF00BFD6
:1022100000BF00BF00BF00BF00BF00BF00BF00BFC6
:1022200000BF00BF00BF00BF00BF00BF00BF00BFB6
:1022300000BF00BF00BF00BF00BF00BF00BF00BFA6
:1022400000BF00BF00BF00BF00BF013BC3D10BF107
:10225000010BBBF1090F21D063681F2B7FF65EAF26
:102260004B4900934FF4DA70FFF7EAF8009B55E70B
:10227000474900934FF4DA70FFF7E2F8454B1968CD
:10228000009BA1E7424900934FF4DA70FFF7D8F8BA
:10229000009B50E7BBF1000F3FF487AED4F804A0D9
:1022A000BAF11F0F6ED84FF0A042012303FA0AF3D0
:1022B000C2F80C35D9F800203749042300BF00BF0D
:1022C00000BF00BF00BF00BF00BF00BF8A422FD0C9
:1022D00000BF00BF00BF00BF00BF00BF00BF00BF06
:1022E00000BF00BF00BF00BF00BF00BF00BF00BFF6
:1022F00000BF00BF00BF00BF00BF00BF00BF00BFE6
:1023000000BF00BF00BF00BF00BF00BF00BF00BFD5
:1023100000BF00BF00BF00BF00BF00BF00BF00BFC5
:1023200000BF00BF00BF00BF00BF00BF00BF00BFB5
:10233000013BC3D1D4F80490B9F11F0F1CD801237D
:102340004FF0A04203FA09F3C2F808352DE613490D
:10235000D5208DE80C00FFF773F89DE80C0003E62C
:102360000B494FF4DA70FFF76BF869E608494FF450
:10237000DA70FFF765F870E605494FF4DA70FFF799
:102380005FF8DCE702494FF4DA70FFF759F88AE7A3
:1023900038640000640000200024F400FC640000A5
:1023A000F8B504790C4DA7003B1905EBC3030646AD
:1023B00093F82230012B04D008494FF4A770FFF79F
:1023C0003FF83C44336805EBC4040221052284F83D
:1023D0002210C3F80025F8BD98060020FC64000018
:1023E0002DE9F04F87B003AE9DF840500024746093
:1023F0000394B460C5B9AC460479DFF88880D0F89E
:1024000000E004EB8404E4004FF0FF3008EB040725
:10241000CEF8080397F8240050B1BB68CEF8043317
:10242000112007B0BDE8F08F01254FF0200CE3E745
:102430008DF80E308DF80D10049292468B4696E87A
:102440000700994607F10C0383E80700012187F88C
:1024500024104B46CEF888B5524600957146384652
:10246000C7F818C087F82090C7F81CA087F821503B
:10247000FFF772FC58F80430002BD2D187F82430D3
:10248000CFE700BF980600202DE9F04F0479234FD5
:10249000D0F800E004EB8404E4004FF0FF3007EBD9
:1024A000040885B0CEF8080301AD98F82460002038
:1024B00068600190A8603EB1D8F80830CEF80433C7
:1024C000112005B0BDE8F08F4FF0010B8DF80630FC
:1024D0008DF8051002928DF804B006F0FF0C9146BD
:1024E0000E4695E8070008F10C0585E8070088F816
:1024F00024B088F82030CEF88865C8F818C04A465D
:1025000071464046C8F81C9088F821C0FFF744FB8C
:102510003B59002BD5D188F82430D2E7980600200B
:10252000F0B5794C236891B0002B00F0C28094F88C
:102530002310754A754BA9B9D3F8240192F820608D
:1025400092F8265000284BD0C3F82411D3F8241158
:1025500008910121089882F823105961AE4214D0E5
:1025600011B0F0BD0022C3F82421D3F82411099141
:102570000999C3F81C21D3F81C110A910A99C3F8D0
:102580000821D3F808310B930B9B604BD3F804213F
:10259000002AE5D00022C3F80421D3F804310393C4
:1025A000039B94F823305848002B34D1017B8B1EB9
:1025B000012B6AD9564B93E8070010AD05E90700D7
:1025C00000238DF83030A3694F490022580784F862
:1025D0002420C5D40B6849680CA8984711B0F0BDF9
:1025E000D3F81C11D76961B3C3F81C01D3F81C11CF
:1025F00007910799D3F8241192F821E000295ED0C1
:10260000C3F82401D3F8241106910121069882F819
:1026100023105961A2E70C3007C810AB03E907008B
:102620003A4AD2F8C434C2F8C4349A0703D5012315
:102630008DF83030C7E75D0744BF02238DF8303096
:10264000C1E7D3F80801002888D0C3F80811D3F8EF
:10265000080105900598D3F8240100283ED1AE4228
:102660007FF67CAFD3F81815795592F82610013112
:10267000C9B2701E814282F826103CD08E423FF4CF
:102680006DAF224B01221A6268E7C26903699A4260
:1026900090D184694269C37BC261C4F340140329A9
:1026A00080F8214080F8203029D01849FFF774FACB
:1026B00056E7184940F2FF30FEF7C2FE37E7AE4258
:1026C00005D80122BEF1000F13D15A6146E7795DAA
:1026D000C3F81C156B1C82F826303FE7C3F82411A1
:1026E000D3F8241104910121049882F82310596130
:1026F00034E7DA6155E70222C3F80022C1E700940B
:102700000249FFF729FB2BE7980600200030004024
:10271000A4060020FC6400002DE9F043954F3A78B0
:102720008BB0002A40F088800123DFF87082924944
:102730003B7098F801900B68002B5FFA89F914BF81
:102740000123002303D00A600A680092009A8B4A92
:10275000116800294FEA430314BF0121002104D06E
:102760000020106012680192019A854A10680028C2
:1027700043EA412314BF0121002104D0002010604E
:1027800012680292029A7F4A1068002843EAC14305
:1027900014BF0124002404D00021116012680392A8
:1027A000039A794A1168002943EA045314BF0124AB
:1027B000002404D00021116012680492049A734A24
:1027C0001168002943EA446314BF0124002404D0A3
:1027D0000021116012680592059A53EA846427D09B
:1027E0000426012509F1FF39B9F1030F3FD8DFE8CD
:1027F00009F0575D022A664B234003BB4FF040228D
:10280000D8F80410D2F8D034C2F8D034D8F8082060
:10281000002B08BF4FF480731A4305200993C8F8B2
:1028200008208DF8200009B108A888474FF000095A
:10283000002388F801903B700BB0BDE8F08334F4BE
:10284000002400F09080534B2340002BD6D04FF053
:1028500040238DF81860D3F83C35D8F80420DBB25B
:1028600007930AB106A8904734F00204DED014F0B2
:102870000203F9D1600144D5E202D8F804208DF8B2
:10288000183056BF01234FF0020999468DF81C30CD
:102890000AB106A8904724F0C364002CA2D1C7E770
:1028A0003D4B23402BB134F480145FD0394B23408F
:1028B000BBB94FF04022D8F80410D2F8D034C2F897
:1028C000D034D8F80820002B08BF4FF480731A4387
:1028D00002200993C8F808208DF820000029A3D110
:1028E000A4E74FF040238DF81850D3F84C35D8F8B2
:1028F0000420DBB20793002AB4D134F00204B6D12D
:1029000094E7A30116D504F40023002BD8F8043073
:102910004FF003020CBF012100218DF81C100CBFE9
:1029200091464FF004098DF81820002BB3D006A86B
:102930009847B0E74FF04022D8F80410D2F8D034CE
:10294000C2F8D034D8F80820002B08BF4FF48073A9
:102950001A4306200993C8F808208DF820000029A2
:102960007FF462AF62E74FF0040961E74FF00209BC
:102970005EE700BFC0060020044100402441004043
:102980004C410040504100406441004068410040DB
:10299000020008060200000602001006C40600201D
:1029A00070B59B4C237F8EB0002B75D1994AD2F81D
:1029B0000413890548D4974BD3F80423520704D550
:1029C000D3F80821002A40F0CA80924BD3F81C218A
:1029D000C2B1A28AA07D8E4992B282424FF000021B
:1029E000C3F81C2180F0A980D3F81C210692069A16
:1029F000888A8A8A8D6880B20132285C92B28A8283
:102A0000C3F81C05834BD3F84421DAB10022C3F884
:102A10004421D3F84411A27E04910499002A40F085
:102A20008980E27D7A4B6AB10022587ED968DA75D6
:102A300001228DF830000B918DF828200AA893E828
:102A4000060090470EB070BDD2F824110029B2D014
:102A5000C2F82431D2F82411A37E07914FF40171FA
:102A60000798C2F808130BB901235360694A02237F
:102A70008DF82830D2F88034C2F88034E07DE268E6
:102A80000D9300238DF83000E375237621680B92B7
:102A900063680AA8984798E75E4BD3F82421002A78
:102AA00040F09380D3F8101161B1C3F81021D3F82E
:102AB000101103910399D3F83C15E07DC9B2884207
:102AC00000F0AA80534BD3F84421B2B10022C3F8DE
:102AD0004421D3F84411E07D019101994C4960B142
:102AE000D3F83C35C8688DF830300123CA750B9097
:102AF0008DF828300AA80AC99847464BD3F82021F8
:102B0000002A9FD00022C3F82021D3F82011A07DF5
:102B1000009100993E49002894D0D3F84C058B6869
:102B20008DF830008A750B938DF828200AC90AA801
:102B3000984787E701221A6073E7D3F81C310593A1
:102B4000059B00283FF45EAF8B688DF830008A75D6
:102B50000B938DF828200AC90AA8984752E7E17D0F
:102B60002B4A002970D00021C3F80811D3F80811AE
:102B700008910899D068517ED3F818354354537E94
:102B8000D17D0133DBB25376627E214B8A427FF4E2
:102B90001CAF1A7E002A6DD19B7E13B91D4B0122FA
:102BA0005A601C4AE06863684FF40171C2F8081368
:102BB000627E8DF83020002501220B902168E5759A
:102BC0008DF828200AA89847FFE60022C3F82421A0
:102BD000D3F82411029102218DF828100299D3F81C
:102BE0008014C3F880140D91D3F83C15E368E275A6
:102BF00022768DF830100B93216863680AA89847F5
:102C0000044BD3F84421002A3FF477AF5EE700BFBE
:102C1000D006002000200040217EF1B1D3F80062F0
:102C2000E17526F02001E568C3F8001226698DF8E9
:102C3000300001238DF82830227621680B95E6605C
:102C400063680AA898473DE7C3F80811D3F808213C
:102C50000992099AD3F8183596E7E268E1750123DD
:102C60008DF830008DF828300B9294E80A000AA8FD
:102C7000984727E7DE685D7E1869DA750121002232
:102C8000D8601A765A768DF828100B968DF8305049
:102C900093E806000AA8904797E600BF30B587B0D2
:102CA00006AB02AD03F8042D002485E803001A46A4
:102CB0000094284601232921FFF792FB50BB0123F2
:102CC0000DF1160229212846FFF7DEFB0446D0B994
:102CD000284601230DF117022921FFF7D5FB0446F1
:102CE00000BB14490220FDF775FE9DF816009DF803
:102CF0001730114943EA002422461320FDF7B6FE9F
:102D0000204607B030BD0D490220FDF763FEE0B25A
:102D100007B030BD04460A490220FDF75BFEE0B271
:102D200007B030BD07490220FDF754FEE0B207B0FE
:102D300030BD00BFF865000014660000806500002B
:102D400048650000BC650000F0B58DB002AD85E8B7
:102D5000030095E8030008AB002483E803002B4E32
:102D60008DF818400AAB06AF83E803003A461846D0
:102D700000940323102134707470B470F4703471B3
:102D80008DF819408DF81A40FFF72AFB98BB95E89B
:102D900003000CAA0C2302F8203D012387E803005E
:102DA00000240093102138468DF814408DF815400A
:102DB000FFF716FB0446C0B93846022305AA1021C6
:102DC000FFF762FB0446D8B99DF815409DF8143012
:102DD00043EA0424262C22460CBF0D490D4913203A
:102DE000FDF744FE20460DB0F0BD0B490220E4B2D1
:102DF000FDF7F0FDEEE709490220FDF7EBFDC6E720
:102E000007490220E4B2FDF7E5FDE3E70C090020E5
:102E100050660000706600004865000020660000F3
:102E2000806500002DE9F04F93B004AC9B4642F062
:102E3000800384E8030002930DF140080DF1380A85
:102E40000DF130090AAF002650E001230DF11F02F9
:102E500053214046FFF718FB0546002873D19DF823
:102E60001F50009694E803004FF00A0E8AE8030012
:102E7000022309AA532150468DF825B08DF824E08D
:102E8000FFF7AEFA002859D194E803004FF00B0E7B
:102E900000969DF808C08DF821C089E80300022340
:102EA00008AA532148468DF820E0FFF799FA002838
:102EB0003FD194E803004FF0110E0096012387E8FC
:102EC000030007AA532138468DF81CE0FFF788FA63
:102ED00018BB01230DF11F0253213846FFF7D4FA26
:102EE000002836D19DF81F309D421FDB94E8030077
:102EF00011250096012388E8030007AA53214046C4
:102F00008DF81C50FFF76CFA054600289DD0154936
:102F10000220EDB2FDF75EFDA3E703901149022008
:102F2000FDF758FD039BDBB29D42DFDA13B0BDE82D
:102F3000F08F0D490220FDF74DFDBAE70A49022046
:102F4000FDF748FDA0E709490220EDB2FDF742FD7B
:102F500087E7039005490220FDF73CFD039BDBB2A8
:102F6000C2E700BF9866000020660000D06600003F
:102F70002DE9F04F99B004AB83E8030004AA92E86E
:102F800003000A230122FFF74DFF04AB93E803007F
:102F90001A220023FFF746FF04AB93E803001B222D
:102FA0000123FFF73FFF04AB93E803001C22052336
:102FB000FFF738FF04AB93E803001D220A23FFF755
:102FC00031FF04AB93E803001E220A23FFF72AFF18
:102FD00004AB93E8030010AC0023062284E803004E
:102FE000FFF720FF94E8030002230722FFF71AFFF0
:102FF00094E8030040230822FFF714FF94E803003D
:1030000041230922FFF70EFF04AB93E803000EAC47
:1030100000230E2284E80300FFF704FF94E8030076
:1030200002230F22FFF7FEFE94E803004023102244
:10303000FFF7F8FE94E8030081231122FFF7F2FE68
:1030400004AB93E803000CAC84E8030016AF0DF169
:10305000280B0DF1500912AE4FF0110A4FF0000885
:103060003BE001235A4653213846FFF70DFA054647
:1030700000287DD19DF82850CDF8008094E8030009
:103080004FF00B0C89E803004FF0130E022309AA3E
:10309000532148468DF824C08DF825E0FFF7A0F9AC
:1030A000002860D194E803000123CDF8008008AA2D
:1030B00086E80300532130468DF820A0FFF790F9F1
:1030C00010BB01235A4653213046FFF7DDF9002893
:1030D00054D19DF828309D421FDB94E80300012362
:1030E000CDF8008008AA87E80300532138468DF800
:1030F00020A0FFF775F905460028B2D02949022023
:10310000EDB2FDF767FCB7E7039026490220FDF713
:1031100061FC039BDBB29D42DFDA04A903C918AA54
:10312000002302F8443D00938BE803000123532160
:103130005846FFF755F9044640BB08AA58460123F4
:103140005321FFF7A1F9044630BB9DF82040532CD2
:1031500022460CBF144915491320FDF787FC204671
:1031600019B0BDE8F08F12490220FDF733FC99E752
:1031700010490220EDB2FDF72DFC7DE703900D49CB
:103180000220FDF727FC039BDBB2A4E705490220E0
:10319000E4B2FDF71FFCDAE706490220E4B2FDF7CE
:1031A00019FCD4E7986600000C6700003067000047
:1031B00020660000D06600002DE9F04391B002AC1B
:1031C00084E8030010AF94E803000F2307F8183DCC
:1031D0000EAD002385E803003A46009328460123FC
:1031E0001E21FFF7FDF8002840F0A5800DF1300901
:1031F00028464A4601231E21FFF746F9804600284B
:1032000040F0BC809DF830806C494246132010AEDF
:10321000FDF72CFC94E80300282306F8203D00234A
:1032200089E80300324600931E2101234846FFF738
:10323000D7F80546002840F09B80484601233A46CF
:103240001E21FFF721F90546002840F0B1809DF8C6
:1032500028205B49132010ADFDF708FC94E803001B
:103260002A2305F8283D002387E803002A46009317
:103270001E2101233846FFF7B3F88146002870D19C
:103280003846012332461E21FFF7FEF8814600280A
:1032900040F087809DF820204A4913200DF1400915
:1032A000FDF7E4FB94E803002C2309F82C3D0023F0
:1032B00086E803004A4600931E2101233046FFF7AB
:1032C0008FF80746002846D1304601232A461E21A2
:1032D000FFF7DAF8074600285DD19DF818203A4933
:1032E0001320FDF7C3FB94E8030010AA2E2302F875
:1032F000303D002385E8030000931E21012328466A
:10330000FFF76EF8044600BB4A46284601231E21FB
:10331000FFF7BAF80446002837D19DF814202B494E
:103320001320FDF7A3FB2A491320FDF753FB40466A
:1033300011B0BDE8F0838046264902205FFA88F884
:10334000FDF748FB0DF130095EE722490220FDF749
:1033500041FBE2B2E3E71F490220FDF73BFBFAB273
:10336000BDE71C490220FDF735FB5FFA89F293E7C0
:1033700018490220FDF72EFBEAB26AE7164902203F
:103380005FFA88F8FDF726FB3EE713490220FDF7B8
:1033900021FBE2B2C3E710490220FDF71BFBFAB2A2
:1033A0009DE70D490220FDF715FB5FFA89F273E7EF
:1033B00009490220FDF70EFBEAB24AE76067000008
:1033C0007C67000098670000B4670000D0670000C9
:1033D000406A000098660000D06600002DE9F043C6
:1033E00093B002AC84E8030012AD94E803000F230D
:1033F00005F8103D0CAE002386E803002A46009332
:10340000304601231821FEF7EBFF002840F0D98059
:1034100010AF30463A4601231821FFF735F88046B1
:10342000002840F0F8809DF840808F4942461320E4
:10343000FDF71CFB94E803000DF12809002389E83F
:10344000030027260093484601232A4618218DF8B9
:103450003860FEF7C5FF0646002840F0D380484696
:1034600001233A461821FFF70FF80646002840F0DE
:10347000F1809DF840207D491320FDF7F7FA94E88C
:1034800003000DF12009002389E803002926009399
:10349000484601232A4618218DF83860FEF7A0FF20
:1034A0000646002840F0A880484601233A461821E5
:1034B000FEF7EAFF0646002840F0C6809DF840204F
:1034C0006B4952B21320FDF7D1FA94E803000DF1D5
:1034D0001809002389E803002B260093484601239E
:1034E0002A4618218DF83860FEF77AFF0646002834
:1034F0007CD1484601233A461821FEF7C5FF06460F
:10350000002840F09B809DF840605A4976B2132015
:103510003246FDF7ABFA012E4FF0000000F0A0801C
:10352000002E75DDFDF7B8FF0DF1480994E80300A2
:103530002D2309F8343D002387E803004A46009311
:10354000182101233846FEF74BFF0646002847D1D5
:10355000384601232A461821FEF796FF0646002822
:1035600066D19DF83820444952B21320FDF77EFA07
:1035700094E8030012AA0C2302F8383D002385E8E2
:1035800003000093182101232846FEF729FF044673
:1035900000BB4A46284601231821FEF775FF044662
:1035A00000283FD19DF81420344952B21320FDF772
:1035B0005DFA33491320FDF70DFA404613B0BDE81C
:1035C000F08380462F4902205FFA88F8FDF702FA5F
:1035D00010AF2AE72B490220FDF7FCF9E2B2E3E73E
:1035E00028490220FDF7F6F9F2B2BCE7254902208E
:1035F000FDF7F0F9F6B288E722490220FDF7EAF973
:10360000F2B25DE71F490220FDF7E4F9F2B232E7BA
:10361000FDF724FF88E71C4902205FFA88F8FDF7D0
:10362000D9F902E718490220FDF7D4F9E2B2BBE765
:1036300015490220FDF7CEF9F2B294E712490220B3
:10364000FDF7C8F9F6B260E70F490220FDF7C2F9AD
:10365000F2B235E70C490220FDF7BCF9F2B20AE7F5
:10366000FDF73AFF60E700BFEC6700000868000064
:1036700024680000406800005C6800007868000072
:10368000406A000098660000D06600002DE9F0470F
:10369000D6B002AC84E8030056AF94E80300892357
:1036A00007F8183D54AD002385E803003A4600931F
:1036B000284601237721FEF793FE002840F000857D
:1036C0000DF5A4782846424601237721FEF7DCFE5B
:1036D0008146002840F000869DF8489156AE94E857
:1036E0000300882306F8203D002388E803003246C3
:1036F0000093772101234046FEF772FE4FEA092925
:103700000546002840F0CC85404601233A46772103
:10371000FEF7BAFE0546002840F0D9869DF840E144
:10372000E34D0DF5AC7894E803008B2308F8283DB1
:10373000CE44002387E8030042460093772101230B
:103740003846A5F800E0FEF74BFE8146002840F021
:103750009F853846012332467721FEF795FE814644
:10376000002840F0AC869DF8389156AF94E80300ED
:103770008A2307F8303D002386E803003A46009389
:10378000772101233046FEF72BFE4FEA092A8146B6
:10379000002840F075853046012342467721FEF728
:1037A00073FE8146002840F082869DF8309156AE27
:1037B00094E803008D2306F8383DD144002388E8BF
:1037C0000300324600937721A5F80290012340467A
:1037D000FEF706FE8146002840F04A854046012358
:1037E0003A467721FEF750FE8146002840F0578682
:1037F0009DF828910DF5AC7894E803008C2308F827
:10380000403D002387E803004246009377210123CF
:103810003846FEF7E5FD4FEA092A8146002840F0C8
:103820001F853846012332467721FEF72DFE81465B
:10383000002840F02C869DF8209156AF94E80300B4
:103840008F2307F8483DD144002386E803003A4619
:1038500000937721A5F8049001233046FEF7C0FDC0
:103860008146002840F0F484304601234246772107
:10387000FEF70AFE8146002840F001869DF8189167
:1038800056AE94E803008E2306F8503D002388E8E6
:10389000030032460093772101234046FEF7A0FD46
:1038A0004FEA092A8146002840F0CA844046012395
:1038B0003A467721FEF7E8FD8146002840F0D7859B
:1038C0009DF810910DF5AC7894E80300912308F869
:1038D000583DD144002387E80300424600937721F6
:1038E000A5F8069001233846FEF77AFD81460028A8
:1038F00040F09E843846012332467721FEF7C4FD0E
:103900008146002840F0AB859DF8089156AF94E8B9
:103910000300902307F8603D002386E803003A4641
:103920000093772101233046FEF75AFD4FEA092A1A
:103930008146002840F074843046012342467721B6
:10394000FEF7A2FD8146002840F081859DF8009198
:1039500056AE94E80300932306F8683DD144002353
:1039600088E80300324600937721A5F808900123E8
:103970004046FEF735FD8146002840F04984404628
:1039800001233A467721FEF77FFD8146002840F06B
:1039900056859DF8F8900DF5AC7894E803009223D5
:1039A00008F8703D002387E8030042460093772122
:1039B00001233846FEF714FD4FEA092A8146002804
:1039C00040F01E843846012332467721FEF75CFD25
:1039D0008146002840F02B859DF8F09056AF94E882
:1039E0000300952307F8783DD144002386E80300BF
:1039F0003A4600937721A5F80A9001233046FEF756
:103A0000EFFC8146002840F0F48330460123424613
:103A10007721FEF739FD8146002840F000859DF8AA
:103A2000E89056AE94E80300942306F8803D002306
:103A300088E8030032460093772101234046FEF7D1
:103A4000CFFC4FEA092A8146002840F0CB8340464C
:103A500001233A467721FEF717FD8146002840F002
:103A6000D6849DF8E0900DF5AC7894E80300972398
:103A700008F8883DD144002387E8030042460093BC
:103A80007721A5F80C9001233846FEF7A9FC814662
:103A9000002840F0A0833846012332467721FEF704
:103AA000F3FC8146002840F0AA849DF8D89001E0FC
:103AB0001409002056AF94E80300962307F8903DC0
:103AC000002386E803003A4600937721012330461D
:103AD000FEF786FC4FEA092A8146002840F07483ED
:103AE0003046012342467721FEF7CEFC814600286E
:103AF00040F07D849DF8D09056AE94E80300992361
:103B000006F8983DD144002388E80300324600932C
:103B10007721A5F80E9001234046FEF761FC81460F
:103B2000002840F04A83404601233A467721FEF7B9
:103B3000ABFC8146002840F052849DF8C8900DF5FA
:103B4000AC7894E80300982308F8A03D002387E8A8
:103B5000030042460093772101233846FEF740FCDC
:103B60004FEA092A8146002840F020833846012385
:103B700032467721FEF788FC8146002840F02784F2
:103B80009DF8C09056AF94E803009B2307F8A83D2A
:103B9000D144002386E803003A4600937721A5F834
:103BA000109001233046FEF71BFC8146002840F0B0
:103BB000F6823046012342467721FEF765FC8146B6
:103BC000002840F0FC839DF8B89056AE94E80300BE
:103BD0009A2306F8B03D002388E80300324600939C
:103BE000772101234046FEF7FBFB4FEA092A814675
:103BF000002840F0CD82404601233A467721FEF767
:103C000043FC8146002840F0D3839DF8B0900DF529
:103C1000AC7894E803009D2308F8B83DD144002314
:103C200087E80300424600937721A5F8129001230C
:103C30003846FEF7D5FB8146002840F0A282384680
:103C4000012332467721FEF71FFC8146002840F011
:103C5000A8839DF8A89056AF94E803009C2307F82A
:103C6000C03D002386E803003A46009377210123F4
:103C70003046FEF7B5FB4FEA092A8146002840F09E
:103C800079823046012342467721FEF7FDFB8146CB
:103C9000002840F07F839DF8A09056AE94E8030082
:103CA0009F2306F8C83DD144002388E8030032462C
:103CB00000937721A5F8149001234046FEF790FB6E
:103CC0008146002840F04F82404601233A46772142
:103CD000FEF7DAFB8146002840F055839DF8989066
:103CE0000DF5AC7894E803009E2308F8D03D00233E
:103CF00087E8030042460093772101233846FEF708
:103D00006FFB4FEA092A8146002840F02582384699
:103D1000012332467721FEF7B7FB8146002840F0A9
:103D20002B839DF8909056AF94E80300A12307F8E9
:103D3000D83DD144002386E803003A46009377211A
:103D4000A5F8169001233046FEF74AFB814600286D
:103D500040F0FB813046012342467721FEF794FB79
:103D60008146002840F001839DF8889085F81890DE
:103D700056AE94E80300E22306F8E03D002388E80D
:103D8000030032460093772101234046FEF728FBCB
:103D90008246002840F0D281404601233A467721EE
:103DA000FEF772FB8246002840F0D8829DF880A082
:103DB0000DF5AC7894E80300E12308F8E83D002312
:103DC00087E8030042460093772101233846FEF737
:103DD00007FB4FEA0A2A8146002840F0A8813846AE
:103DE000012332467721FEF74FFB0746002840F0BB
:103DF000AF829DF878700DF5AC7994E80300E32369
:103E000009F8F03D5744002386E803004A46009332
:103E100077216F8301233046FEF7E2FA0746002838
:103E200040F07F813046012342467721FEF72CFB8C
:103E30000746002840F086829DF870702F7756AFB5
:103E400094E80300E42307F8F83D002388E8030022
:103E50003A460093772101234046FEF7C1FA064611
:103E6000002840F05881404601234A467721FEF75A
:103E70000BFB0646002840F05F829DF8686094E8DE
:103E800003000DF1580800234FF0E50E89E8030008
:103E90004246009377210123484688F800E0FEF768
:103EA0009FFA4FEA061A0646002840F02E8148463F
:103EB00001233A467721FEF7E7FA0646002840F04C
:103EC00035829DF8606094E803000DF1500906F01A
:103ED0000F06002356444FF0E60E87E803004A46DB
:103EE00000937721EE830123384689F800E0FEF73E
:103EF00077FA0646002840F0028138460123424600
:103F00007721FEF7C1FA0646002840F0098298F8AA
:103F1000006094E803000DF1480A0023E52788E8D3
:103F200003005246009377218AF80070012340462F
:103F3000FEF756FA36010746002840F0DA80404680
:103F400001234A467721FEF79FFA0746002840F0F2
:103F5000E18199F8003094E8030010AF06EB1316E6
:103F60004FF0000C4FF0E70E89E803003A46CDF819
:103F700000C001232E847721484687F800E0FEF731
:103F80002FFA0646002840F0AE80484601235246EC
:103F90007721FEF779FA0646002840F0B5819AF8B5
:103FA000006085F8226094E8030000258AE8030099
:103FB000F4218DF82410504609AA00950223772198
:103FC0008DF82550FEF70CFA002840F08081CA4E8B
:103FD000F378B57894E803009B0003F01C0343EAF0
:103FE0004515002387E803004FF0F50E009338468F
:103FF00008AA022377218DF821508DF820E0FEF7E2
:10400000EFF9002840F05E8194E80300B3790EAA2E
:1040100082E80300002703F007011046F2258DF81F
:104020001D10009707AA022377218DF81C50FEF778
:10403000D7F9002840F0418175787379327994E896
:10404000030005F003059B0045EA421503F01C033D
:104050000CAE4FF0000E86E803001D43F42706AABD
:104060003046CDF800E0022377218DF819508DF805
:104070001870FEF7B5F9002840F01A8194E80300A3
:104080000AAD002385E80300D0240093284605AA42
:10409000012377218DF81440FEF7A2F90446D0B928
:1040A00028460DF1170201237721FEF7EDF90446AA
:1040B000002840F019819DF8170056B0BDE8F08740
:1040C00081468E490220FCF785FC0DF5A4785FFA45
:1040D00089F9FFF703BB89490220FCF77BFCE0B2BA
:1040E00056B0BDE8F08785490220FCF773FCF6B2B4
:1040F00057E782490220FCF76DFCFBB22BE77F49B2
:104100000220FCF767FCF6B203E77C490220FCF7CB
:1041100061FCF6B2D7E679490220FCF75BFCF6B207
:10412000ADE676490220FCF755FCFFB286E67349FE
:104130000220FCF74FFC5FFA89F75CE66F4902202A
:10414000FCF748FC5FFA8AFA32E66C490220FCF779
:1041500041FC5FFA89F909E668490220FCF73AFC5C
:104160005FFA89F9DFE565490220FCF733FC5FFA65
:1041700089F9B5E561490220FCF72CFC5FFA89F961
:104180008BE55E490220FCF725FC5FFA89F962E5C0
:104190005A490220FCF71EFC5FFA89F937E55749B6
:1041A0000220FCF717FC5FFA89F90EE5534902205B
:1041B000FCF710FC5FFA89F9E4E450490220FCF7AF
:1041C00009FC5FFA89F9BAE44C490220FCF702FCC9
:1041D0005FFA89F990E449490220FCF7FBFB5FFA9A
:1041E00089F967E445490220FCF7F4FB5FFA89F995
:1041F00039E442490220FCF7EDFB5FFA89F910E44B
:104200003E490220FCF7E6FB5FFA89F9FFF7E6BBBF
:104210003A490220FCF7DEFB5FFA89F9FFF7BBBBE6
:1042200036490220FCF7D6FB5FFA89F9FFF790BB0D
:1042300032490220FCF7CEFB5FFA89F9FFF766BB33
:104240002E490220FCF7C6FB5FFA89F9FFF73ABB5B
:104250002A490220FCF7BEFB5FFA89F9FFF710BB81
:1042600026490220FCF7B6FB5FFA89F9FFF7E5BAA9
:1042700022490220FCF7AEFB5FFA89F9FFF7BABAD0
:104280001E490220FCF7A6FB5FFA89F9FFF78FBAF7
:104290001A490220FCF79EFB5FFA89F9FFF765BA1D
:1042A00016490220FCF796FB5FFA85FEFFF738BA45
:1042B00013490220FCF78EFBE0E611490220FCF7CF
:1042C00089FBB9E60E490220FCF784FB9CE60C4909
:1042D0000220FCF77FFB7AE60A490220FCF77AFB12
:1042E0005FFA89F9FFF7FAB906490220FCF772FB79
:1042F000E0B256B0BDE8F0873809002098660000AB
:1043000020660000D066000075490220FCF762FBC1
:10431000F6B246E672490220FCF75CFBFBB21AE6F5
:104320006F490220FCF756FBF6B2F2E56C49022019
:10433000FCF750FBF6B2C6E569490220FCF74AFBE0
:10434000F6B29CE566490220FCF744FBFFB275E536
:1043500063490220FCF73EFBFFB24CE560490220B6
:10436000FCF738FB5FFA8AFA22E55D490220FCF788
:1043700031FB5FFA89F9F9E459490220FCF72AFB7D
:104380005FFA89F9CFE456490220FCF723FB5FFA74
:1043900089F9A5E452490220FCF71CFB5FFA89F970
:1043A0007BE44F490220FCF715FB5FFA89F952E4E0
:1043B0004B490220FCF70EFB5FFA89F927E44849D4
:1043C0000220FCF707FB5FFA89F9FFF7FEBB4449BF
:1043D0000220FCF7FFFA5FFA89F9FFF7D3BB4049E7
:1043E0000220FCF7F7FA5FFA89F9FFF7A8BB3C490E
:1043F0000220FCF7EFFA5FFA89F9FFF77DBB384935
:104400000220FCF7E7FA5FFA89F9FFF753BB34495A
:104410000220FCF7DFFA5FFA89F9FFF724BB304985
:104420000220FCF7D7FA5FFA89F9FFF7FABA2C49AC
:104430000220FCF7CFFA5FFA89F9FFF7CFBA2849D3
:104440000220FCF7C7FA5FFA89F9FFF7A4BA2449FA
:104450000220FCF7BFFA5FFA89F9FFF779BA204921
:104460000220FCF7B7FA5FFA89F9FFF74FBA1C4947
:104470000220FCF7AFFA5FFA89F9FFF723BA18496F
:104480000220FCF7A7FA5FFA89F9FFF7F9B9144996
:104490000220FCF79FFA5FFA89F9FFF7CEB91049BD
:1044A0000220FCF797FA5FFA89F9FFF7A3B90C49E4
:1044B0000220FCF78FFA5FFA89F9FFF778B908490B
:1044C0000220FCF787FA5FFA89F9FFF74EB9044931
:1044D0000220FCF77FFA5FFA85FEFFF721B900BFE3
:1044E000D06600002DE9F04FF7B0FDF71BF8002073
:1044F000FCF754FA08B1FCF7ADFB0025524C75955A
:104500001B262B462A461A25729673954FF0CD66C8
:10451000022572A9204674968DF8D451FDF71CFD32
:10452000002800F08C80FCF795FB48491320FCF72D
:1045300051FAFCF7EFFA0028FBD1DFF814B10DF1C6
:1045400050090DF1800A0DF1F0084AAFFCF780FB2D
:10455000A0F10A036F2B00F29985DFE813F0A201A6
:1045600097059705A2019705970597059705970564
:10457000970597059705970597059705970597055B
:10458000970597059705970597059705970597054B
:10459000970597059705970597059705970597053B
:1045A000970597059705970597059705970597052B
:1045B000970597059705970597059705970597051B
:1045C000970597059705970597059705970597050B
:1045D00097059705970597059705970597059705FB
:1045E00097059705970597059705970597059705EB
:1045F00097059705970597059705970597059705DB
:10460000970597059705970597059705250497053D
:1046100097056F03FB029705970597056A029705B3
:1046200097059705970597052C0597059D0360024B
:104630007B00CD01AC019705B8019705B00120467C
:10464000FDF7AEFE71E700BF406500009468000012
:1046500038090020A2491320FCF7BCF994E80300B4
:104660005EAB83E80300FEF7A7FD5EAB93E80300B3
:10467000FEF7B4FE5EAB93E8030068AA62AB83E882
:10468000030082E80300012300200C258DF84C0074
:104690008DF84D00009304AA102168A88DF81050E1
:1046A000FDF79EFE0546002840F02885022313AA48
:1046B000102168A8FDF7E8FE0546002840F0DA85DD
:1046C0009DF84D209DF84C3043EA02228549132085
:1046D000FCF7CCF962AB93E8030066AA82E803001A
:1046E0000123002007258DF84C008DF84D00009324
:1046F00004AA102166A88DF81050FDF771FE05463A
:10470000002840F0F484022313AA102166A8FDF7C4
:10471000BBFE0546002840F015869DF84D209DF80B
:104720004C3043EA022270491320FCF79FF962AB38
:1047300093E8030064AA82E803000123002009250E
:104740008DF84C008DF84D00009304AA102164A848
:104750008DF81050FDF744FE0546002840F008850E
:10476000022313AA102164A8FDF78EFE0546002837
:1047700040F09C859DF84D209DF84C3043EA022284
:104780005A491320FCF772F959491320FCF722F912
:104790005EAB93E8030060AB83E80300002570ABD9
:1047A00083E8030004AA00950123532170A88DF823
:1047B0001050FDF715FE002840F0D484012313AA01
:1047C000532170A8FDF760FE002840F0698560ABBA
:1047D00093E803006EAA002382E8030013250093E8
:1047E00004AA012353216EA88DF81050FDF7F8FD9F
:1047F0000346002840F0AF84012313AA53216EA87A
:10480000FDF742FE0346002840F0AA859DF84C6063
:1048100060AB93E803006CAA002382E80300142530
:10482000009304AA012353216CA88DF81050FDF7C2
:10483000D7FD0546002840F08784012313AA5321A1
:104840006CA8FDF721FE0546002840F082859DF802
:104850004C5060AB93E803006AAA002382E803008F
:104860004FF0150E009304AA012353216AA88DF876
:1048700010E0FDF7B5FD002840F08184012313AA64
:1048800053216AA8FDF700FE002840F0FA849DF845
:104890004C2018492B0243EA06431A431320FCF725
:1048A000E5F8FCF737F900283FF450AEFCF732F991
:1048B0000028F6D14AE694E80300FEF759FB0020F1
:1048C000FCF70AFEFCF726F90028EFD13EE694E853
:1048D0000300FEF771FCFCF71DF90028E6D135E670
:1048E000446A0000486900006069000078690000BF
:1048F000406A00009069000094E803002AAB30AAE7
:1049000083E8030082E80300012300200C258DF8D2
:104910004C008DF84D00009304AA102130A88DF8AA
:104920001050FDF75DFD0546002840F03E8402234F
:1049300013AA102130A8FDF7A7FD0546002840F076
:10494000C3849DF84D209DF84C3043EA0222CA49A9
:104950001320FCF78BF82AAB93E803002EAA82E819
:1049600003000123002007258DF84C008DF84D0031
:10497000009304AA10212EA88DF81050FDF730FDE9
:104980000546002840F00A84022313AA10212EA80D
:10499000FDF77AFD0546002840F08F849DF84D20F4
:1049A0009DF84C3043EA0222B4491320FCF75EF82C
:1049B0002AAB93E803002CAA82E80300012300201D
:1049C00009258DF84C008DF84D00009304AA1021A4
:1049D0002CA88DF81050FDF703FD0546002840F087
:1049E0006183022313AA10212CA8FDF74DFD054673
:1049F000002840F082849DF84D209DF84C3043EA19
:104A000002229F491320FCF731F89E491320FBF73F
:104A1000E1FFFCF77FF800287FF448AF96E594E8C3
:104A20000300FEF791F9FCF775F800287FF43EAF1C
:104A30008CE594E8030032AB83E8030000253AAB31
:104A400083E8030004AA0095012353213AA88DF8B6
:104A50001050FDF7C5FC002840F07183012313AA14
:104A600053213AA8FDF710FD002840F0878432ABAF
:104A700093E8030038AA002382E80300132500937B
:104A800004AA0123532138A88DF81050FDF7A8FC83
:104A90000546002840F04D83012313AA532138A86E
:104AA000FDF7F2FC0546002840F061849DF84C506B
:104AB00032AB93E8030036AA002382E803001426F1
:104AC000009304AA0123532136A88DF81060FDF746
:104AD00087FC0346002840F02683012313AA5321B4
:104AE00036A8FDF7D1FC0346002840F01F849DF84E
:104AF0004C6032AB93E8030034AA002382E8030041
:104B00004FF0150E009304AA0123532134A88DF809
:104B100010E0FDF765FC002840F0FD82012313AA98
:104B2000532134A8FDF7B0FC002840F0F7839DF82E
:104B30004C2055492B0443EA06231A431320FBF764
:104B400095FF0020FCF7C8FCFBF7E4FF00287FF48A
:104B5000ADAEFBE494E8030028AA82E803008AE8EB
:104B6000030000232020009317258DF82C0002233A
:104B70000BAA182128A88DF82D50FDF731FC00282C
:104B800040F05F839AE8030026AA82E8030000232E
:104B90001F200093C0258DF8280002230AAA18219F
:104BA00026A88DF82950FDF71BFC002840F044830F
:104BB0009AE80300002524AB83E803002326009530
:104BC000022309AA182124A88DF825508DF8246005
:104BD000FDF706FC002840F02A839AE80300002332
:104BE00022AA82E803000F25009304AA01231821BA
:104BF00022A88DF81050FDF7F3FB0546002840F081
:104C00008482012313AA182122A8FDF73DFC054642
:104C1000002840F06C839DF84C20332A0CBF1B49C0
:104C20001B491320FBF722FF94E80300FEF7D6FB95
:104C3000FBF770FF00287FF439AE87E494E80300A7
:104C400072AB83E8030000238BF801308BF804304B
:104C50008BF805308BF80630FEF718FD602800F061
:104C6000B78202460B491320FBF700FFFBF752FF08
:104C700000287FF41BAE69E4486900006069000009
:104C800078690000406A000090690000FC6800003C
:104C90001C690000206A000094E803001EAA82E854
:104CA000030089E80300002320200093F0250DEB8A
:104CB00000028DF8200002231E211EA88DF821502D
:104CC000FDF78EFB002840F0D08299E80300002514
:104CD0001CAB83E8030022260095022307AA1E21AD
:104CE0001CA88DF81D508DF81C60FDF779FB00287D
:104CF00040F0B68299E803001AAA82E80300002374
:104D0000232000930E258DF81800022306AA1E21E9
:104D10001AA88DF81950FDF763FB002840F09B821C
:104D200099E8030018AA82E80300002324200093D6
:104D3000C0258DF81400022305AA1E2118A88DF89D
:104D40001550FDF74DFB002840F0808299E80300E4
:104D5000002316AA82E803000F25009304AA01236A
:104D60001E2116A88DF81050FDF73AFB05460028C5
:104D700040F00E82012313AA1E2116A8FDF784FB22
:104D80000546002840F086829DF84C203D2A0CBF45
:104D9000C749C8491320FBF769FEFBF7BBFE002893
:104DA0007FF484ADFFF7D2BBC3491320FBF712FE9B
:104DB00094E8030044AB54AA83E8030082E80300AC
:104DC00087E80300002320200093F0258DF83C00A5
:104DD00002230FAA1E2154A88DF83D50FDF700FBB9
:104DE000002840F01F8297E80300002552AB83E8BB
:104DF00003002226009502230EAA1E2152A88DF838
:104E000039508DF83860FDF7EBFA002840F0058244
:104E100097E8030050AA82E80300002323200093B0
:104E20000E258DF8340002230DAA1E2150A88DF8FE
:104E30003550FDF7D5FA002840F0EA8197E80300E5
:104E40004EAA82E80300002324200093C0258DF899
:104E5000300002230CAA1E214EA88DF83150FDF718
:104E6000BFFA002840F0CF8197E8030000234CAA46
:104E700082E803000F25009304AA01231E214CA8F9
:104E80008DF81050FDF7ACFA0546002840F09A81E5
:104E9000012313AA1E214CA8FDF7F6FA05460028A7
:104EA00040F01F829DF84C203D2A0CBF804981496B
:104EB0001320FBF7DBFD44AB93E803005CAA48AB8F
:104EC00083E8030082E803000023202000931725D5
:104ED0008DF84800022312AA18215CA88DF84950C9
:104EE000FDF77EFA002840F0898148AB93E8030083
:104EF0005AAA82E8030000231F200093C0258DF8E2
:104F00004400022311AA18215AA88DF84550FDF734
:104F100067FA002840F06D8148AB93E80300002554
:104F200058AB83E8030023260095022310AA18211A
:104F300058A88DF841508DF84060FDF751FA0028CF
:104F400040F0528148AB93E8030056AA002382E860
:104F500003000F25009304AA0123182156A88DF8F9
:104F60001050FDF73DFA0546002840F02581012349
:104F700013AA182156A8FDF787FA0546002840F025
:104F8000AA819DF84C20332A0CBF4C494C49132070
:104F9000FBF76CFD44AB93E80300FDF7D5FE44AB93
:104FA00093E80300FDF7E4FF94E8030046AB83E8D1
:104FB0000300002348E643490220FBF70BFD94E879
:104FC0000300002342AA82E8030088E80300C0250A
:104FD000009304AA0123292142A88DF81050FDF75F
:104FE000FFF900287ED1012313AA292142A8FDF749
:104FF0004BFA002840F0A18198E80300002340AA62
:1050000082E80300C125009304AA0123292140A8B6
:105010008DF81050FDF7E4F900285ED1012313AAA2
:10502000292140A8FDF730FA002840F0728198E865
:10503000030000233EAA82E80300C225009304AACD
:10504000012329213EA88DF81050FDF7C9F9002849
:105050003ED1012313AA29213EA8FDF715FA002805
:1050600040F05281512298E80300FDF717FE6122BB
:1050700098E80300FDF712FE0020FCF72DFAFBF77D
:1050800049FD00287FF412ACFFF760BA02460E49D2
:105090001320FBF7EBFCFBF73DFD00287FF406AC8B
:1050A000FFF754BA09490220FBF794FCEAB2A8E4DE
:1050B000B0680000D0680000DC690000FC680000F7
:1050C0001C690000AC690000646A000048650000CB
:1050D000AD490220FBF77EFCC4E7AB490220FBF799
:1050E00079FCA4E7A8490220FBF774FC84E7A749F0
:1050F0000220FBF76FFCEAB2FFF715BBA3490220C1
:10510000FBF768FCEAB2FFF7E1BA9F490220FBF720
:1051100061FCEAB281E503909B490220FBF75AFC4F
:10512000039BDAB205E598490220DEB2FBF752FC98
:10513000DFE495490220EDB2FBF74CFCB8E492495C
:105140000220FBF747FC92E48F490220EDB2FBF707
:1051500041FCFFF77EBB8C490220DEB2FBF73AFC34
:10516000FFF756BB88490220FBF734FCFFF72FBB43
:1051700086490220FBF72EFCEAB2FFF701BB039041
:1051800081490220FBF726FC039BDAB2FFF781BBC3
:105190007D490220FBF71EFCEAB2F7E57B490220BD
:1051A000FBF718FCEAB2FFF7FFBB78490220FBF7D8
:1051B00011FCEAB2FFF7CBBB73490220FBF70AFCF4
:1051C000EAB2E0E670490220FBF704FCEAB26BE6C3
:1051D00060226F491320FBF749FCFBF79BFC00287A
:1051E0007FF464ABFFF7B2B96A490220FBF7F2FB28
:1051F000A8E668490220FBF7EDFB8DE66549022031
:10520000FBF7E8FB71E663490220FBF7E3FB2BE6C3
:1052100060490220FBF7DEFB10E65E490220FBF747
:10522000D9FBF5E55B490220FBF7D4FBDBE55949E7
:105230000220FBF7CFFBD0E456490220FBF7CAFB64
:10524000B6E454490220FBF7C5FB9BE45149022018
:10525000FBF7C0FB7AE54F490220FBF7BBFB5FE59C
:105260004C490220FBF7B6FB44E54A490220FBF714
:10527000B1FB2AE548490220FBF7ACFBEAB2FFF795
:1052800025BA039045490220FBF7A4FB039BDAB241
:10529000FFF7FFBA41490220FBF79CFBEAB275E534
:1052A0003E490220FBF796FBFFF791BA3A490220EC
:1052B000FBF790FBEAB2FFF763BA37490220FBF72E
:1052C00089FBEAB2FFF770BB33490220FBF782FB90
:1052D000EAB2FFF73CBB31490220FBF77BFBEAB2A5
:1052E00051E62E490220FBF775FBEAB2DCE52B49BB
:1052F0000220FBF76FFBEAB28FE427490220FBF79D
:1053000069FBEAB2FFF77DBB24490220FBF762FB91
:10531000A8E622490220FBF75DFB88E603901F49BF
:105320000220FBF757FB039BDAB202E41B49022081
:10533000DEB2FBF74FFBFFF7DCBB18490220FBF79F
:1053400049FB59E614490220FBF744FBEAB2FFF798
:10535000EAB912490220EDB2FBF73CFBFFF779BA3C
:105360000E490220DEB2FBF735FBFFF751BA0B49BD
:105370000220EDB2FBF72EFBFFF79ABB0749022094
:10538000FBF728FBFFF773BB986600004865000039
:10539000046A00002066000080650000D0660000FE
:1053A0002DE9F84F4300DFF870A11E180AEBC6067E
:1053B0008846F16A0129174641D031D3022939D1F3
:1053C000013000EB4000756A4FEAC0094FF0000B56
:1053D0001CE0326A641BBC420AEB09012346A2EBC3
:1053E000050428BF3B469C42486828BF1C46284409
:1053F0004146224600F012FB336A25449D4208BF15
:1054000000253F1BA344A044756215D0B36AAB428C
:1054100003F1FF34DDD8326A1344013B5C1BDAE749
:10542000B16A726A91429CBF346A091901398A1AB9
:10543000974236D94FF0000B5846BDE8F88FB16A55
:10544000756AA94227D90139326AC5EB010B0344B9
:105450000AEBC30ABB45DAF824502F4B28BFBB46E2
:10546000561B0130B34500EB40003BD303EBC004B7
:105470003246606841462844C6EB0B0500F0CEFA80
:10548000606808EB06012A4600F0C8FACAF8245002
:105490005846BDE8F88F326A8C18013CC5EB040B06
:1054A000D5E703440AEBC30A0130DAF82460DAF8DE
:1054B0002040194BA41BA74200EB40001ED303EB76
:1054C000C00522466868414630443E1B00F0A6FAFB
:1054D000686808EB0401324600F0A0FABB46CAF83F
:1054E0002460A9E703EBC003414658685A462844A4
:1054F0005D4400F093FACAF824509DE703EBC00323
:10550000414658683A4630443E4400F087FABB466C
:10551000CAF8246090E700BF440900202DE9F04755
:10552000404EDFF81481DFF8149182B03546002335
:1055300018460193FBF750FF3378002B48D0B46D29
:10554000776DBC421CD804D10020019BFBF75EFFA5
:10555000EDE74FF0010A0DF10300F16C0122214447
:10556000013400F05BFAB4650020019BFBF74EFFAD
:10557000BAF1010FDBD19DF8030002B0BDE8F0875E
:105580002B6DE96CC4EB030ABAF1010F28BF4FF091
:10559000010A214452460DF1030000F03FFA2B6D41
:1055A00054449C4208BF00243F1BCAF10100B8428A
:1055B00028BF384600282DD1BAF1000FC4D0B465F9
:1055C000019BFBF723FF9DF8030002B0BDE8F087C5
:1055D0004FF4007E144FAB6210246B620222AB6565
:1055E000EB626B65EB651149C5F820E01048C5F822
:1055F0001880C5F81C90C5F84880EF642C652A61B6
:105600006A6100F049FA0B49064800F045FA202388
:10561000AB7194E70DF1030303EB0A000AF1010AF1
:105620009BE700BF44090020F0060020946A0000B8
:105630004B090020986A0000886A000000070020DB
:10564000F8B5114C2378F3B9A362104A63620220C3
:10565000A365E362E36563650D4F0E4D0E4920615E
:1056600010234FF4007623656061A261A264E01DFF
:10567000E7612662E56400F00FFA0849204600F071
:105680000BFA2023A371F8BD44090020886A0000AA
:1056900000070020F0060020946A0000986A0000CD
:1056A0000649074A074B9B1A03DD043BC858D050F4
:1056B000FBDC00F013F8FAF7D1FE0000EC6B000001
:1056C00000000020E0010020FEE7FEE7FEE7FEE725
:1056D000FEE7FEE7FEE7FEE7FEE7FEE7F0B4A64BD7
:1056E0001B78062B1BD0A54AD2F8883043F47003F0
:1056F000C2F88830BFF34F8FBFF36F8F4FF0102386
:10570000D3F80022002AC0F20581D3F80432002B1E
:10571000C0F200819A4B9B4A1A60F0BC70479A4BCA
:105720001B681E07DFD1994B1B6803F0F003302B79
:1057300002D1974B974A1A60944B1B6803F0F00212
:10574000302A00F0D68003F0E003402B00F0D18037
:105750008E4B1B6803F0F003302B00F0BB808B4BAB
:105760001B6803F0F002302A00F0A08003F0E00391
:10577000402B00F09B80854B1B6803F0F003302B1F
:1057800000F08680814B1B6803F0F003302B68D05B
:105790007E4B1B6803F0F003502B10D07B4B1B6833
:1057A00003F0F002302A03D003F0E003402B9AD13B
:1057B000794B7A4A1B6803F04F03136093E74FF06D
:1057C0008052774BD2F80414C3F82015D2F808148D
:1057D000C3F82415D2F80C14C3F82815D2F8101405
:1057E000C3F82C15D2F81414C3F83015D2F81814D5
:1057F000C3F83415D2F81C14C3F84015D2F820149D
:10580000C3F84415D2F82414C3F84815D2F8281464
:10581000C3F84C15D2F82C14C3F85015D2F8301434
:10582000C3F85415D2F83414C3F86015D2F83814FC
:10583000C3F86415D2F83C14C3F86815D2F84014C4
:10584000C3F86C15D2F844244B49C3F870250A7884
:10585000062A7FF448AF4C4B1B681B077FF443AF0D
:105860009CE7454B4F491B784F4D5048504A052700
:105870000F60012600243F21062B2E60046011607A
:105880007FF431AF404B1B681A077FF42CAF7FE7E2
:10589000394B484A1B780321062B11607FF423AF54
:1058A000394B1B6819077FF41EAF6BE7324B1B782F
:1058B0004FF080420021062BC2F80C11C2F81011E3
:1058C000C2F838157FF40FAF2F4B1B6818077FF411
:1058D0000AAF50E73849284ACB68127823F0807322
:1058E000062ACB60B4D1284B1B681C077FF4FBAEA3
:1058F00035E7324A204B12681B783149C2F34232F5
:10590000062B0A607FF4EFAE1F4B1B681D077FF468
:10591000EAAE1DE72B4B0122C3F80425D3F800247F
:10592000002AFBD04FF0102315222649C3F800228D
:10593000D1F80034002BFBD04FF010231522214961
:10594000C3F80422D1F800241E4B002AFAD000220A
:10595000C3F80425D3F80024002AFBD0BFF34F8FEF
:105960000649194BCA6802F4E0621343CB60BFF3E7
:105970004F8F00BFFDE700BFE00F00F000ED00E03B
:10598000640000200090D003E40F00F0E80F00F066
:1059900074C007400DF0ADBA58020010E40E00408C
:1059A00000C0004010560040885600401856004085
:1059B00014560040A0050040F0ED00E04402001045
:1059C0003C05004000E001400400FA05034B1B6861
:1059D000186A034B002808BF184670476000002073
:1059E0006800002008B5034B1868FFF7EFFFD0F8F8
:1059F000EC0008BD6000002082B001B901A93AB1F5
:105A000043B113780B601278101C18BF012003E01B
:105A1000104601E06FF0010002B0704710B5431E60
:105A20000A44914204D011F8014B03F8014FF8E702
:105A300010BD00000CB430B5164B0C1E9DB01D6897
:105A400004DA8B232B604FF0FF301EE04FF402731B
:105A5000ADF8143014BF04F1FF33234604930793C9
:105A60004FF6FF7302900690ADF81630209A21ABE6
:105A700002A92846019300F085F8431CBCBF8B2384
:105A80002B6014B1029B00221A701DB0BDE830409B
:105A900002B0704760000020034611F8012B03F8A4
:105AA000012B002AF9D17047034613F8012B002A75
:105AB000FBD1181A0138704749B1FF2A85BF8A23E4
:105AC00003600A704FF0FF3098BF0120704708460E
:105AD00070472DE9F0478E689E4282460C469146FB
:105AE00098463ED88A8912F4906F3AD025680969A1
:105AF0006F1A6569022305EB450595FBF3F57B1CE1
:105B000043449D4238BF1D4653050FD5294600F03A
:105B100089FB064698B13A462169FFF77FFFA389C2
:105B200023F4906343F08003A38113E02A4600F03E
:105B3000D7FB064670B92169504600F025FB0C23BF
:105B4000CAF80030A38943F04003A3814FF0FF302F
:105B5000BDE8F087266165613E44ED1B2660A560C7
:105B60004646464528BF464632464946206800F02C
:105B7000EFFAA3689B1BA36023681E4426600020E5
:105B8000BDE8F0872DE9F04F9DB0804603938B89E7
:105B90001C060D4616460DD50B695BB9402100F079
:105BA00041FB2860286118B90C23C8F80030CDE00B
:105BB00040236B610023099320238DF82930DFF8FF
:105BC0009CB130238DF82A3037463C4614F8013B0F
:105BD0001BB9B7EB060910D003E0252BF9D02746F7
:105BE000F3E74B46324629464046FFF772FF013045
:105BF00000F0A780099B4B4409933B78002B00F0F1
:105C0000A08000234FF0FF32049307930592069380
:105C10008DF853301A930126052221784E4800F062
:105C200047FA671C049B38B14B4A801A06FA00F009
:105C3000184304903C46EFE7D90644BF20228DF874
:105C400053201A0744BF2B228DF8532022782A2A8A
:105C500003D0079A00210A200BE0039A111D126855
:105C60000391002A10DA524243F002000792049096
:105C70000BE0274601343B78303B092B03D800FB6F
:105C800002320121F5E701B107923B782E2B1ED19C
:105C90007B782A2B0AD1039B1A1D1B680392002BC9
:105CA000B8BF4FF0FF330237059310E00023059390
:105CB000781C19460A24074601303A78303A092AF6
:105CC00003D804FB01210123F5E703B10591032269
:105CD0003978224800F0ECF940B14023CBEB0000CA
:105CE00003FA00F0049B18430490013739781C48EC
:105CF0008DF8281006227E1C00F0DAF988B1194BC5
:105D000033B9039B073323F007030833039314E0ED
:105D100003AB00932A46144B04A94046AFF300801E
:105D200007E003AB00932A460F4B04A9404600F05E
:105D300093F8B0F1FF3F824603D0099B5344099387
:105D400042E7AB895B0601D4099801E04FF0FF30D0
:105D50001DB0BDE8F08F00BFAB6B0000B16B000061
:105D6000B56B000000000000D35A00002DE9F04799
:105D700091461F460A698B68DDF820809342B8BFC0
:105D80001346C9F8003091F8432006460C4612B17C
:105D90000133C9F800302368990642BFD9F80030B2
:105DA0000233C9F80030256815F0060510D104F15A
:105DB000190A07E00123524639463046C0470130F0
